{"contracts/PoolFactory.sol":{"PoolFactory":{"abi":[{"inputs":[],"stateMutability":"nonpayable","type":"constructor"},{"anonymous":false,"inputs":[{"indexed":true,"internalType":"address","name":"previousPool","type":"address"},{"indexed":true,"internalType":"address","name":"newPool","type":"address"}],"name":"ActivePoolChanged","type":"event"},{"anonymous":false,"inputs":[{"indexed":true,"internalType":"address","name":"poolAddress","type":"address"},{"indexed":false,"internalType":"address[]","name":"assets","type":"address[]"},{"indexed":false,"internalType":"uint256","name":"fee","type":"uint256"},{"indexed":false,"internalType":"uint256","name":"initialPrice","type":"uint256"},{"indexed":false,"internalType":"string","name":"kernelType","type":"string"}],"name":"PoolCreated","type":"event"},{"inputs":[],"name":"activePool","outputs":[{"internalType":"address","name":"","type":"address"}],"stateMutability":"view","type":"function"},{"inputs":[{"internalType":"address[]","name":"_assets","type":"address[]"},{"internalType":"uint256","name":"_fee","type":"uint256"},{"internalType":"uint256","name":"_initialPrice","type":"uint256"},{"internalType":"string","name":"_kernelType","type":"string"}],"name":"createPool","outputs":[],"stateMutability":"nonpayable","type":"function"},{"inputs":[],"name":"getPools","outputs":[{"internalType":"address[]","name":"","type":"address[]"}],"stateMutability":"view","type":"function"},{"inputs":[{"internalType":"address","name":"","type":"address"}],"name":"isPool","outputs":[{"internalType":"bool","name":"","type":"bool"}],"stateMutability":"view","type":"function"},{"inputs":[],"name":"owner","outputs":[{"internalType":"address","name":"","type":"address"}],"stateMutability":"view","type":"function"},{"inputs":[{"internalType":"uint256","name":"","type":"uint256"}],"name":"pools","outputs":[{"internalType":"address","name":"","type":"address"}],"stateMutability":"view","type":"function"},{"inputs":[{"internalType":"address","name":"_pool","type":"address"}],"name":"setActivePool","outputs":[],"stateMutability":"nonpayable","type":"function"},{"inputs":[{"internalType":"address","name":"newOwner","type":"address"}],"name":"transferOwnership","outputs":[],"stateMutability":"nonpayable","type":"function"}],"evm":{"bytecode":{"linkReferences":{},"object":"608060405234801561001057600080fd5b50336000806101000a81548173ffffffffffffffffffffffffffffffffffffffff021916908373ffffffffffffffffffffffffffffffffffffffff160217905550613edd806100606000396000f3fe60806040523480156200001157600080fd5b5060043610620000945760003560e01c806398c122b1116200006357806398c122b11462000135578063ac4afa381462000155578063f2fde38b146200018b578063f7883a8b14620001ab5762000094565b80635b16ebb71462000099578063673a2a1f14620000cf5780637f7dde4a14620000f15780638da5cb5b1462000113575b600080fd5b620000b76004803603810190620000b19190620009a6565b620001cb565b604051620000c69190620009f5565b60405180910390f35b620000d9620001eb565b604051620000e8919062000ae0565b60405180910390f35b620000fb6200027b565b6040516200010a919062000b15565b60405180910390f35b6200011d620002a1565b6040516200012c919062000b15565b60405180910390f35b6200015360048036038101906200014d919062000d46565b620002c5565b005b6200017360048036038101906200016d919062000dfb565b6200050c565b60405162000182919062000b15565b60405180910390f35b620001a96004803603810190620001a39190620009a6565b6200054c565b005b620001c96004803603810190620001c39190620009a6565b62000692565b005b60036020528060005260406000206000915054906101000a900460ff1681565b606060018054806020026020016040519081016040528092919081815260200182805480156200027157602002820191906000526020600020905b8160009054906101000a900473ffffffffffffffffffffffffffffffffffffffff1673ffffffffffffffffffffffffffffffffffffffff168152602001906001019080831162000226575b5050505050905090565b600260009054906101000a900473ffffffffffffffffffffffffffffffffffffffff1681565b60008054906101000a900473ffffffffffffffffffffffffffffffffffffffff1681565b6000338686868686604051620002db906200091f565b620002ec9695949392919062000e91565b604051809103906000f08015801562000309573d6000803e3d6000fd5b5090506001819080600181540180825580915050600190039060005260206000200160009091909190916101000a81548173ffffffffffffffffffffffffffffffffffffffff021916908373ffffffffffffffffffffffffffffffffffffffff1602179055506001600360008373ffffffffffffffffffffffffffffffffffffffff1673ffffffffffffffffffffffffffffffffffffffff16815260200190815260200160002060006101000a81548160ff0219169083151502179055506000600260009054906101000a900473ffffffffffffffffffffffffffffffffffffffff16905081600260006101000a81548173ffffffffffffffffffffffffffffffffffffffff021916908373ffffffffffffffffffffffffffffffffffffffff160217905550600260009054906101000a900473ffffffffffffffffffffffffffffffffffffffff1673ffffffffffffffffffffffffffffffffffffffff168173ffffffffffffffffffffffffffffffffffffffff167fff74c5c75faa2302724c76e49b3e87d8bc806b4ac8c6bc207652848e7451383260405160405180910390a38173ffffffffffffffffffffffffffffffffffffffff167feb571a396a8b3230817b100d8539b4ead758eace899b6f322d5f2110f6a5aadb8888888888604051620004fb95949392919062000efe565b60405180910390a250505050505050565b600181815481106200051d57600080fd5b906000526020600020016000915054906101000a900473ffffffffffffffffffffffffffffffffffffffff1681565b60008054906101000a900473ffffffffffffffffffffffffffffffffffffffff1673ffffffffffffffffffffffffffffffffffffffff163373ffffffffffffffffffffffffffffffffffffffff1614620005dd576040517f08c379a0000000000000000000000000000000000000000000000000000000008152600401620005d49062000fd1565b60405180910390fd5b600073ffffffffffffffffffffffffffffffffffffffff168173ffffffffffffffffffffffffffffffffffffffff16036200064f576040517f08c379a0000000000000000000000000000000000000000000000000000000008152600401620006469062001043565b60405180910390fd5b806000806101000a81548173ffffffffffffffffffffffffffffffffffffffff021916908373ffffffffffffffffffffffffffffffffffffffff16021790555050565b600360008273ffffffffffffffffffffffffffffffffffffffff1673ffffffffffffffffffffffffffffffffffffffff16815260200190815260200160002060009054906101000a900460ff1662000721576040517f08c379a00000000000000000000000000000000000000000000000000000000081526004016200071890620010b5565b60405180910390fd5b600073ffffffffffffffffffffffffffffffffffffffff16600260009054906101000a900473ffffffffffffffffffffffffffffffffffffffff1673ffffffffffffffffffffffffffffffffffffffff1614620007fd57600260009054906101000a900473ffffffffffffffffffffffffffffffffffffffff1673ffffffffffffffffffffffffffffffffffffffff166351b42b006040518163ffffffff1660e01b8152600401600060405180830381600087803b158015620007e357600080fd5b505af1158015620007f8573d6000803e3d6000fd5b505050505b80600260006101000a81548173ffffffffffffffffffffffffffffffffffffffff021916908373ffffffffffffffffffffffffffffffffffffffff1602179055508073ffffffffffffffffffffffffffffffffffffffff16630f15f4c06040518163ffffffff1660e01b8152600401600060405180830381600087803b1580156200088757600080fd5b505af11580156200089c573d6000803e3d6000fd5b505050508073ffffffffffffffffffffffffffffffffffffffff16600260009054906101000a900473ffffffffffffffffffffffffffffffffffffffff1673ffffffffffffffffffffffffffffffffffffffff167fff74c5c75faa2302724c76e49b3e87d8bc806b4ac8c6bc207652848e7451383260405160405180910390a350565b612dd080620010d883390190565b6000604051905090565b600080fd5b600080fd5b600073ffffffffffffffffffffffffffffffffffffffff82169050919050565b60006200096e8262000941565b9050919050565b620009808162000961565b81146200098c57600080fd5b50565b600081359050620009a08162000975565b92915050565b600060208284031215620009bf57620009be62000937565b5b6000620009cf848285016200098f565b91505092915050565b60008115159050919050565b620009ef81620009d8565b82525050565b600060208201905062000a0c6000830184620009e4565b92915050565b600081519050919050565b600082825260208201905092915050565b6000819050602082019050919050565b62000a498162000961565b82525050565b600062000a5d838362000a3e565b60208301905092915050565b6000602082019050919050565b600062000a838262000a12565b62000a8f818562000a1d565b935062000a9c8362000a2e565b8060005b8381101562000ad357815162000ab7888262000a4f565b975062000ac48362000a69565b92505060018101905062000aa0565b5085935050505092915050565b6000602082019050818103600083015262000afc818462000a76565b905092915050565b62000b0f8162000961565b82525050565b600060208201905062000b2c600083018462000b04565b92915050565b600080fd5b6000601f19601f8301169050919050565b7f4e487b7100000000000000000000000000000000000000000000000000000000600052604160045260246000fd5b62000b828262000b37565b810181811067ffffffffffffffff8211171562000ba45762000ba362000b48565b5b80604052505050565b600062000bb96200092d565b905062000bc7828262000b77565b919050565b600067ffffffffffffffff82111562000bea5762000be962000b48565b5b602082029050602081019050919050565b600080fd5b600062000c1762000c118462000bcc565b62000bad565b9050808382526020820190506020840283018581111562000c3d5762000c3c62000bfb565b5b835b8181101562000c6a578062000c5588826200098f565b84526020840193505060208101905062000c3f565b5050509392505050565b600082601f83011262000c8c5762000c8b62000b32565b5b813562000c9e84826020860162000c00565b91505092915050565b6000819050919050565b62000cbc8162000ca7565b811462000cc857600080fd5b50565b60008135905062000cdc8162000cb1565b92915050565b600080fd5b60008083601f84011262000d005762000cff62000b32565b5b8235905067ffffffffffffffff81111562000d205762000d1f62000ce2565b5b60208301915083600182028301111562000d3f5762000d3e62000bfb565b5b9250929050565b60008060008060006080868803121562000d655762000d6462000937565b5b600086013567ffffffffffffffff81111562000d865762000d856200093c565b5b62000d948882890162000c74565b955050602062000da78882890162000ccb565b945050604062000dba8882890162000ccb565b935050606086013567ffffffffffffffff81111562000dde5762000ddd6200093c565b5b62000dec8882890162000ce7565b92509250509295509295909350565b60006020828403121562000e145762000e1362000937565b5b600062000e248482850162000ccb565b91505092915050565b62000e388162000ca7565b82525050565b600082825260208201905092915050565b82818337600083830152505050565b600062000e6c838562000e3e565b935062000e7b83858462000e4f565b62000e868362000b37565b840190509392505050565b600060a08201905062000ea8600083018962000b04565b818103602083015262000ebc818862000a76565b905062000ecd604083018762000e2d565b62000edc606083018662000e2d565b818103608083015262000ef181848662000e5e565b9050979650505050505050565b6000608082019050818103600083015262000f1a818862000a76565b905062000f2b602083018762000e2d565b62000f3a604083018662000e2d565b818103606083015262000f4f81848662000e5e565b90509695505050505050565b7f4f6e6c79206f776e65722063616e2063616c6c20746869732066756e6374696f60008201527f6e00000000000000000000000000000000000000000000000000000000000000602082015250565b600062000fb960218362000e3e565b915062000fc68262000f5b565b604082019050919050565b6000602082019050818103600083015262000fec8162000faa565b9050919050565b7f4e6577206f776e657220697320746865207a65726f2061646472657373000000600082015250565b60006200102b601d8362000e3e565b9150620010388262000ff3565b602082019050919050565b600060208201905081810360008301526200105e816200101c565b9050919050565b7f4e6f74206120706f6f6c00000000000000000000000000000000000000000000600082015250565b60006200109d600a8362000e3e565b9150620010aa8262001065565b602082019050919050565b60006020820190508181036000830152620010d0816200108e565b905091905056fe60806040523480156200001157600080fd5b5060405162002dd038038062002dd0833981810160405281019062000037919062000477565b846000806101000a81548173ffffffffffffffffffffffffffffffffffffffff021916908373ffffffffffffffffffffffffffffffffffffffff16021790555083600190805190602001906200008f929190620000bb565b5082600281905550816003819055508060049081620000af91906200077e565b50505050505062000865565b82805482825590600052602060002090810192821562000137579160200282015b82811115620001365782518260006101000a81548173ffffffffffffffffffffffffffffffffffffffff021916908373ffffffffffffffffffffffffffffffffffffffff16021790555091602001919060010190620000dc565b5b5090506200014691906200014a565b5090565b5b80821115620001655760008160009055506001016200014b565b5090565b6000604051905090565b600080fd5b600080fd5b600073ffffffffffffffffffffffffffffffffffffffff82169050919050565b6000620001aa826200017d565b9050919050565b620001bc816200019d565b8114620001c857600080fd5b50565b600081519050620001dc81620001b1565b92915050565b600080fd5b6000601f19601f8301169050919050565b7f4e487b7100000000000000000000000000000000000000000000000000000000600052604160045260246000fd5b6200023282620001e7565b810181811067ffffffffffffffff82111715620002545762000253620001f8565b5b80604052505050565b60006200026962000169565b905062000277828262000227565b919050565b600067ffffffffffffffff8211156200029a5762000299620001f8565b5b602082029050602081019050919050565b600080fd5b6000620002c7620002c1846200027c565b6200025d565b90508083825260208201905060208402830185811115620002ed57620002ec620002ab565b5b835b818110156200031a5780620003058882620001cb565b845260208401935050602081019050620002ef565b5050509392505050565b600082601f8301126200033c576200033b620001e2565b5b81516200034e848260208601620002b0565b91505092915050565b6000819050919050565b6200036c8162000357565b81146200037857600080fd5b50565b6000815190506200038c8162000361565b92915050565b600080fd5b600067ffffffffffffffff821115620003b557620003b4620001f8565b5b620003c082620001e7565b9050602081019050919050565b60005b83811015620003ed578082015181840152602081019050620003d0565b60008484015250505050565b6000620004106200040a8462000397565b6200025d565b9050828152602081018484840111156200042f576200042e62000392565b5b6200043c848285620003cd565b509392505050565b600082601f8301126200045c576200045b620001e2565b5b81516200046e848260208601620003f9565b91505092915050565b600080600080600060a0868803121562000496576200049562000173565b5b6000620004a688828901620001cb565b955050602086015167ffffffffffffffff811115620004ca57620004c962000178565b5b620004d88882890162000324565b9450506040620004eb888289016200037b565b9350506060620004fe888289016200037b565b925050608086015167ffffffffffffffff81111562000522576200052162000178565b5b620005308882890162000444565b9150509295509295909350565b600081519050919050565b7f4e487b7100000000000000000000000000000000000000000000000000000000600052602260045260246000fd5b600060028204905060018216806200059057607f821691505b602082108103620005a657620005a562000548565b5b50919050565b60008190508160005260206000209050919050565b60006020601f8301049050919050565b600082821b905092915050565b600060088302620006107fffffffffffffffffffffffffffffffffffffffffffffffffffffffffffffffff82620005d1565b6200061c8683620005d1565b95508019841693508086168417925050509392505050565b6000819050919050565b60006200065f62000659620006538462000357565b62000634565b62000357565b9050919050565b6000819050919050565b6200067b836200063e565b620006936200068a8262000666565b848454620005de565b825550505050565b600090565b620006aa6200069b565b620006b781848462000670565b505050565b5b81811015620006df57620006d3600082620006a0565b600181019050620006bd565b5050565b601f8211156200072e57620006f881620005ac565b6200070384620005c1565b8101602085101562000713578190505b6200072b6200072285620005c1565b830182620006bc565b50505b505050565b600082821c905092915050565b6000620007536000198460080262000733565b1980831691505092915050565b60006200076e838362000740565b9150826002028217905092915050565b62000789826200053d565b67ffffffffffffffff811115620007a557620007a4620001f8565b5b620007b1825462000577565b620007be828285620006e3565b600060209050601f831160018114620007f65760008415620007e1578287015190505b620007ed858262000760565b8655506200085d565b601f1984166200080686620005ac565b60005b82811015620008305784890151825560018201915060208501945060208101905062000809565b868310156200085057848901516200084c601f89168262000740565b8355505b6001600288020188555050505b505050505050565b61255b80620008756000396000f3fe608060405234801561001057600080fd5b50600436106101215760003560e01c806351b42b00116100ad578063cf35bdd011610071578063cf35bdd0146102c6578063ddca3f43146102f6578063e096e94914610314578063e5328e0614610330578063e7bf0e001461034e57610121565b806351b42b001461024057806357ded9c91461024a5780638da5cb5b14610268578063aca34c1114610286578063b390c0ab146102aa57610121565b80631d0806ae116100f45780631d0806ae1461019a57806322f3e2d4146101b8578063392e53cd146101d65780633c047e13146101f457806345d32d1e1461021057610121565b80630f15f4c014610126578063140b9d841461013057806318cddf031461014e5780631b2ef1ca1461017e575b600080fd5b61012e61036c565b005b610138610466565b6040516101459190611439565b60405180910390f35b610168600480360381019061016391906114c6565b61046c565b6040516101759190611439565b60405180910390f35b6101986004803603810190610193919061151f565b610484565b005b6101a2610857565b6040516101af9190611439565b60405180910390f35b6101c061085d565b6040516101cd919061157a565b60405180910390f35b6101de610870565b6040516101eb919061157a565b60405180910390f35b61020e60048036038101906102099190611595565b610883565b005b61022a600480360381019061022591906114c6565b61092b565b6040516102379190611439565b60405180910390f35b610248610943565b005b6102526109ed565b60405161025f9190611439565b60405180910390f35b6102706109f3565b60405161027d91906115f7565b60405180910390f35b61028e610a17565b6040516102a19796959493929190611760565b60405180910390f35b6102c460048036038101906102bf919061151f565b610b61565b005b6102e060048036038101906102db91906117dd565b611002565b6040516102ed91906115f7565b60405180910390f35b6102fe611041565b60405161030b9190611439565b60405180910390f35b61032e600480360381019061032991906119ad565b611047565b005b6103386112e5565b6040516103459190611439565b60405180910390f35b6103566112eb565b6040516103639190611a51565b60405180910390f35b60008054906101000a900473ffffffffffffffffffffffffffffffffffffffff1673ffffffffffffffffffffffffffffffffffffffff163373ffffffffffffffffffffffffffffffffffffffff16146103fa576040517f08c379a00000000000000000000000000000000000000000000000000000000081526004016103f190611ae5565b60405180910390fd5b600060159054906101000a900460ff16610449576040517f08c379a000000000000000000000000000000000000000000000000000000000815260040161044090611b51565b60405180910390fd5b6001600060146101000a81548160ff021916908315150217905550565b60065481565b60096020528060005260406000206000915090505481565b600060159054906101000a900460ff166104d3576040517f08c379a00000000000000000000000000000000000000000000000000000000081526004016104ca90611b51565b60405180910390fd5b600060149054906101000a900460ff16610522576040517f08c379a000000000000000000000000000000000000000000000000000000000815260040161051990611bbd565b60405180910390fd5b60008211806105315750600081115b610570576040517f08c379a000000000000000000000000000000000000000000000000000000000815260040161056790611c29565b60405180910390fd5b600082111561069057600160008154811061058e5761058d611c49565b5b9060005260206000200160009054906101000a900473ffffffffffffffffffffffffffffffffffffffff1673ffffffffffffffffffffffffffffffffffffffff166323b872dd3330856040518463ffffffff1660e01b81526004016105f593929190611c78565b6020604051808303816000875af1158015610614573d6000803e3d6000fd5b505050506040513d601f19601f820116820180604052508101906106389190611cdb565b5081600860003373ffffffffffffffffffffffffffffffffffffffff1673ffffffffffffffffffffffffffffffffffffffff16815260200190815260200160002060008282546106889190611d37565b925050819055505b60008111156107af57600180815481106106ad576106ac611c49565b5b9060005260206000200160009054906101000a900473ffffffffffffffffffffffffffffffffffffffff1673ffffffffffffffffffffffffffffffffffffffff166323b872dd3330846040518463ffffffff1660e01b815260040161071493929190611c78565b6020604051808303816000875af1158015610733573d6000803e3d6000fd5b505050506040513d601f19601f820116820180604052508101906107579190611cdb565b5080600960003373ffffffffffffffffffffffffffffffffffffffff1673ffffffffffffffffffffffffffffffffffffffff16815260200190815260200160002060008282546107a79190611d37565b925050819055505b670de0b6b3a7640000600354826107c69190611d6b565b6107d09190611ddc565b64e8d4a51000836107e19190611d6b565b6107eb9190611d37565b600560008282546107fc9190611d37565b925050819055503373ffffffffffffffffffffffffffffffffffffffff167fac1d76749e5447b7b16f5ab61447e1bd502f3bb4807af3b28e620d1700a6ee45838360405161084b929190611e0d565b60405180910390a25050565b60035481565b600060149054906101000a900460ff1681565b600060159054906101000a900460ff1681565b60008054906101000a900473ffffffffffffffffffffffffffffffffffffffff1673ffffffffffffffffffffffffffffffffffffffff163373ffffffffffffffffffffffffffffffffffffffff1614610911576040517f08c379a000000000000000000000000000000000000000000000000000000000815260040161090890611ae5565b60405180910390fd5b826005819055508160068190555080600781905550505050565b60086020528060005260406000206000915090505481565b60008054906101000a900473ffffffffffffffffffffffffffffffffffffffff1673ffffffffffffffffffffffffffffffffffffffff163373ffffffffffffffffffffffffffffffffffffffff16146109d1576040517f08c379a00000000000000000000000000000000000000000000000000000000081526004016109c890611ae5565b60405180910390fd5b60008060146101000a81548160ff021916908315150217905550565b60075481565b60008054906101000a900473ffffffffffffffffffffffffffffffffffffffff1681565b6060600080606060008060006001600254600354600460055460065460075486805480602002602001604051908101604052809291908181526020018280548015610ab757602002820191906000526020600020905b8160009054906101000a900473ffffffffffffffffffffffffffffffffffffffff1673ffffffffffffffffffffffffffffffffffffffff1681526020019060010190808311610a6d575b50505050509650838054610aca90611e65565b80601f0160208091040260200160405190810160405280929190818152602001828054610af690611e65565b8015610b435780601f10610b1857610100808354040283529160200191610b43565b820191906000526020600020905b815481529060010190602001808311610b2657829003601f168201915b50505050509350965096509650965096509650965090919293949596565b600060159054906101000a900460ff16610bb0576040517f08c379a0000000000000000000000000000000000000000000000000000000008152600401610ba790611b51565b60405180910390fd5b6000821180610bbf5750600081115b610bfe576040517f08c379a0000000000000000000000000000000000000000000000000000000008152600401610bf590611c29565b60405180910390fd5b81600860003373ffffffffffffffffffffffffffffffffffffffff1673ffffffffffffffffffffffffffffffffffffffff168152602001908152602001600020541015610c80576040517f08c379a0000000000000000000000000000000000000000000000000000000008152600401610c7790611ee2565b60405180910390fd5b80600960003373ffffffffffffffffffffffffffffffffffffffff1673ffffffffffffffffffffffffffffffffffffffff168152602001908152602001600020541015610d02576040517f08c379a0000000000000000000000000000000000000000000000000000000008152600401610cf990611f4e565b60405180910390fd5b6000821115610e205781600860003373ffffffffffffffffffffffffffffffffffffffff1673ffffffffffffffffffffffffffffffffffffffff1681526020019081526020016000206000828254610d5a9190611f6e565b925050819055506001600081548110610d7657610d75611c49565b5b9060005260206000200160009054906101000a900473ffffffffffffffffffffffffffffffffffffffff1673ffffffffffffffffffffffffffffffffffffffff1663a9059cbb33846040518363ffffffff1660e01b8152600401610ddb929190611fa2565b6020604051808303816000875af1158015610dfa573d6000803e3d6000fd5b505050506040513d601f19601f82011682018060405250810190610e1e9190611cdb565b505b6000811115610f3d5780600960003373ffffffffffffffffffffffffffffffffffffffff1673ffffffffffffffffffffffffffffffffffffffff1681526020019081526020016000206000828254610e789190611f6e565b9250508190555060018081548110610e9357610e92611c49565b5b9060005260206000200160009054906101000a900473ffffffffffffffffffffffffffffffffffffffff1673ffffffffffffffffffffffffffffffffffffffff1663a9059cbb33836040518363ffffffff1660e01b8152600401610ef8929190611fa2565b6020604051808303816000875af1158015610f17573d6000803e3d6000fd5b505050506040513d601f19601f82011682018060405250810190610f3b9190611cdb565b505b6000670de0b6b3a764000060035483610f569190611d6b565b610f609190611ddc565b64e8d4a5100084610f719190611d6b565b610f7b9190611d37565b90508060055410610fa4578060056000828254610f989190611f6e565b92505081905550610fad565b60006005819055505b3373ffffffffffffffffffffffffffffffffffffffff167f96cd817c6329656790ef8fba7675405193677d39619571282f5e21f3a98cd0598484604051610ff5929190611e0d565b60405180910390a2505050565b6001818154811061101257600080fd5b906000526020600020016000915054906101000a900473ffffffffffffffffffffffffffffffffffffffff1681565b60025481565b60008054906101000a900473ffffffffffffffffffffffffffffffffffffffff1673ffffffffffffffffffffffffffffffffffffffff163373ffffffffffffffffffffffffffffffffffffffff16146110d5576040517f08c379a00000000000000000000000000000000000000000000000000000000081526004016110cc90611ae5565b60405180910390fd5b600060159054906101000a900460ff1615611125576040517f08c379a000000000000000000000000000000000000000000000000000000000815260040161111c90612017565b60405180910390fd5b6002855114611169576040517f08c379a000000000000000000000000000000000000000000000000000000000815260040161116090612083565b60405180910390fd5b600084116111ac576040517f08c379a00000000000000000000000000000000000000000000000000000000081526004016111a3906120ef565b60405180910390fd5b600083116111ef576040517f08c379a00000000000000000000000000000000000000000000000000000000081526004016111e690612181565b60405180910390fd5b60008282905011611235576040517f08c379a000000000000000000000000000000000000000000000000000000000815260040161122c906121ed565b60405180910390fd5b846001908051906020019061124b929190611379565b50836002819055508260038190555081816004918261126b9291906123c4565b506001600060156101000a81548160ff0219169083151502179055506000600581905550600060068190555060006007819055507fbcd74a59ef1c06baa0f21d290c50eb6b4e5e897e130b4796cbecad41d25ced2285858585856040516112d69594939291906124d0565b60405180910390a15050505050565b60055481565b600480546112f890611e65565b80601f016020809104026020016040519081016040528092919081815260200182805461132490611e65565b80156113715780601f1061134657610100808354040283529160200191611371565b820191906000526020600020905b81548152906001019060200180831161135457829003601f168201915b505050505081565b8280548282559060005260206000209081019282156113f2579160200282015b828111156113f15782518260006101000a81548173ffffffffffffffffffffffffffffffffffffffff021916908373ffffffffffffffffffffffffffffffffffffffff16021790555091602001919060010190611399565b5b5090506113ff9190611403565b5090565b5b8082111561141c576000816000905550600101611404565b5090565b6000819050919050565b61143381611420565b82525050565b600060208201905061144e600083018461142a565b92915050565b6000604051905090565b600080fd5b600080fd5b600073ffffffffffffffffffffffffffffffffffffffff82169050919050565b600061149382611468565b9050919050565b6114a381611488565b81146114ae57600080fd5b50565b6000813590506114c08161149a565b92915050565b6000602082840312156114dc576114db61145e565b5b60006114ea848285016114b1565b91505092915050565b6114fc81611420565b811461150757600080fd5b50565b600081359050611519816114f3565b92915050565b600080604083850312156115365761153561145e565b5b60006115448582860161150a565b92505060206115558582860161150a565b9150509250929050565b60008115159050919050565b6115748161155f565b82525050565b600060208201905061158f600083018461156b565b92915050565b6000806000606084860312156115ae576115ad61145e565b5b60006115bc8682870161150a565b93505060206115cd8682870161150a565b92505060406115de8682870161150a565b9150509250925092565b6115f181611488565b82525050565b600060208201905061160c60008301846115e8565b92915050565b600081519050919050565b600082825260208201905092915050565b6000819050602082019050919050565b61164781611488565b82525050565b6000611659838361163e565b60208301905092915050565b6000602082019050919050565b600061167d82611612565b611687818561161d565b93506116928361162e565b8060005b838110156116c35781516116aa888261164d565b97506116b583611665565b925050600181019050611696565b5085935050505092915050565b600081519050919050565b600082825260208201905092915050565b60005b8381101561170a5780820151818401526020810190506116ef565b60008484015250505050565b6000601f19601f8301169050919050565b6000611732826116d0565b61173c81856116db565b935061174c8185602086016116ec565b61175581611716565b840191505092915050565b600060e082019050818103600083015261177a818a611672565b9050611789602083018961142a565b611796604083018861142a565b81810360608301526117a88187611727565b90506117b7608083018661142a565b6117c460a083018561142a565b6117d160c083018461142a565b98975050505050505050565b6000602082840312156117f3576117f261145e565b5b60006118018482850161150a565b91505092915050565b600080fd5b7f4e487b7100000000000000000000000000000000000000000000000000000000600052604160045260246000fd5b61184782611716565b810181811067ffffffffffffffff821117156118665761186561180f565b5b80604052505050565b6000611879611454565b9050611885828261183e565b919050565b600067ffffffffffffffff8211156118a5576118a461180f565b5b602082029050602081019050919050565b600080fd5b60006118ce6118c98461188a565b61186f565b905080838252602082019050602084028301858111156118f1576118f06118b6565b5b835b8181101561191a578061190688826114b1565b8452602084019350506020810190506118f3565b5050509392505050565b600082601f8301126119395761193861180a565b5b81356119498482602086016118bb565b91505092915050565b600080fd5b60008083601f84011261196d5761196c61180a565b5b8235905067ffffffffffffffff81111561198a57611989611952565b5b6020830191508360018202830111156119a6576119a56118b6565b5b9250929050565b6000806000806000608086880312156119c9576119c861145e565b5b600086013567ffffffffffffffff8111156119e7576119e6611463565b5b6119f388828901611924565b9550506020611a048882890161150a565b9450506040611a158882890161150a565b935050606086013567ffffffffffffffff811115611a3657611a35611463565b5b611a4288828901611957565b92509250509295509295909350565b60006020820190508181036000830152611a6b8184611727565b905092915050565b7f4f6e6c79206f776e65722063616e2063616c6c20746869732066756e6374696f60008201527f6e00000000000000000000000000000000000000000000000000000000000000602082015250565b6000611acf6021836116db565b9150611ada82611a73565b604082019050919050565b60006020820190508181036000830152611afe81611ac2565b9050919050565b7f506f6f6c206e6f7420696e697469616c697a6564000000000000000000000000600082015250565b6000611b3b6014836116db565b9150611b4682611b05565b602082019050919050565b60006020820190508181036000830152611b6a81611b2e565b9050919050565b7f506f6f6c206e6f74206163746976650000000000000000000000000000000000600082015250565b6000611ba7600f836116db565b9150611bb282611b71565b602082019050919050565b60006020820190508181036000830152611bd681611b9a565b9050919050565b7f416d6f756e74206d757374206265203e20300000000000000000000000000000600082015250565b6000611c136012836116db565b9150611c1e82611bdd565b602082019050919050565b60006020820190508181036000830152611c4281611c06565b9050919050565b7f4e487b7100000000000000000000000000000000000000000000000000000000600052603260045260246000fd5b6000606082019050611c8d60008301866115e8565b611c9a60208301856115e8565b611ca7604083018461142a565b949350505050565b611cb88161155f565b8114611cc357600080fd5b50565b600081519050611cd581611caf565b92915050565b600060208284031215611cf157611cf061145e565b5b6000611cff84828501611cc6565b91505092915050565b7f4e487b7100000000000000000000000000000000000000000000000000000000600052601160045260246000fd5b6000611d4282611420565b9150611d4d83611420565b9250828201905080821115611d6557611d64611d08565b5b92915050565b6000611d7682611420565b9150611d8183611420565b9250828202611d8f81611420565b91508282048414831517611da657611da5611d08565b5b5092915050565b7f4e487b7100000000000000000000000000000000000000000000000000000000600052601260045260246000fd5b6000611de782611420565b9150611df283611420565b925082611e0257611e01611dad565b5b828204905092915050565b6000604082019050611e22600083018561142a565b611e2f602083018461142a565b9392505050565b7f4e487b7100000000000000000000000000000000000000000000000000000000600052602260045260246000fd5b60006002820490506001821680611e7d57607f821691505b602082108103611e9057611e8f611e36565b5b50919050565b7f496e73756666696369656e7420555344432062616c616e636500000000000000600082015250565b6000611ecc6019836116db565b9150611ed782611e96565b602082019050919050565b60006020820190508181036000830152611efb81611ebf565b9050919050565b7f496e73756666696369656e74204e46532062616c616e63650000000000000000600082015250565b6000611f386018836116db565b9150611f4382611f02565b602082019050919050565b60006020820190508181036000830152611f6781611f2b565b9050919050565b6000611f7982611420565b9150611f8483611420565b9250828203905081811115611f9c57611f9b611d08565b5b92915050565b6000604082019050611fb760008301856115e8565b611fc4602083018461142a565b9392505050565b7f506f6f6c20697320616c726561647920696e697469616c697a65640000000000600082015250565b6000612001601b836116db565b915061200c82611fcb565b602082019050919050565b6000602082019050818103600083015261203081611ff4565b9050919050565b7f45786163746c792074776f206173736574732061726520726571756972656400600082015250565b600061206d601f836116db565b915061207882612037565b602082019050919050565b6000602082019050818103600083015261209c81612060565b9050919050565b7f466565206d7573742062652067726561746572207468616e207a65726f000000600082015250565b60006120d9601d836116db565b91506120e4826120a3565b602082019050919050565b60006020820190508181036000830152612108816120cc565b9050919050565b7f496e697469616c207072696365206d757374206265206772656174657220746860008201527f616e207a65726f00000000000000000000000000000000000000000000000000602082015250565b600061216b6027836116db565b91506121768261210f565b604082019050919050565b6000602082019050818103600083015261219a8161215e565b9050919050565b7f4b65726e656c2074797065206973207265717569726564000000000000000000600082015250565b60006121d76017836116db565b91506121e2826121a1565b602082019050919050565b60006020820190508181036000830152612206816121ca565b9050919050565b600082905092915050565b60008190508160005260206000209050919050565b60006020601f8301049050919050565b600082821b905092915050565b60006008830261227a7fffffffffffffffffffffffffffffffffffffffffffffffffffffffffffffffff8261223d565b612284868361223d565b95508019841693508086168417925050509392505050565b6000819050919050565b60006122c16122bc6122b784611420565b61229c565b611420565b9050919050565b6000819050919050565b6122db836122a6565b6122ef6122e7826122c8565b84845461224a565b825550505050565b600090565b6123046122f7565b61230f8184846122d2565b505050565b5b81811015612333576123286000826122fc565b600181019050612315565b5050565b601f8211156123785761234981612218565b6123528461222d565b81016020851015612361578190505b61237561236d8561222d565b830182612314565b50505b505050565b600082821c905092915050565b600061239b6000198460080261237d565b1980831691505092915050565b60006123b4838361238a565b9150826002028217905092915050565b6123ce838361220d565b67ffffffffffffffff8111156123e7576123e661180f565b5b6123f18254611e65565b6123fc828285612337565b6000601f83116001811461242b5760008415612419578287013590505b61242385826123a8565b86555061248b565b601f19841661243986612218565b60005b828110156124615784890135825560018201915060208501945060208101905061243c565b8683101561247e578489013561247a601f89168261238a565b8355505b6001600288020188555050505b50505050505050565b82818337600083830152505050565b60006124af83856116db565b93506124bc838584612494565b6124c583611716565b840190509392505050565b600060808201905081810360008301526124ea8188611672565b90506124f9602083018761142a565b612506604083018661142a565b81810360608301526125198184866124a3565b9050969550505050505056fea26469706673582212207c1d392e7060d6c94b1e9f344fb7776e76be28aa619212f037735035a1cd16ff64736f6c63430008140033a2646970667358221220c92d03d04ad410d2aef7a7c1ebd616de159d043912f522c9387dad9986580d4764736f6c63430008140033","opcodes":"PUSH1 0x80 PUSH1 0x40 MSTORE CALLVALUE DUP1 ISZERO PUSH2 0x10 JUMPI PUSH1 0x0 DUP1 REVERT JUMPDEST POP CALLER PUSH1 0x0 DUP1 PUSH2 0x100 EXP DUP2 SLOAD DUP2 PUSH20 0xFFFFFFFFFFFFFFFFFFFFFFFFFFFFFFFFFFFFFFFF MUL NOT AND SWAP1 DUP4 PUSH20 0xFFFFFFFFFFFFFFFFFFFFFFFFFFFFFFFFFFFFFFFF AND MUL OR SWAP1 SSTORE POP PUSH2 0x3EDD DUP1 PUSH2 0x60 PUSH1 0x0 CODECOPY PUSH1 0x0 RETURN INVALID PUSH1 0x80 PUSH1 0x40 MSTORE CALLVALUE DUP1 ISZERO PUSH3 0x11 JUMPI PUSH1 0x0 DUP1 REVERT JUMPDEST POP PUSH1 0x4 CALLDATASIZE LT PUSH3 0x94 JUMPI PUSH1 0x0 CALLDATALOAD PUSH1 0xE0 SHR DUP1 PUSH4 0x98C122B1 GT PUSH3 0x63 JUMPI DUP1 PUSH4 0x98C122B1 EQ PUSH3 0x135 JUMPI DUP1 PUSH4 0xAC4AFA38 EQ PUSH3 0x155 JUMPI DUP1 PUSH4 0xF2FDE38B EQ PUSH3 0x18B JUMPI DUP1 PUSH4 0xF7883A8B EQ PUSH3 0x1AB JUMPI PUSH3 0x94 JUMP JUMPDEST DUP1 PUSH4 0x5B16EBB7 EQ PUSH3 0x99 JUMPI DUP1 PUSH4 0x673A2A1F EQ PUSH3 0xCF JUMPI DUP1 PUSH4 0x7F7DDE4A EQ PUSH3 0xF1 JUMPI DUP1 PUSH4 0x8DA5CB5B EQ PUSH3 0x113 JUMPI JUMPDEST PUSH1 0x0 DUP1 REVERT JUMPDEST PUSH3 0xB7 PUSH1 0x4 DUP1 CALLDATASIZE SUB DUP2 ADD SWAP1 PUSH3 0xB1 SWAP2 SWAP1 PUSH3 0x9A6 JUMP JUMPDEST PUSH3 0x1CB JUMP JUMPDEST PUSH1 0x40 MLOAD PUSH3 0xC6 SWAP2 SWAP1 PUSH3 0x9F5 JUMP JUMPDEST PUSH1 0x40 MLOAD DUP1 SWAP2 SUB SWAP1 RETURN JUMPDEST PUSH3 0xD9 PUSH3 0x1EB JUMP JUMPDEST PUSH1 0x40 MLOAD PUSH3 0xE8 SWAP2 SWAP1 PUSH3 0xAE0 JUMP JUMPDEST PUSH1 0x40 MLOAD DUP1 SWAP2 SUB SWAP1 RETURN JUMPDEST PUSH3 0xFB PUSH3 0x27B JUMP JUMPDEST PUSH1 0x40 MLOAD PUSH3 0x10A SWAP2 SWAP1 PUSH3 0xB15 JUMP JUMPDEST PUSH1 0x40 MLOAD DUP1 SWAP2 SUB SWAP1 RETURN JUMPDEST PUSH3 0x11D PUSH3 0x2A1 JUMP JUMPDEST PUSH1 0x40 MLOAD PUSH3 0x12C SWAP2 SWAP1 PUSH3 0xB15 JUMP JUMPDEST PUSH1 0x40 MLOAD DUP1 SWAP2 SUB SWAP1 RETURN JUMPDEST PUSH3 0x153 PUSH1 0x4 DUP1 CALLDATASIZE SUB DUP2 ADD SWAP1 PUSH3 0x14D SWAP2 SWAP1 PUSH3 0xD46 JUMP JUMPDEST PUSH3 0x2C5 JUMP JUMPDEST STOP JUMPDEST PUSH3 0x173 PUSH1 0x4 DUP1 CALLDATASIZE SUB DUP2 ADD SWAP1 PUSH3 0x16D SWAP2 SWAP1 PUSH3 0xDFB JUMP JUMPDEST PUSH3 0x50C JUMP JUMPDEST PUSH1 0x40 MLOAD PUSH3 0x182 SWAP2 SWAP1 PUSH3 0xB15 JUMP JUMPDEST PUSH1 0x40 MLOAD DUP1 SWAP2 SUB SWAP1 RETURN JUMPDEST PUSH3 0x1A9 PUSH1 0x4 DUP1 CALLDATASIZE SUB DUP2 ADD SWAP1 PUSH3 0x1A3 SWAP2 SWAP1 PUSH3 0x9A6 JUMP JUMPDEST PUSH3 0x54C JUMP JUMPDEST STOP JUMPDEST PUSH3 0x1C9 PUSH1 0x4 DUP1 CALLDATASIZE SUB DUP2 ADD SWAP1 PUSH3 0x1C3 SWAP2 SWAP1 PUSH3 0x9A6 JUMP JUMPDEST PUSH3 0x692 JUMP JUMPDEST STOP JUMPDEST PUSH1 0x3 PUSH1 0x20 MSTORE DUP1 PUSH1 0x0 MSTORE PUSH1 0x40 PUSH1 0x0 KECCAK256 PUSH1 0x0 SWAP2 POP SLOAD SWAP1 PUSH2 0x100 EXP SWAP1 DIV PUSH1 0xFF AND DUP2 JUMP JUMPDEST PUSH1 0x60 PUSH1 0x1 DUP1 SLOAD DUP1 PUSH1 0x20 MUL PUSH1 0x20 ADD PUSH1 0x40 MLOAD SWAP1 DUP2 ADD PUSH1 0x40 MSTORE DUP1 SWAP3 SWAP2 SWAP1 DUP2 DUP2 MSTORE PUSH1 0x20 ADD DUP3 DUP1 SLOAD DUP1 ISZERO PUSH3 0x271 JUMPI PUSH1 0x20 MUL DUP3 ADD SWAP2 SWAP1 PUSH1 0x0 MSTORE PUSH1 0x20 PUSH1 0x0 KECCAK256 SWAP1 JUMPDEST DUP2 PUSH1 0x0 SWAP1 SLOAD SWAP1 PUSH2 0x100 EXP SWAP1 DIV PUSH20 0xFFFFFFFFFFFFFFFFFFFFFFFFFFFFFFFFFFFFFFFF AND PUSH20 0xFFFFFFFFFFFFFFFFFFFFFFFFFFFFFFFFFFFFFFFF AND DUP2 MSTORE PUSH1 0x20 ADD SWAP1 PUSH1 0x1 ADD SWAP1 DUP1 DUP4 GT PUSH3 0x226 JUMPI JUMPDEST POP POP POP POP POP SWAP1 POP SWAP1 JUMP JUMPDEST PUSH1 0x2 PUSH1 0x0 SWAP1 SLOAD SWAP1 PUSH2 0x100 EXP SWAP1 DIV PUSH20 0xFFFFFFFFFFFFFFFFFFFFFFFFFFFFFFFFFFFFFFFF AND DUP2 JUMP JUMPDEST PUSH1 0x0 DUP1 SLOAD SWAP1 PUSH2 0x100 EXP SWAP1 DIV PUSH20 0xFFFFFFFFFFFFFFFFFFFFFFFFFFFFFFFFFFFFFFFF AND DUP2 JUMP JUMPDEST PUSH1 0x0 CALLER DUP7 DUP7 DUP7 DUP7 DUP7 PUSH1 0x40 MLOAD PUSH3 0x2DB SWAP1 PUSH3 0x91F JUMP JUMPDEST PUSH3 0x2EC SWAP7 SWAP6 SWAP5 SWAP4 SWAP3 SWAP2 SWAP1 PUSH3 0xE91 JUMP JUMPDEST PUSH1 0x40 MLOAD DUP1 SWAP2 SUB SWAP1 PUSH1 0x0 CREATE DUP1 ISZERO DUP1 ISZERO PUSH3 0x309 JUMPI RETURNDATASIZE PUSH1 0x0 DUP1 RETURNDATACOPY RETURNDATASIZE PUSH1 0x0 REVERT JUMPDEST POP SWAP1 POP PUSH1 0x1 DUP2 SWAP1 DUP1 PUSH1 0x1 DUP2 SLOAD ADD DUP1 DUP3 SSTORE DUP1 SWAP2 POP POP PUSH1 0x1 SWAP1 SUB SWAP1 PUSH1 0x0 MSTORE PUSH1 0x20 PUSH1 0x0 KECCAK256 ADD PUSH1 0x0 SWAP1 SWAP2 SWAP1 SWAP2 SWAP1 SWAP2 PUSH2 0x100 EXP DUP2 SLOAD DUP2 PUSH20 0xFFFFFFFFFFFFFFFFFFFFFFFFFFFFFFFFFFFFFFFF MUL NOT AND SWAP1 DUP4 PUSH20 0xFFFFFFFFFFFFFFFFFFFFFFFFFFFFFFFFFFFFFFFF AND MUL OR SWAP1 SSTORE POP PUSH1 0x1 PUSH1 0x3 PUSH1 0x0 DUP4 PUSH20 0xFFFFFFFFFFFFFFFFFFFFFFFFFFFFFFFFFFFFFFFF AND PUSH20 0xFFFFFFFFFFFFFFFFFFFFFFFFFFFFFFFFFFFFFFFF AND DUP2 MSTORE PUSH1 0x20 ADD SWAP1 DUP2 MSTORE PUSH1 0x20 ADD PUSH1 0x0 KECCAK256 PUSH1 0x0 PUSH2 0x100 EXP DUP2 SLOAD DUP2 PUSH1 0xFF MUL NOT AND SWAP1 DUP4 ISZERO ISZERO MUL OR SWAP1 SSTORE POP PUSH1 0x0 PUSH1 0x2 PUSH1 0x0 SWAP1 SLOAD SWAP1 PUSH2 0x100 EXP SWAP1 DIV PUSH20 0xFFFFFFFFFFFFFFFFFFFFFFFFFFFFFFFFFFFFFFFF AND SWAP1 POP DUP2 PUSH1 0x2 PUSH1 0x0 PUSH2 0x100 EXP DUP2 SLOAD DUP2 PUSH20 0xFFFFFFFFFFFFFFFFFFFFFFFFFFFFFFFFFFFFFFFF MUL NOT AND SWAP1 DUP4 PUSH20 0xFFFFFFFFFFFFFFFFFFFFFFFFFFFFFFFFFFFFFFFF AND MUL OR SWAP1 SSTORE POP PUSH1 0x2 PUSH1 0x0 SWAP1 SLOAD SWAP1 PUSH2 0x100 EXP SWAP1 DIV PUSH20 0xFFFFFFFFFFFFFFFFFFFFFFFFFFFFFFFFFFFFFFFF AND PUSH20 0xFFFFFFFFFFFFFFFFFFFFFFFFFFFFFFFFFFFFFFFF AND DUP2 PUSH20 0xFFFFFFFFFFFFFFFFFFFFFFFFFFFFFFFFFFFFFFFF AND PUSH32 0xFF74C5C75FAA2302724C76E49B3E87D8BC806B4AC8C6BC207652848E74513832 PUSH1 0x40 MLOAD PUSH1 0x40 MLOAD DUP1 SWAP2 SUB SWAP1 LOG3 DUP2 PUSH20 0xFFFFFFFFFFFFFFFFFFFFFFFFFFFFFFFFFFFFFFFF AND PUSH32 0xEB571A396A8B3230817B100D8539B4EAD758EACE899B6F322D5F2110F6A5AADB DUP9 DUP9 DUP9 DUP9 DUP9 PUSH1 0x40 MLOAD PUSH3 0x4FB SWAP6 SWAP5 SWAP4 SWAP3 SWAP2 SWAP1 PUSH3 0xEFE JUMP JUMPDEST PUSH1 0x40 MLOAD DUP1 SWAP2 SUB SWAP1 LOG2 POP POP POP POP POP POP POP JUMP JUMPDEST PUSH1 0x1 DUP2 DUP2 SLOAD DUP2 LT PUSH3 0x51D JUMPI PUSH1 0x0 DUP1 REVERT JUMPDEST SWAP1 PUSH1 0x0 MSTORE PUSH1 0x20 PUSH1 0x0 KECCAK256 ADD PUSH1 0x0 SWAP2 POP SLOAD SWAP1 PUSH2 0x100 EXP SWAP1 DIV PUSH20 0xFFFFFFFFFFFFFFFFFFFFFFFFFFFFFFFFFFFFFFFF AND DUP2 JUMP JUMPDEST PUSH1 0x0 DUP1 SLOAD SWAP1 PUSH2 0x100 EXP SWAP1 DIV PUSH20 0xFFFFFFFFFFFFFFFFFFFFFFFFFFFFFFFFFFFFFFFF AND PUSH20 0xFFFFFFFFFFFFFFFFFFFFFFFFFFFFFFFFFFFFFFFF AND CALLER PUSH20 0xFFFFFFFFFFFFFFFFFFFFFFFFFFFFFFFFFFFFFFFF AND EQ PUSH3 0x5DD JUMPI PUSH1 0x40 MLOAD PUSH32 0x8C379A000000000000000000000000000000000000000000000000000000000 DUP2 MSTORE PUSH1 0x4 ADD PUSH3 0x5D4 SWAP1 PUSH3 0xFD1 JUMP JUMPDEST PUSH1 0x40 MLOAD DUP1 SWAP2 SUB SWAP1 REVERT JUMPDEST PUSH1 0x0 PUSH20 0xFFFFFFFFFFFFFFFFFFFFFFFFFFFFFFFFFFFFFFFF AND DUP2 PUSH20 0xFFFFFFFFFFFFFFFFFFFFFFFFFFFFFFFFFFFFFFFF AND SUB PUSH3 0x64F JUMPI PUSH1 0x40 MLOAD PUSH32 0x8C379A000000000000000000000000000000000000000000000000000000000 DUP2 MSTORE PUSH1 0x4 ADD PUSH3 0x646 SWAP1 PUSH3 0x1043 JUMP JUMPDEST PUSH1 0x40 MLOAD DUP1 SWAP2 SUB SWAP1 REVERT JUMPDEST DUP1 PUSH1 0x0 DUP1 PUSH2 0x100 EXP DUP2 SLOAD DUP2 PUSH20 0xFFFFFFFFFFFFFFFFFFFFFFFFFFFFFFFFFFFFFFFF MUL NOT AND SWAP1 DUP4 PUSH20 0xFFFFFFFFFFFFFFFFFFFFFFFFFFFFFFFFFFFFFFFF AND MUL OR SWAP1 SSTORE POP POP JUMP JUMPDEST PUSH1 0x3 PUSH1 0x0 DUP3 PUSH20 0xFFFFFFFFFFFFFFFFFFFFFFFFFFFFFFFFFFFFFFFF AND PUSH20 0xFFFFFFFFFFFFFFFFFFFFFFFFFFFFFFFFFFFFFFFF AND DUP2 MSTORE PUSH1 0x20 ADD SWAP1 DUP2 MSTORE PUSH1 0x20 ADD PUSH1 0x0 KECCAK256 PUSH1 0x0 SWAP1 SLOAD SWAP1 PUSH2 0x100 EXP SWAP1 DIV PUSH1 0xFF AND PUSH3 0x721 JUMPI PUSH1 0x40 MLOAD PUSH32 0x8C379A000000000000000000000000000000000000000000000000000000000 DUP2 MSTORE PUSH1 0x4 ADD PUSH3 0x718 SWAP1 PUSH3 0x10B5 JUMP JUMPDEST PUSH1 0x40 MLOAD DUP1 SWAP2 SUB SWAP1 REVERT JUMPDEST PUSH1 0x0 PUSH20 0xFFFFFFFFFFFFFFFFFFFFFFFFFFFFFFFFFFFFFFFF AND PUSH1 0x2 PUSH1 0x0 SWAP1 SLOAD SWAP1 PUSH2 0x100 EXP SWAP1 DIV PUSH20 0xFFFFFFFFFFFFFFFFFFFFFFFFFFFFFFFFFFFFFFFF AND PUSH20 0xFFFFFFFFFFFFFFFFFFFFFFFFFFFFFFFFFFFFFFFF AND EQ PUSH3 0x7FD JUMPI PUSH1 0x2 PUSH1 0x0 SWAP1 SLOAD SWAP1 PUSH2 0x100 EXP SWAP1 DIV PUSH20 0xFFFFFFFFFFFFFFFFFFFFFFFFFFFFFFFFFFFFFFFF AND PUSH20 0xFFFFFFFFFFFFFFFFFFFFFFFFFFFFFFFFFFFFFFFF AND PUSH4 0x51B42B00 PUSH1 0x40 MLOAD DUP2 PUSH4 0xFFFFFFFF AND PUSH1 0xE0 SHL DUP2 MSTORE PUSH1 0x4 ADD PUSH1 0x0 PUSH1 0x40 MLOAD DUP1 DUP4 SUB DUP2 PUSH1 0x0 DUP8 DUP1 EXTCODESIZE ISZERO DUP1 ISZERO PUSH3 0x7E3 JUMPI PUSH1 0x0 DUP1 REVERT JUMPDEST POP GAS CALL ISZERO DUP1 ISZERO PUSH3 0x7F8 JUMPI RETURNDATASIZE PUSH1 0x0 DUP1 RETURNDATACOPY RETURNDATASIZE PUSH1 0x0 REVERT JUMPDEST POP POP POP POP JUMPDEST DUP1 PUSH1 0x2 PUSH1 0x0 PUSH2 0x100 EXP DUP2 SLOAD DUP2 PUSH20 0xFFFFFFFFFFFFFFFFFFFFFFFFFFFFFFFFFFFFFFFF MUL NOT AND SWAP1 DUP4 PUSH20 0xFFFFFFFFFFFFFFFFFFFFFFFFFFFFFFFFFFFFFFFF AND MUL OR SWAP1 SSTORE POP DUP1 PUSH20 0xFFFFFFFFFFFFFFFFFFFFFFFFFFFFFFFFFFFFFFFF AND PUSH4 0xF15F4C0 PUSH1 0x40 MLOAD DUP2 PUSH4 0xFFFFFFFF AND PUSH1 0xE0 SHL DUP2 MSTORE PUSH1 0x4 ADD PUSH1 0x0 PUSH1 0x40 MLOAD DUP1 DUP4 SUB DUP2 PUSH1 0x0 DUP8 DUP1 EXTCODESIZE ISZERO DUP1 ISZERO PUSH3 0x887 JUMPI PUSH1 0x0 DUP1 REVERT JUMPDEST POP GAS CALL ISZERO DUP1 ISZERO PUSH3 0x89C JUMPI RETURNDATASIZE PUSH1 0x0 DUP1 RETURNDATACOPY RETURNDATASIZE PUSH1 0x0 REVERT JUMPDEST POP POP POP POP DUP1 PUSH20 0xFFFFFFFFFFFFFFFFFFFFFFFFFFFFFFFFFFFFFFFF AND PUSH1 0x2 PUSH1 0x0 SWAP1 SLOAD SWAP1 PUSH2 0x100 EXP SWAP1 DIV PUSH20 0xFFFFFFFFFFFFFFFFFFFFFFFFFFFFFFFFFFFFFFFF AND PUSH20 0xFFFFFFFFFFFFFFFFFFFFFFFFFFFFFFFFFFFFFFFF AND PUSH32 0xFF74C5C75FAA2302724C76E49B3E87D8BC806B4AC8C6BC207652848E74513832 PUSH1 0x40 MLOAD PUSH1 0x40 MLOAD DUP1 SWAP2 SUB SWAP1 LOG3 POP JUMP JUMPDEST PUSH2 0x2DD0 DUP1 PUSH3 0x10D8 DUP4 CODECOPY ADD SWAP1 JUMP JUMPDEST PUSH1 0x0 PUSH1 0x40 MLOAD SWAP1 POP SWAP1 JUMP JUMPDEST PUSH1 0x0 DUP1 REVERT JUMPDEST PUSH1 0x0 DUP1 REVERT JUMPDEST PUSH1 0x0 PUSH20 0xFFFFFFFFFFFFFFFFFFFFFFFFFFFFFFFFFFFFFFFF DUP3 AND SWAP1 POP SWAP2 SWAP1 POP JUMP JUMPDEST PUSH1 0x0 PUSH3 0x96E DUP3 PUSH3 0x941 JUMP JUMPDEST SWAP1 POP SWAP2 SWAP1 POP JUMP JUMPDEST PUSH3 0x980 DUP2 PUSH3 0x961 JUMP JUMPDEST DUP2 EQ PUSH3 0x98C JUMPI PUSH1 0x0 DUP1 REVERT JUMPDEST POP JUMP JUMPDEST PUSH1 0x0 DUP2 CALLDATALOAD SWAP1 POP PUSH3 0x9A0 DUP2 PUSH3 0x975 JUMP JUMPDEST SWAP3 SWAP2 POP POP JUMP JUMPDEST PUSH1 0x0 PUSH1 0x20 DUP3 DUP5 SUB SLT ISZERO PUSH3 0x9BF JUMPI PUSH3 0x9BE PUSH3 0x937 JUMP JUMPDEST JUMPDEST PUSH1 0x0 PUSH3 0x9CF DUP5 DUP3 DUP6 ADD PUSH3 0x98F JUMP JUMPDEST SWAP2 POP POP SWAP3 SWAP2 POP POP JUMP JUMPDEST PUSH1 0x0 DUP2 ISZERO ISZERO SWAP1 POP SWAP2 SWAP1 POP JUMP JUMPDEST PUSH3 0x9EF DUP2 PUSH3 0x9D8 JUMP JUMPDEST DUP3 MSTORE POP POP JUMP JUMPDEST PUSH1 0x0 PUSH1 0x20 DUP3 ADD SWAP1 POP PUSH3 0xA0C PUSH1 0x0 DUP4 ADD DUP5 PUSH3 0x9E4 JUMP JUMPDEST SWAP3 SWAP2 POP POP JUMP JUMPDEST PUSH1 0x0 DUP2 MLOAD SWAP1 POP SWAP2 SWAP1 POP JUMP JUMPDEST PUSH1 0x0 DUP3 DUP3 MSTORE PUSH1 0x20 DUP3 ADD SWAP1 POP SWAP3 SWAP2 POP POP JUMP JUMPDEST PUSH1 0x0 DUP2 SWAP1 POP PUSH1 0x20 DUP3 ADD SWAP1 POP SWAP2 SWAP1 POP JUMP JUMPDEST PUSH3 0xA49 DUP2 PUSH3 0x961 JUMP JUMPDEST DUP3 MSTORE POP POP JUMP JUMPDEST PUSH1 0x0 PUSH3 0xA5D DUP4 DUP4 PUSH3 0xA3E JUMP JUMPDEST PUSH1 0x20 DUP4 ADD SWAP1 POP SWAP3 SWAP2 POP POP JUMP JUMPDEST PUSH1 0x0 PUSH1 0x20 DUP3 ADD SWAP1 POP SWAP2 SWAP1 POP JUMP JUMPDEST PUSH1 0x0 PUSH3 0xA83 DUP3 PUSH3 0xA12 JUMP JUMPDEST PUSH3 0xA8F DUP2 DUP6 PUSH3 0xA1D JUMP JUMPDEST SWAP4 POP PUSH3 0xA9C DUP4 PUSH3 0xA2E JUMP JUMPDEST DUP1 PUSH1 0x0 JUMPDEST DUP4 DUP2 LT ISZERO PUSH3 0xAD3 JUMPI DUP2 MLOAD PUSH3 0xAB7 DUP9 DUP3 PUSH3 0xA4F JUMP JUMPDEST SWAP8 POP PUSH3 0xAC4 DUP4 PUSH3 0xA69 JUMP JUMPDEST SWAP3 POP POP PUSH1 0x1 DUP2 ADD SWAP1 POP PUSH3 0xAA0 JUMP JUMPDEST POP DUP6 SWAP4 POP POP POP POP SWAP3 SWAP2 POP POP JUMP JUMPDEST PUSH1 0x0 PUSH1 0x20 DUP3 ADD SWAP1 POP DUP2 DUP2 SUB PUSH1 0x0 DUP4 ADD MSTORE PUSH3 0xAFC DUP2 DUP5 PUSH3 0xA76 JUMP JUMPDEST SWAP1 POP SWAP3 SWAP2 POP POP JUMP JUMPDEST PUSH3 0xB0F DUP2 PUSH3 0x961 JUMP JUMPDEST DUP3 MSTORE POP POP JUMP JUMPDEST PUSH1 0x0 PUSH1 0x20 DUP3 ADD SWAP1 POP PUSH3 0xB2C PUSH1 0x0 DUP4 ADD DUP5 PUSH3 0xB04 JUMP JUMPDEST SWAP3 SWAP2 POP POP JUMP JUMPDEST PUSH1 0x0 DUP1 REVERT JUMPDEST PUSH1 0x0 PUSH1 0x1F NOT PUSH1 0x1F DUP4 ADD AND SWAP1 POP SWAP2 SWAP1 POP JUMP JUMPDEST PUSH32 0x4E487B7100000000000000000000000000000000000000000000000000000000 PUSH1 0x0 MSTORE PUSH1 0x41 PUSH1 0x4 MSTORE PUSH1 0x24 PUSH1 0x0 REVERT JUMPDEST PUSH3 0xB82 DUP3 PUSH3 0xB37 JUMP JUMPDEST DUP2 ADD DUP2 DUP2 LT PUSH8 0xFFFFFFFFFFFFFFFF DUP3 GT OR ISZERO PUSH3 0xBA4 JUMPI PUSH3 0xBA3 PUSH3 0xB48 JUMP JUMPDEST JUMPDEST DUP1 PUSH1 0x40 MSTORE POP POP POP JUMP JUMPDEST PUSH1 0x0 PUSH3 0xBB9 PUSH3 0x92D JUMP JUMPDEST SWAP1 POP PUSH3 0xBC7 DUP3 DUP3 PUSH3 0xB77 JUMP JUMPDEST SWAP2 SWAP1 POP JUMP JUMPDEST PUSH1 0x0 PUSH8 0xFFFFFFFFFFFFFFFF DUP3 GT ISZERO PUSH3 0xBEA JUMPI PUSH3 0xBE9 PUSH3 0xB48 JUMP JUMPDEST JUMPDEST PUSH1 0x20 DUP3 MUL SWAP1 POP PUSH1 0x20 DUP2 ADD SWAP1 POP SWAP2 SWAP1 POP JUMP JUMPDEST PUSH1 0x0 DUP1 REVERT JUMPDEST PUSH1 0x0 PUSH3 0xC17 PUSH3 0xC11 DUP5 PUSH3 0xBCC JUMP JUMPDEST PUSH3 0xBAD JUMP JUMPDEST SWAP1 POP DUP1 DUP4 DUP3 MSTORE PUSH1 0x20 DUP3 ADD SWAP1 POP PUSH1 0x20 DUP5 MUL DUP4 ADD DUP6 DUP2 GT ISZERO PUSH3 0xC3D JUMPI PUSH3 0xC3C PUSH3 0xBFB JUMP JUMPDEST JUMPDEST DUP4 JUMPDEST DUP2 DUP2 LT ISZERO PUSH3 0xC6A JUMPI DUP1 PUSH3 0xC55 DUP9 DUP3 PUSH3 0x98F JUMP JUMPDEST DUP5 MSTORE PUSH1 0x20 DUP5 ADD SWAP4 POP POP PUSH1 0x20 DUP2 ADD SWAP1 POP PUSH3 0xC3F JUMP JUMPDEST POP POP POP SWAP4 SWAP3 POP POP POP JUMP JUMPDEST PUSH1 0x0 DUP3 PUSH1 0x1F DUP4 ADD SLT PUSH3 0xC8C JUMPI PUSH3 0xC8B PUSH3 0xB32 JUMP JUMPDEST JUMPDEST DUP2 CALLDATALOAD PUSH3 0xC9E DUP5 DUP3 PUSH1 0x20 DUP7 ADD PUSH3 0xC00 JUMP JUMPDEST SWAP2 POP POP SWAP3 SWAP2 POP POP JUMP JUMPDEST PUSH1 0x0 DUP2 SWAP1 POP SWAP2 SWAP1 POP JUMP JUMPDEST PUSH3 0xCBC DUP2 PUSH3 0xCA7 JUMP JUMPDEST DUP2 EQ PUSH3 0xCC8 JUMPI PUSH1 0x0 DUP1 REVERT JUMPDEST POP JUMP JUMPDEST PUSH1 0x0 DUP2 CALLDATALOAD SWAP1 POP PUSH3 0xCDC DUP2 PUSH3 0xCB1 JUMP JUMPDEST SWAP3 SWAP2 POP POP JUMP JUMPDEST PUSH1 0x0 DUP1 REVERT JUMPDEST PUSH1 0x0 DUP1 DUP4 PUSH1 0x1F DUP5 ADD SLT PUSH3 0xD00 JUMPI PUSH3 0xCFF PUSH3 0xB32 JUMP JUMPDEST JUMPDEST DUP3 CALLDATALOAD SWAP1 POP PUSH8 0xFFFFFFFFFFFFFFFF DUP2 GT ISZERO PUSH3 0xD20 JUMPI PUSH3 0xD1F PUSH3 0xCE2 JUMP JUMPDEST JUMPDEST PUSH1 0x20 DUP4 ADD SWAP2 POP DUP4 PUSH1 0x1 DUP3 MUL DUP4 ADD GT ISZERO PUSH3 0xD3F JUMPI PUSH3 0xD3E PUSH3 0xBFB JUMP JUMPDEST JUMPDEST SWAP3 POP SWAP3 SWAP1 POP JUMP JUMPDEST PUSH1 0x0 DUP1 PUSH1 0x0 DUP1 PUSH1 0x0 PUSH1 0x80 DUP7 DUP9 SUB SLT ISZERO PUSH3 0xD65 JUMPI PUSH3 0xD64 PUSH3 0x937 JUMP JUMPDEST JUMPDEST PUSH1 0x0 DUP7 ADD CALLDATALOAD PUSH8 0xFFFFFFFFFFFFFFFF DUP2 GT ISZERO PUSH3 0xD86 JUMPI PUSH3 0xD85 PUSH3 0x93C JUMP JUMPDEST JUMPDEST PUSH3 0xD94 DUP9 DUP3 DUP10 ADD PUSH3 0xC74 JUMP JUMPDEST SWAP6 POP POP PUSH1 0x20 PUSH3 0xDA7 DUP9 DUP3 DUP10 ADD PUSH3 0xCCB JUMP JUMPDEST SWAP5 POP POP PUSH1 0x40 PUSH3 0xDBA DUP9 DUP3 DUP10 ADD PUSH3 0xCCB JUMP JUMPDEST SWAP4 POP POP PUSH1 0x60 DUP7 ADD CALLDATALOAD PUSH8 0xFFFFFFFFFFFFFFFF DUP2 GT ISZERO PUSH3 0xDDE JUMPI PUSH3 0xDDD PUSH3 0x93C JUMP JUMPDEST JUMPDEST PUSH3 0xDEC DUP9 DUP3 DUP10 ADD PUSH3 0xCE7 JUMP JUMPDEST SWAP3 POP SWAP3 POP POP SWAP3 SWAP6 POP SWAP3 SWAP6 SWAP1 SWAP4 POP JUMP JUMPDEST PUSH1 0x0 PUSH1 0x20 DUP3 DUP5 SUB SLT ISZERO PUSH3 0xE14 JUMPI PUSH3 0xE13 PUSH3 0x937 JUMP JUMPDEST JUMPDEST PUSH1 0x0 PUSH3 0xE24 DUP5 DUP3 DUP6 ADD PUSH3 0xCCB JUMP JUMPDEST SWAP2 POP POP SWAP3 SWAP2 POP POP JUMP JUMPDEST PUSH3 0xE38 DUP2 PUSH3 0xCA7 JUMP JUMPDEST DUP3 MSTORE POP POP JUMP JUMPDEST PUSH1 0x0 DUP3 DUP3 MSTORE PUSH1 0x20 DUP3 ADD SWAP1 POP SWAP3 SWAP2 POP POP JUMP JUMPDEST DUP3 DUP2 DUP4 CALLDATACOPY PUSH1 0x0 DUP4 DUP4 ADD MSTORE POP POP POP JUMP JUMPDEST PUSH1 0x0 PUSH3 0xE6C DUP4 DUP6 PUSH3 0xE3E JUMP JUMPDEST SWAP4 POP PUSH3 0xE7B DUP4 DUP6 DUP5 PUSH3 0xE4F JUMP JUMPDEST PUSH3 0xE86 DUP4 PUSH3 0xB37 JUMP JUMPDEST DUP5 ADD SWAP1 POP SWAP4 SWAP3 POP POP POP JUMP JUMPDEST PUSH1 0x0 PUSH1 0xA0 DUP3 ADD SWAP1 POP PUSH3 0xEA8 PUSH1 0x0 DUP4 ADD DUP10 PUSH3 0xB04 JUMP JUMPDEST DUP2 DUP2 SUB PUSH1 0x20 DUP4 ADD MSTORE PUSH3 0xEBC DUP2 DUP9 PUSH3 0xA76 JUMP JUMPDEST SWAP1 POP PUSH3 0xECD PUSH1 0x40 DUP4 ADD DUP8 PUSH3 0xE2D JUMP JUMPDEST PUSH3 0xEDC PUSH1 0x60 DUP4 ADD DUP7 PUSH3 0xE2D JUMP JUMPDEST DUP2 DUP2 SUB PUSH1 0x80 DUP4 ADD MSTORE PUSH3 0xEF1 DUP2 DUP5 DUP7 PUSH3 0xE5E JUMP JUMPDEST SWAP1 POP SWAP8 SWAP7 POP POP POP POP POP POP POP JUMP JUMPDEST PUSH1 0x0 PUSH1 0x80 DUP3 ADD SWAP1 POP DUP2 DUP2 SUB PUSH1 0x0 DUP4 ADD MSTORE PUSH3 0xF1A DUP2 DUP9 PUSH3 0xA76 JUMP JUMPDEST SWAP1 POP PUSH3 0xF2B PUSH1 0x20 DUP4 ADD DUP8 PUSH3 0xE2D JUMP JUMPDEST PUSH3 0xF3A PUSH1 0x40 DUP4 ADD DUP7 PUSH3 0xE2D JUMP JUMPDEST DUP2 DUP2 SUB PUSH1 0x60 DUP4 ADD MSTORE PUSH3 0xF4F DUP2 DUP5 DUP7 PUSH3 0xE5E JUMP JUMPDEST SWAP1 POP SWAP7 SWAP6 POP POP POP POP POP POP JUMP JUMPDEST PUSH32 0x4F6E6C79206F776E65722063616E2063616C6C20746869732066756E6374696F PUSH1 0x0 DUP3 ADD MSTORE PUSH32 0x6E00000000000000000000000000000000000000000000000000000000000000 PUSH1 0x20 DUP3 ADD MSTORE POP JUMP JUMPDEST PUSH1 0x0 PUSH3 0xFB9 PUSH1 0x21 DUP4 PUSH3 0xE3E JUMP JUMPDEST SWAP2 POP PUSH3 0xFC6 DUP3 PUSH3 0xF5B JUMP JUMPDEST PUSH1 0x40 DUP3 ADD SWAP1 POP SWAP2 SWAP1 POP JUMP JUMPDEST PUSH1 0x0 PUSH1 0x20 DUP3 ADD SWAP1 POP DUP2 DUP2 SUB PUSH1 0x0 DUP4 ADD MSTORE PUSH3 0xFEC DUP2 PUSH3 0xFAA JUMP JUMPDEST SWAP1 POP SWAP2 SWAP1 POP JUMP JUMPDEST PUSH32 0x4E6577206F776E657220697320746865207A65726F2061646472657373000000 PUSH1 0x0 DUP3 ADD MSTORE POP JUMP JUMPDEST PUSH1 0x0 PUSH3 0x102B PUSH1 0x1D DUP4 PUSH3 0xE3E JUMP JUMPDEST SWAP2 POP PUSH3 0x1038 DUP3 PUSH3 0xFF3 JUMP JUMPDEST PUSH1 0x20 DUP3 ADD SWAP1 POP SWAP2 SWAP1 POP JUMP JUMPDEST PUSH1 0x0 PUSH1 0x20 DUP3 ADD SWAP1 POP DUP2 DUP2 SUB PUSH1 0x0 DUP4 ADD MSTORE PUSH3 0x105E DUP2 PUSH3 0x101C JUMP JUMPDEST SWAP1 POP SWAP2 SWAP1 POP JUMP JUMPDEST PUSH32 0x4E6F74206120706F6F6C00000000000000000000000000000000000000000000 PUSH1 0x0 DUP3 ADD MSTORE POP JUMP JUMPDEST PUSH1 0x0 PUSH3 0x109D PUSH1 0xA DUP4 PUSH3 0xE3E JUMP JUMPDEST SWAP2 POP PUSH3 0x10AA DUP3 PUSH3 0x1065 JUMP JUMPDEST PUSH1 0x20 DUP3 ADD SWAP1 POP SWAP2 SWAP1 POP JUMP JUMPDEST PUSH1 0x0 PUSH1 0x20 DUP3 ADD SWAP1 POP DUP2 DUP2 SUB PUSH1 0x0 DUP4 ADD MSTORE PUSH3 0x10D0 DUP2 PUSH3 0x108E JUMP JUMPDEST SWAP1 POP SWAP2 SWAP1 POP JUMP INVALID PUSH1 0x80 PUSH1 0x40 MSTORE CALLVALUE DUP1 ISZERO PUSH3 0x11 JUMPI PUSH1 0x0 DUP1 REVERT JUMPDEST POP PUSH1 0x40 MLOAD PUSH3 0x2DD0 CODESIZE SUB DUP1 PUSH3 0x2DD0 DUP4 CODECOPY DUP2 DUP2 ADD PUSH1 0x40 MSTORE DUP2 ADD SWAP1 PUSH3 0x37 SWAP2 SWAP1 PUSH3 0x477 JUMP JUMPDEST DUP5 PUSH1 0x0 DUP1 PUSH2 0x100 EXP DUP2 SLOAD DUP2 PUSH20 0xFFFFFFFFFFFFFFFFFFFFFFFFFFFFFFFFFFFFFFFF MUL NOT AND SWAP1 DUP4 PUSH20 0xFFFFFFFFFFFFFFFFFFFFFFFFFFFFFFFFFFFFFFFF AND MUL OR SWAP1 SSTORE POP DUP4 PUSH1 0x1 SWAP1 DUP1 MLOAD SWAP1 PUSH1 0x20 ADD SWAP1 PUSH3 0x8F SWAP3 SWAP2 SWAP1 PUSH3 0xBB JUMP JUMPDEST POP DUP3 PUSH1 0x2 DUP2 SWAP1 SSTORE POP DUP2 PUSH1 0x3 DUP2 SWAP1 SSTORE POP DUP1 PUSH1 0x4 SWAP1 DUP2 PUSH3 0xAF SWAP2 SWAP1 PUSH3 0x77E JUMP JUMPDEST POP POP POP POP POP POP PUSH3 0x865 JUMP JUMPDEST DUP3 DUP1 SLOAD DUP3 DUP3 SSTORE SWAP1 PUSH1 0x0 MSTORE PUSH1 0x20 PUSH1 0x0 KECCAK256 SWAP1 DUP2 ADD SWAP3 DUP3 ISZERO PUSH3 0x137 JUMPI SWAP2 PUSH1 0x20 MUL DUP3 ADD JUMPDEST DUP3 DUP2 GT ISZERO PUSH3 0x136 JUMPI DUP3 MLOAD DUP3 PUSH1 0x0 PUSH2 0x100 EXP DUP2 SLOAD DUP2 PUSH20 0xFFFFFFFFFFFFFFFFFFFFFFFFFFFFFFFFFFFFFFFF MUL NOT AND SWAP1 DUP4 PUSH20 0xFFFFFFFFFFFFFFFFFFFFFFFFFFFFFFFFFFFFFFFF AND MUL OR SWAP1 SSTORE POP SWAP2 PUSH1 0x20 ADD SWAP2 SWAP1 PUSH1 0x1 ADD SWAP1 PUSH3 0xDC JUMP JUMPDEST JUMPDEST POP SWAP1 POP PUSH3 0x146 SWAP2 SWAP1 PUSH3 0x14A JUMP JUMPDEST POP SWAP1 JUMP JUMPDEST JUMPDEST DUP1 DUP3 GT ISZERO PUSH3 0x165 JUMPI PUSH1 0x0 DUP2 PUSH1 0x0 SWAP1 SSTORE POP PUSH1 0x1 ADD PUSH3 0x14B JUMP JUMPDEST POP SWAP1 JUMP JUMPDEST PUSH1 0x0 PUSH1 0x40 MLOAD SWAP1 POP SWAP1 JUMP JUMPDEST PUSH1 0x0 DUP1 REVERT JUMPDEST PUSH1 0x0 DUP1 REVERT JUMPDEST PUSH1 0x0 PUSH20 0xFFFFFFFFFFFFFFFFFFFFFFFFFFFFFFFFFFFFFFFF DUP3 AND SWAP1 POP SWAP2 SWAP1 POP JUMP JUMPDEST PUSH1 0x0 PUSH3 0x1AA DUP3 PUSH3 0x17D JUMP JUMPDEST SWAP1 POP SWAP2 SWAP1 POP JUMP JUMPDEST PUSH3 0x1BC DUP2 PUSH3 0x19D JUMP JUMPDEST DUP2 EQ PUSH3 0x1C8 JUMPI PUSH1 0x0 DUP1 REVERT JUMPDEST POP JUMP JUMPDEST PUSH1 0x0 DUP2 MLOAD SWAP1 POP PUSH3 0x1DC DUP2 PUSH3 0x1B1 JUMP JUMPDEST SWAP3 SWAP2 POP POP JUMP JUMPDEST PUSH1 0x0 DUP1 REVERT JUMPDEST PUSH1 0x0 PUSH1 0x1F NOT PUSH1 0x1F DUP4 ADD AND SWAP1 POP SWAP2 SWAP1 POP JUMP JUMPDEST PUSH32 0x4E487B7100000000000000000000000000000000000000000000000000000000 PUSH1 0x0 MSTORE PUSH1 0x41 PUSH1 0x4 MSTORE PUSH1 0x24 PUSH1 0x0 REVERT JUMPDEST PUSH3 0x232 DUP3 PUSH3 0x1E7 JUMP JUMPDEST DUP2 ADD DUP2 DUP2 LT PUSH8 0xFFFFFFFFFFFFFFFF DUP3 GT OR ISZERO PUSH3 0x254 JUMPI PUSH3 0x253 PUSH3 0x1F8 JUMP JUMPDEST JUMPDEST DUP1 PUSH1 0x40 MSTORE POP POP POP JUMP JUMPDEST PUSH1 0x0 PUSH3 0x269 PUSH3 0x169 JUMP JUMPDEST SWAP1 POP PUSH3 0x277 DUP3 DUP3 PUSH3 0x227 JUMP JUMPDEST SWAP2 SWAP1 POP JUMP JUMPDEST PUSH1 0x0 PUSH8 0xFFFFFFFFFFFFFFFF DUP3 GT ISZERO PUSH3 0x29A JUMPI PUSH3 0x299 PUSH3 0x1F8 JUMP JUMPDEST JUMPDEST PUSH1 0x20 DUP3 MUL SWAP1 POP PUSH1 0x20 DUP2 ADD SWAP1 POP SWAP2 SWAP1 POP JUMP JUMPDEST PUSH1 0x0 DUP1 REVERT JUMPDEST PUSH1 0x0 PUSH3 0x2C7 PUSH3 0x2C1 DUP5 PUSH3 0x27C JUMP JUMPDEST PUSH3 0x25D JUMP JUMPDEST SWAP1 POP DUP1 DUP4 DUP3 MSTORE PUSH1 0x20 DUP3 ADD SWAP1 POP PUSH1 0x20 DUP5 MUL DUP4 ADD DUP6 DUP2 GT ISZERO PUSH3 0x2ED JUMPI PUSH3 0x2EC PUSH3 0x2AB JUMP JUMPDEST JUMPDEST DUP4 JUMPDEST DUP2 DUP2 LT ISZERO PUSH3 0x31A JUMPI DUP1 PUSH3 0x305 DUP9 DUP3 PUSH3 0x1CB JUMP JUMPDEST DUP5 MSTORE PUSH1 0x20 DUP5 ADD SWAP4 POP POP PUSH1 0x20 DUP2 ADD SWAP1 POP PUSH3 0x2EF JUMP JUMPDEST POP POP POP SWAP4 SWAP3 POP POP POP JUMP JUMPDEST PUSH1 0x0 DUP3 PUSH1 0x1F DUP4 ADD SLT PUSH3 0x33C JUMPI PUSH3 0x33B PUSH3 0x1E2 JUMP JUMPDEST JUMPDEST DUP2 MLOAD PUSH3 0x34E DUP5 DUP3 PUSH1 0x20 DUP7 ADD PUSH3 0x2B0 JUMP JUMPDEST SWAP2 POP POP SWAP3 SWAP2 POP POP JUMP JUMPDEST PUSH1 0x0 DUP2 SWAP1 POP SWAP2 SWAP1 POP JUMP JUMPDEST PUSH3 0x36C DUP2 PUSH3 0x357 JUMP JUMPDEST DUP2 EQ PUSH3 0x378 JUMPI PUSH1 0x0 DUP1 REVERT JUMPDEST POP JUMP JUMPDEST PUSH1 0x0 DUP2 MLOAD SWAP1 POP PUSH3 0x38C DUP2 PUSH3 0x361 JUMP JUMPDEST SWAP3 SWAP2 POP POP JUMP JUMPDEST PUSH1 0x0 DUP1 REVERT JUMPDEST PUSH1 0x0 PUSH8 0xFFFFFFFFFFFFFFFF DUP3 GT ISZERO PUSH3 0x3B5 JUMPI PUSH3 0x3B4 PUSH3 0x1F8 JUMP JUMPDEST JUMPDEST PUSH3 0x3C0 DUP3 PUSH3 0x1E7 JUMP JUMPDEST SWAP1 POP PUSH1 0x20 DUP2 ADD SWAP1 POP SWAP2 SWAP1 POP JUMP JUMPDEST PUSH1 0x0 JUMPDEST DUP4 DUP2 LT ISZERO PUSH3 0x3ED JUMPI DUP1 DUP3 ADD MLOAD DUP2 DUP5 ADD MSTORE PUSH1 0x20 DUP2 ADD SWAP1 POP PUSH3 0x3D0 JUMP JUMPDEST PUSH1 0x0 DUP5 DUP5 ADD MSTORE POP POP POP POP JUMP JUMPDEST PUSH1 0x0 PUSH3 0x410 PUSH3 0x40A DUP5 PUSH3 0x397 JUMP JUMPDEST PUSH3 0x25D JUMP JUMPDEST SWAP1 POP DUP3 DUP2 MSTORE PUSH1 0x20 DUP2 ADD DUP5 DUP5 DUP5 ADD GT ISZERO PUSH3 0x42F JUMPI PUSH3 0x42E PUSH3 0x392 JUMP JUMPDEST JUMPDEST PUSH3 0x43C DUP5 DUP3 DUP6 PUSH3 0x3CD JUMP JUMPDEST POP SWAP4 SWAP3 POP POP POP JUMP JUMPDEST PUSH1 0x0 DUP3 PUSH1 0x1F DUP4 ADD SLT PUSH3 0x45C JUMPI PUSH3 0x45B PUSH3 0x1E2 JUMP JUMPDEST JUMPDEST DUP2 MLOAD PUSH3 0x46E DUP5 DUP3 PUSH1 0x20 DUP7 ADD PUSH3 0x3F9 JUMP JUMPDEST SWAP2 POP POP SWAP3 SWAP2 POP POP JUMP JUMPDEST PUSH1 0x0 DUP1 PUSH1 0x0 DUP1 PUSH1 0x0 PUSH1 0xA0 DUP7 DUP9 SUB SLT ISZERO PUSH3 0x496 JUMPI PUSH3 0x495 PUSH3 0x173 JUMP JUMPDEST JUMPDEST PUSH1 0x0 PUSH3 0x4A6 DUP9 DUP3 DUP10 ADD PUSH3 0x1CB JUMP JUMPDEST SWAP6 POP POP PUSH1 0x20 DUP7 ADD MLOAD PUSH8 0xFFFFFFFFFFFFFFFF DUP2 GT ISZERO PUSH3 0x4CA JUMPI PUSH3 0x4C9 PUSH3 0x178 JUMP JUMPDEST JUMPDEST PUSH3 0x4D8 DUP9 DUP3 DUP10 ADD PUSH3 0x324 JUMP JUMPDEST SWAP5 POP POP PUSH1 0x40 PUSH3 0x4EB DUP9 DUP3 DUP10 ADD PUSH3 0x37B JUMP JUMPDEST SWAP4 POP POP PUSH1 0x60 PUSH3 0x4FE DUP9 DUP3 DUP10 ADD PUSH3 0x37B JUMP JUMPDEST SWAP3 POP POP PUSH1 0x80 DUP7 ADD MLOAD PUSH8 0xFFFFFFFFFFFFFFFF DUP2 GT ISZERO PUSH3 0x522 JUMPI PUSH3 0x521 PUSH3 0x178 JUMP JUMPDEST JUMPDEST PUSH3 0x530 DUP9 DUP3 DUP10 ADD PUSH3 0x444 JUMP JUMPDEST SWAP2 POP POP SWAP3 SWAP6 POP SWAP3 SWAP6 SWAP1 SWAP4 POP JUMP JUMPDEST PUSH1 0x0 DUP2 MLOAD SWAP1 POP SWAP2 SWAP1 POP JUMP JUMPDEST PUSH32 0x4E487B7100000000000000000000000000000000000000000000000000000000 PUSH1 0x0 MSTORE PUSH1 0x22 PUSH1 0x4 MSTORE PUSH1 0x24 PUSH1 0x0 REVERT JUMPDEST PUSH1 0x0 PUSH1 0x2 DUP3 DIV SWAP1 POP PUSH1 0x1 DUP3 AND DUP1 PUSH3 0x590 JUMPI PUSH1 0x7F DUP3 AND SWAP2 POP JUMPDEST PUSH1 0x20 DUP3 LT DUP2 SUB PUSH3 0x5A6 JUMPI PUSH3 0x5A5 PUSH3 0x548 JUMP JUMPDEST JUMPDEST POP SWAP2 SWAP1 POP JUMP JUMPDEST PUSH1 0x0 DUP2 SWAP1 POP DUP2 PUSH1 0x0 MSTORE PUSH1 0x20 PUSH1 0x0 KECCAK256 SWAP1 POP SWAP2 SWAP1 POP JUMP JUMPDEST PUSH1 0x0 PUSH1 0x20 PUSH1 0x1F DUP4 ADD DIV SWAP1 POP SWAP2 SWAP1 POP JUMP JUMPDEST PUSH1 0x0 DUP3 DUP3 SHL SWAP1 POP SWAP3 SWAP2 POP POP JUMP JUMPDEST PUSH1 0x0 PUSH1 0x8 DUP4 MUL PUSH3 0x610 PUSH32 0xFFFFFFFFFFFFFFFFFFFFFFFFFFFFFFFFFFFFFFFFFFFFFFFFFFFFFFFFFFFFFFFF DUP3 PUSH3 0x5D1 JUMP JUMPDEST PUSH3 0x61C DUP7 DUP4 PUSH3 0x5D1 JUMP JUMPDEST SWAP6 POP DUP1 NOT DUP5 AND SWAP4 POP DUP1 DUP7 AND DUP5 OR SWAP3 POP POP POP SWAP4 SWAP3 POP POP POP JUMP JUMPDEST PUSH1 0x0 DUP2 SWAP1 POP SWAP2 SWAP1 POP JUMP JUMPDEST PUSH1 0x0 PUSH3 0x65F PUSH3 0x659 PUSH3 0x653 DUP5 PUSH3 0x357 JUMP JUMPDEST PUSH3 0x634 JUMP JUMPDEST PUSH3 0x357 JUMP JUMPDEST SWAP1 POP SWAP2 SWAP1 POP JUMP JUMPDEST PUSH1 0x0 DUP2 SWAP1 POP SWAP2 SWAP1 POP JUMP JUMPDEST PUSH3 0x67B DUP4 PUSH3 0x63E JUMP JUMPDEST PUSH3 0x693 PUSH3 0x68A DUP3 PUSH3 0x666 JUMP JUMPDEST DUP5 DUP5 SLOAD PUSH3 0x5DE JUMP JUMPDEST DUP3 SSTORE POP POP POP POP JUMP JUMPDEST PUSH1 0x0 SWAP1 JUMP JUMPDEST PUSH3 0x6AA PUSH3 0x69B JUMP JUMPDEST PUSH3 0x6B7 DUP2 DUP5 DUP5 PUSH3 0x670 JUMP JUMPDEST POP POP POP JUMP JUMPDEST JUMPDEST DUP2 DUP2 LT ISZERO PUSH3 0x6DF JUMPI PUSH3 0x6D3 PUSH1 0x0 DUP3 PUSH3 0x6A0 JUMP JUMPDEST PUSH1 0x1 DUP2 ADD SWAP1 POP PUSH3 0x6BD JUMP JUMPDEST POP POP JUMP JUMPDEST PUSH1 0x1F DUP3 GT ISZERO PUSH3 0x72E JUMPI PUSH3 0x6F8 DUP2 PUSH3 0x5AC JUMP JUMPDEST PUSH3 0x703 DUP5 PUSH3 0x5C1 JUMP JUMPDEST DUP2 ADD PUSH1 0x20 DUP6 LT ISZERO PUSH3 0x713 JUMPI DUP2 SWAP1 POP JUMPDEST PUSH3 0x72B PUSH3 0x722 DUP6 PUSH3 0x5C1 JUMP JUMPDEST DUP4 ADD DUP3 PUSH3 0x6BC JUMP JUMPDEST POP POP JUMPDEST POP POP POP JUMP JUMPDEST PUSH1 0x0 DUP3 DUP3 SHR SWAP1 POP SWAP3 SWAP2 POP POP JUMP JUMPDEST PUSH1 0x0 PUSH3 0x753 PUSH1 0x0 NOT DUP5 PUSH1 0x8 MUL PUSH3 0x733 JUMP JUMPDEST NOT DUP1 DUP4 AND SWAP2 POP POP SWAP3 SWAP2 POP POP JUMP JUMPDEST PUSH1 0x0 PUSH3 0x76E DUP4 DUP4 PUSH3 0x740 JUMP JUMPDEST SWAP2 POP DUP3 PUSH1 0x2 MUL DUP3 OR SWAP1 POP SWAP3 SWAP2 POP POP JUMP JUMPDEST PUSH3 0x789 DUP3 PUSH3 0x53D JUMP JUMPDEST PUSH8 0xFFFFFFFFFFFFFFFF DUP2 GT ISZERO PUSH3 0x7A5 JUMPI PUSH3 0x7A4 PUSH3 0x1F8 JUMP JUMPDEST JUMPDEST PUSH3 0x7B1 DUP3 SLOAD PUSH3 0x577 JUMP JUMPDEST PUSH3 0x7BE DUP3 DUP3 DUP6 PUSH3 0x6E3 JUMP JUMPDEST PUSH1 0x0 PUSH1 0x20 SWAP1 POP PUSH1 0x1F DUP4 GT PUSH1 0x1 DUP2 EQ PUSH3 0x7F6 JUMPI PUSH1 0x0 DUP5 ISZERO PUSH3 0x7E1 JUMPI DUP3 DUP8 ADD MLOAD SWAP1 POP JUMPDEST PUSH3 0x7ED DUP6 DUP3 PUSH3 0x760 JUMP JUMPDEST DUP7 SSTORE POP PUSH3 0x85D JUMP JUMPDEST PUSH1 0x1F NOT DUP5 AND PUSH3 0x806 DUP7 PUSH3 0x5AC JUMP JUMPDEST PUSH1 0x0 JUMPDEST DUP3 DUP2 LT ISZERO PUSH3 0x830 JUMPI DUP5 DUP10 ADD MLOAD DUP3 SSTORE PUSH1 0x1 DUP3 ADD SWAP2 POP PUSH1 0x20 DUP6 ADD SWAP5 POP PUSH1 0x20 DUP2 ADD SWAP1 POP PUSH3 0x809 JUMP JUMPDEST DUP7 DUP4 LT ISZERO PUSH3 0x850 JUMPI DUP5 DUP10 ADD MLOAD PUSH3 0x84C PUSH1 0x1F DUP10 AND DUP3 PUSH3 0x740 JUMP JUMPDEST DUP4 SSTORE POP JUMPDEST PUSH1 0x1 PUSH1 0x2 DUP9 MUL ADD DUP9 SSTORE POP POP POP JUMPDEST POP POP POP POP POP POP JUMP JUMPDEST PUSH2 0x255B DUP1 PUSH3 0x875 PUSH1 0x0 CODECOPY PUSH1 0x0 RETURN INVALID PUSH1 0x80 PUSH1 0x40 MSTORE CALLVALUE DUP1 ISZERO PUSH2 0x10 JUMPI PUSH1 0x0 DUP1 REVERT JUMPDEST POP PUSH1 0x4 CALLDATASIZE LT PUSH2 0x121 JUMPI PUSH1 0x0 CALLDATALOAD PUSH1 0xE0 SHR DUP1 PUSH4 0x51B42B00 GT PUSH2 0xAD JUMPI DUP1 PUSH4 0xCF35BDD0 GT PUSH2 0x71 JUMPI DUP1 PUSH4 0xCF35BDD0 EQ PUSH2 0x2C6 JUMPI DUP1 PUSH4 0xDDCA3F43 EQ PUSH2 0x2F6 JUMPI DUP1 PUSH4 0xE096E949 EQ PUSH2 0x314 JUMPI DUP1 PUSH4 0xE5328E06 EQ PUSH2 0x330 JUMPI DUP1 PUSH4 0xE7BF0E00 EQ PUSH2 0x34E JUMPI PUSH2 0x121 JUMP JUMPDEST DUP1 PUSH4 0x51B42B00 EQ PUSH2 0x240 JUMPI DUP1 PUSH4 0x57DED9C9 EQ PUSH2 0x24A JUMPI DUP1 PUSH4 0x8DA5CB5B EQ PUSH2 0x268 JUMPI DUP1 PUSH4 0xACA34C11 EQ PUSH2 0x286 JUMPI DUP1 PUSH4 0xB390C0AB EQ PUSH2 0x2AA JUMPI PUSH2 0x121 JUMP JUMPDEST DUP1 PUSH4 0x1D0806AE GT PUSH2 0xF4 JUMPI DUP1 PUSH4 0x1D0806AE EQ PUSH2 0x19A JUMPI DUP1 PUSH4 0x22F3E2D4 EQ PUSH2 0x1B8 JUMPI DUP1 PUSH4 0x392E53CD EQ PUSH2 0x1D6 JUMPI DUP1 PUSH4 0x3C047E13 EQ PUSH2 0x1F4 JUMPI DUP1 PUSH4 0x45D32D1E EQ PUSH2 0x210 JUMPI PUSH2 0x121 JUMP JUMPDEST DUP1 PUSH4 0xF15F4C0 EQ PUSH2 0x126 JUMPI DUP1 PUSH4 0x140B9D84 EQ PUSH2 0x130 JUMPI DUP1 PUSH4 0x18CDDF03 EQ PUSH2 0x14E JUMPI DUP1 PUSH4 0x1B2EF1CA EQ PUSH2 0x17E JUMPI JUMPDEST PUSH1 0x0 DUP1 REVERT JUMPDEST PUSH2 0x12E PUSH2 0x36C JUMP JUMPDEST STOP JUMPDEST PUSH2 0x138 PUSH2 0x466 JUMP JUMPDEST PUSH1 0x40 MLOAD PUSH2 0x145 SWAP2 SWAP1 PUSH2 0x1439 JUMP JUMPDEST PUSH1 0x40 MLOAD DUP1 SWAP2 SUB SWAP1 RETURN JUMPDEST PUSH2 0x168 PUSH1 0x4 DUP1 CALLDATASIZE SUB DUP2 ADD SWAP1 PUSH2 0x163 SWAP2 SWAP1 PUSH2 0x14C6 JUMP JUMPDEST PUSH2 0x46C JUMP JUMPDEST PUSH1 0x40 MLOAD PUSH2 0x175 SWAP2 SWAP1 PUSH2 0x1439 JUMP JUMPDEST PUSH1 0x40 MLOAD DUP1 SWAP2 SUB SWAP1 RETURN JUMPDEST PUSH2 0x198 PUSH1 0x4 DUP1 CALLDATASIZE SUB DUP2 ADD SWAP1 PUSH2 0x193 SWAP2 SWAP1 PUSH2 0x151F JUMP JUMPDEST PUSH2 0x484 JUMP JUMPDEST STOP JUMPDEST PUSH2 0x1A2 PUSH2 0x857 JUMP JUMPDEST PUSH1 0x40 MLOAD PUSH2 0x1AF SWAP2 SWAP1 PUSH2 0x1439 JUMP JUMPDEST PUSH1 0x40 MLOAD DUP1 SWAP2 SUB SWAP1 RETURN JUMPDEST PUSH2 0x1C0 PUSH2 0x85D JUMP JUMPDEST PUSH1 0x40 MLOAD PUSH2 0x1CD SWAP2 SWAP1 PUSH2 0x157A JUMP JUMPDEST PUSH1 0x40 MLOAD DUP1 SWAP2 SUB SWAP1 RETURN JUMPDEST PUSH2 0x1DE PUSH2 0x870 JUMP JUMPDEST PUSH1 0x40 MLOAD PUSH2 0x1EB SWAP2 SWAP1 PUSH2 0x157A JUMP JUMPDEST PUSH1 0x40 MLOAD DUP1 SWAP2 SUB SWAP1 RETURN JUMPDEST PUSH2 0x20E PUSH1 0x4 DUP1 CALLDATASIZE SUB DUP2 ADD SWAP1 PUSH2 0x209 SWAP2 SWAP1 PUSH2 0x1595 JUMP JUMPDEST PUSH2 0x883 JUMP JUMPDEST STOP JUMPDEST PUSH2 0x22A PUSH1 0x4 DUP1 CALLDATASIZE SUB DUP2 ADD SWAP1 PUSH2 0x225 SWAP2 SWAP1 PUSH2 0x14C6 JUMP JUMPDEST PUSH2 0x92B JUMP JUMPDEST PUSH1 0x40 MLOAD PUSH2 0x237 SWAP2 SWAP1 PUSH2 0x1439 JUMP JUMPDEST PUSH1 0x40 MLOAD DUP1 SWAP2 SUB SWAP1 RETURN JUMPDEST PUSH2 0x248 PUSH2 0x943 JUMP JUMPDEST STOP JUMPDEST PUSH2 0x252 PUSH2 0x9ED JUMP JUMPDEST PUSH1 0x40 MLOAD PUSH2 0x25F SWAP2 SWAP1 PUSH2 0x1439 JUMP JUMPDEST PUSH1 0x40 MLOAD DUP1 SWAP2 SUB SWAP1 RETURN JUMPDEST PUSH2 0x270 PUSH2 0x9F3 JUMP JUMPDEST PUSH1 0x40 MLOAD PUSH2 0x27D SWAP2 SWAP1 PUSH2 0x15F7 JUMP JUMPDEST PUSH1 0x40 MLOAD DUP1 SWAP2 SUB SWAP1 RETURN JUMPDEST PUSH2 0x28E PUSH2 0xA17 JUMP JUMPDEST PUSH1 0x40 MLOAD PUSH2 0x2A1 SWAP8 SWAP7 SWAP6 SWAP5 SWAP4 SWAP3 SWAP2 SWAP1 PUSH2 0x1760 JUMP JUMPDEST PUSH1 0x40 MLOAD DUP1 SWAP2 SUB SWAP1 RETURN JUMPDEST PUSH2 0x2C4 PUSH1 0x4 DUP1 CALLDATASIZE SUB DUP2 ADD SWAP1 PUSH2 0x2BF SWAP2 SWAP1 PUSH2 0x151F JUMP JUMPDEST PUSH2 0xB61 JUMP JUMPDEST STOP JUMPDEST PUSH2 0x2E0 PUSH1 0x4 DUP1 CALLDATASIZE SUB DUP2 ADD SWAP1 PUSH2 0x2DB SWAP2 SWAP1 PUSH2 0x17DD JUMP JUMPDEST PUSH2 0x1002 JUMP JUMPDEST PUSH1 0x40 MLOAD PUSH2 0x2ED SWAP2 SWAP1 PUSH2 0x15F7 JUMP JUMPDEST PUSH1 0x40 MLOAD DUP1 SWAP2 SUB SWAP1 RETURN JUMPDEST PUSH2 0x2FE PUSH2 0x1041 JUMP JUMPDEST PUSH1 0x40 MLOAD PUSH2 0x30B SWAP2 SWAP1 PUSH2 0x1439 JUMP JUMPDEST PUSH1 0x40 MLOAD DUP1 SWAP2 SUB SWAP1 RETURN JUMPDEST PUSH2 0x32E PUSH1 0x4 DUP1 CALLDATASIZE SUB DUP2 ADD SWAP1 PUSH2 0x329 SWAP2 SWAP1 PUSH2 0x19AD JUMP JUMPDEST PUSH2 0x1047 JUMP JUMPDEST STOP JUMPDEST PUSH2 0x338 PUSH2 0x12E5 JUMP JUMPDEST PUSH1 0x40 MLOAD PUSH2 0x345 SWAP2 SWAP1 PUSH2 0x1439 JUMP JUMPDEST PUSH1 0x40 MLOAD DUP1 SWAP2 SUB SWAP1 RETURN JUMPDEST PUSH2 0x356 PUSH2 0x12EB JUMP JUMPDEST PUSH1 0x40 MLOAD PUSH2 0x363 SWAP2 SWAP1 PUSH2 0x1A51 JUMP JUMPDEST PUSH1 0x40 MLOAD DUP1 SWAP2 SUB SWAP1 RETURN JUMPDEST PUSH1 0x0 DUP1 SLOAD SWAP1 PUSH2 0x100 EXP SWAP1 DIV PUSH20 0xFFFFFFFFFFFFFFFFFFFFFFFFFFFFFFFFFFFFFFFF AND PUSH20 0xFFFFFFFFFFFFFFFFFFFFFFFFFFFFFFFFFFFFFFFF AND CALLER PUSH20 0xFFFFFFFFFFFFFFFFFFFFFFFFFFFFFFFFFFFFFFFF AND EQ PUSH2 0x3FA JUMPI PUSH1 0x40 MLOAD PUSH32 0x8C379A000000000000000000000000000000000000000000000000000000000 DUP2 MSTORE PUSH1 0x4 ADD PUSH2 0x3F1 SWAP1 PUSH2 0x1AE5 JUMP JUMPDEST PUSH1 0x40 MLOAD DUP1 SWAP2 SUB SWAP1 REVERT JUMPDEST PUSH1 0x0 PUSH1 0x15 SWAP1 SLOAD SWAP1 PUSH2 0x100 EXP SWAP1 DIV PUSH1 0xFF AND PUSH2 0x449 JUMPI PUSH1 0x40 MLOAD PUSH32 0x8C379A000000000000000000000000000000000000000000000000000000000 DUP2 MSTORE PUSH1 0x4 ADD PUSH2 0x440 SWAP1 PUSH2 0x1B51 JUMP JUMPDEST PUSH1 0x40 MLOAD DUP1 SWAP2 SUB SWAP1 REVERT JUMPDEST PUSH1 0x1 PUSH1 0x0 PUSH1 0x14 PUSH2 0x100 EXP DUP2 SLOAD DUP2 PUSH1 0xFF MUL NOT AND SWAP1 DUP4 ISZERO ISZERO MUL OR SWAP1 SSTORE POP JUMP JUMPDEST PUSH1 0x6 SLOAD DUP2 JUMP JUMPDEST PUSH1 0x9 PUSH1 0x20 MSTORE DUP1 PUSH1 0x0 MSTORE PUSH1 0x40 PUSH1 0x0 KECCAK256 PUSH1 0x0 SWAP2 POP SWAP1 POP SLOAD DUP2 JUMP JUMPDEST PUSH1 0x0 PUSH1 0x15 SWAP1 SLOAD SWAP1 PUSH2 0x100 EXP SWAP1 DIV PUSH1 0xFF AND PUSH2 0x4D3 JUMPI PUSH1 0x40 MLOAD PUSH32 0x8C379A000000000000000000000000000000000000000000000000000000000 DUP2 MSTORE PUSH1 0x4 ADD PUSH2 0x4CA SWAP1 PUSH2 0x1B51 JUMP JUMPDEST PUSH1 0x40 MLOAD DUP1 SWAP2 SUB SWAP1 REVERT JUMPDEST PUSH1 0x0 PUSH1 0x14 SWAP1 SLOAD SWAP1 PUSH2 0x100 EXP SWAP1 DIV PUSH1 0xFF AND PUSH2 0x522 JUMPI PUSH1 0x40 MLOAD PUSH32 0x8C379A000000000000000000000000000000000000000000000000000000000 DUP2 MSTORE PUSH1 0x4 ADD PUSH2 0x519 SWAP1 PUSH2 0x1BBD JUMP JUMPDEST PUSH1 0x40 MLOAD DUP1 SWAP2 SUB SWAP1 REVERT JUMPDEST PUSH1 0x0 DUP3 GT DUP1 PUSH2 0x531 JUMPI POP PUSH1 0x0 DUP2 GT JUMPDEST PUSH2 0x570 JUMPI PUSH1 0x40 MLOAD PUSH32 0x8C379A000000000000000000000000000000000000000000000000000000000 DUP2 MSTORE PUSH1 0x4 ADD PUSH2 0x567 SWAP1 PUSH2 0x1C29 JUMP JUMPDEST PUSH1 0x40 MLOAD DUP1 SWAP2 SUB SWAP1 REVERT JUMPDEST PUSH1 0x0 DUP3 GT ISZERO PUSH2 0x690 JUMPI PUSH1 0x1 PUSH1 0x0 DUP2 SLOAD DUP2 LT PUSH2 0x58E JUMPI PUSH2 0x58D PUSH2 0x1C49 JUMP JUMPDEST JUMPDEST SWAP1 PUSH1 0x0 MSTORE PUSH1 0x20 PUSH1 0x0 KECCAK256 ADD PUSH1 0x0 SWAP1 SLOAD SWAP1 PUSH2 0x100 EXP SWAP1 DIV PUSH20 0xFFFFFFFFFFFFFFFFFFFFFFFFFFFFFFFFFFFFFFFF AND PUSH20 0xFFFFFFFFFFFFFFFFFFFFFFFFFFFFFFFFFFFFFFFF AND PUSH4 0x23B872DD CALLER ADDRESS DUP6 PUSH1 0x40 MLOAD DUP5 PUSH4 0xFFFFFFFF AND PUSH1 0xE0 SHL DUP2 MSTORE PUSH1 0x4 ADD PUSH2 0x5F5 SWAP4 SWAP3 SWAP2 SWAP1 PUSH2 0x1C78 JUMP JUMPDEST PUSH1 0x20 PUSH1 0x40 MLOAD DUP1 DUP4 SUB DUP2 PUSH1 0x0 DUP8 GAS CALL ISZERO DUP1 ISZERO PUSH2 0x614 JUMPI RETURNDATASIZE PUSH1 0x0 DUP1 RETURNDATACOPY RETURNDATASIZE PUSH1 0x0 REVERT JUMPDEST POP POP POP POP PUSH1 0x40 MLOAD RETURNDATASIZE PUSH1 0x1F NOT PUSH1 0x1F DUP3 ADD AND DUP3 ADD DUP1 PUSH1 0x40 MSTORE POP DUP2 ADD SWAP1 PUSH2 0x638 SWAP2 SWAP1 PUSH2 0x1CDB JUMP JUMPDEST POP DUP2 PUSH1 0x8 PUSH1 0x0 CALLER PUSH20 0xFFFFFFFFFFFFFFFFFFFFFFFFFFFFFFFFFFFFFFFF AND PUSH20 0xFFFFFFFFFFFFFFFFFFFFFFFFFFFFFFFFFFFFFFFF AND DUP2 MSTORE PUSH1 0x20 ADD SWAP1 DUP2 MSTORE PUSH1 0x20 ADD PUSH1 0x0 KECCAK256 PUSH1 0x0 DUP3 DUP3 SLOAD PUSH2 0x688 SWAP2 SWAP1 PUSH2 0x1D37 JUMP JUMPDEST SWAP3 POP POP DUP2 SWAP1 SSTORE POP JUMPDEST PUSH1 0x0 DUP2 GT ISZERO PUSH2 0x7AF JUMPI PUSH1 0x1 DUP1 DUP2 SLOAD DUP2 LT PUSH2 0x6AD JUMPI PUSH2 0x6AC PUSH2 0x1C49 JUMP JUMPDEST JUMPDEST SWAP1 PUSH1 0x0 MSTORE PUSH1 0x20 PUSH1 0x0 KECCAK256 ADD PUSH1 0x0 SWAP1 SLOAD SWAP1 PUSH2 0x100 EXP SWAP1 DIV PUSH20 0xFFFFFFFFFFFFFFFFFFFFFFFFFFFFFFFFFFFFFFFF AND PUSH20 0xFFFFFFFFFFFFFFFFFFFFFFFFFFFFFFFFFFFFFFFF AND PUSH4 0x23B872DD CALLER ADDRESS DUP5 PUSH1 0x40 MLOAD DUP5 PUSH4 0xFFFFFFFF AND PUSH1 0xE0 SHL DUP2 MSTORE PUSH1 0x4 ADD PUSH2 0x714 SWAP4 SWAP3 SWAP2 SWAP1 PUSH2 0x1C78 JUMP JUMPDEST PUSH1 0x20 PUSH1 0x40 MLOAD DUP1 DUP4 SUB DUP2 PUSH1 0x0 DUP8 GAS CALL ISZERO DUP1 ISZERO PUSH2 0x733 JUMPI RETURNDATASIZE PUSH1 0x0 DUP1 RETURNDATACOPY RETURNDATASIZE PUSH1 0x0 REVERT JUMPDEST POP POP POP POP PUSH1 0x40 MLOAD RETURNDATASIZE PUSH1 0x1F NOT PUSH1 0x1F DUP3 ADD AND DUP3 ADD DUP1 PUSH1 0x40 MSTORE POP DUP2 ADD SWAP1 PUSH2 0x757 SWAP2 SWAP1 PUSH2 0x1CDB JUMP JUMPDEST POP DUP1 PUSH1 0x9 PUSH1 0x0 CALLER PUSH20 0xFFFFFFFFFFFFFFFFFFFFFFFFFFFFFFFFFFFFFFFF AND PUSH20 0xFFFFFFFFFFFFFFFFFFFFFFFFFFFFFFFFFFFFFFFF AND DUP2 MSTORE PUSH1 0x20 ADD SWAP1 DUP2 MSTORE PUSH1 0x20 ADD PUSH1 0x0 KECCAK256 PUSH1 0x0 DUP3 DUP3 SLOAD PUSH2 0x7A7 SWAP2 SWAP1 PUSH2 0x1D37 JUMP JUMPDEST SWAP3 POP POP DUP2 SWAP1 SSTORE POP JUMPDEST PUSH8 0xDE0B6B3A7640000 PUSH1 0x3 SLOAD DUP3 PUSH2 0x7C6 SWAP2 SWAP1 PUSH2 0x1D6B JUMP JUMPDEST PUSH2 0x7D0 SWAP2 SWAP1 PUSH2 0x1DDC JUMP JUMPDEST PUSH5 0xE8D4A51000 DUP4 PUSH2 0x7E1 SWAP2 SWAP1 PUSH2 0x1D6B JUMP JUMPDEST PUSH2 0x7EB SWAP2 SWAP1 PUSH2 0x1D37 JUMP JUMPDEST PUSH1 0x5 PUSH1 0x0 DUP3 DUP3 SLOAD PUSH2 0x7FC SWAP2 SWAP1 PUSH2 0x1D37 JUMP JUMPDEST SWAP3 POP POP DUP2 SWAP1 SSTORE POP CALLER PUSH20 0xFFFFFFFFFFFFFFFFFFFFFFFFFFFFFFFFFFFFFFFF AND PUSH32 0xAC1D76749E5447B7B16F5AB61447E1BD502F3BB4807AF3B28E620D1700A6EE45 DUP4 DUP4 PUSH1 0x40 MLOAD PUSH2 0x84B SWAP3 SWAP2 SWAP1 PUSH2 0x1E0D JUMP JUMPDEST PUSH1 0x40 MLOAD DUP1 SWAP2 SUB SWAP1 LOG2 POP POP JUMP JUMPDEST PUSH1 0x3 SLOAD DUP2 JUMP JUMPDEST PUSH1 0x0 PUSH1 0x14 SWAP1 SLOAD SWAP1 PUSH2 0x100 EXP SWAP1 DIV PUSH1 0xFF AND DUP2 JUMP JUMPDEST PUSH1 0x0 PUSH1 0x15 SWAP1 SLOAD SWAP1 PUSH2 0x100 EXP SWAP1 DIV PUSH1 0xFF AND DUP2 JUMP JUMPDEST PUSH1 0x0 DUP1 SLOAD SWAP1 PUSH2 0x100 EXP SWAP1 DIV PUSH20 0xFFFFFFFFFFFFFFFFFFFFFFFFFFFFFFFFFFFFFFFF AND PUSH20 0xFFFFFFFFFFFFFFFFFFFFFFFFFFFFFFFFFFFFFFFF AND CALLER PUSH20 0xFFFFFFFFFFFFFFFFFFFFFFFFFFFFFFFFFFFFFFFF AND EQ PUSH2 0x911 JUMPI PUSH1 0x40 MLOAD PUSH32 0x8C379A000000000000000000000000000000000000000000000000000000000 DUP2 MSTORE PUSH1 0x4 ADD PUSH2 0x908 SWAP1 PUSH2 0x1AE5 JUMP JUMPDEST PUSH1 0x40 MLOAD DUP1 SWAP2 SUB SWAP1 REVERT JUMPDEST DUP3 PUSH1 0x5 DUP2 SWAP1 SSTORE POP DUP2 PUSH1 0x6 DUP2 SWAP1 SSTORE POP DUP1 PUSH1 0x7 DUP2 SWAP1 SSTORE POP POP POP POP JUMP JUMPDEST PUSH1 0x8 PUSH1 0x20 MSTORE DUP1 PUSH1 0x0 MSTORE PUSH1 0x40 PUSH1 0x0 KECCAK256 PUSH1 0x0 SWAP2 POP SWAP1 POP SLOAD DUP2 JUMP JUMPDEST PUSH1 0x0 DUP1 SLOAD SWAP1 PUSH2 0x100 EXP SWAP1 DIV PUSH20 0xFFFFFFFFFFFFFFFFFFFFFFFFFFFFFFFFFFFFFFFF AND PUSH20 0xFFFFFFFFFFFFFFFFFFFFFFFFFFFFFFFFFFFFFFFF AND CALLER PUSH20 0xFFFFFFFFFFFFFFFFFFFFFFFFFFFFFFFFFFFFFFFF AND EQ PUSH2 0x9D1 JUMPI PUSH1 0x40 MLOAD PUSH32 0x8C379A000000000000000000000000000000000000000000000000000000000 DUP2 MSTORE PUSH1 0x4 ADD PUSH2 0x9C8 SWAP1 PUSH2 0x1AE5 JUMP JUMPDEST PUSH1 0x40 MLOAD DUP1 SWAP2 SUB SWAP1 REVERT JUMPDEST PUSH1 0x0 DUP1 PUSH1 0x14 PUSH2 0x100 EXP DUP2 SLOAD DUP2 PUSH1 0xFF MUL NOT AND SWAP1 DUP4 ISZERO ISZERO MUL OR SWAP1 SSTORE POP JUMP JUMPDEST PUSH1 0x7 SLOAD DUP2 JUMP JUMPDEST PUSH1 0x0 DUP1 SLOAD SWAP1 PUSH2 0x100 EXP SWAP1 DIV PUSH20 0xFFFFFFFFFFFFFFFFFFFFFFFFFFFFFFFFFFFFFFFF AND DUP2 JUMP JUMPDEST PUSH1 0x60 PUSH1 0x0 DUP1 PUSH1 0x60 PUSH1 0x0 DUP1 PUSH1 0x0 PUSH1 0x1 PUSH1 0x2 SLOAD PUSH1 0x3 SLOAD PUSH1 0x4 PUSH1 0x5 SLOAD PUSH1 0x6 SLOAD PUSH1 0x7 SLOAD DUP7 DUP1 SLOAD DUP1 PUSH1 0x20 MUL PUSH1 0x20 ADD PUSH1 0x40 MLOAD SWAP1 DUP2 ADD PUSH1 0x40 MSTORE DUP1 SWAP3 SWAP2 SWAP1 DUP2 DUP2 MSTORE PUSH1 0x20 ADD DUP3 DUP1 SLOAD DUP1 ISZERO PUSH2 0xAB7 JUMPI PUSH1 0x20 MUL DUP3 ADD SWAP2 SWAP1 PUSH1 0x0 MSTORE PUSH1 0x20 PUSH1 0x0 KECCAK256 SWAP1 JUMPDEST DUP2 PUSH1 0x0 SWAP1 SLOAD SWAP1 PUSH2 0x100 EXP SWAP1 DIV PUSH20 0xFFFFFFFFFFFFFFFFFFFFFFFFFFFFFFFFFFFFFFFF AND PUSH20 0xFFFFFFFFFFFFFFFFFFFFFFFFFFFFFFFFFFFFFFFF AND DUP2 MSTORE PUSH1 0x20 ADD SWAP1 PUSH1 0x1 ADD SWAP1 DUP1 DUP4 GT PUSH2 0xA6D JUMPI JUMPDEST POP POP POP POP POP SWAP7 POP DUP4 DUP1 SLOAD PUSH2 0xACA SWAP1 PUSH2 0x1E65 JUMP JUMPDEST DUP1 PUSH1 0x1F ADD PUSH1 0x20 DUP1 SWAP2 DIV MUL PUSH1 0x20 ADD PUSH1 0x40 MLOAD SWAP1 DUP2 ADD PUSH1 0x40 MSTORE DUP1 SWAP3 SWAP2 SWAP1 DUP2 DUP2 MSTORE PUSH1 0x20 ADD DUP3 DUP1 SLOAD PUSH2 0xAF6 SWAP1 PUSH2 0x1E65 JUMP JUMPDEST DUP1 ISZERO PUSH2 0xB43 JUMPI DUP1 PUSH1 0x1F LT PUSH2 0xB18 JUMPI PUSH2 0x100 DUP1 DUP4 SLOAD DIV MUL DUP4 MSTORE SWAP2 PUSH1 0x20 ADD SWAP2 PUSH2 0xB43 JUMP JUMPDEST DUP3 ADD SWAP2 SWAP1 PUSH1 0x0 MSTORE PUSH1 0x20 PUSH1 0x0 KECCAK256 SWAP1 JUMPDEST DUP2 SLOAD DUP2 MSTORE SWAP1 PUSH1 0x1 ADD SWAP1 PUSH1 0x20 ADD DUP1 DUP4 GT PUSH2 0xB26 JUMPI DUP3 SWAP1 SUB PUSH1 0x1F AND DUP3 ADD SWAP2 JUMPDEST POP POP POP POP POP SWAP4 POP SWAP7 POP SWAP7 POP SWAP7 POP SWAP7 POP SWAP7 POP SWAP7 POP SWAP7 POP SWAP1 SWAP2 SWAP3 SWAP4 SWAP5 SWAP6 SWAP7 JUMP JUMPDEST PUSH1 0x0 PUSH1 0x15 SWAP1 SLOAD SWAP1 PUSH2 0x100 EXP SWAP1 DIV PUSH1 0xFF AND PUSH2 0xBB0 JUMPI PUSH1 0x40 MLOAD PUSH32 0x8C379A000000000000000000000000000000000000000000000000000000000 DUP2 MSTORE PUSH1 0x4 ADD PUSH2 0xBA7 SWAP1 PUSH2 0x1B51 JUMP JUMPDEST PUSH1 0x40 MLOAD DUP1 SWAP2 SUB SWAP1 REVERT JUMPDEST PUSH1 0x0 DUP3 GT DUP1 PUSH2 0xBBF JUMPI POP PUSH1 0x0 DUP2 GT JUMPDEST PUSH2 0xBFE JUMPI PUSH1 0x40 MLOAD PUSH32 0x8C379A000000000000000000000000000000000000000000000000000000000 DUP2 MSTORE PUSH1 0x4 ADD PUSH2 0xBF5 SWAP1 PUSH2 0x1C29 JUMP JUMPDEST PUSH1 0x40 MLOAD DUP1 SWAP2 SUB SWAP1 REVERT JUMPDEST DUP2 PUSH1 0x8 PUSH1 0x0 CALLER PUSH20 0xFFFFFFFFFFFFFFFFFFFFFFFFFFFFFFFFFFFFFFFF AND PUSH20 0xFFFFFFFFFFFFFFFFFFFFFFFFFFFFFFFFFFFFFFFF AND DUP2 MSTORE PUSH1 0x20 ADD SWAP1 DUP2 MSTORE PUSH1 0x20 ADD PUSH1 0x0 KECCAK256 SLOAD LT ISZERO PUSH2 0xC80 JUMPI PUSH1 0x40 MLOAD PUSH32 0x8C379A000000000000000000000000000000000000000000000000000000000 DUP2 MSTORE PUSH1 0x4 ADD PUSH2 0xC77 SWAP1 PUSH2 0x1EE2 JUMP JUMPDEST PUSH1 0x40 MLOAD DUP1 SWAP2 SUB SWAP1 REVERT JUMPDEST DUP1 PUSH1 0x9 PUSH1 0x0 CALLER PUSH20 0xFFFFFFFFFFFFFFFFFFFFFFFFFFFFFFFFFFFFFFFF AND PUSH20 0xFFFFFFFFFFFFFFFFFFFFFFFFFFFFFFFFFFFFFFFF AND DUP2 MSTORE PUSH1 0x20 ADD SWAP1 DUP2 MSTORE PUSH1 0x20 ADD PUSH1 0x0 KECCAK256 SLOAD LT ISZERO PUSH2 0xD02 JUMPI PUSH1 0x40 MLOAD PUSH32 0x8C379A000000000000000000000000000000000000000000000000000000000 DUP2 MSTORE PUSH1 0x4 ADD PUSH2 0xCF9 SWAP1 PUSH2 0x1F4E JUMP JUMPDEST PUSH1 0x40 MLOAD DUP1 SWAP2 SUB SWAP1 REVERT JUMPDEST PUSH1 0x0 DUP3 GT ISZERO PUSH2 0xE20 JUMPI DUP2 PUSH1 0x8 PUSH1 0x0 CALLER PUSH20 0xFFFFFFFFFFFFFFFFFFFFFFFFFFFFFFFFFFFFFFFF AND PUSH20 0xFFFFFFFFFFFFFFFFFFFFFFFFFFFFFFFFFFFFFFFF AND DUP2 MSTORE PUSH1 0x20 ADD SWAP1 DUP2 MSTORE PUSH1 0x20 ADD PUSH1 0x0 KECCAK256 PUSH1 0x0 DUP3 DUP3 SLOAD PUSH2 0xD5A SWAP2 SWAP1 PUSH2 0x1F6E JUMP JUMPDEST SWAP3 POP POP DUP2 SWAP1 SSTORE POP PUSH1 0x1 PUSH1 0x0 DUP2 SLOAD DUP2 LT PUSH2 0xD76 JUMPI PUSH2 0xD75 PUSH2 0x1C49 JUMP JUMPDEST JUMPDEST SWAP1 PUSH1 0x0 MSTORE PUSH1 0x20 PUSH1 0x0 KECCAK256 ADD PUSH1 0x0 SWAP1 SLOAD SWAP1 PUSH2 0x100 EXP SWAP1 DIV PUSH20 0xFFFFFFFFFFFFFFFFFFFFFFFFFFFFFFFFFFFFFFFF AND PUSH20 0xFFFFFFFFFFFFFFFFFFFFFFFFFFFFFFFFFFFFFFFF AND PUSH4 0xA9059CBB CALLER DUP5 PUSH1 0x40 MLOAD DUP4 PUSH4 0xFFFFFFFF AND PUSH1 0xE0 SHL DUP2 MSTORE PUSH1 0x4 ADD PUSH2 0xDDB SWAP3 SWAP2 SWAP1 PUSH2 0x1FA2 JUMP JUMPDEST PUSH1 0x20 PUSH1 0x40 MLOAD DUP1 DUP4 SUB DUP2 PUSH1 0x0 DUP8 GAS CALL ISZERO DUP1 ISZERO PUSH2 0xDFA JUMPI RETURNDATASIZE PUSH1 0x0 DUP1 RETURNDATACOPY RETURNDATASIZE PUSH1 0x0 REVERT JUMPDEST POP POP POP POP PUSH1 0x40 MLOAD RETURNDATASIZE PUSH1 0x1F NOT PUSH1 0x1F DUP3 ADD AND DUP3 ADD DUP1 PUSH1 0x40 MSTORE POP DUP2 ADD SWAP1 PUSH2 0xE1E SWAP2 SWAP1 PUSH2 0x1CDB JUMP JUMPDEST POP JUMPDEST PUSH1 0x0 DUP2 GT ISZERO PUSH2 0xF3D JUMPI DUP1 PUSH1 0x9 PUSH1 0x0 CALLER PUSH20 0xFFFFFFFFFFFFFFFFFFFFFFFFFFFFFFFFFFFFFFFF AND PUSH20 0xFFFFFFFFFFFFFFFFFFFFFFFFFFFFFFFFFFFFFFFF AND DUP2 MSTORE PUSH1 0x20 ADD SWAP1 DUP2 MSTORE PUSH1 0x20 ADD PUSH1 0x0 KECCAK256 PUSH1 0x0 DUP3 DUP3 SLOAD PUSH2 0xE78 SWAP2 SWAP1 PUSH2 0x1F6E JUMP JUMPDEST SWAP3 POP POP DUP2 SWAP1 SSTORE POP PUSH1 0x1 DUP1 DUP2 SLOAD DUP2 LT PUSH2 0xE93 JUMPI PUSH2 0xE92 PUSH2 0x1C49 JUMP JUMPDEST JUMPDEST SWAP1 PUSH1 0x0 MSTORE PUSH1 0x20 PUSH1 0x0 KECCAK256 ADD PUSH1 0x0 SWAP1 SLOAD SWAP1 PUSH2 0x100 EXP SWAP1 DIV PUSH20 0xFFFFFFFFFFFFFFFFFFFFFFFFFFFFFFFFFFFFFFFF AND PUSH20 0xFFFFFFFFFFFFFFFFFFFFFFFFFFFFFFFFFFFFFFFF AND PUSH4 0xA9059CBB CALLER DUP4 PUSH1 0x40 MLOAD DUP4 PUSH4 0xFFFFFFFF AND PUSH1 0xE0 SHL DUP2 MSTORE PUSH1 0x4 ADD PUSH2 0xEF8 SWAP3 SWAP2 SWAP1 PUSH2 0x1FA2 JUMP JUMPDEST PUSH1 0x20 PUSH1 0x40 MLOAD DUP1 DUP4 SUB DUP2 PUSH1 0x0 DUP8 GAS CALL ISZERO DUP1 ISZERO PUSH2 0xF17 JUMPI RETURNDATASIZE PUSH1 0x0 DUP1 RETURNDATACOPY RETURNDATASIZE PUSH1 0x0 REVERT JUMPDEST POP POP POP POP PUSH1 0x40 MLOAD RETURNDATASIZE PUSH1 0x1F NOT PUSH1 0x1F DUP3 ADD AND DUP3 ADD DUP1 PUSH1 0x40 MSTORE POP DUP2 ADD SWAP1 PUSH2 0xF3B SWAP2 SWAP1 PUSH2 0x1CDB JUMP JUMPDEST POP JUMPDEST PUSH1 0x0 PUSH8 0xDE0B6B3A7640000 PUSH1 0x3 SLOAD DUP4 PUSH2 0xF56 SWAP2 SWAP1 PUSH2 0x1D6B JUMP JUMPDEST PUSH2 0xF60 SWAP2 SWAP1 PUSH2 0x1DDC JUMP JUMPDEST PUSH5 0xE8D4A51000 DUP5 PUSH2 0xF71 SWAP2 SWAP1 PUSH2 0x1D6B JUMP JUMPDEST PUSH2 0xF7B SWAP2 SWAP1 PUSH2 0x1D37 JUMP JUMPDEST SWAP1 POP DUP1 PUSH1 0x5 SLOAD LT PUSH2 0xFA4 JUMPI DUP1 PUSH1 0x5 PUSH1 0x0 DUP3 DUP3 SLOAD PUSH2 0xF98 SWAP2 SWAP1 PUSH2 0x1F6E JUMP JUMPDEST SWAP3 POP POP DUP2 SWAP1 SSTORE POP PUSH2 0xFAD JUMP JUMPDEST PUSH1 0x0 PUSH1 0x5 DUP2 SWAP1 SSTORE POP JUMPDEST CALLER PUSH20 0xFFFFFFFFFFFFFFFFFFFFFFFFFFFFFFFFFFFFFFFF AND PUSH32 0x96CD817C6329656790EF8FBA7675405193677D39619571282F5E21F3A98CD059 DUP5 DUP5 PUSH1 0x40 MLOAD PUSH2 0xFF5 SWAP3 SWAP2 SWAP1 PUSH2 0x1E0D JUMP JUMPDEST PUSH1 0x40 MLOAD DUP1 SWAP2 SUB SWAP1 LOG2 POP POP POP JUMP JUMPDEST PUSH1 0x1 DUP2 DUP2 SLOAD DUP2 LT PUSH2 0x1012 JUMPI PUSH1 0x0 DUP1 REVERT JUMPDEST SWAP1 PUSH1 0x0 MSTORE PUSH1 0x20 PUSH1 0x0 KECCAK256 ADD PUSH1 0x0 SWAP2 POP SLOAD SWAP1 PUSH2 0x100 EXP SWAP1 DIV PUSH20 0xFFFFFFFFFFFFFFFFFFFFFFFFFFFFFFFFFFFFFFFF AND DUP2 JUMP JUMPDEST PUSH1 0x2 SLOAD DUP2 JUMP JUMPDEST PUSH1 0x0 DUP1 SLOAD SWAP1 PUSH2 0x100 EXP SWAP1 DIV PUSH20 0xFFFFFFFFFFFFFFFFFFFFFFFFFFFFFFFFFFFFFFFF AND PUSH20 0xFFFFFFFFFFFFFFFFFFFFFFFFFFFFFFFFFFFFFFFF AND CALLER PUSH20 0xFFFFFFFFFFFFFFFFFFFFFFFFFFFFFFFFFFFFFFFF AND EQ PUSH2 0x10D5 JUMPI PUSH1 0x40 MLOAD PUSH32 0x8C379A000000000000000000000000000000000000000000000000000000000 DUP2 MSTORE PUSH1 0x4 ADD PUSH2 0x10CC SWAP1 PUSH2 0x1AE5 JUMP JUMPDEST PUSH1 0x40 MLOAD DUP1 SWAP2 SUB SWAP1 REVERT JUMPDEST PUSH1 0x0 PUSH1 0x15 SWAP1 SLOAD SWAP1 PUSH2 0x100 EXP SWAP1 DIV PUSH1 0xFF AND ISZERO PUSH2 0x1125 JUMPI PUSH1 0x40 MLOAD PUSH32 0x8C379A000000000000000000000000000000000000000000000000000000000 DUP2 MSTORE PUSH1 0x4 ADD PUSH2 0x111C SWAP1 PUSH2 0x2017 JUMP JUMPDEST PUSH1 0x40 MLOAD DUP1 SWAP2 SUB SWAP1 REVERT JUMPDEST PUSH1 0x2 DUP6 MLOAD EQ PUSH2 0x1169 JUMPI PUSH1 0x40 MLOAD PUSH32 0x8C379A000000000000000000000000000000000000000000000000000000000 DUP2 MSTORE PUSH1 0x4 ADD PUSH2 0x1160 SWAP1 PUSH2 0x2083 JUMP JUMPDEST PUSH1 0x40 MLOAD DUP1 SWAP2 SUB SWAP1 REVERT JUMPDEST PUSH1 0x0 DUP5 GT PUSH2 0x11AC JUMPI PUSH1 0x40 MLOAD PUSH32 0x8C379A000000000000000000000000000000000000000000000000000000000 DUP2 MSTORE PUSH1 0x4 ADD PUSH2 0x11A3 SWAP1 PUSH2 0x20EF JUMP JUMPDEST PUSH1 0x40 MLOAD DUP1 SWAP2 SUB SWAP1 REVERT JUMPDEST PUSH1 0x0 DUP4 GT PUSH2 0x11EF JUMPI PUSH1 0x40 MLOAD PUSH32 0x8C379A000000000000000000000000000000000000000000000000000000000 DUP2 MSTORE PUSH1 0x4 ADD PUSH2 0x11E6 SWAP1 PUSH2 0x2181 JUMP JUMPDEST PUSH1 0x40 MLOAD DUP1 SWAP2 SUB SWAP1 REVERT JUMPDEST PUSH1 0x0 DUP3 DUP3 SWAP1 POP GT PUSH2 0x1235 JUMPI PUSH1 0x40 MLOAD PUSH32 0x8C379A000000000000000000000000000000000000000000000000000000000 DUP2 MSTORE PUSH1 0x4 ADD PUSH2 0x122C SWAP1 PUSH2 0x21ED JUMP JUMPDEST PUSH1 0x40 MLOAD DUP1 SWAP2 SUB SWAP1 REVERT JUMPDEST DUP5 PUSH1 0x1 SWAP1 DUP1 MLOAD SWAP1 PUSH1 0x20 ADD SWAP1 PUSH2 0x124B SWAP3 SWAP2 SWAP1 PUSH2 0x1379 JUMP JUMPDEST POP DUP4 PUSH1 0x2 DUP2 SWAP1 SSTORE POP DUP3 PUSH1 0x3 DUP2 SWAP1 SSTORE POP DUP2 DUP2 PUSH1 0x4 SWAP2 DUP3 PUSH2 0x126B SWAP3 SWAP2 SWAP1 PUSH2 0x23C4 JUMP JUMPDEST POP PUSH1 0x1 PUSH1 0x0 PUSH1 0x15 PUSH2 0x100 EXP DUP2 SLOAD DUP2 PUSH1 0xFF MUL NOT AND SWAP1 DUP4 ISZERO ISZERO MUL OR SWAP1 SSTORE POP PUSH1 0x0 PUSH1 0x5 DUP2 SWAP1 SSTORE POP PUSH1 0x0 PUSH1 0x6 DUP2 SWAP1 SSTORE POP PUSH1 0x0 PUSH1 0x7 DUP2 SWAP1 SSTORE POP PUSH32 0xBCD74A59EF1C06BAA0F21D290C50EB6B4E5E897E130B4796CBECAD41D25CED22 DUP6 DUP6 DUP6 DUP6 DUP6 PUSH1 0x40 MLOAD PUSH2 0x12D6 SWAP6 SWAP5 SWAP4 SWAP3 SWAP2 SWAP1 PUSH2 0x24D0 JUMP JUMPDEST PUSH1 0x40 MLOAD DUP1 SWAP2 SUB SWAP1 LOG1 POP POP POP POP POP JUMP JUMPDEST PUSH1 0x5 SLOAD DUP2 JUMP JUMPDEST PUSH1 0x4 DUP1 SLOAD PUSH2 0x12F8 SWAP1 PUSH2 0x1E65 JUMP JUMPDEST DUP1 PUSH1 0x1F ADD PUSH1 0x20 DUP1 SWAP2 DIV MUL PUSH1 0x20 ADD PUSH1 0x40 MLOAD SWAP1 DUP2 ADD PUSH1 0x40 MSTORE DUP1 SWAP3 SWAP2 SWAP1 DUP2 DUP2 MSTORE PUSH1 0x20 ADD DUP3 DUP1 SLOAD PUSH2 0x1324 SWAP1 PUSH2 0x1E65 JUMP JUMPDEST DUP1 ISZERO PUSH2 0x1371 JUMPI DUP1 PUSH1 0x1F LT PUSH2 0x1346 JUMPI PUSH2 0x100 DUP1 DUP4 SLOAD DIV MUL DUP4 MSTORE SWAP2 PUSH1 0x20 ADD SWAP2 PUSH2 0x1371 JUMP JUMPDEST DUP3 ADD SWAP2 SWAP1 PUSH1 0x0 MSTORE PUSH1 0x20 PUSH1 0x0 KECCAK256 SWAP1 JUMPDEST DUP2 SLOAD DUP2 MSTORE SWAP1 PUSH1 0x1 ADD SWAP1 PUSH1 0x20 ADD DUP1 DUP4 GT PUSH2 0x1354 JUMPI DUP3 SWAP1 SUB PUSH1 0x1F AND DUP3 ADD SWAP2 JUMPDEST POP POP POP POP POP DUP2 JUMP JUMPDEST DUP3 DUP1 SLOAD DUP3 DUP3 SSTORE SWAP1 PUSH1 0x0 MSTORE PUSH1 0x20 PUSH1 0x0 KECCAK256 SWAP1 DUP2 ADD SWAP3 DUP3 ISZERO PUSH2 0x13F2 JUMPI SWAP2 PUSH1 0x20 MUL DUP3 ADD JUMPDEST DUP3 DUP2 GT ISZERO PUSH2 0x13F1 JUMPI DUP3 MLOAD DUP3 PUSH1 0x0 PUSH2 0x100 EXP DUP2 SLOAD DUP2 PUSH20 0xFFFFFFFFFFFFFFFFFFFFFFFFFFFFFFFFFFFFFFFF MUL NOT AND SWAP1 DUP4 PUSH20 0xFFFFFFFFFFFFFFFFFFFFFFFFFFFFFFFFFFFFFFFF AND MUL OR SWAP1 SSTORE POP SWAP2 PUSH1 0x20 ADD SWAP2 SWAP1 PUSH1 0x1 ADD SWAP1 PUSH2 0x1399 JUMP JUMPDEST JUMPDEST POP SWAP1 POP PUSH2 0x13FF SWAP2 SWAP1 PUSH2 0x1403 JUMP JUMPDEST POP SWAP1 JUMP JUMPDEST JUMPDEST DUP1 DUP3 GT ISZERO PUSH2 0x141C JUMPI PUSH1 0x0 DUP2 PUSH1 0x0 SWAP1 SSTORE POP PUSH1 0x1 ADD PUSH2 0x1404 JUMP JUMPDEST POP SWAP1 JUMP JUMPDEST PUSH1 0x0 DUP2 SWAP1 POP SWAP2 SWAP1 POP JUMP JUMPDEST PUSH2 0x1433 DUP2 PUSH2 0x1420 JUMP JUMPDEST DUP3 MSTORE POP POP JUMP JUMPDEST PUSH1 0x0 PUSH1 0x20 DUP3 ADD SWAP1 POP PUSH2 0x144E PUSH1 0x0 DUP4 ADD DUP5 PUSH2 0x142A JUMP JUMPDEST SWAP3 SWAP2 POP POP JUMP JUMPDEST PUSH1 0x0 PUSH1 0x40 MLOAD SWAP1 POP SWAP1 JUMP JUMPDEST PUSH1 0x0 DUP1 REVERT JUMPDEST PUSH1 0x0 DUP1 REVERT JUMPDEST PUSH1 0x0 PUSH20 0xFFFFFFFFFFFFFFFFFFFFFFFFFFFFFFFFFFFFFFFF DUP3 AND SWAP1 POP SWAP2 SWAP1 POP JUMP JUMPDEST PUSH1 0x0 PUSH2 0x1493 DUP3 PUSH2 0x1468 JUMP JUMPDEST SWAP1 POP SWAP2 SWAP1 POP JUMP JUMPDEST PUSH2 0x14A3 DUP2 PUSH2 0x1488 JUMP JUMPDEST DUP2 EQ PUSH2 0x14AE JUMPI PUSH1 0x0 DUP1 REVERT JUMPDEST POP JUMP JUMPDEST PUSH1 0x0 DUP2 CALLDATALOAD SWAP1 POP PUSH2 0x14C0 DUP2 PUSH2 0x149A JUMP JUMPDEST SWAP3 SWAP2 POP POP JUMP JUMPDEST PUSH1 0x0 PUSH1 0x20 DUP3 DUP5 SUB SLT ISZERO PUSH2 0x14DC JUMPI PUSH2 0x14DB PUSH2 0x145E JUMP JUMPDEST JUMPDEST PUSH1 0x0 PUSH2 0x14EA DUP5 DUP3 DUP6 ADD PUSH2 0x14B1 JUMP JUMPDEST SWAP2 POP POP SWAP3 SWAP2 POP POP JUMP JUMPDEST PUSH2 0x14FC DUP2 PUSH2 0x1420 JUMP JUMPDEST DUP2 EQ PUSH2 0x1507 JUMPI PUSH1 0x0 DUP1 REVERT JUMPDEST POP JUMP JUMPDEST PUSH1 0x0 DUP2 CALLDATALOAD SWAP1 POP PUSH2 0x1519 DUP2 PUSH2 0x14F3 JUMP JUMPDEST SWAP3 SWAP2 POP POP JUMP JUMPDEST PUSH1 0x0 DUP1 PUSH1 0x40 DUP4 DUP6 SUB SLT ISZERO PUSH2 0x1536 JUMPI PUSH2 0x1535 PUSH2 0x145E JUMP JUMPDEST JUMPDEST PUSH1 0x0 PUSH2 0x1544 DUP6 DUP3 DUP7 ADD PUSH2 0x150A JUMP JUMPDEST SWAP3 POP POP PUSH1 0x20 PUSH2 0x1555 DUP6 DUP3 DUP7 ADD PUSH2 0x150A JUMP JUMPDEST SWAP2 POP POP SWAP3 POP SWAP3 SWAP1 POP JUMP JUMPDEST PUSH1 0x0 DUP2 ISZERO ISZERO SWAP1 POP SWAP2 SWAP1 POP JUMP JUMPDEST PUSH2 0x1574 DUP2 PUSH2 0x155F JUMP JUMPDEST DUP3 MSTORE POP POP JUMP JUMPDEST PUSH1 0x0 PUSH1 0x20 DUP3 ADD SWAP1 POP PUSH2 0x158F PUSH1 0x0 DUP4 ADD DUP5 PUSH2 0x156B JUMP JUMPDEST SWAP3 SWAP2 POP POP JUMP JUMPDEST PUSH1 0x0 DUP1 PUSH1 0x0 PUSH1 0x60 DUP5 DUP7 SUB SLT ISZERO PUSH2 0x15AE JUMPI PUSH2 0x15AD PUSH2 0x145E JUMP JUMPDEST JUMPDEST PUSH1 0x0 PUSH2 0x15BC DUP7 DUP3 DUP8 ADD PUSH2 0x150A JUMP JUMPDEST SWAP4 POP POP PUSH1 0x20 PUSH2 0x15CD DUP7 DUP3 DUP8 ADD PUSH2 0x150A JUMP JUMPDEST SWAP3 POP POP PUSH1 0x40 PUSH2 0x15DE DUP7 DUP3 DUP8 ADD PUSH2 0x150A JUMP JUMPDEST SWAP2 POP POP SWAP3 POP SWAP3 POP SWAP3 JUMP JUMPDEST PUSH2 0x15F1 DUP2 PUSH2 0x1488 JUMP JUMPDEST DUP3 MSTORE POP POP JUMP JUMPDEST PUSH1 0x0 PUSH1 0x20 DUP3 ADD SWAP1 POP PUSH2 0x160C PUSH1 0x0 DUP4 ADD DUP5 PUSH2 0x15E8 JUMP JUMPDEST SWAP3 SWAP2 POP POP JUMP JUMPDEST PUSH1 0x0 DUP2 MLOAD SWAP1 POP SWAP2 SWAP1 POP JUMP JUMPDEST PUSH1 0x0 DUP3 DUP3 MSTORE PUSH1 0x20 DUP3 ADD SWAP1 POP SWAP3 SWAP2 POP POP JUMP JUMPDEST PUSH1 0x0 DUP2 SWAP1 POP PUSH1 0x20 DUP3 ADD SWAP1 POP SWAP2 SWAP1 POP JUMP JUMPDEST PUSH2 0x1647 DUP2 PUSH2 0x1488 JUMP JUMPDEST DUP3 MSTORE POP POP JUMP JUMPDEST PUSH1 0x0 PUSH2 0x1659 DUP4 DUP4 PUSH2 0x163E JUMP JUMPDEST PUSH1 0x20 DUP4 ADD SWAP1 POP SWAP3 SWAP2 POP POP JUMP JUMPDEST PUSH1 0x0 PUSH1 0x20 DUP3 ADD SWAP1 POP SWAP2 SWAP1 POP JUMP JUMPDEST PUSH1 0x0 PUSH2 0x167D DUP3 PUSH2 0x1612 JUMP JUMPDEST PUSH2 0x1687 DUP2 DUP6 PUSH2 0x161D JUMP JUMPDEST SWAP4 POP PUSH2 0x1692 DUP4 PUSH2 0x162E JUMP JUMPDEST DUP1 PUSH1 0x0 JUMPDEST DUP4 DUP2 LT ISZERO PUSH2 0x16C3 JUMPI DUP2 MLOAD PUSH2 0x16AA DUP9 DUP3 PUSH2 0x164D JUMP JUMPDEST SWAP8 POP PUSH2 0x16B5 DUP4 PUSH2 0x1665 JUMP JUMPDEST SWAP3 POP POP PUSH1 0x1 DUP2 ADD SWAP1 POP PUSH2 0x1696 JUMP JUMPDEST POP DUP6 SWAP4 POP POP POP POP SWAP3 SWAP2 POP POP JUMP JUMPDEST PUSH1 0x0 DUP2 MLOAD SWAP1 POP SWAP2 SWAP1 POP JUMP JUMPDEST PUSH1 0x0 DUP3 DUP3 MSTORE PUSH1 0x20 DUP3 ADD SWAP1 POP SWAP3 SWAP2 POP POP JUMP JUMPDEST PUSH1 0x0 JUMPDEST DUP4 DUP2 LT ISZERO PUSH2 0x170A JUMPI DUP1 DUP3 ADD MLOAD DUP2 DUP5 ADD MSTORE PUSH1 0x20 DUP2 ADD SWAP1 POP PUSH2 0x16EF JUMP JUMPDEST PUSH1 0x0 DUP5 DUP5 ADD MSTORE POP POP POP POP JUMP JUMPDEST PUSH1 0x0 PUSH1 0x1F NOT PUSH1 0x1F DUP4 ADD AND SWAP1 POP SWAP2 SWAP1 POP JUMP JUMPDEST PUSH1 0x0 PUSH2 0x1732 DUP3 PUSH2 0x16D0 JUMP JUMPDEST PUSH2 0x173C DUP2 DUP6 PUSH2 0x16DB JUMP JUMPDEST SWAP4 POP PUSH2 0x174C DUP2 DUP6 PUSH1 0x20 DUP7 ADD PUSH2 0x16EC JUMP JUMPDEST PUSH2 0x1755 DUP2 PUSH2 0x1716 JUMP JUMPDEST DUP5 ADD SWAP2 POP POP SWAP3 SWAP2 POP POP JUMP JUMPDEST PUSH1 0x0 PUSH1 0xE0 DUP3 ADD SWAP1 POP DUP2 DUP2 SUB PUSH1 0x0 DUP4 ADD MSTORE PUSH2 0x177A DUP2 DUP11 PUSH2 0x1672 JUMP JUMPDEST SWAP1 POP PUSH2 0x1789 PUSH1 0x20 DUP4 ADD DUP10 PUSH2 0x142A JUMP JUMPDEST PUSH2 0x1796 PUSH1 0x40 DUP4 ADD DUP9 PUSH2 0x142A JUMP JUMPDEST DUP2 DUP2 SUB PUSH1 0x60 DUP4 ADD MSTORE PUSH2 0x17A8 DUP2 DUP8 PUSH2 0x1727 JUMP JUMPDEST SWAP1 POP PUSH2 0x17B7 PUSH1 0x80 DUP4 ADD DUP7 PUSH2 0x142A JUMP JUMPDEST PUSH2 0x17C4 PUSH1 0xA0 DUP4 ADD DUP6 PUSH2 0x142A JUMP JUMPDEST PUSH2 0x17D1 PUSH1 0xC0 DUP4 ADD DUP5 PUSH2 0x142A JUMP JUMPDEST SWAP9 SWAP8 POP POP POP POP POP POP POP POP JUMP JUMPDEST PUSH1 0x0 PUSH1 0x20 DUP3 DUP5 SUB SLT ISZERO PUSH2 0x17F3 JUMPI PUSH2 0x17F2 PUSH2 0x145E JUMP JUMPDEST JUMPDEST PUSH1 0x0 PUSH2 0x1801 DUP5 DUP3 DUP6 ADD PUSH2 0x150A JUMP JUMPDEST SWAP2 POP POP SWAP3 SWAP2 POP POP JUMP JUMPDEST PUSH1 0x0 DUP1 REVERT JUMPDEST PUSH32 0x4E487B7100000000000000000000000000000000000000000000000000000000 PUSH1 0x0 MSTORE PUSH1 0x41 PUSH1 0x4 MSTORE PUSH1 0x24 PUSH1 0x0 REVERT JUMPDEST PUSH2 0x1847 DUP3 PUSH2 0x1716 JUMP JUMPDEST DUP2 ADD DUP2 DUP2 LT PUSH8 0xFFFFFFFFFFFFFFFF DUP3 GT OR ISZERO PUSH2 0x1866 JUMPI PUSH2 0x1865 PUSH2 0x180F JUMP JUMPDEST JUMPDEST DUP1 PUSH1 0x40 MSTORE POP POP POP JUMP JUMPDEST PUSH1 0x0 PUSH2 0x1879 PUSH2 0x1454 JUMP JUMPDEST SWAP1 POP PUSH2 0x1885 DUP3 DUP3 PUSH2 0x183E JUMP JUMPDEST SWAP2 SWAP1 POP JUMP JUMPDEST PUSH1 0x0 PUSH8 0xFFFFFFFFFFFFFFFF DUP3 GT ISZERO PUSH2 0x18A5 JUMPI PUSH2 0x18A4 PUSH2 0x180F JUMP JUMPDEST JUMPDEST PUSH1 0x20 DUP3 MUL SWAP1 POP PUSH1 0x20 DUP2 ADD SWAP1 POP SWAP2 SWAP1 POP JUMP JUMPDEST PUSH1 0x0 DUP1 REVERT JUMPDEST PUSH1 0x0 PUSH2 0x18CE PUSH2 0x18C9 DUP5 PUSH2 0x188A JUMP JUMPDEST PUSH2 0x186F JUMP JUMPDEST SWAP1 POP DUP1 DUP4 DUP3 MSTORE PUSH1 0x20 DUP3 ADD SWAP1 POP PUSH1 0x20 DUP5 MUL DUP4 ADD DUP6 DUP2 GT ISZERO PUSH2 0x18F1 JUMPI PUSH2 0x18F0 PUSH2 0x18B6 JUMP JUMPDEST JUMPDEST DUP4 JUMPDEST DUP2 DUP2 LT ISZERO PUSH2 0x191A JUMPI DUP1 PUSH2 0x1906 DUP9 DUP3 PUSH2 0x14B1 JUMP JUMPDEST DUP5 MSTORE PUSH1 0x20 DUP5 ADD SWAP4 POP POP PUSH1 0x20 DUP2 ADD SWAP1 POP PUSH2 0x18F3 JUMP JUMPDEST POP POP POP SWAP4 SWAP3 POP POP POP JUMP JUMPDEST PUSH1 0x0 DUP3 PUSH1 0x1F DUP4 ADD SLT PUSH2 0x1939 JUMPI PUSH2 0x1938 PUSH2 0x180A JUMP JUMPDEST JUMPDEST DUP2 CALLDATALOAD PUSH2 0x1949 DUP5 DUP3 PUSH1 0x20 DUP7 ADD PUSH2 0x18BB JUMP JUMPDEST SWAP2 POP POP SWAP3 SWAP2 POP POP JUMP JUMPDEST PUSH1 0x0 DUP1 REVERT JUMPDEST PUSH1 0x0 DUP1 DUP4 PUSH1 0x1F DUP5 ADD SLT PUSH2 0x196D JUMPI PUSH2 0x196C PUSH2 0x180A JUMP JUMPDEST JUMPDEST DUP3 CALLDATALOAD SWAP1 POP PUSH8 0xFFFFFFFFFFFFFFFF DUP2 GT ISZERO PUSH2 0x198A JUMPI PUSH2 0x1989 PUSH2 0x1952 JUMP JUMPDEST JUMPDEST PUSH1 0x20 DUP4 ADD SWAP2 POP DUP4 PUSH1 0x1 DUP3 MUL DUP4 ADD GT ISZERO PUSH2 0x19A6 JUMPI PUSH2 0x19A5 PUSH2 0x18B6 JUMP JUMPDEST JUMPDEST SWAP3 POP SWAP3 SWAP1 POP JUMP JUMPDEST PUSH1 0x0 DUP1 PUSH1 0x0 DUP1 PUSH1 0x0 PUSH1 0x80 DUP7 DUP9 SUB SLT ISZERO PUSH2 0x19C9 JUMPI PUSH2 0x19C8 PUSH2 0x145E JUMP JUMPDEST JUMPDEST PUSH1 0x0 DUP7 ADD CALLDATALOAD PUSH8 0xFFFFFFFFFFFFFFFF DUP2 GT ISZERO PUSH2 0x19E7 JUMPI PUSH2 0x19E6 PUSH2 0x1463 JUMP JUMPDEST JUMPDEST PUSH2 0x19F3 DUP9 DUP3 DUP10 ADD PUSH2 0x1924 JUMP JUMPDEST SWAP6 POP POP PUSH1 0x20 PUSH2 0x1A04 DUP9 DUP3 DUP10 ADD PUSH2 0x150A JUMP JUMPDEST SWAP5 POP POP PUSH1 0x40 PUSH2 0x1A15 DUP9 DUP3 DUP10 ADD PUSH2 0x150A JUMP JUMPDEST SWAP4 POP POP PUSH1 0x60 DUP7 ADD CALLDATALOAD PUSH8 0xFFFFFFFFFFFFFFFF DUP2 GT ISZERO PUSH2 0x1A36 JUMPI PUSH2 0x1A35 PUSH2 0x1463 JUMP JUMPDEST JUMPDEST PUSH2 0x1A42 DUP9 DUP3 DUP10 ADD PUSH2 0x1957 JUMP JUMPDEST SWAP3 POP SWAP3 POP POP SWAP3 SWAP6 POP SWAP3 SWAP6 SWAP1 SWAP4 POP JUMP JUMPDEST PUSH1 0x0 PUSH1 0x20 DUP3 ADD SWAP1 POP DUP2 DUP2 SUB PUSH1 0x0 DUP4 ADD MSTORE PUSH2 0x1A6B DUP2 DUP5 PUSH2 0x1727 JUMP JUMPDEST SWAP1 POP SWAP3 SWAP2 POP POP JUMP JUMPDEST PUSH32 0x4F6E6C79206F776E65722063616E2063616C6C20746869732066756E6374696F PUSH1 0x0 DUP3 ADD MSTORE PUSH32 0x6E00000000000000000000000000000000000000000000000000000000000000 PUSH1 0x20 DUP3 ADD MSTORE POP JUMP JUMPDEST PUSH1 0x0 PUSH2 0x1ACF PUSH1 0x21 DUP4 PUSH2 0x16DB JUMP JUMPDEST SWAP2 POP PUSH2 0x1ADA DUP3 PUSH2 0x1A73 JUMP JUMPDEST PUSH1 0x40 DUP3 ADD SWAP1 POP SWAP2 SWAP1 POP JUMP JUMPDEST PUSH1 0x0 PUSH1 0x20 DUP3 ADD SWAP1 POP DUP2 DUP2 SUB PUSH1 0x0 DUP4 ADD MSTORE PUSH2 0x1AFE DUP2 PUSH2 0x1AC2 JUMP JUMPDEST SWAP1 POP SWAP2 SWAP1 POP JUMP JUMPDEST PUSH32 0x506F6F6C206E6F7420696E697469616C697A6564000000000000000000000000 PUSH1 0x0 DUP3 ADD MSTORE POP JUMP JUMPDEST PUSH1 0x0 PUSH2 0x1B3B PUSH1 0x14 DUP4 PUSH2 0x16DB JUMP JUMPDEST SWAP2 POP PUSH2 0x1B46 DUP3 PUSH2 0x1B05 JUMP JUMPDEST PUSH1 0x20 DUP3 ADD SWAP1 POP SWAP2 SWAP1 POP JUMP JUMPDEST PUSH1 0x0 PUSH1 0x20 DUP3 ADD SWAP1 POP DUP2 DUP2 SUB PUSH1 0x0 DUP4 ADD MSTORE PUSH2 0x1B6A DUP2 PUSH2 0x1B2E JUMP JUMPDEST SWAP1 POP SWAP2 SWAP1 POP JUMP JUMPDEST PUSH32 0x506F6F6C206E6F74206163746976650000000000000000000000000000000000 PUSH1 0x0 DUP3 ADD MSTORE POP JUMP JUMPDEST PUSH1 0x0 PUSH2 0x1BA7 PUSH1 0xF DUP4 PUSH2 0x16DB JUMP JUMPDEST SWAP2 POP PUSH2 0x1BB2 DUP3 PUSH2 0x1B71 JUMP JUMPDEST PUSH1 0x20 DUP3 ADD SWAP1 POP SWAP2 SWAP1 POP JUMP JUMPDEST PUSH1 0x0 PUSH1 0x20 DUP3 ADD SWAP1 POP DUP2 DUP2 SUB PUSH1 0x0 DUP4 ADD MSTORE PUSH2 0x1BD6 DUP2 PUSH2 0x1B9A JUMP JUMPDEST SWAP1 POP SWAP2 SWAP1 POP JUMP JUMPDEST PUSH32 0x416D6F756E74206D757374206265203E20300000000000000000000000000000 PUSH1 0x0 DUP3 ADD MSTORE POP JUMP JUMPDEST PUSH1 0x0 PUSH2 0x1C13 PUSH1 0x12 DUP4 PUSH2 0x16DB JUMP JUMPDEST SWAP2 POP PUSH2 0x1C1E DUP3 PUSH2 0x1BDD JUMP JUMPDEST PUSH1 0x20 DUP3 ADD SWAP1 POP SWAP2 SWAP1 POP JUMP JUMPDEST PUSH1 0x0 PUSH1 0x20 DUP3 ADD SWAP1 POP DUP2 DUP2 SUB PUSH1 0x0 DUP4 ADD MSTORE PUSH2 0x1C42 DUP2 PUSH2 0x1C06 JUMP JUMPDEST SWAP1 POP SWAP2 SWAP1 POP JUMP JUMPDEST PUSH32 0x4E487B7100000000000000000000000000000000000000000000000000000000 PUSH1 0x0 MSTORE PUSH1 0x32 PUSH1 0x4 MSTORE PUSH1 0x24 PUSH1 0x0 REVERT JUMPDEST PUSH1 0x0 PUSH1 0x60 DUP3 ADD SWAP1 POP PUSH2 0x1C8D PUSH1 0x0 DUP4 ADD DUP7 PUSH2 0x15E8 JUMP JUMPDEST PUSH2 0x1C9A PUSH1 0x20 DUP4 ADD DUP6 PUSH2 0x15E8 JUMP JUMPDEST PUSH2 0x1CA7 PUSH1 0x40 DUP4 ADD DUP5 PUSH2 0x142A JUMP JUMPDEST SWAP5 SWAP4 POP POP POP POP JUMP JUMPDEST PUSH2 0x1CB8 DUP2 PUSH2 0x155F JUMP JUMPDEST DUP2 EQ PUSH2 0x1CC3 JUMPI PUSH1 0x0 DUP1 REVERT JUMPDEST POP JUMP JUMPDEST PUSH1 0x0 DUP2 MLOAD SWAP1 POP PUSH2 0x1CD5 DUP2 PUSH2 0x1CAF JUMP JUMPDEST SWAP3 SWAP2 POP POP JUMP JUMPDEST PUSH1 0x0 PUSH1 0x20 DUP3 DUP5 SUB SLT ISZERO PUSH2 0x1CF1 JUMPI PUSH2 0x1CF0 PUSH2 0x145E JUMP JUMPDEST JUMPDEST PUSH1 0x0 PUSH2 0x1CFF DUP5 DUP3 DUP6 ADD PUSH2 0x1CC6 JUMP JUMPDEST SWAP2 POP POP SWAP3 SWAP2 POP POP JUMP JUMPDEST PUSH32 0x4E487B7100000000000000000000000000000000000000000000000000000000 PUSH1 0x0 MSTORE PUSH1 0x11 PUSH1 0x4 MSTORE PUSH1 0x24 PUSH1 0x0 REVERT JUMPDEST PUSH1 0x0 PUSH2 0x1D42 DUP3 PUSH2 0x1420 JUMP JUMPDEST SWAP2 POP PUSH2 0x1D4D DUP4 PUSH2 0x1420 JUMP JUMPDEST SWAP3 POP DUP3 DUP3 ADD SWAP1 POP DUP1 DUP3 GT ISZERO PUSH2 0x1D65 JUMPI PUSH2 0x1D64 PUSH2 0x1D08 JUMP JUMPDEST JUMPDEST SWAP3 SWAP2 POP POP JUMP JUMPDEST PUSH1 0x0 PUSH2 0x1D76 DUP3 PUSH2 0x1420 JUMP JUMPDEST SWAP2 POP PUSH2 0x1D81 DUP4 PUSH2 0x1420 JUMP JUMPDEST SWAP3 POP DUP3 DUP3 MUL PUSH2 0x1D8F DUP2 PUSH2 0x1420 JUMP JUMPDEST SWAP2 POP DUP3 DUP3 DIV DUP5 EQ DUP4 ISZERO OR PUSH2 0x1DA6 JUMPI PUSH2 0x1DA5 PUSH2 0x1D08 JUMP JUMPDEST JUMPDEST POP SWAP3 SWAP2 POP POP JUMP JUMPDEST PUSH32 0x4E487B7100000000000000000000000000000000000000000000000000000000 PUSH1 0x0 MSTORE PUSH1 0x12 PUSH1 0x4 MSTORE PUSH1 0x24 PUSH1 0x0 REVERT JUMPDEST PUSH1 0x0 PUSH2 0x1DE7 DUP3 PUSH2 0x1420 JUMP JUMPDEST SWAP2 POP PUSH2 0x1DF2 DUP4 PUSH2 0x1420 JUMP JUMPDEST SWAP3 POP DUP3 PUSH2 0x1E02 JUMPI PUSH2 0x1E01 PUSH2 0x1DAD JUMP JUMPDEST JUMPDEST DUP3 DUP3 DIV SWAP1 POP SWAP3 SWAP2 POP POP JUMP JUMPDEST PUSH1 0x0 PUSH1 0x40 DUP3 ADD SWAP1 POP PUSH2 0x1E22 PUSH1 0x0 DUP4 ADD DUP6 PUSH2 0x142A JUMP JUMPDEST PUSH2 0x1E2F PUSH1 0x20 DUP4 ADD DUP5 PUSH2 0x142A JUMP JUMPDEST SWAP4 SWAP3 POP POP POP JUMP JUMPDEST PUSH32 0x4E487B7100000000000000000000000000000000000000000000000000000000 PUSH1 0x0 MSTORE PUSH1 0x22 PUSH1 0x4 MSTORE PUSH1 0x24 PUSH1 0x0 REVERT JUMPDEST PUSH1 0x0 PUSH1 0x2 DUP3 DIV SWAP1 POP PUSH1 0x1 DUP3 AND DUP1 PUSH2 0x1E7D JUMPI PUSH1 0x7F DUP3 AND SWAP2 POP JUMPDEST PUSH1 0x20 DUP3 LT DUP2 SUB PUSH2 0x1E90 JUMPI PUSH2 0x1E8F PUSH2 0x1E36 JUMP JUMPDEST JUMPDEST POP SWAP2 SWAP1 POP JUMP JUMPDEST PUSH32 0x496E73756666696369656E7420555344432062616C616E636500000000000000 PUSH1 0x0 DUP3 ADD MSTORE POP JUMP JUMPDEST PUSH1 0x0 PUSH2 0x1ECC PUSH1 0x19 DUP4 PUSH2 0x16DB JUMP JUMPDEST SWAP2 POP PUSH2 0x1ED7 DUP3 PUSH2 0x1E96 JUMP JUMPDEST PUSH1 0x20 DUP3 ADD SWAP1 POP SWAP2 SWAP1 POP JUMP JUMPDEST PUSH1 0x0 PUSH1 0x20 DUP3 ADD SWAP1 POP DUP2 DUP2 SUB PUSH1 0x0 DUP4 ADD MSTORE PUSH2 0x1EFB DUP2 PUSH2 0x1EBF JUMP JUMPDEST SWAP1 POP SWAP2 SWAP1 POP JUMP JUMPDEST PUSH32 0x496E73756666696369656E74204E46532062616C616E63650000000000000000 PUSH1 0x0 DUP3 ADD MSTORE POP JUMP JUMPDEST PUSH1 0x0 PUSH2 0x1F38 PUSH1 0x18 DUP4 PUSH2 0x16DB JUMP JUMPDEST SWAP2 POP PUSH2 0x1F43 DUP3 PUSH2 0x1F02 JUMP JUMPDEST PUSH1 0x20 DUP3 ADD SWAP1 POP SWAP2 SWAP1 POP JUMP JUMPDEST PUSH1 0x0 PUSH1 0x20 DUP3 ADD SWAP1 POP DUP2 DUP2 SUB PUSH1 0x0 DUP4 ADD MSTORE PUSH2 0x1F67 DUP2 PUSH2 0x1F2B JUMP JUMPDEST SWAP1 POP SWAP2 SWAP1 POP JUMP JUMPDEST PUSH1 0x0 PUSH2 0x1F79 DUP3 PUSH2 0x1420 JUMP JUMPDEST SWAP2 POP PUSH2 0x1F84 DUP4 PUSH2 0x1420 JUMP JUMPDEST SWAP3 POP DUP3 DUP3 SUB SWAP1 POP DUP2 DUP2 GT ISZERO PUSH2 0x1F9C JUMPI PUSH2 0x1F9B PUSH2 0x1D08 JUMP JUMPDEST JUMPDEST SWAP3 SWAP2 POP POP JUMP JUMPDEST PUSH1 0x0 PUSH1 0x40 DUP3 ADD SWAP1 POP PUSH2 0x1FB7 PUSH1 0x0 DUP4 ADD DUP6 PUSH2 0x15E8 JUMP JUMPDEST PUSH2 0x1FC4 PUSH1 0x20 DUP4 ADD DUP5 PUSH2 0x142A JUMP JUMPDEST SWAP4 SWAP3 POP POP POP JUMP JUMPDEST PUSH32 0x506F6F6C20697320616C726561647920696E697469616C697A65640000000000 PUSH1 0x0 DUP3 ADD MSTORE POP JUMP JUMPDEST PUSH1 0x0 PUSH2 0x2001 PUSH1 0x1B DUP4 PUSH2 0x16DB JUMP JUMPDEST SWAP2 POP PUSH2 0x200C DUP3 PUSH2 0x1FCB JUMP JUMPDEST PUSH1 0x20 DUP3 ADD SWAP1 POP SWAP2 SWAP1 POP JUMP JUMPDEST PUSH1 0x0 PUSH1 0x20 DUP3 ADD SWAP1 POP DUP2 DUP2 SUB PUSH1 0x0 DUP4 ADD MSTORE PUSH2 0x2030 DUP2 PUSH2 0x1FF4 JUMP JUMPDEST SWAP1 POP SWAP2 SWAP1 POP JUMP JUMPDEST PUSH32 0x45786163746C792074776F206173736574732061726520726571756972656400 PUSH1 0x0 DUP3 ADD MSTORE POP JUMP JUMPDEST PUSH1 0x0 PUSH2 0x206D PUSH1 0x1F DUP4 PUSH2 0x16DB JUMP JUMPDEST SWAP2 POP PUSH2 0x2078 DUP3 PUSH2 0x2037 JUMP JUMPDEST PUSH1 0x20 DUP3 ADD SWAP1 POP SWAP2 SWAP1 POP JUMP JUMPDEST PUSH1 0x0 PUSH1 0x20 DUP3 ADD SWAP1 POP DUP2 DUP2 SUB PUSH1 0x0 DUP4 ADD MSTORE PUSH2 0x209C DUP2 PUSH2 0x2060 JUMP JUMPDEST SWAP1 POP SWAP2 SWAP1 POP JUMP JUMPDEST PUSH32 0x466565206D7573742062652067726561746572207468616E207A65726F000000 PUSH1 0x0 DUP3 ADD MSTORE POP JUMP JUMPDEST PUSH1 0x0 PUSH2 0x20D9 PUSH1 0x1D DUP4 PUSH2 0x16DB JUMP JUMPDEST SWAP2 POP PUSH2 0x20E4 DUP3 PUSH2 0x20A3 JUMP JUMPDEST PUSH1 0x20 DUP3 ADD SWAP1 POP SWAP2 SWAP1 POP JUMP JUMPDEST PUSH1 0x0 PUSH1 0x20 DUP3 ADD SWAP1 POP DUP2 DUP2 SUB PUSH1 0x0 DUP4 ADD MSTORE PUSH2 0x2108 DUP2 PUSH2 0x20CC JUMP JUMPDEST SWAP1 POP SWAP2 SWAP1 POP JUMP JUMPDEST PUSH32 0x496E697469616C207072696365206D7573742062652067726561746572207468 PUSH1 0x0 DUP3 ADD MSTORE PUSH32 0x616E207A65726F00000000000000000000000000000000000000000000000000 PUSH1 0x20 DUP3 ADD MSTORE POP JUMP JUMPDEST PUSH1 0x0 PUSH2 0x216B PUSH1 0x27 DUP4 PUSH2 0x16DB JUMP JUMPDEST SWAP2 POP PUSH2 0x2176 DUP3 PUSH2 0x210F JUMP JUMPDEST PUSH1 0x40 DUP3 ADD SWAP1 POP SWAP2 SWAP1 POP JUMP JUMPDEST PUSH1 0x0 PUSH1 0x20 DUP3 ADD SWAP1 POP DUP2 DUP2 SUB PUSH1 0x0 DUP4 ADD MSTORE PUSH2 0x219A DUP2 PUSH2 0x215E JUMP JUMPDEST SWAP1 POP SWAP2 SWAP1 POP JUMP JUMPDEST PUSH32 0x4B65726E656C2074797065206973207265717569726564000000000000000000 PUSH1 0x0 DUP3 ADD MSTORE POP JUMP JUMPDEST PUSH1 0x0 PUSH2 0x21D7 PUSH1 0x17 DUP4 PUSH2 0x16DB JUMP JUMPDEST SWAP2 POP PUSH2 0x21E2 DUP3 PUSH2 0x21A1 JUMP JUMPDEST PUSH1 0x20 DUP3 ADD SWAP1 POP SWAP2 SWAP1 POP JUMP JUMPDEST PUSH1 0x0 PUSH1 0x20 DUP3 ADD SWAP1 POP DUP2 DUP2 SUB PUSH1 0x0 DUP4 ADD MSTORE PUSH2 0x2206 DUP2 PUSH2 0x21CA JUMP JUMPDEST SWAP1 POP SWAP2 SWAP1 POP JUMP JUMPDEST PUSH1 0x0 DUP3 SWAP1 POP SWAP3 SWAP2 POP POP JUMP JUMPDEST PUSH1 0x0 DUP2 SWAP1 POP DUP2 PUSH1 0x0 MSTORE PUSH1 0x20 PUSH1 0x0 KECCAK256 SWAP1 POP SWAP2 SWAP1 POP JUMP JUMPDEST PUSH1 0x0 PUSH1 0x20 PUSH1 0x1F DUP4 ADD DIV SWAP1 POP SWAP2 SWAP1 POP JUMP JUMPDEST PUSH1 0x0 DUP3 DUP3 SHL SWAP1 POP SWAP3 SWAP2 POP POP JUMP JUMPDEST PUSH1 0x0 PUSH1 0x8 DUP4 MUL PUSH2 0x227A PUSH32 0xFFFFFFFFFFFFFFFFFFFFFFFFFFFFFFFFFFFFFFFFFFFFFFFFFFFFFFFFFFFFFFFF DUP3 PUSH2 0x223D JUMP JUMPDEST PUSH2 0x2284 DUP7 DUP4 PUSH2 0x223D JUMP JUMPDEST SWAP6 POP DUP1 NOT DUP5 AND SWAP4 POP DUP1 DUP7 AND DUP5 OR SWAP3 POP POP POP SWAP4 SWAP3 POP POP POP JUMP JUMPDEST PUSH1 0x0 DUP2 SWAP1 POP SWAP2 SWAP1 POP JUMP JUMPDEST PUSH1 0x0 PUSH2 0x22C1 PUSH2 0x22BC PUSH2 0x22B7 DUP5 PUSH2 0x1420 JUMP JUMPDEST PUSH2 0x229C JUMP JUMPDEST PUSH2 0x1420 JUMP JUMPDEST SWAP1 POP SWAP2 SWAP1 POP JUMP JUMPDEST PUSH1 0x0 DUP2 SWAP1 POP SWAP2 SWAP1 POP JUMP JUMPDEST PUSH2 0x22DB DUP4 PUSH2 0x22A6 JUMP JUMPDEST PUSH2 0x22EF PUSH2 0x22E7 DUP3 PUSH2 0x22C8 JUMP JUMPDEST DUP5 DUP5 SLOAD PUSH2 0x224A JUMP JUMPDEST DUP3 SSTORE POP POP POP POP JUMP JUMPDEST PUSH1 0x0 SWAP1 JUMP JUMPDEST PUSH2 0x2304 PUSH2 0x22F7 JUMP JUMPDEST PUSH2 0x230F DUP2 DUP5 DUP5 PUSH2 0x22D2 JUMP JUMPDEST POP POP POP JUMP JUMPDEST JUMPDEST DUP2 DUP2 LT ISZERO PUSH2 0x2333 JUMPI PUSH2 0x2328 PUSH1 0x0 DUP3 PUSH2 0x22FC JUMP JUMPDEST PUSH1 0x1 DUP2 ADD SWAP1 POP PUSH2 0x2315 JUMP JUMPDEST POP POP JUMP JUMPDEST PUSH1 0x1F DUP3 GT ISZERO PUSH2 0x2378 JUMPI PUSH2 0x2349 DUP2 PUSH2 0x2218 JUMP JUMPDEST PUSH2 0x2352 DUP5 PUSH2 0x222D JUMP JUMPDEST DUP2 ADD PUSH1 0x20 DUP6 LT ISZERO PUSH2 0x2361 JUMPI DUP2 SWAP1 POP JUMPDEST PUSH2 0x2375 PUSH2 0x236D DUP6 PUSH2 0x222D JUMP JUMPDEST DUP4 ADD DUP3 PUSH2 0x2314 JUMP JUMPDEST POP POP JUMPDEST POP POP POP JUMP JUMPDEST PUSH1 0x0 DUP3 DUP3 SHR SWAP1 POP SWAP3 SWAP2 POP POP JUMP JUMPDEST PUSH1 0x0 PUSH2 0x239B PUSH1 0x0 NOT DUP5 PUSH1 0x8 MUL PUSH2 0x237D JUMP JUMPDEST NOT DUP1 DUP4 AND SWAP2 POP POP SWAP3 SWAP2 POP POP JUMP JUMPDEST PUSH1 0x0 PUSH2 0x23B4 DUP4 DUP4 PUSH2 0x238A JUMP JUMPDEST SWAP2 POP DUP3 PUSH1 0x2 MUL DUP3 OR SWAP1 POP SWAP3 SWAP2 POP POP JUMP JUMPDEST PUSH2 0x23CE DUP4 DUP4 PUSH2 0x220D JUMP JUMPDEST PUSH8 0xFFFFFFFFFFFFFFFF DUP2 GT ISZERO PUSH2 0x23E7 JUMPI PUSH2 0x23E6 PUSH2 0x180F JUMP JUMPDEST JUMPDEST PUSH2 0x23F1 DUP3 SLOAD PUSH2 0x1E65 JUMP JUMPDEST PUSH2 0x23FC DUP3 DUP3 DUP6 PUSH2 0x2337 JUMP JUMPDEST PUSH1 0x0 PUSH1 0x1F DUP4 GT PUSH1 0x1 DUP2 EQ PUSH2 0x242B JUMPI PUSH1 0x0 DUP5 ISZERO PUSH2 0x2419 JUMPI DUP3 DUP8 ADD CALLDATALOAD SWAP1 POP JUMPDEST PUSH2 0x2423 DUP6 DUP3 PUSH2 0x23A8 JUMP JUMPDEST DUP7 SSTORE POP PUSH2 0x248B JUMP JUMPDEST PUSH1 0x1F NOT DUP5 AND PUSH2 0x2439 DUP7 PUSH2 0x2218 JUMP JUMPDEST PUSH1 0x0 JUMPDEST DUP3 DUP2 LT ISZERO PUSH2 0x2461 JUMPI DUP5 DUP10 ADD CALLDATALOAD DUP3 SSTORE PUSH1 0x1 DUP3 ADD SWAP2 POP PUSH1 0x20 DUP6 ADD SWAP5 POP PUSH1 0x20 DUP2 ADD SWAP1 POP PUSH2 0x243C JUMP JUMPDEST DUP7 DUP4 LT ISZERO PUSH2 0x247E JUMPI DUP5 DUP10 ADD CALLDATALOAD PUSH2 0x247A PUSH1 0x1F DUP10 AND DUP3 PUSH2 0x238A JUMP JUMPDEST DUP4 SSTORE POP JUMPDEST PUSH1 0x1 PUSH1 0x2 DUP9 MUL ADD DUP9 SSTORE POP POP POP JUMPDEST POP POP POP POP POP POP POP JUMP JUMPDEST DUP3 DUP2 DUP4 CALLDATACOPY PUSH1 0x0 DUP4 DUP4 ADD MSTORE POP POP POP JUMP JUMPDEST PUSH1 0x0 PUSH2 0x24AF DUP4 DUP6 PUSH2 0x16DB JUMP JUMPDEST SWAP4 POP PUSH2 0x24BC DUP4 DUP6 DUP5 PUSH2 0x2494 JUMP JUMPDEST PUSH2 0x24C5 DUP4 PUSH2 0x1716 JUMP JUMPDEST DUP5 ADD SWAP1 POP SWAP4 SWAP3 POP POP POP JUMP JUMPDEST PUSH1 0x0 PUSH1 0x80 DUP3 ADD SWAP1 POP DUP2 DUP2 SUB PUSH1 0x0 DUP4 ADD MSTORE PUSH2 0x24EA DUP2 DUP9 PUSH2 0x1672 JUMP JUMPDEST SWAP1 POP PUSH2 0x24F9 PUSH1 0x20 DUP4 ADD DUP8 PUSH2 0x142A JUMP JUMPDEST PUSH2 0x2506 PUSH1 0x40 DUP4 ADD DUP7 PUSH2 0x142A JUMP JUMPDEST DUP2 DUP2 SUB PUSH1 0x60 DUP4 ADD MSTORE PUSH2 0x2519 DUP2 DUP5 DUP7 PUSH2 0x24A3 JUMP JUMPDEST SWAP1 POP SWAP7 SWAP6 POP POP POP POP POP POP JUMP INVALID LOG2 PUSH5 0x6970667358 0x22 SLT KECCAK256 PUSH29 0x1D392E7060D6C94B1E9F344FB7776E76BE28AA619212F037735035A1CD AND SELFDESTRUCT PUSH5 0x736F6C6343 STOP ADDMOD EQ STOP CALLER LOG2 PUSH5 0x6970667358 0x22 SLT KECCAK256 0xC9 0x2D SUB 0xD0 0x4A 0xD4 LT 0xD2 0xAE 0xF7 0xA7 0xC1 0xEB 0xD6 AND 0xDE ISZERO SWAP14 DIV CODECOPY SLT CREATE2 0x22 0xC9 CODESIZE PUSH30 0xAD9986580D4764736F6C6343000814003300000000000000000000000000 "},"methodIdentifiers":{"activePool()":"7f7dde4a","createPool(address[],uint256,uint256,string)":"98c122b1","getPools()":"673a2a1f","isPool(address)":"5b16ebb7","owner()":"8da5cb5b","pools(uint256)":"ac4afa38","setActivePool(address)":"f7883a8b","transferOwnership(address)":"f2fde38b"}}}}}