{"contracts/Pool.sol":{"Pool":{"abi":[{"inputs":[{"internalType":"address","name":"_owner","type":"address"},{"internalType":"address[]","name":"_assets","type":"address[]"},{"internalType":"uint256","name":"_fee","type":"uint256"},{"internalType":"uint256","name":"_initialPrice","type":"uint256"},{"internalType":"string","name":"_kernelType","type":"string"}],"stateMutability":"nonpayable","type":"constructor"},{"anonymous":false,"inputs":[{"indexed":true,"internalType":"address","name":"provider","type":"address"},{"indexed":false,"internalType":"uint256","name":"usdcAmount","type":"uint256"},{"indexed":false,"internalType":"uint256","name":"nfsAmount","type":"uint256"}],"name":"LiquidityAdded","type":"event"},{"anonymous":false,"inputs":[{"indexed":true,"internalType":"address","name":"provider","type":"address"},{"indexed":false,"internalType":"uint256","name":"usdcAmount","type":"uint256"},{"indexed":false,"internalType":"uint256","name":"nfsAmount","type":"uint256"}],"name":"LiquidityRemoved","type":"event"},{"anonymous":false,"inputs":[{"indexed":false,"internalType":"address[]","name":"assets","type":"address[]"},{"indexed":false,"internalType":"uint256","name":"fee","type":"uint256"},{"indexed":false,"internalType":"uint256","name":"initialPrice","type":"uint256"},{"indexed":false,"internalType":"string","name":"kernelType","type":"string"}],"name":"PoolInitialized","type":"event"},{"anonymous":false,"inputs":[{"indexed":true,"internalType":"address","name":"sender","type":"address"},{"indexed":true,"internalType":"address","name":"tokenIn","type":"address"},{"indexed":true,"internalType":"address","name":"tokenOut","type":"address"},{"indexed":false,"internalType":"uint256","name":"amountIn","type":"uint256"},{"indexed":false,"internalType":"uint256","name":"amountOut","type":"uint256"},{"indexed":false,"internalType":"uint256","name":"minAmountOut","type":"uint256"},{"indexed":false,"internalType":"uint256","name":"slippageBps","type":"uint256"}],"name":"Swap","type":"event"},{"inputs":[],"name":"activate","outputs":[],"stateMutability":"nonpayable","type":"function"},{"inputs":[],"name":"apr","outputs":[{"internalType":"uint256","name":"","type":"uint256"}],"stateMutability":"view","type":"function"},{"inputs":[{"internalType":"uint256","name":"","type":"uint256"}],"name":"assets","outputs":[{"internalType":"address","name":"","type":"address"}],"stateMutability":"view","type":"function"},{"inputs":[{"internalType":"uint256","name":"_usdcAmount","type":"uint256"},{"internalType":"uint256","name":"_nfsAmount","type":"uint256"}],"name":"burn","outputs":[],"stateMutability":"nonpayable","type":"function"},{"inputs":[],"name":"deactivate","outputs":[],"stateMutability":"nonpayable","type":"function"},{"inputs":[],"name":"fee","outputs":[{"internalType":"uint256","name":"","type":"uint256"}],"stateMutability":"view","type":"function"},{"inputs":[],"name":"getPoolDetails","outputs":[{"internalType":"address[]","name":"","type":"address[]"},{"internalType":"uint256","name":"","type":"uint256"},{"internalType":"uint256","name":"","type":"uint256"},{"internalType":"string","name":"","type":"string"},{"internalType":"uint256","name":"","type":"uint256"},{"internalType":"uint256","name":"","type":"uint256"},{"internalType":"uint256","name":"","type":"uint256"}],"stateMutability":"view","type":"function"},{"inputs":[],"name":"initialPrice","outputs":[{"internalType":"uint256","name":"","type":"uint256"}],"stateMutability":"view","type":"function"},{"inputs":[{"internalType":"address[]","name":"_assets","type":"address[]"},{"internalType":"uint256","name":"_fees","type":"uint256"},{"internalType":"uint256","name":"_initialPrice","type":"uint256"},{"internalType":"string","name":"_kernelType","type":"string"}],"name":"initializePool","outputs":[],"stateMutability":"nonpayable","type":"function"},{"inputs":[],"name":"isActive","outputs":[{"internalType":"bool","name":"","type":"bool"}],"stateMutability":"view","type":"function"},{"inputs":[],"name":"isInitialized","outputs":[{"internalType":"bool","name":"","type":"bool"}],"stateMutability":"view","type":"function"},{"inputs":[],"name":"kernelType","outputs":[{"internalType":"string","name":"","type":"string"}],"stateMutability":"view","type":"function"},{"inputs":[{"internalType":"uint256","name":"_usdcAmount","type":"uint256"},{"internalType":"uint256","name":"_nfsAmount","type":"uint256"}],"name":"mint","outputs":[],"stateMutability":"nonpayable","type":"function"},{"inputs":[],"name":"owner","outputs":[{"internalType":"address","name":"","type":"address"}],"stateMutability":"view","type":"function"},{"inputs":[{"internalType":"address","name":"tokenIn","type":"address"},{"internalType":"uint256","name":"amountIn","type":"uint256"},{"internalType":"uint256","name":"minAmountOut","type":"uint256"},{"internalType":"uint256","name":"slippageBps","type":"uint256"}],"name":"swap","outputs":[],"stateMutability":"nonpayable","type":"function"},{"inputs":[],"name":"tvl","outputs":[{"internalType":"uint256","name":"","type":"uint256"}],"stateMutability":"view","type":"function"},{"inputs":[{"internalType":"uint256","name":"_tvl","type":"uint256"},{"internalType":"uint256","name":"_volume","type":"uint256"},{"internalType":"uint256","name":"_apr","type":"uint256"}],"name":"updateMetrics","outputs":[],"stateMutability":"nonpayable","type":"function"},{"inputs":[{"internalType":"address","name":"","type":"address"}],"name":"userNfsDeposit","outputs":[{"internalType":"uint256","name":"","type":"uint256"}],"stateMutability":"view","type":"function"},{"inputs":[{"internalType":"address","name":"","type":"address"}],"name":"userUsdcDeposit","outputs":[{"internalType":"uint256","name":"","type":"uint256"}],"stateMutability":"view","type":"function"},{"inputs":[],"name":"volume24h","outputs":[{"internalType":"uint256","name":"","type":"uint256"}],"stateMutability":"view","type":"function"}],"evm":{"bytecode":{"linkReferences":{},"object":"60806040523480156200001157600080fd5b506040516200365938038062003659833981810160405281019062000037919062000477565b846000806101000a81548173ffffffffffffffffffffffffffffffffffffffff021916908373ffffffffffffffffffffffffffffffffffffffff16021790555083600190805190602001906200008f929190620000bb565b5082600281905550816003819055508060049081620000af91906200077e565b50505050505062000865565b82805482825590600052602060002090810192821562000137579160200282015b82811115620001365782518260006101000a81548173ffffffffffffffffffffffffffffffffffffffff021916908373ffffffffffffffffffffffffffffffffffffffff16021790555091602001919060010190620000dc565b5b5090506200014691906200014a565b5090565b5b80821115620001655760008160009055506001016200014b565b5090565b6000604051905090565b600080fd5b600080fd5b600073ffffffffffffffffffffffffffffffffffffffff82169050919050565b6000620001aa826200017d565b9050919050565b620001bc816200019d565b8114620001c857600080fd5b50565b600081519050620001dc81620001b1565b92915050565b600080fd5b6000601f19601f8301169050919050565b7f4e487b7100000000000000000000000000000000000000000000000000000000600052604160045260246000fd5b6200023282620001e7565b810181811067ffffffffffffffff82111715620002545762000253620001f8565b5b80604052505050565b60006200026962000169565b905062000277828262000227565b919050565b600067ffffffffffffffff8211156200029a5762000299620001f8565b5b602082029050602081019050919050565b600080fd5b6000620002c7620002c1846200027c565b6200025d565b90508083825260208201905060208402830185811115620002ed57620002ec620002ab565b5b835b818110156200031a5780620003058882620001cb565b845260208401935050602081019050620002ef565b5050509392505050565b600082601f8301126200033c576200033b620001e2565b5b81516200034e848260208601620002b0565b91505092915050565b6000819050919050565b6200036c8162000357565b81146200037857600080fd5b50565b6000815190506200038c8162000361565b92915050565b600080fd5b600067ffffffffffffffff821115620003b557620003b4620001f8565b5b620003c082620001e7565b9050602081019050919050565b60005b83811015620003ed578082015181840152602081019050620003d0565b60008484015250505050565b6000620004106200040a8462000397565b6200025d565b9050828152602081018484840111156200042f576200042e62000392565b5b6200043c848285620003cd565b509392505050565b600082601f8301126200045c576200045b620001e2565b5b81516200046e848260208601620003f9565b91505092915050565b600080600080600060a0868803121562000496576200049562000173565b5b6000620004a688828901620001cb565b955050602086015167ffffffffffffffff811115620004ca57620004c962000178565b5b620004d88882890162000324565b9450506040620004eb888289016200037b565b9350506060620004fe888289016200037b565b925050608086015167ffffffffffffffff81111562000522576200052162000178565b5b620005308882890162000444565b9150509295509295909350565b600081519050919050565b7f4e487b7100000000000000000000000000000000000000000000000000000000600052602260045260246000fd5b600060028204905060018216806200059057607f821691505b602082108103620005a657620005a562000548565b5b50919050565b60008190508160005260206000209050919050565b60006020601f8301049050919050565b600082821b905092915050565b600060088302620006107fffffffffffffffffffffffffffffffffffffffffffffffffffffffffffffffff82620005d1565b6200061c8683620005d1565b95508019841693508086168417925050509392505050565b6000819050919050565b60006200065f62000659620006538462000357565b62000634565b62000357565b9050919050565b6000819050919050565b6200067b836200063e565b620006936200068a8262000666565b848454620005de565b825550505050565b600090565b620006aa6200069b565b620006b781848462000670565b505050565b5b81811015620006df57620006d3600082620006a0565b600181019050620006bd565b5050565b601f8211156200072e57620006f881620005ac565b6200070384620005c1565b8101602085101562000713578190505b6200072b6200072285620005c1565b830182620006bc565b50505b505050565b600082821c905092915050565b6000620007536000198460080262000733565b1980831691505092915050565b60006200076e838362000740565b9150826002028217905092915050565b62000789826200053d565b67ffffffffffffffff811115620007a557620007a4620001f8565b5b620007b1825462000577565b620007be828285620006e3565b600060209050601f831160018114620007f65760008415620007e1578287015190505b620007ed858262000760565b8655506200085d565b601f1984166200080686620005ac565b60005b82811015620008305784890151825560018201915060208501945060208101905062000809565b868310156200085057848901516200084c601f89168262000740565b8355505b6001600288020188555050505b505050505050565b612de480620008756000396000f3fe608060405234801561001057600080fd5b506004361061012c5760003560e01c806357ded9c9116100ad578063cf35bdd011610071578063cf35bdd0146102ed578063ddca3f431461031d578063e096e9491461033b578063e5328e0614610357578063e7bf0e00146103755761012c565b806357ded9c9146102555780638da5cb5b14610273578063aca34c1114610291578063b390c0ab146102b5578063c9ec9248146102d15761012c565b806322f3e2d4116100f457806322f3e2d4146101c3578063392e53cd146101e15780633c047e13146101ff57806345d32d1e1461021b57806351b42b001461024b5761012c565b80630f15f4c014610131578063140b9d841461013b57806318cddf03146101595780631b2ef1ca146101895780631d0806ae146101a5575b600080fd5b610139610393565b005b6101436103ff565b60405161015091906119b8565b60405180910390f35b610173600480360381019061016e9190611a45565b610405565b60405161018091906119b8565b60405180910390f35b6101a3600480360381019061019e9190611a9e565b61041d565b005b6101ad6107f0565b6040516101ba91906119b8565b60405180910390f35b6101cb6107f6565b6040516101d89190611af9565b60405180910390f35b6101e9610809565b6040516101f69190611af9565b60405180910390f35b61021960048036038101906102149190611b14565b61081c565b005b61023560048036038101906102309190611a45565b6108c4565b60405161024291906119b8565b60405180910390f35b6102536108dc565b005b61025d6108f8565b60405161026a91906119b8565b60405180910390f35b61027b6108fe565b6040516102889190611b76565b60405180910390f35b610299610922565b6040516102ac9796959493929190611cdf565b60405180910390f35b6102cf60048036038101906102ca9190611a9e565b610a6c565b005b6102eb60048036038101906102e69190611d5c565b610f0d565b005b61030760048036038101906103029190611dc3565b61160f565b6040516103149190611b76565b60405180910390f35b61032561164e565b60405161033291906119b8565b60405180910390f35b61035560048036038101906103509190611f93565b611654565b005b61035f611864565b60405161036c91906119b8565b60405180910390f35b61037d61186a565b60405161038a9190612037565b60405180910390f35b600060159054906101000a900460ff166103e2576040517f08c379a00000000000000000000000000000000000000000000000000000000081526004016103d9906120a5565b60405180910390fd5b6001600060146101000a81548160ff021916908315150217905550565b60065481565b60096020528060005260406000206000915090505481565b600060159054906101000a900460ff1661046c576040517f08c379a0000000000000000000000000000000000000000000000000000000008152600401610463906120a5565b60405180910390fd5b600060149054906101000a900460ff166104bb576040517f08c379a00000000000000000000000000000000000000000000000000000000081526004016104b290612111565b60405180910390fd5b60008211806104ca5750600081115b610509576040517f08c379a00000000000000000000000000000000000000000000000000000000081526004016105009061217d565b60405180910390fd5b60008211156106295760016000815481106105275761052661219d565b5b9060005260206000200160009054906101000a900473ffffffffffffffffffffffffffffffffffffffff1673ffffffffffffffffffffffffffffffffffffffff166323b872dd3330856040518463ffffffff1660e01b815260040161058e939291906121cc565b6020604051808303816000875af11580156105ad573d6000803e3d6000fd5b505050506040513d601f19601f820116820180604052508101906105d1919061222f565b5081600860003373ffffffffffffffffffffffffffffffffffffffff1673ffffffffffffffffffffffffffffffffffffffff1681526020019081526020016000206000828254610621919061228b565b925050819055505b600081111561074857600180815481106106465761064561219d565b5b9060005260206000200160009054906101000a900473ffffffffffffffffffffffffffffffffffffffff1673ffffffffffffffffffffffffffffffffffffffff166323b872dd3330846040518463ffffffff1660e01b81526004016106ad939291906121cc565b6020604051808303816000875af11580156106cc573d6000803e3d6000fd5b505050506040513d601f19601f820116820180604052508101906106f0919061222f565b5080600960003373ffffffffffffffffffffffffffffffffffffffff1673ffffffffffffffffffffffffffffffffffffffff1681526020019081526020016000206000828254610740919061228b565b925050819055505b670de0b6b3a76400006003548261075f91906122bf565b6107699190612330565b64e8d4a510008361077a91906122bf565b610784919061228b565b60056000828254610795919061228b565b925050819055503373ffffffffffffffffffffffffffffffffffffffff167fac1d76749e5447b7b16f5ab61447e1bd502f3bb4807af3b28e620d1700a6ee4583836040516107e4929190612361565b60405180910390a25050565b60035481565b600060149054906101000a900460ff1681565b600060159054906101000a900460ff1681565b60008054906101000a900473ffffffffffffffffffffffffffffffffffffffff1673ffffffffffffffffffffffffffffffffffffffff163373ffffffffffffffffffffffffffffffffffffffff16146108aa576040517f08c379a00000000000000000000000000000000000000000000000000000000081526004016108a1906123fc565b60405180910390fd5b826005819055508160068190555080600781905550505050565b60086020528060005260406000206000915090505481565b60008060146101000a81548160ff021916908315150217905550565b60075481565b60008054906101000a900473ffffffffffffffffffffffffffffffffffffffff1681565b60606000806060600080600060016002546003546004600554600654600754868054806020026020016040519081016040528092919081815260200182805480156109c257602002820191906000526020600020905b8160009054906101000a900473ffffffffffffffffffffffffffffffffffffffff1673ffffffffffffffffffffffffffffffffffffffff1681526020019060010190808311610978575b505050505096508380546109d59061244b565b80601f0160208091040260200160405190810160405280929190818152602001828054610a019061244b565b8015610a4e5780601f10610a2357610100808354040283529160200191610a4e565b820191906000526020600020905b815481529060010190602001808311610a3157829003601f168201915b50505050509350965096509650965096509650965090919293949596565b600060159054906101000a900460ff16610abb576040517f08c379a0000000000000000000000000000000000000000000000000000000008152600401610ab2906120a5565b60405180910390fd5b6000821180610aca5750600081115b610b09576040517f08c379a0000000000000000000000000000000000000000000000000000000008152600401610b009061217d565b60405180910390fd5b81600860003373ffffffffffffffffffffffffffffffffffffffff1673ffffffffffffffffffffffffffffffffffffffff168152602001908152602001600020541015610b8b576040517f08c379a0000000000000000000000000000000000000000000000000000000008152600401610b82906124c8565b60405180910390fd5b80600960003373ffffffffffffffffffffffffffffffffffffffff1673ffffffffffffffffffffffffffffffffffffffff168152602001908152602001600020541015610c0d576040517f08c379a0000000000000000000000000000000000000000000000000000000008152600401610c0490612534565b60405180910390fd5b6000821115610d2b5781600860003373ffffffffffffffffffffffffffffffffffffffff1673ffffffffffffffffffffffffffffffffffffffff1681526020019081526020016000206000828254610c659190612554565b925050819055506001600081548110610c8157610c8061219d565b5b9060005260206000200160009054906101000a900473ffffffffffffffffffffffffffffffffffffffff1673ffffffffffffffffffffffffffffffffffffffff1663a9059cbb33846040518363ffffffff1660e01b8152600401610ce6929190612588565b6020604051808303816000875af1158015610d05573d6000803e3d6000fd5b505050506040513d601f19601f82011682018060405250810190610d29919061222f565b505b6000811115610e485780600960003373ffffffffffffffffffffffffffffffffffffffff1673ffffffffffffffffffffffffffffffffffffffff1681526020019081526020016000206000828254610d839190612554565b9250508190555060018081548110610d9e57610d9d61219d565b5b9060005260206000200160009054906101000a900473ffffffffffffffffffffffffffffffffffffffff1673ffffffffffffffffffffffffffffffffffffffff1663a9059cbb33836040518363ffffffff1660e01b8152600401610e03929190612588565b6020604051808303816000875af1158015610e22573d6000803e3d6000fd5b505050506040513d601f19601f82011682018060405250810190610e46919061222f565b505b6000670de0b6b3a764000060035483610e6191906122bf565b610e6b9190612330565b64e8d4a5100084610e7c91906122bf565b610e86919061228b565b90508060055410610eaf578060056000828254610ea39190612554565b92505081905550610eb8565b60006005819055505b3373ffffffffffffffffffffffffffffffffffffffff167f96cd817c6329656790ef8fba7675405193677d39619571282f5e21f3a98cd0598484604051610f00929190612361565b60405180910390a2505050565b600060159054906101000a900460ff16610f5c576040517f08c379a0000000000000000000000000000000000000000000000000000000008152600401610f53906120a5565b60405180910390fd5b600060149054906101000a900460ff16610fab576040517f08c379a0000000000000000000000000000000000000000000000000000000008152600401610fa290612111565b60405180910390fd5b60008311610fee576040517f08c379a0000000000000000000000000000000000000000000000000000000008152600401610fe59061217d565b60405180910390fd5b60016000815481106110035761100261219d565b5b9060005260206000200160009054906101000a900473ffffffffffffffffffffffffffffffffffffffff1673ffffffffffffffffffffffffffffffffffffffff168473ffffffffffffffffffffffffffffffffffffffff1614806110d05750600180815481106110765761107561219d565b5b9060005260206000200160009054906101000a900473ffffffffffffffffffffffffffffffffffffffff1673ffffffffffffffffffffffffffffffffffffffff168473ffffffffffffffffffffffffffffffffffffffff16145b61110f576040517f08c379a0000000000000000000000000000000000000000000000000000000008152600401611106906125fd565b60405180910390fd5b620f42406002541115611157576040517f08c379a000000000000000000000000000000000000000000000000000000000815260040161114e90612669565b60405180910390fd5b6000600160008154811061116e5761116d61219d565b5b9060005260206000200160009054906101000a900473ffffffffffffffffffffffffffffffffffffffff1673ffffffffffffffffffffffffffffffffffffffff168573ffffffffffffffffffffffffffffffffffffffff16146112105760016000815481106111e0576111df61219d565b5b9060005260206000200160009054906101000a900473ffffffffffffffffffffffffffffffffffffffff16611250565b600180815481106112245761122361219d565b5b9060005260206000200160009054906101000a900473ffffffffffffffffffffffffffffffffffffffff165b905060008573ffffffffffffffffffffffffffffffffffffffff166370a08231306040518263ffffffff1660e01b815260040161128d9190611b76565b602060405180830381865afa1580156112aa573d6000803e3d6000fd5b505050506040513d601f19601f820116820180604052508101906112ce919061269e565b905060008273ffffffffffffffffffffffffffffffffffffffff166370a08231306040518263ffffffff1660e01b815260040161130b9190611b76565b602060405180830381865afa158015611328573d6000803e3d6000fd5b505050506040513d601f19601f8201168201806040525081019061134c919061269e565b905060008211801561135e5750600081115b61139d576040517f08c379a000000000000000000000000000000000000000000000000000000000815260040161139490612717565b60405180910390fd5b6000620f4240600254620f42406113b49190612554565b886113bf91906122bf565b6113c99190612330565b9050600081846113d9919061228b565b83836113e591906122bf565b6113ef9190612330565b905060008111801561140057508281105b61143f576040517f08c379a000000000000000000000000000000000000000000000000000000000815260040161143690612783565b60405180910390fd5b86811015611482576040517f08c379a0000000000000000000000000000000000000000000000000000000008152600401611479906127ef565b60405180910390fd5b8873ffffffffffffffffffffffffffffffffffffffff166323b872dd33308b6040518463ffffffff1660e01b81526004016114bf939291906121cc565b6020604051808303816000875af11580156114de573d6000803e3d6000fd5b505050506040513d601f19601f82011682018060405250810190611502919061222f565b508473ffffffffffffffffffffffffffffffffffffffff1663a9059cbb33836040518363ffffffff1660e01b815260040161153e929190612588565b6020604051808303816000875af115801561155d573d6000803e3d6000fd5b505050506040513d601f19601f82011682018060405250810190611581919061222f565b508473ffffffffffffffffffffffffffffffffffffffff168973ffffffffffffffffffffffffffffffffffffffff163373ffffffffffffffffffffffffffffffffffffffff167f0874b2d545cb271cdbda4e093020c452328b24af12382ed62c4d00f5c26709db8b858c8c6040516115fc949392919061280f565b60405180910390a4505050505050505050565b6001818154811061161f57600080fd5b906000526020600020016000915054906101000a900473ffffffffffffffffffffffffffffffffffffffff1681565b60025481565b600060159054906101000a900460ff16156116a4576040517f08c379a000000000000000000000000000000000000000000000000000000000815260040161169b906128a0565b60405180910390fd5b60028551146116e8576040517f08c379a00000000000000000000000000000000000000000000000000000000081526004016116df9061290c565b60405180910390fd5b6000841161172b576040517f08c379a000000000000000000000000000000000000000000000000000000000815260040161172290612978565b60405180910390fd5b6000831161176e576040517f08c379a000000000000000000000000000000000000000000000000000000000815260040161176590612a0a565b60405180910390fd5b600082829050116117b4576040517f08c379a00000000000000000000000000000000000000000000000000000000081526004016117ab90612a76565b60405180910390fd5b84600190805190602001906117ca9291906118f8565b5083600281905550826003819055508181600491826117ea929190612c4d565b506001600060156101000a81548160ff0219169083151502179055506000600581905550600060068190555060006007819055507fbcd74a59ef1c06baa0f21d290c50eb6b4e5e897e130b4796cbecad41d25ced228585858585604051611855959493929190612d59565b60405180910390a15050505050565b60055481565b600480546118779061244b565b80601f01602080910402602001604051908101604052809291908181526020018280546118a39061244b565b80156118f05780601f106118c5576101008083540402835291602001916118f0565b820191906000526020600020905b8154815290600101906020018083116118d357829003601f168201915b505050505081565b828054828255906000526020600020908101928215611971579160200282015b828111156119705782518260006101000a81548173ffffffffffffffffffffffffffffffffffffffff021916908373ffffffffffffffffffffffffffffffffffffffff16021790555091602001919060010190611918565b5b50905061197e9190611982565b5090565b5b8082111561199b576000816000905550600101611983565b5090565b6000819050919050565b6119b28161199f565b82525050565b60006020820190506119cd60008301846119a9565b92915050565b6000604051905090565b600080fd5b600080fd5b600073ffffffffffffffffffffffffffffffffffffffff82169050919050565b6000611a12826119e7565b9050919050565b611a2281611a07565b8114611a2d57600080fd5b50565b600081359050611a3f81611a19565b92915050565b600060208284031215611a5b57611a5a6119dd565b5b6000611a6984828501611a30565b91505092915050565b611a7b8161199f565b8114611a8657600080fd5b50565b600081359050611a9881611a72565b92915050565b60008060408385031215611ab557611ab46119dd565b5b6000611ac385828601611a89565b9250506020611ad485828601611a89565b9150509250929050565b60008115159050919050565b611af381611ade565b82525050565b6000602082019050611b0e6000830184611aea565b92915050565b600080600060608486031215611b2d57611b2c6119dd565b5b6000611b3b86828701611a89565b9350506020611b4c86828701611a89565b9250506040611b5d86828701611a89565b9150509250925092565b611b7081611a07565b82525050565b6000602082019050611b8b6000830184611b67565b92915050565b600081519050919050565b600082825260208201905092915050565b6000819050602082019050919050565b611bc681611a07565b82525050565b6000611bd88383611bbd565b60208301905092915050565b6000602082019050919050565b6000611bfc82611b91565b611c068185611b9c565b9350611c1183611bad565b8060005b83811015611c42578151611c298882611bcc565b9750611c3483611be4565b925050600181019050611c15565b5085935050505092915050565b600081519050919050565b600082825260208201905092915050565b60005b83811015611c89578082015181840152602081019050611c6e565b60008484015250505050565b6000601f19601f8301169050919050565b6000611cb182611c4f565b611cbb8185611c5a565b9350611ccb818560208601611c6b565b611cd481611c95565b840191505092915050565b600060e0820190508181036000830152611cf9818a611bf1565b9050611d0860208301896119a9565b611d1560408301886119a9565b8181036060830152611d278187611ca6565b9050611d3660808301866119a9565b611d4360a08301856119a9565b611d5060c08301846119a9565b98975050505050505050565b60008060008060808587031215611d7657611d756119dd565b5b6000611d8487828801611a30565b9450506020611d9587828801611a89565b9350506040611da687828801611a89565b9250506060611db787828801611a89565b91505092959194509250565b600060208284031215611dd957611dd86119dd565b5b6000611de784828501611a89565b91505092915050565b600080fd5b7f4e487b7100000000000000000000000000000000000000000000000000000000600052604160045260246000fd5b611e2d82611c95565b810181811067ffffffffffffffff82111715611e4c57611e4b611df5565b5b80604052505050565b6000611e5f6119d3565b9050611e6b8282611e24565b919050565b600067ffffffffffffffff821115611e8b57611e8a611df5565b5b602082029050602081019050919050565b600080fd5b6000611eb4611eaf84611e70565b611e55565b90508083825260208201905060208402830185811115611ed757611ed6611e9c565b5b835b81811015611f005780611eec8882611a30565b845260208401935050602081019050611ed9565b5050509392505050565b600082601f830112611f1f57611f1e611df0565b5b8135611f2f848260208601611ea1565b91505092915050565b600080fd5b60008083601f840112611f5357611f52611df0565b5b8235905067ffffffffffffffff811115611f7057611f6f611f38565b5b602083019150836001820283011115611f8c57611f8b611e9c565b5b9250929050565b600080600080600060808688031215611faf57611fae6119dd565b5b600086013567ffffffffffffffff811115611fcd57611fcc6119e2565b5b611fd988828901611f0a565b9550506020611fea88828901611a89565b9450506040611ffb88828901611a89565b935050606086013567ffffffffffffffff81111561201c5761201b6119e2565b5b61202888828901611f3d565b92509250509295509295909350565b600060208201905081810360008301526120518184611ca6565b905092915050565b7f506f6f6c206e6f7420696e697469616c697a6564000000000000000000000000600082015250565b600061208f601483611c5a565b915061209a82612059565b602082019050919050565b600060208201905081810360008301526120be81612082565b9050919050565b7f506f6f6c206e6f74206163746976650000000000000000000000000000000000600082015250565b60006120fb600f83611c5a565b9150612106826120c5565b602082019050919050565b6000602082019050818103600083015261212a816120ee565b9050919050565b7f416d6f756e74206d757374206265203e20300000000000000000000000000000600082015250565b6000612167601283611c5a565b915061217282612131565b602082019050919050565b600060208201905081810360008301526121968161215a565b9050919050565b7f4e487b7100000000000000000000000000000000000000000000000000000000600052603260045260246000fd5b60006060820190506121e16000830186611b67565b6121ee6020830185611b67565b6121fb60408301846119a9565b949350505050565b61220c81611ade565b811461221757600080fd5b50565b60008151905061222981612203565b92915050565b600060208284031215612245576122446119dd565b5b60006122538482850161221a565b91505092915050565b7f4e487b7100000000000000000000000000000000000000000000000000000000600052601160045260246000fd5b60006122968261199f565b91506122a18361199f565b92508282019050808211156122b9576122b861225c565b5b92915050565b60006122ca8261199f565b91506122d58361199f565b92508282026122e38161199f565b915082820484148315176122fa576122f961225c565b5b5092915050565b7f4e487b7100000000000000000000000000000000000000000000000000000000600052601260045260246000fd5b600061233b8261199f565b91506123468361199f565b92508261235657612355612301565b5b828204905092915050565b600060408201905061237660008301856119a9565b61238360208301846119a9565b9392505050565b7f4f6e6c79206f776e65722063616e2063616c6c20746869732066756e6374696f60008201527f6e00000000000000000000000000000000000000000000000000000000000000602082015250565b60006123e6602183611c5a565b91506123f18261238a565b604082019050919050565b60006020820190508181036000830152612415816123d9565b9050919050565b7f4e487b7100000000000000000000000000000000000000000000000000000000600052602260045260246000fd5b6000600282049050600182168061246357607f821691505b6020821081036124765761247561241c565b5b50919050565b7f496e73756666696369656e7420555344432062616c616e636500000000000000600082015250565b60006124b2601983611c5a565b91506124bd8261247c565b602082019050919050565b600060208201905081810360008301526124e1816124a5565b9050919050565b7f496e73756666696369656e74204e46532062616c616e63650000000000000000600082015250565b600061251e601883611c5a565b9150612529826124e8565b602082019050919050565b6000602082019050818103600083015261254d81612511565b9050919050565b600061255f8261199f565b915061256a8361199f565b92508282039050818111156125825761258161225c565b5b92915050565b600060408201905061259d6000830185611b67565b6125aa60208301846119a9565b9392505050565b7f496e76616c696420746f6b656e00000000000000000000000000000000000000600082015250565b60006125e7600d83611c5a565b91506125f2826125b1565b602082019050919050565b60006020820190508181036000830152612616816125da565b9050919050565b7f46656520746f6f206c6172676500000000000000000000000000000000000000600082015250565b6000612653600d83611c5a565b915061265e8261261d565b602082019050919050565b6000602082019050818103600083015261268281612646565b9050919050565b60008151905061269881611a72565b92915050565b6000602082840312156126b4576126b36119dd565b5b60006126c284828501612689565b91505092915050565b7f496e73756666696369656e74206c697175696469747900000000000000000000600082015250565b6000612701601683611c5a565b915061270c826126cb565b602082019050919050565b60006020820190508181036000830152612730816126f4565b9050919050565b7f496e73756666696369656e74206f757470757400000000000000000000000000600082015250565b600061276d601383611c5a565b915061277882612737565b602082019050919050565b6000602082019050818103600083015261279c81612760565b9050919050565b7f536c697070616765206578636565646564000000000000000000000000000000600082015250565b60006127d9601183611c5a565b91506127e4826127a3565b602082019050919050565b60006020820190508181036000830152612808816127cc565b9050919050565b600060808201905061282460008301876119a9565b61283160208301866119a9565b61283e60408301856119a9565b61284b60608301846119a9565b95945050505050565b7f506f6f6c20697320616c726561647920696e697469616c697a65640000000000600082015250565b600061288a601b83611c5a565b915061289582612854565b602082019050919050565b600060208201905081810360008301526128b98161287d565b9050919050565b7f45786163746c792074776f206173736574732061726520726571756972656400600082015250565b60006128f6601f83611c5a565b9150612901826128c0565b602082019050919050565b60006020820190508181036000830152612925816128e9565b9050919050565b7f466565206d7573742062652067726561746572207468616e207a65726f000000600082015250565b6000612962601d83611c5a565b915061296d8261292c565b602082019050919050565b6000602082019050818103600083015261299181612955565b9050919050565b7f496e697469616c207072696365206d757374206265206772656174657220746860008201527f616e207a65726f00000000000000000000000000000000000000000000000000602082015250565b60006129f4602783611c5a565b91506129ff82612998565b604082019050919050565b60006020820190508181036000830152612a23816129e7565b9050919050565b7f4b65726e656c2074797065206973207265717569726564000000000000000000600082015250565b6000612a60601783611c5a565b9150612a6b82612a2a565b602082019050919050565b60006020820190508181036000830152612a8f81612a53565b9050919050565b600082905092915050565b60008190508160005260206000209050919050565b60006020601f8301049050919050565b600082821b905092915050565b600060088302612b037fffffffffffffffffffffffffffffffffffffffffffffffffffffffffffffffff82612ac6565b612b0d8683612ac6565b95508019841693508086168417925050509392505050565b6000819050919050565b6000612b4a612b45612b408461199f565b612b25565b61199f565b9050919050565b6000819050919050565b612b6483612b2f565b612b78612b7082612b51565b848454612ad3565b825550505050565b600090565b612b8d612b80565b612b98818484612b5b565b505050565b5b81811015612bbc57612bb1600082612b85565b600181019050612b9e565b5050565b601f821115612c0157612bd281612aa1565b612bdb84612ab6565b81016020851015612bea578190505b612bfe612bf685612ab6565b830182612b9d565b50505b505050565b600082821c905092915050565b6000612c2460001984600802612c06565b1980831691505092915050565b6000612c3d8383612c13565b9150826002028217905092915050565b612c578383612a96565b67ffffffffffffffff811115612c7057612c6f611df5565b5b612c7a825461244b565b612c85828285612bc0565b6000601f831160018114612cb45760008415612ca2578287013590505b612cac8582612c31565b865550612d14565b601f198416612cc286612aa1565b60005b82811015612cea57848901358255600182019150602085019450602081019050612cc5565b86831015612d075784890135612d03601f891682612c13565b8355505b6001600288020188555050505b50505050505050565b82818337600083830152505050565b6000612d388385611c5a565b9350612d45838584612d1d565b612d4e83611c95565b840190509392505050565b60006080820190508181036000830152612d738188611bf1565b9050612d8260208301876119a9565b612d8f60408301866119a9565b8181036060830152612da2818486612d2c565b9050969550505050505056fea26469706673582212206639d64e23fb2fbbc0a79bb2f64a08abd9af6695a1e9b9e2fb72c15c605c818164736f6c63430008140033","opcodes":"PUSH1 0x80 PUSH1 0x40 MSTORE CALLVALUE DUP1 ISZERO PUSH3 0x11 JUMPI PUSH1 0x0 DUP1 REVERT JUMPDEST POP PUSH1 0x40 MLOAD PUSH3 0x3659 CODESIZE SUB DUP1 PUSH3 0x3659 DUP4 CODECOPY DUP2 DUP2 ADD PUSH1 0x40 MSTORE DUP2 ADD SWAP1 PUSH3 0x37 SWAP2 SWAP1 PUSH3 0x477 JUMP JUMPDEST DUP5 PUSH1 0x0 DUP1 PUSH2 0x100 EXP DUP2 SLOAD DUP2 PUSH20 0xFFFFFFFFFFFFFFFFFFFFFFFFFFFFFFFFFFFFFFFF MUL NOT AND SWAP1 DUP4 PUSH20 0xFFFFFFFFFFFFFFFFFFFFFFFFFFFFFFFFFFFFFFFF AND MUL OR SWAP1 SSTORE POP DUP4 PUSH1 0x1 SWAP1 DUP1 MLOAD SWAP1 PUSH1 0x20 ADD SWAP1 PUSH3 0x8F SWAP3 SWAP2 SWAP1 PUSH3 0xBB JUMP JUMPDEST POP DUP3 PUSH1 0x2 DUP2 SWAP1 SSTORE POP DUP2 PUSH1 0x3 DUP2 SWAP1 SSTORE POP DUP1 PUSH1 0x4 SWAP1 DUP2 PUSH3 0xAF SWAP2 SWAP1 PUSH3 0x77E JUMP JUMPDEST POP POP POP POP POP POP PUSH3 0x865 JUMP JUMPDEST DUP3 DUP1 SLOAD DUP3 DUP3 SSTORE SWAP1 PUSH1 0x0 MSTORE PUSH1 0x20 PUSH1 0x0 KECCAK256 SWAP1 DUP2 ADD SWAP3 DUP3 ISZERO PUSH3 0x137 JUMPI SWAP2 PUSH1 0x20 MUL DUP3 ADD JUMPDEST DUP3 DUP2 GT ISZERO PUSH3 0x136 JUMPI DUP3 MLOAD DUP3 PUSH1 0x0 PUSH2 0x100 EXP DUP2 SLOAD DUP2 PUSH20 0xFFFFFFFFFFFFFFFFFFFFFFFFFFFFFFFFFFFFFFFF MUL NOT AND SWAP1 DUP4 PUSH20 0xFFFFFFFFFFFFFFFFFFFFFFFFFFFFFFFFFFFFFFFF AND MUL OR SWAP1 SSTORE POP SWAP2 PUSH1 0x20 ADD SWAP2 SWAP1 PUSH1 0x1 ADD SWAP1 PUSH3 0xDC JUMP JUMPDEST JUMPDEST POP SWAP1 POP PUSH3 0x146 SWAP2 SWAP1 PUSH3 0x14A JUMP JUMPDEST POP SWAP1 JUMP JUMPDEST JUMPDEST DUP1 DUP3 GT ISZERO PUSH3 0x165 JUMPI PUSH1 0x0 DUP2 PUSH1 0x0 SWAP1 SSTORE POP PUSH1 0x1 ADD PUSH3 0x14B JUMP JUMPDEST POP SWAP1 JUMP JUMPDEST PUSH1 0x0 PUSH1 0x40 MLOAD SWAP1 POP SWAP1 JUMP JUMPDEST PUSH1 0x0 DUP1 REVERT JUMPDEST PUSH1 0x0 DUP1 REVERT JUMPDEST PUSH1 0x0 PUSH20 0xFFFFFFFFFFFFFFFFFFFFFFFFFFFFFFFFFFFFFFFF DUP3 AND SWAP1 POP SWAP2 SWAP1 POP JUMP JUMPDEST PUSH1 0x0 PUSH3 0x1AA DUP3 PUSH3 0x17D JUMP JUMPDEST SWAP1 POP SWAP2 SWAP1 POP JUMP JUMPDEST PUSH3 0x1BC DUP2 PUSH3 0x19D JUMP JUMPDEST DUP2 EQ PUSH3 0x1C8 JUMPI PUSH1 0x0 DUP1 REVERT JUMPDEST POP JUMP JUMPDEST PUSH1 0x0 DUP2 MLOAD SWAP1 POP PUSH3 0x1DC DUP2 PUSH3 0x1B1 JUMP JUMPDEST SWAP3 SWAP2 POP POP JUMP JUMPDEST PUSH1 0x0 DUP1 REVERT JUMPDEST PUSH1 0x0 PUSH1 0x1F NOT PUSH1 0x1F DUP4 ADD AND SWAP1 POP SWAP2 SWAP1 POP JUMP JUMPDEST PUSH32 0x4E487B7100000000000000000000000000000000000000000000000000000000 PUSH1 0x0 MSTORE PUSH1 0x41 PUSH1 0x4 MSTORE PUSH1 0x24 PUSH1 0x0 REVERT JUMPDEST PUSH3 0x232 DUP3 PUSH3 0x1E7 JUMP JUMPDEST DUP2 ADD DUP2 DUP2 LT PUSH8 0xFFFFFFFFFFFFFFFF DUP3 GT OR ISZERO PUSH3 0x254 JUMPI PUSH3 0x253 PUSH3 0x1F8 JUMP JUMPDEST JUMPDEST DUP1 PUSH1 0x40 MSTORE POP POP POP JUMP JUMPDEST PUSH1 0x0 PUSH3 0x269 PUSH3 0x169 JUMP JUMPDEST SWAP1 POP PUSH3 0x277 DUP3 DUP3 PUSH3 0x227 JUMP JUMPDEST SWAP2 SWAP1 POP JUMP JUMPDEST PUSH1 0x0 PUSH8 0xFFFFFFFFFFFFFFFF DUP3 GT ISZERO PUSH3 0x29A JUMPI PUSH3 0x299 PUSH3 0x1F8 JUMP JUMPDEST JUMPDEST PUSH1 0x20 DUP3 MUL SWAP1 POP PUSH1 0x20 DUP2 ADD SWAP1 POP SWAP2 SWAP1 POP JUMP JUMPDEST PUSH1 0x0 DUP1 REVERT JUMPDEST PUSH1 0x0 PUSH3 0x2C7 PUSH3 0x2C1 DUP5 PUSH3 0x27C JUMP JUMPDEST PUSH3 0x25D JUMP JUMPDEST SWAP1 POP DUP1 DUP4 DUP3 MSTORE PUSH1 0x20 DUP3 ADD SWAP1 POP PUSH1 0x20 DUP5 MUL DUP4 ADD DUP6 DUP2 GT ISZERO PUSH3 0x2ED JUMPI PUSH3 0x2EC PUSH3 0x2AB JUMP JUMPDEST JUMPDEST DUP4 JUMPDEST DUP2 DUP2 LT ISZERO PUSH3 0x31A JUMPI DUP1 PUSH3 0x305 DUP9 DUP3 PUSH3 0x1CB JUMP JUMPDEST DUP5 MSTORE PUSH1 0x20 DUP5 ADD SWAP4 POP POP PUSH1 0x20 DUP2 ADD SWAP1 POP PUSH3 0x2EF JUMP JUMPDEST POP POP POP SWAP4 SWAP3 POP POP POP JUMP JUMPDEST PUSH1 0x0 DUP3 PUSH1 0x1F DUP4 ADD SLT PUSH3 0x33C JUMPI PUSH3 0x33B PUSH3 0x1E2 JUMP JUMPDEST JUMPDEST DUP2 MLOAD PUSH3 0x34E DUP5 DUP3 PUSH1 0x20 DUP7 ADD PUSH3 0x2B0 JUMP JUMPDEST SWAP2 POP POP SWAP3 SWAP2 POP POP JUMP JUMPDEST PUSH1 0x0 DUP2 SWAP1 POP SWAP2 SWAP1 POP JUMP JUMPDEST PUSH3 0x36C DUP2 PUSH3 0x357 JUMP JUMPDEST DUP2 EQ PUSH3 0x378 JUMPI PUSH1 0x0 DUP1 REVERT JUMPDEST POP JUMP JUMPDEST PUSH1 0x0 DUP2 MLOAD SWAP1 POP PUSH3 0x38C DUP2 PUSH3 0x361 JUMP JUMPDEST SWAP3 SWAP2 POP POP JUMP JUMPDEST PUSH1 0x0 DUP1 REVERT JUMPDEST PUSH1 0x0 PUSH8 0xFFFFFFFFFFFFFFFF DUP3 GT ISZERO PUSH3 0x3B5 JUMPI PUSH3 0x3B4 PUSH3 0x1F8 JUMP JUMPDEST JUMPDEST PUSH3 0x3C0 DUP3 PUSH3 0x1E7 JUMP JUMPDEST SWAP1 POP PUSH1 0x20 DUP2 ADD SWAP1 POP SWAP2 SWAP1 POP JUMP JUMPDEST PUSH1 0x0 JUMPDEST DUP4 DUP2 LT ISZERO PUSH3 0x3ED JUMPI DUP1 DUP3 ADD MLOAD DUP2 DUP5 ADD MSTORE PUSH1 0x20 DUP2 ADD SWAP1 POP PUSH3 0x3D0 JUMP JUMPDEST PUSH1 0x0 DUP5 DUP5 ADD MSTORE POP POP POP POP JUMP JUMPDEST PUSH1 0x0 PUSH3 0x410 PUSH3 0x40A DUP5 PUSH3 0x397 JUMP JUMPDEST PUSH3 0x25D JUMP JUMPDEST SWAP1 POP DUP3 DUP2 MSTORE PUSH1 0x20 DUP2 ADD DUP5 DUP5 DUP5 ADD GT ISZERO PUSH3 0x42F JUMPI PUSH3 0x42E PUSH3 0x392 JUMP JUMPDEST JUMPDEST PUSH3 0x43C DUP5 DUP3 DUP6 PUSH3 0x3CD JUMP JUMPDEST POP SWAP4 SWAP3 POP POP POP JUMP JUMPDEST PUSH1 0x0 DUP3 PUSH1 0x1F DUP4 ADD SLT PUSH3 0x45C JUMPI PUSH3 0x45B PUSH3 0x1E2 JUMP JUMPDEST JUMPDEST DUP2 MLOAD PUSH3 0x46E DUP5 DUP3 PUSH1 0x20 DUP7 ADD PUSH3 0x3F9 JUMP JUMPDEST SWAP2 POP POP SWAP3 SWAP2 POP POP JUMP JUMPDEST PUSH1 0x0 DUP1 PUSH1 0x0 DUP1 PUSH1 0x0 PUSH1 0xA0 DUP7 DUP9 SUB SLT ISZERO PUSH3 0x496 JUMPI PUSH3 0x495 PUSH3 0x173 JUMP JUMPDEST JUMPDEST PUSH1 0x0 PUSH3 0x4A6 DUP9 DUP3 DUP10 ADD PUSH3 0x1CB JUMP JUMPDEST SWAP6 POP POP PUSH1 0x20 DUP7 ADD MLOAD PUSH8 0xFFFFFFFFFFFFFFFF DUP2 GT ISZERO PUSH3 0x4CA JUMPI PUSH3 0x4C9 PUSH3 0x178 JUMP JUMPDEST JUMPDEST PUSH3 0x4D8 DUP9 DUP3 DUP10 ADD PUSH3 0x324 JUMP JUMPDEST SWAP5 POP POP PUSH1 0x40 PUSH3 0x4EB DUP9 DUP3 DUP10 ADD PUSH3 0x37B JUMP JUMPDEST SWAP4 POP POP PUSH1 0x60 PUSH3 0x4FE DUP9 DUP3 DUP10 ADD PUSH3 0x37B JUMP JUMPDEST SWAP3 POP POP PUSH1 0x80 DUP7 ADD MLOAD PUSH8 0xFFFFFFFFFFFFFFFF DUP2 GT ISZERO PUSH3 0x522 JUMPI PUSH3 0x521 PUSH3 0x178 JUMP JUMPDEST JUMPDEST PUSH3 0x530 DUP9 DUP3 DUP10 ADD PUSH3 0x444 JUMP JUMPDEST SWAP2 POP POP SWAP3 SWAP6 POP SWAP3 SWAP6 SWAP1 SWAP4 POP JUMP JUMPDEST PUSH1 0x0 DUP2 MLOAD SWAP1 POP SWAP2 SWAP1 POP JUMP JUMPDEST PUSH32 0x4E487B7100000000000000000000000000000000000000000000000000000000 PUSH1 0x0 MSTORE PUSH1 0x22 PUSH1 0x4 MSTORE PUSH1 0x24 PUSH1 0x0 REVERT JUMPDEST PUSH1 0x0 PUSH1 0x2 DUP3 DIV SWAP1 POP PUSH1 0x1 DUP3 AND DUP1 PUSH3 0x590 JUMPI PUSH1 0x7F DUP3 AND SWAP2 POP JUMPDEST PUSH1 0x20 DUP3 LT DUP2 SUB PUSH3 0x5A6 JUMPI PUSH3 0x5A5 PUSH3 0x548 JUMP JUMPDEST JUMPDEST POP SWAP2 SWAP1 POP JUMP JUMPDEST PUSH1 0x0 DUP2 SWAP1 POP DUP2 PUSH1 0x0 MSTORE PUSH1 0x20 PUSH1 0x0 KECCAK256 SWAP1 POP SWAP2 SWAP1 POP JUMP JUMPDEST PUSH1 0x0 PUSH1 0x20 PUSH1 0x1F DUP4 ADD DIV SWAP1 POP SWAP2 SWAP1 POP JUMP JUMPDEST PUSH1 0x0 DUP3 DUP3 SHL SWAP1 POP SWAP3 SWAP2 POP POP JUMP JUMPDEST PUSH1 0x0 PUSH1 0x8 DUP4 MUL PUSH3 0x610 PUSH32 0xFFFFFFFFFFFFFFFFFFFFFFFFFFFFFFFFFFFFFFFFFFFFFFFFFFFFFFFFFFFFFFFF DUP3 PUSH3 0x5D1 JUMP JUMPDEST PUSH3 0x61C DUP7 DUP4 PUSH3 0x5D1 JUMP JUMPDEST SWAP6 POP DUP1 NOT DUP5 AND SWAP4 POP DUP1 DUP7 AND DUP5 OR SWAP3 POP POP POP SWAP4 SWAP3 POP POP POP JUMP JUMPDEST PUSH1 0x0 DUP2 SWAP1 POP SWAP2 SWAP1 POP JUMP JUMPDEST PUSH1 0x0 PUSH3 0x65F PUSH3 0x659 PUSH3 0x653 DUP5 PUSH3 0x357 JUMP JUMPDEST PUSH3 0x634 JUMP JUMPDEST PUSH3 0x357 JUMP JUMPDEST SWAP1 POP SWAP2 SWAP1 POP JUMP JUMPDEST PUSH1 0x0 DUP2 SWAP1 POP SWAP2 SWAP1 POP JUMP JUMPDEST PUSH3 0x67B DUP4 PUSH3 0x63E JUMP JUMPDEST PUSH3 0x693 PUSH3 0x68A DUP3 PUSH3 0x666 JUMP JUMPDEST DUP5 DUP5 SLOAD PUSH3 0x5DE JUMP JUMPDEST DUP3 SSTORE POP POP POP POP JUMP JUMPDEST PUSH1 0x0 SWAP1 JUMP JUMPDEST PUSH3 0x6AA PUSH3 0x69B JUMP JUMPDEST PUSH3 0x6B7 DUP2 DUP5 DUP5 PUSH3 0x670 JUMP JUMPDEST POP POP POP JUMP JUMPDEST JUMPDEST DUP2 DUP2 LT ISZERO PUSH3 0x6DF JUMPI PUSH3 0x6D3 PUSH1 0x0 DUP3 PUSH3 0x6A0 JUMP JUMPDEST PUSH1 0x1 DUP2 ADD SWAP1 POP PUSH3 0x6BD JUMP JUMPDEST POP POP JUMP JUMPDEST PUSH1 0x1F DUP3 GT ISZERO PUSH3 0x72E JUMPI PUSH3 0x6F8 DUP2 PUSH3 0x5AC JUMP JUMPDEST PUSH3 0x703 DUP5 PUSH3 0x5C1 JUMP JUMPDEST DUP2 ADD PUSH1 0x20 DUP6 LT ISZERO PUSH3 0x713 JUMPI DUP2 SWAP1 POP JUMPDEST PUSH3 0x72B PUSH3 0x722 DUP6 PUSH3 0x5C1 JUMP JUMPDEST DUP4 ADD DUP3 PUSH3 0x6BC JUMP JUMPDEST POP POP JUMPDEST POP POP POP JUMP JUMPDEST PUSH1 0x0 DUP3 DUP3 SHR SWAP1 POP SWAP3 SWAP2 POP POP JUMP JUMPDEST PUSH1 0x0 PUSH3 0x753 PUSH1 0x0 NOT DUP5 PUSH1 0x8 MUL PUSH3 0x733 JUMP JUMPDEST NOT DUP1 DUP4 AND SWAP2 POP POP SWAP3 SWAP2 POP POP JUMP JUMPDEST PUSH1 0x0 PUSH3 0x76E DUP4 DUP4 PUSH3 0x740 JUMP JUMPDEST SWAP2 POP DUP3 PUSH1 0x2 MUL DUP3 OR SWAP1 POP SWAP3 SWAP2 POP POP JUMP JUMPDEST PUSH3 0x789 DUP3 PUSH3 0x53D JUMP JUMPDEST PUSH8 0xFFFFFFFFFFFFFFFF DUP2 GT ISZERO PUSH3 0x7A5 JUMPI PUSH3 0x7A4 PUSH3 0x1F8 JUMP JUMPDEST JUMPDEST PUSH3 0x7B1 DUP3 SLOAD PUSH3 0x577 JUMP JUMPDEST PUSH3 0x7BE DUP3 DUP3 DUP6 PUSH3 0x6E3 JUMP JUMPDEST PUSH1 0x0 PUSH1 0x20 SWAP1 POP PUSH1 0x1F DUP4 GT PUSH1 0x1 DUP2 EQ PUSH3 0x7F6 JUMPI PUSH1 0x0 DUP5 ISZERO PUSH3 0x7E1 JUMPI DUP3 DUP8 ADD MLOAD SWAP1 POP JUMPDEST PUSH3 0x7ED DUP6 DUP3 PUSH3 0x760 JUMP JUMPDEST DUP7 SSTORE POP PUSH3 0x85D JUMP JUMPDEST PUSH1 0x1F NOT DUP5 AND PUSH3 0x806 DUP7 PUSH3 0x5AC JUMP JUMPDEST PUSH1 0x0 JUMPDEST DUP3 DUP2 LT ISZERO PUSH3 0x830 JUMPI DUP5 DUP10 ADD MLOAD DUP3 SSTORE PUSH1 0x1 DUP3 ADD SWAP2 POP PUSH1 0x20 DUP6 ADD SWAP5 POP PUSH1 0x20 DUP2 ADD SWAP1 POP PUSH3 0x809 JUMP JUMPDEST DUP7 DUP4 LT ISZERO PUSH3 0x850 JUMPI DUP5 DUP10 ADD MLOAD PUSH3 0x84C PUSH1 0x1F DUP10 AND DUP3 PUSH3 0x740 JUMP JUMPDEST DUP4 SSTORE POP JUMPDEST PUSH1 0x1 PUSH1 0x2 DUP9 MUL ADD DUP9 SSTORE POP POP POP JUMPDEST POP POP POP POP POP POP JUMP JUMPDEST PUSH2 0x2DE4 DUP1 PUSH3 0x875 PUSH1 0x0 CODECOPY PUSH1 0x0 RETURN INVALID PUSH1 0x80 PUSH1 0x40 MSTORE CALLVALUE DUP1 ISZERO PUSH2 0x10 JUMPI PUSH1 0x0 DUP1 REVERT JUMPDEST POP PUSH1 0x4 CALLDATASIZE LT PUSH2 0x12C JUMPI PUSH1 0x0 CALLDATALOAD PUSH1 0xE0 SHR DUP1 PUSH4 0x57DED9C9 GT PUSH2 0xAD JUMPI DUP1 PUSH4 0xCF35BDD0 GT PUSH2 0x71 JUMPI DUP1 PUSH4 0xCF35BDD0 EQ PUSH2 0x2ED JUMPI DUP1 PUSH4 0xDDCA3F43 EQ PUSH2 0x31D JUMPI DUP1 PUSH4 0xE096E949 EQ PUSH2 0x33B JUMPI DUP1 PUSH4 0xE5328E06 EQ PUSH2 0x357 JUMPI DUP1 PUSH4 0xE7BF0E00 EQ PUSH2 0x375 JUMPI PUSH2 0x12C JUMP JUMPDEST DUP1 PUSH4 0x57DED9C9 EQ PUSH2 0x255 JUMPI DUP1 PUSH4 0x8DA5CB5B EQ PUSH2 0x273 JUMPI DUP1 PUSH4 0xACA34C11 EQ PUSH2 0x291 JUMPI DUP1 PUSH4 0xB390C0AB EQ PUSH2 0x2B5 JUMPI DUP1 PUSH4 0xC9EC9248 EQ PUSH2 0x2D1 JUMPI PUSH2 0x12C JUMP JUMPDEST DUP1 PUSH4 0x22F3E2D4 GT PUSH2 0xF4 JUMPI DUP1 PUSH4 0x22F3E2D4 EQ PUSH2 0x1C3 JUMPI DUP1 PUSH4 0x392E53CD EQ PUSH2 0x1E1 JUMPI DUP1 PUSH4 0x3C047E13 EQ PUSH2 0x1FF JUMPI DUP1 PUSH4 0x45D32D1E EQ PUSH2 0x21B JUMPI DUP1 PUSH4 0x51B42B00 EQ PUSH2 0x24B JUMPI PUSH2 0x12C JUMP JUMPDEST DUP1 PUSH4 0xF15F4C0 EQ PUSH2 0x131 JUMPI DUP1 PUSH4 0x140B9D84 EQ PUSH2 0x13B JUMPI DUP1 PUSH4 0x18CDDF03 EQ PUSH2 0x159 JUMPI DUP1 PUSH4 0x1B2EF1CA EQ PUSH2 0x189 JUMPI DUP1 PUSH4 0x1D0806AE EQ PUSH2 0x1A5 JUMPI JUMPDEST PUSH1 0x0 DUP1 REVERT JUMPDEST PUSH2 0x139 PUSH2 0x393 JUMP JUMPDEST STOP JUMPDEST PUSH2 0x143 PUSH2 0x3FF JUMP JUMPDEST PUSH1 0x40 MLOAD PUSH2 0x150 SWAP2 SWAP1 PUSH2 0x19B8 JUMP JUMPDEST PUSH1 0x40 MLOAD DUP1 SWAP2 SUB SWAP1 RETURN JUMPDEST PUSH2 0x173 PUSH1 0x4 DUP1 CALLDATASIZE SUB DUP2 ADD SWAP1 PUSH2 0x16E SWAP2 SWAP1 PUSH2 0x1A45 JUMP JUMPDEST PUSH2 0x405 JUMP JUMPDEST PUSH1 0x40 MLOAD PUSH2 0x180 SWAP2 SWAP1 PUSH2 0x19B8 JUMP JUMPDEST PUSH1 0x40 MLOAD DUP1 SWAP2 SUB SWAP1 RETURN JUMPDEST PUSH2 0x1A3 PUSH1 0x4 DUP1 CALLDATASIZE SUB DUP2 ADD SWAP1 PUSH2 0x19E SWAP2 SWAP1 PUSH2 0x1A9E JUMP JUMPDEST PUSH2 0x41D JUMP JUMPDEST STOP JUMPDEST PUSH2 0x1AD PUSH2 0x7F0 JUMP JUMPDEST PUSH1 0x40 MLOAD PUSH2 0x1BA SWAP2 SWAP1 PUSH2 0x19B8 JUMP JUMPDEST PUSH1 0x40 MLOAD DUP1 SWAP2 SUB SWAP1 RETURN JUMPDEST PUSH2 0x1CB PUSH2 0x7F6 JUMP JUMPDEST PUSH1 0x40 MLOAD PUSH2 0x1D8 SWAP2 SWAP1 PUSH2 0x1AF9 JUMP JUMPDEST PUSH1 0x40 MLOAD DUP1 SWAP2 SUB SWAP1 RETURN JUMPDEST PUSH2 0x1E9 PUSH2 0x809 JUMP JUMPDEST PUSH1 0x40 MLOAD PUSH2 0x1F6 SWAP2 SWAP1 PUSH2 0x1AF9 JUMP JUMPDEST PUSH1 0x40 MLOAD DUP1 SWAP2 SUB SWAP1 RETURN JUMPDEST PUSH2 0x219 PUSH1 0x4 DUP1 CALLDATASIZE SUB DUP2 ADD SWAP1 PUSH2 0x214 SWAP2 SWAP1 PUSH2 0x1B14 JUMP JUMPDEST PUSH2 0x81C JUMP JUMPDEST STOP JUMPDEST PUSH2 0x235 PUSH1 0x4 DUP1 CALLDATASIZE SUB DUP2 ADD SWAP1 PUSH2 0x230 SWAP2 SWAP1 PUSH2 0x1A45 JUMP JUMPDEST PUSH2 0x8C4 JUMP JUMPDEST PUSH1 0x40 MLOAD PUSH2 0x242 SWAP2 SWAP1 PUSH2 0x19B8 JUMP JUMPDEST PUSH1 0x40 MLOAD DUP1 SWAP2 SUB SWAP1 RETURN JUMPDEST PUSH2 0x253 PUSH2 0x8DC JUMP JUMPDEST STOP JUMPDEST PUSH2 0x25D PUSH2 0x8F8 JUMP JUMPDEST PUSH1 0x40 MLOAD PUSH2 0x26A SWAP2 SWAP1 PUSH2 0x19B8 JUMP JUMPDEST PUSH1 0x40 MLOAD DUP1 SWAP2 SUB SWAP1 RETURN JUMPDEST PUSH2 0x27B PUSH2 0x8FE JUMP JUMPDEST PUSH1 0x40 MLOAD PUSH2 0x288 SWAP2 SWAP1 PUSH2 0x1B76 JUMP JUMPDEST PUSH1 0x40 MLOAD DUP1 SWAP2 SUB SWAP1 RETURN JUMPDEST PUSH2 0x299 PUSH2 0x922 JUMP JUMPDEST PUSH1 0x40 MLOAD PUSH2 0x2AC SWAP8 SWAP7 SWAP6 SWAP5 SWAP4 SWAP3 SWAP2 SWAP1 PUSH2 0x1CDF JUMP JUMPDEST PUSH1 0x40 MLOAD DUP1 SWAP2 SUB SWAP1 RETURN JUMPDEST PUSH2 0x2CF PUSH1 0x4 DUP1 CALLDATASIZE SUB DUP2 ADD SWAP1 PUSH2 0x2CA SWAP2 SWAP1 PUSH2 0x1A9E JUMP JUMPDEST PUSH2 0xA6C JUMP JUMPDEST STOP JUMPDEST PUSH2 0x2EB PUSH1 0x4 DUP1 CALLDATASIZE SUB DUP2 ADD SWAP1 PUSH2 0x2E6 SWAP2 SWAP1 PUSH2 0x1D5C JUMP JUMPDEST PUSH2 0xF0D JUMP JUMPDEST STOP JUMPDEST PUSH2 0x307 PUSH1 0x4 DUP1 CALLDATASIZE SUB DUP2 ADD SWAP1 PUSH2 0x302 SWAP2 SWAP1 PUSH2 0x1DC3 JUMP JUMPDEST PUSH2 0x160F JUMP JUMPDEST PUSH1 0x40 MLOAD PUSH2 0x314 SWAP2 SWAP1 PUSH2 0x1B76 JUMP JUMPDEST PUSH1 0x40 MLOAD DUP1 SWAP2 SUB SWAP1 RETURN JUMPDEST PUSH2 0x325 PUSH2 0x164E JUMP JUMPDEST PUSH1 0x40 MLOAD PUSH2 0x332 SWAP2 SWAP1 PUSH2 0x19B8 JUMP JUMPDEST PUSH1 0x40 MLOAD DUP1 SWAP2 SUB SWAP1 RETURN JUMPDEST PUSH2 0x355 PUSH1 0x4 DUP1 CALLDATASIZE SUB DUP2 ADD SWAP1 PUSH2 0x350 SWAP2 SWAP1 PUSH2 0x1F93 JUMP JUMPDEST PUSH2 0x1654 JUMP JUMPDEST STOP JUMPDEST PUSH2 0x35F PUSH2 0x1864 JUMP JUMPDEST PUSH1 0x40 MLOAD PUSH2 0x36C SWAP2 SWAP1 PUSH2 0x19B8 JUMP JUMPDEST PUSH1 0x40 MLOAD DUP1 SWAP2 SUB SWAP1 RETURN JUMPDEST PUSH2 0x37D PUSH2 0x186A JUMP JUMPDEST PUSH1 0x40 MLOAD PUSH2 0x38A SWAP2 SWAP1 PUSH2 0x2037 JUMP JUMPDEST PUSH1 0x40 MLOAD DUP1 SWAP2 SUB SWAP1 RETURN JUMPDEST PUSH1 0x0 PUSH1 0x15 SWAP1 SLOAD SWAP1 PUSH2 0x100 EXP SWAP1 DIV PUSH1 0xFF AND PUSH2 0x3E2 JUMPI PUSH1 0x40 MLOAD PUSH32 0x8C379A000000000000000000000000000000000000000000000000000000000 DUP2 MSTORE PUSH1 0x4 ADD PUSH2 0x3D9 SWAP1 PUSH2 0x20A5 JUMP JUMPDEST PUSH1 0x40 MLOAD DUP1 SWAP2 SUB SWAP1 REVERT JUMPDEST PUSH1 0x1 PUSH1 0x0 PUSH1 0x14 PUSH2 0x100 EXP DUP2 SLOAD DUP2 PUSH1 0xFF MUL NOT AND SWAP1 DUP4 ISZERO ISZERO MUL OR SWAP1 SSTORE POP JUMP JUMPDEST PUSH1 0x6 SLOAD DUP2 JUMP JUMPDEST PUSH1 0x9 PUSH1 0x20 MSTORE DUP1 PUSH1 0x0 MSTORE PUSH1 0x40 PUSH1 0x0 KECCAK256 PUSH1 0x0 SWAP2 POP SWAP1 POP SLOAD DUP2 JUMP JUMPDEST PUSH1 0x0 PUSH1 0x15 SWAP1 SLOAD SWAP1 PUSH2 0x100 EXP SWAP1 DIV PUSH1 0xFF AND PUSH2 0x46C JUMPI PUSH1 0x40 MLOAD PUSH32 0x8C379A000000000000000000000000000000000000000000000000000000000 DUP2 MSTORE PUSH1 0x4 ADD PUSH2 0x463 SWAP1 PUSH2 0x20A5 JUMP JUMPDEST PUSH1 0x40 MLOAD DUP1 SWAP2 SUB SWAP1 REVERT JUMPDEST PUSH1 0x0 PUSH1 0x14 SWAP1 SLOAD SWAP1 PUSH2 0x100 EXP SWAP1 DIV PUSH1 0xFF AND PUSH2 0x4BB JUMPI PUSH1 0x40 MLOAD PUSH32 0x8C379A000000000000000000000000000000000000000000000000000000000 DUP2 MSTORE PUSH1 0x4 ADD PUSH2 0x4B2 SWAP1 PUSH2 0x2111 JUMP JUMPDEST PUSH1 0x40 MLOAD DUP1 SWAP2 SUB SWAP1 REVERT JUMPDEST PUSH1 0x0 DUP3 GT DUP1 PUSH2 0x4CA JUMPI POP PUSH1 0x0 DUP2 GT JUMPDEST PUSH2 0x509 JUMPI PUSH1 0x40 MLOAD PUSH32 0x8C379A000000000000000000000000000000000000000000000000000000000 DUP2 MSTORE PUSH1 0x4 ADD PUSH2 0x500 SWAP1 PUSH2 0x217D JUMP JUMPDEST PUSH1 0x40 MLOAD DUP1 SWAP2 SUB SWAP1 REVERT JUMPDEST PUSH1 0x0 DUP3 GT ISZERO PUSH2 0x629 JUMPI PUSH1 0x1 PUSH1 0x0 DUP2 SLOAD DUP2 LT PUSH2 0x527 JUMPI PUSH2 0x526 PUSH2 0x219D JUMP JUMPDEST JUMPDEST SWAP1 PUSH1 0x0 MSTORE PUSH1 0x20 PUSH1 0x0 KECCAK256 ADD PUSH1 0x0 SWAP1 SLOAD SWAP1 PUSH2 0x100 EXP SWAP1 DIV PUSH20 0xFFFFFFFFFFFFFFFFFFFFFFFFFFFFFFFFFFFFFFFF AND PUSH20 0xFFFFFFFFFFFFFFFFFFFFFFFFFFFFFFFFFFFFFFFF AND PUSH4 0x23B872DD CALLER ADDRESS DUP6 PUSH1 0x40 MLOAD DUP5 PUSH4 0xFFFFFFFF AND PUSH1 0xE0 SHL DUP2 MSTORE PUSH1 0x4 ADD PUSH2 0x58E SWAP4 SWAP3 SWAP2 SWAP1 PUSH2 0x21CC JUMP JUMPDEST PUSH1 0x20 PUSH1 0x40 MLOAD DUP1 DUP4 SUB DUP2 PUSH1 0x0 DUP8 GAS CALL ISZERO DUP1 ISZERO PUSH2 0x5AD JUMPI RETURNDATASIZE PUSH1 0x0 DUP1 RETURNDATACOPY RETURNDATASIZE PUSH1 0x0 REVERT JUMPDEST POP POP POP POP PUSH1 0x40 MLOAD RETURNDATASIZE PUSH1 0x1F NOT PUSH1 0x1F DUP3 ADD AND DUP3 ADD DUP1 PUSH1 0x40 MSTORE POP DUP2 ADD SWAP1 PUSH2 0x5D1 SWAP2 SWAP1 PUSH2 0x222F JUMP JUMPDEST POP DUP2 PUSH1 0x8 PUSH1 0x0 CALLER PUSH20 0xFFFFFFFFFFFFFFFFFFFFFFFFFFFFFFFFFFFFFFFF AND PUSH20 0xFFFFFFFFFFFFFFFFFFFFFFFFFFFFFFFFFFFFFFFF AND DUP2 MSTORE PUSH1 0x20 ADD SWAP1 DUP2 MSTORE PUSH1 0x20 ADD PUSH1 0x0 KECCAK256 PUSH1 0x0 DUP3 DUP3 SLOAD PUSH2 0x621 SWAP2 SWAP1 PUSH2 0x228B JUMP JUMPDEST SWAP3 POP POP DUP2 SWAP1 SSTORE POP JUMPDEST PUSH1 0x0 DUP2 GT ISZERO PUSH2 0x748 JUMPI PUSH1 0x1 DUP1 DUP2 SLOAD DUP2 LT PUSH2 0x646 JUMPI PUSH2 0x645 PUSH2 0x219D JUMP JUMPDEST JUMPDEST SWAP1 PUSH1 0x0 MSTORE PUSH1 0x20 PUSH1 0x0 KECCAK256 ADD PUSH1 0x0 SWAP1 SLOAD SWAP1 PUSH2 0x100 EXP SWAP1 DIV PUSH20 0xFFFFFFFFFFFFFFFFFFFFFFFFFFFFFFFFFFFFFFFF AND PUSH20 0xFFFFFFFFFFFFFFFFFFFFFFFFFFFFFFFFFFFFFFFF AND PUSH4 0x23B872DD CALLER ADDRESS DUP5 PUSH1 0x40 MLOAD DUP5 PUSH4 0xFFFFFFFF AND PUSH1 0xE0 SHL DUP2 MSTORE PUSH1 0x4 ADD PUSH2 0x6AD SWAP4 SWAP3 SWAP2 SWAP1 PUSH2 0x21CC JUMP JUMPDEST PUSH1 0x20 PUSH1 0x40 MLOAD DUP1 DUP4 SUB DUP2 PUSH1 0x0 DUP8 GAS CALL ISZERO DUP1 ISZERO PUSH2 0x6CC JUMPI RETURNDATASIZE PUSH1 0x0 DUP1 RETURNDATACOPY RETURNDATASIZE PUSH1 0x0 REVERT JUMPDEST POP POP POP POP PUSH1 0x40 MLOAD RETURNDATASIZE PUSH1 0x1F NOT PUSH1 0x1F DUP3 ADD AND DUP3 ADD DUP1 PUSH1 0x40 MSTORE POP DUP2 ADD SWAP1 PUSH2 0x6F0 SWAP2 SWAP1 PUSH2 0x222F JUMP JUMPDEST POP DUP1 PUSH1 0x9 PUSH1 0x0 CALLER PUSH20 0xFFFFFFFFFFFFFFFFFFFFFFFFFFFFFFFFFFFFFFFF AND PUSH20 0xFFFFFFFFFFFFFFFFFFFFFFFFFFFFFFFFFFFFFFFF AND DUP2 MSTORE PUSH1 0x20 ADD SWAP1 DUP2 MSTORE PUSH1 0x20 ADD PUSH1 0x0 KECCAK256 PUSH1 0x0 DUP3 DUP3 SLOAD PUSH2 0x740 SWAP2 SWAP1 PUSH2 0x228B JUMP JUMPDEST SWAP3 POP POP DUP2 SWAP1 SSTORE POP JUMPDEST PUSH8 0xDE0B6B3A7640000 PUSH1 0x3 SLOAD DUP3 PUSH2 0x75F SWAP2 SWAP1 PUSH2 0x22BF JUMP JUMPDEST PUSH2 0x769 SWAP2 SWAP1 PUSH2 0x2330 JUMP JUMPDEST PUSH5 0xE8D4A51000 DUP4 PUSH2 0x77A SWAP2 SWAP1 PUSH2 0x22BF JUMP JUMPDEST PUSH2 0x784 SWAP2 SWAP1 PUSH2 0x228B JUMP JUMPDEST PUSH1 0x5 PUSH1 0x0 DUP3 DUP3 SLOAD PUSH2 0x795 SWAP2 SWAP1 PUSH2 0x228B JUMP JUMPDEST SWAP3 POP POP DUP2 SWAP1 SSTORE POP CALLER PUSH20 0xFFFFFFFFFFFFFFFFFFFFFFFFFFFFFFFFFFFFFFFF AND PUSH32 0xAC1D76749E5447B7B16F5AB61447E1BD502F3BB4807AF3B28E620D1700A6EE45 DUP4 DUP4 PUSH1 0x40 MLOAD PUSH2 0x7E4 SWAP3 SWAP2 SWAP1 PUSH2 0x2361 JUMP JUMPDEST PUSH1 0x40 MLOAD DUP1 SWAP2 SUB SWAP1 LOG2 POP POP JUMP JUMPDEST PUSH1 0x3 SLOAD DUP2 JUMP JUMPDEST PUSH1 0x0 PUSH1 0x14 SWAP1 SLOAD SWAP1 PUSH2 0x100 EXP SWAP1 DIV PUSH1 0xFF AND DUP2 JUMP JUMPDEST PUSH1 0x0 PUSH1 0x15 SWAP1 SLOAD SWAP1 PUSH2 0x100 EXP SWAP1 DIV PUSH1 0xFF AND DUP2 JUMP JUMPDEST PUSH1 0x0 DUP1 SLOAD SWAP1 PUSH2 0x100 EXP SWAP1 DIV PUSH20 0xFFFFFFFFFFFFFFFFFFFFFFFFFFFFFFFFFFFFFFFF AND PUSH20 0xFFFFFFFFFFFFFFFFFFFFFFFFFFFFFFFFFFFFFFFF AND CALLER PUSH20 0xFFFFFFFFFFFFFFFFFFFFFFFFFFFFFFFFFFFFFFFF AND EQ PUSH2 0x8AA JUMPI PUSH1 0x40 MLOAD PUSH32 0x8C379A000000000000000000000000000000000000000000000000000000000 DUP2 MSTORE PUSH1 0x4 ADD PUSH2 0x8A1 SWAP1 PUSH2 0x23FC JUMP JUMPDEST PUSH1 0x40 MLOAD DUP1 SWAP2 SUB SWAP1 REVERT JUMPDEST DUP3 PUSH1 0x5 DUP2 SWAP1 SSTORE POP DUP2 PUSH1 0x6 DUP2 SWAP1 SSTORE POP DUP1 PUSH1 0x7 DUP2 SWAP1 SSTORE POP POP POP POP JUMP JUMPDEST PUSH1 0x8 PUSH1 0x20 MSTORE DUP1 PUSH1 0x0 MSTORE PUSH1 0x40 PUSH1 0x0 KECCAK256 PUSH1 0x0 SWAP2 POP SWAP1 POP SLOAD DUP2 JUMP JUMPDEST PUSH1 0x0 DUP1 PUSH1 0x14 PUSH2 0x100 EXP DUP2 SLOAD DUP2 PUSH1 0xFF MUL NOT AND SWAP1 DUP4 ISZERO ISZERO MUL OR SWAP1 SSTORE POP JUMP JUMPDEST PUSH1 0x7 SLOAD DUP2 JUMP JUMPDEST PUSH1 0x0 DUP1 SLOAD SWAP1 PUSH2 0x100 EXP SWAP1 DIV PUSH20 0xFFFFFFFFFFFFFFFFFFFFFFFFFFFFFFFFFFFFFFFF AND DUP2 JUMP JUMPDEST PUSH1 0x60 PUSH1 0x0 DUP1 PUSH1 0x60 PUSH1 0x0 DUP1 PUSH1 0x0 PUSH1 0x1 PUSH1 0x2 SLOAD PUSH1 0x3 SLOAD PUSH1 0x4 PUSH1 0x5 SLOAD PUSH1 0x6 SLOAD PUSH1 0x7 SLOAD DUP7 DUP1 SLOAD DUP1 PUSH1 0x20 MUL PUSH1 0x20 ADD PUSH1 0x40 MLOAD SWAP1 DUP2 ADD PUSH1 0x40 MSTORE DUP1 SWAP3 SWAP2 SWAP1 DUP2 DUP2 MSTORE PUSH1 0x20 ADD DUP3 DUP1 SLOAD DUP1 ISZERO PUSH2 0x9C2 JUMPI PUSH1 0x20 MUL DUP3 ADD SWAP2 SWAP1 PUSH1 0x0 MSTORE PUSH1 0x20 PUSH1 0x0 KECCAK256 SWAP1 JUMPDEST DUP2 PUSH1 0x0 SWAP1 SLOAD SWAP1 PUSH2 0x100 EXP SWAP1 DIV PUSH20 0xFFFFFFFFFFFFFFFFFFFFFFFFFFFFFFFFFFFFFFFF AND PUSH20 0xFFFFFFFFFFFFFFFFFFFFFFFFFFFFFFFFFFFFFFFF AND DUP2 MSTORE PUSH1 0x20 ADD SWAP1 PUSH1 0x1 ADD SWAP1 DUP1 DUP4 GT PUSH2 0x978 JUMPI JUMPDEST POP POP POP POP POP SWAP7 POP DUP4 DUP1 SLOAD PUSH2 0x9D5 SWAP1 PUSH2 0x244B JUMP JUMPDEST DUP1 PUSH1 0x1F ADD PUSH1 0x20 DUP1 SWAP2 DIV MUL PUSH1 0x20 ADD PUSH1 0x40 MLOAD SWAP1 DUP2 ADD PUSH1 0x40 MSTORE DUP1 SWAP3 SWAP2 SWAP1 DUP2 DUP2 MSTORE PUSH1 0x20 ADD DUP3 DUP1 SLOAD PUSH2 0xA01 SWAP1 PUSH2 0x244B JUMP JUMPDEST DUP1 ISZERO PUSH2 0xA4E JUMPI DUP1 PUSH1 0x1F LT PUSH2 0xA23 JUMPI PUSH2 0x100 DUP1 DUP4 SLOAD DIV MUL DUP4 MSTORE SWAP2 PUSH1 0x20 ADD SWAP2 PUSH2 0xA4E JUMP JUMPDEST DUP3 ADD SWAP2 SWAP1 PUSH1 0x0 MSTORE PUSH1 0x20 PUSH1 0x0 KECCAK256 SWAP1 JUMPDEST DUP2 SLOAD DUP2 MSTORE SWAP1 PUSH1 0x1 ADD SWAP1 PUSH1 0x20 ADD DUP1 DUP4 GT PUSH2 0xA31 JUMPI DUP3 SWAP1 SUB PUSH1 0x1F AND DUP3 ADD SWAP2 JUMPDEST POP POP POP POP POP SWAP4 POP SWAP7 POP SWAP7 POP SWAP7 POP SWAP7 POP SWAP7 POP SWAP7 POP SWAP7 POP SWAP1 SWAP2 SWAP3 SWAP4 SWAP5 SWAP6 SWAP7 JUMP JUMPDEST PUSH1 0x0 PUSH1 0x15 SWAP1 SLOAD SWAP1 PUSH2 0x100 EXP SWAP1 DIV PUSH1 0xFF AND PUSH2 0xABB JUMPI PUSH1 0x40 MLOAD PUSH32 0x8C379A000000000000000000000000000000000000000000000000000000000 DUP2 MSTORE PUSH1 0x4 ADD PUSH2 0xAB2 SWAP1 PUSH2 0x20A5 JUMP JUMPDEST PUSH1 0x40 MLOAD DUP1 SWAP2 SUB SWAP1 REVERT JUMPDEST PUSH1 0x0 DUP3 GT DUP1 PUSH2 0xACA JUMPI POP PUSH1 0x0 DUP2 GT JUMPDEST PUSH2 0xB09 JUMPI PUSH1 0x40 MLOAD PUSH32 0x8C379A000000000000000000000000000000000000000000000000000000000 DUP2 MSTORE PUSH1 0x4 ADD PUSH2 0xB00 SWAP1 PUSH2 0x217D JUMP JUMPDEST PUSH1 0x40 MLOAD DUP1 SWAP2 SUB SWAP1 REVERT JUMPDEST DUP2 PUSH1 0x8 PUSH1 0x0 CALLER PUSH20 0xFFFFFFFFFFFFFFFFFFFFFFFFFFFFFFFFFFFFFFFF AND PUSH20 0xFFFFFFFFFFFFFFFFFFFFFFFFFFFFFFFFFFFFFFFF AND DUP2 MSTORE PUSH1 0x20 ADD SWAP1 DUP2 MSTORE PUSH1 0x20 ADD PUSH1 0x0 KECCAK256 SLOAD LT ISZERO PUSH2 0xB8B JUMPI PUSH1 0x40 MLOAD PUSH32 0x8C379A000000000000000000000000000000000000000000000000000000000 DUP2 MSTORE PUSH1 0x4 ADD PUSH2 0xB82 SWAP1 PUSH2 0x24C8 JUMP JUMPDEST PUSH1 0x40 MLOAD DUP1 SWAP2 SUB SWAP1 REVERT JUMPDEST DUP1 PUSH1 0x9 PUSH1 0x0 CALLER PUSH20 0xFFFFFFFFFFFFFFFFFFFFFFFFFFFFFFFFFFFFFFFF AND PUSH20 0xFFFFFFFFFFFFFFFFFFFFFFFFFFFFFFFFFFFFFFFF AND DUP2 MSTORE PUSH1 0x20 ADD SWAP1 DUP2 MSTORE PUSH1 0x20 ADD PUSH1 0x0 KECCAK256 SLOAD LT ISZERO PUSH2 0xC0D JUMPI PUSH1 0x40 MLOAD PUSH32 0x8C379A000000000000000000000000000000000000000000000000000000000 DUP2 MSTORE PUSH1 0x4 ADD PUSH2 0xC04 SWAP1 PUSH2 0x2534 JUMP JUMPDEST PUSH1 0x40 MLOAD DUP1 SWAP2 SUB SWAP1 REVERT JUMPDEST PUSH1 0x0 DUP3 GT ISZERO PUSH2 0xD2B JUMPI DUP2 PUSH1 0x8 PUSH1 0x0 CALLER PUSH20 0xFFFFFFFFFFFFFFFFFFFFFFFFFFFFFFFFFFFFFFFF AND PUSH20 0xFFFFFFFFFFFFFFFFFFFFFFFFFFFFFFFFFFFFFFFF AND DUP2 MSTORE PUSH1 0x20 ADD SWAP1 DUP2 MSTORE PUSH1 0x20 ADD PUSH1 0x0 KECCAK256 PUSH1 0x0 DUP3 DUP3 SLOAD PUSH2 0xC65 SWAP2 SWAP1 PUSH2 0x2554 JUMP JUMPDEST SWAP3 POP POP DUP2 SWAP1 SSTORE POP PUSH1 0x1 PUSH1 0x0 DUP2 SLOAD DUP2 LT PUSH2 0xC81 JUMPI PUSH2 0xC80 PUSH2 0x219D JUMP JUMPDEST JUMPDEST SWAP1 PUSH1 0x0 MSTORE PUSH1 0x20 PUSH1 0x0 KECCAK256 ADD PUSH1 0x0 SWAP1 SLOAD SWAP1 PUSH2 0x100 EXP SWAP1 DIV PUSH20 0xFFFFFFFFFFFFFFFFFFFFFFFFFFFFFFFFFFFFFFFF AND PUSH20 0xFFFFFFFFFFFFFFFFFFFFFFFFFFFFFFFFFFFFFFFF AND PUSH4 0xA9059CBB CALLER DUP5 PUSH1 0x40 MLOAD DUP4 PUSH4 0xFFFFFFFF AND PUSH1 0xE0 SHL DUP2 MSTORE PUSH1 0x4 ADD PUSH2 0xCE6 SWAP3 SWAP2 SWAP1 PUSH2 0x2588 JUMP JUMPDEST PUSH1 0x20 PUSH1 0x40 MLOAD DUP1 DUP4 SUB DUP2 PUSH1 0x0 DUP8 GAS CALL ISZERO DUP1 ISZERO PUSH2 0xD05 JUMPI RETURNDATASIZE PUSH1 0x0 DUP1 RETURNDATACOPY RETURNDATASIZE PUSH1 0x0 REVERT JUMPDEST POP POP POP POP PUSH1 0x40 MLOAD RETURNDATASIZE PUSH1 0x1F NOT PUSH1 0x1F DUP3 ADD AND DUP3 ADD DUP1 PUSH1 0x40 MSTORE POP DUP2 ADD SWAP1 PUSH2 0xD29 SWAP2 SWAP1 PUSH2 0x222F JUMP JUMPDEST POP JUMPDEST PUSH1 0x0 DUP2 GT ISZERO PUSH2 0xE48 JUMPI DUP1 PUSH1 0x9 PUSH1 0x0 CALLER PUSH20 0xFFFFFFFFFFFFFFFFFFFFFFFFFFFFFFFFFFFFFFFF AND PUSH20 0xFFFFFFFFFFFFFFFFFFFFFFFFFFFFFFFFFFFFFFFF AND DUP2 MSTORE PUSH1 0x20 ADD SWAP1 DUP2 MSTORE PUSH1 0x20 ADD PUSH1 0x0 KECCAK256 PUSH1 0x0 DUP3 DUP3 SLOAD PUSH2 0xD83 SWAP2 SWAP1 PUSH2 0x2554 JUMP JUMPDEST SWAP3 POP POP DUP2 SWAP1 SSTORE POP PUSH1 0x1 DUP1 DUP2 SLOAD DUP2 LT PUSH2 0xD9E JUMPI PUSH2 0xD9D PUSH2 0x219D JUMP JUMPDEST JUMPDEST SWAP1 PUSH1 0x0 MSTORE PUSH1 0x20 PUSH1 0x0 KECCAK256 ADD PUSH1 0x0 SWAP1 SLOAD SWAP1 PUSH2 0x100 EXP SWAP1 DIV PUSH20 0xFFFFFFFFFFFFFFFFFFFFFFFFFFFFFFFFFFFFFFFF AND PUSH20 0xFFFFFFFFFFFFFFFFFFFFFFFFFFFFFFFFFFFFFFFF AND PUSH4 0xA9059CBB CALLER DUP4 PUSH1 0x40 MLOAD DUP4 PUSH4 0xFFFFFFFF AND PUSH1 0xE0 SHL DUP2 MSTORE PUSH1 0x4 ADD PUSH2 0xE03 SWAP3 SWAP2 SWAP1 PUSH2 0x2588 JUMP JUMPDEST PUSH1 0x20 PUSH1 0x40 MLOAD DUP1 DUP4 SUB DUP2 PUSH1 0x0 DUP8 GAS CALL ISZERO DUP1 ISZERO PUSH2 0xE22 JUMPI RETURNDATASIZE PUSH1 0x0 DUP1 RETURNDATACOPY RETURNDATASIZE PUSH1 0x0 REVERT JUMPDEST POP POP POP POP PUSH1 0x40 MLOAD RETURNDATASIZE PUSH1 0x1F NOT PUSH1 0x1F DUP3 ADD AND DUP3 ADD DUP1 PUSH1 0x40 MSTORE POP DUP2 ADD SWAP1 PUSH2 0xE46 SWAP2 SWAP1 PUSH2 0x222F JUMP JUMPDEST POP JUMPDEST PUSH1 0x0 PUSH8 0xDE0B6B3A7640000 PUSH1 0x3 SLOAD DUP4 PUSH2 0xE61 SWAP2 SWAP1 PUSH2 0x22BF JUMP JUMPDEST PUSH2 0xE6B SWAP2 SWAP1 PUSH2 0x2330 JUMP JUMPDEST PUSH5 0xE8D4A51000 DUP5 PUSH2 0xE7C SWAP2 SWAP1 PUSH2 0x22BF JUMP JUMPDEST PUSH2 0xE86 SWAP2 SWAP1 PUSH2 0x228B JUMP JUMPDEST SWAP1 POP DUP1 PUSH1 0x5 SLOAD LT PUSH2 0xEAF JUMPI DUP1 PUSH1 0x5 PUSH1 0x0 DUP3 DUP3 SLOAD PUSH2 0xEA3 SWAP2 SWAP1 PUSH2 0x2554 JUMP JUMPDEST SWAP3 POP POP DUP2 SWAP1 SSTORE POP PUSH2 0xEB8 JUMP JUMPDEST PUSH1 0x0 PUSH1 0x5 DUP2 SWAP1 SSTORE POP JUMPDEST CALLER PUSH20 0xFFFFFFFFFFFFFFFFFFFFFFFFFFFFFFFFFFFFFFFF AND PUSH32 0x96CD817C6329656790EF8FBA7675405193677D39619571282F5E21F3A98CD059 DUP5 DUP5 PUSH1 0x40 MLOAD PUSH2 0xF00 SWAP3 SWAP2 SWAP1 PUSH2 0x2361 JUMP JUMPDEST PUSH1 0x40 MLOAD DUP1 SWAP2 SUB SWAP1 LOG2 POP POP POP JUMP JUMPDEST PUSH1 0x0 PUSH1 0x15 SWAP1 SLOAD SWAP1 PUSH2 0x100 EXP SWAP1 DIV PUSH1 0xFF AND PUSH2 0xF5C JUMPI PUSH1 0x40 MLOAD PUSH32 0x8C379A000000000000000000000000000000000000000000000000000000000 DUP2 MSTORE PUSH1 0x4 ADD PUSH2 0xF53 SWAP1 PUSH2 0x20A5 JUMP JUMPDEST PUSH1 0x40 MLOAD DUP1 SWAP2 SUB SWAP1 REVERT JUMPDEST PUSH1 0x0 PUSH1 0x14 SWAP1 SLOAD SWAP1 PUSH2 0x100 EXP SWAP1 DIV PUSH1 0xFF AND PUSH2 0xFAB JUMPI PUSH1 0x40 MLOAD PUSH32 0x8C379A000000000000000000000000000000000000000000000000000000000 DUP2 MSTORE PUSH1 0x4 ADD PUSH2 0xFA2 SWAP1 PUSH2 0x2111 JUMP JUMPDEST PUSH1 0x40 MLOAD DUP1 SWAP2 SUB SWAP1 REVERT JUMPDEST PUSH1 0x0 DUP4 GT PUSH2 0xFEE JUMPI PUSH1 0x40 MLOAD PUSH32 0x8C379A000000000000000000000000000000000000000000000000000000000 DUP2 MSTORE PUSH1 0x4 ADD PUSH2 0xFE5 SWAP1 PUSH2 0x217D JUMP JUMPDEST PUSH1 0x40 MLOAD DUP1 SWAP2 SUB SWAP1 REVERT JUMPDEST PUSH1 0x1 PUSH1 0x0 DUP2 SLOAD DUP2 LT PUSH2 0x1003 JUMPI PUSH2 0x1002 PUSH2 0x219D JUMP JUMPDEST JUMPDEST SWAP1 PUSH1 0x0 MSTORE PUSH1 0x20 PUSH1 0x0 KECCAK256 ADD PUSH1 0x0 SWAP1 SLOAD SWAP1 PUSH2 0x100 EXP SWAP1 DIV PUSH20 0xFFFFFFFFFFFFFFFFFFFFFFFFFFFFFFFFFFFFFFFF AND PUSH20 0xFFFFFFFFFFFFFFFFFFFFFFFFFFFFFFFFFFFFFFFF AND DUP5 PUSH20 0xFFFFFFFFFFFFFFFFFFFFFFFFFFFFFFFFFFFFFFFF AND EQ DUP1 PUSH2 0x10D0 JUMPI POP PUSH1 0x1 DUP1 DUP2 SLOAD DUP2 LT PUSH2 0x1076 JUMPI PUSH2 0x1075 PUSH2 0x219D JUMP JUMPDEST JUMPDEST SWAP1 PUSH1 0x0 MSTORE PUSH1 0x20 PUSH1 0x0 KECCAK256 ADD PUSH1 0x0 SWAP1 SLOAD SWAP1 PUSH2 0x100 EXP SWAP1 DIV PUSH20 0xFFFFFFFFFFFFFFFFFFFFFFFFFFFFFFFFFFFFFFFF AND PUSH20 0xFFFFFFFFFFFFFFFFFFFFFFFFFFFFFFFFFFFFFFFF AND DUP5 PUSH20 0xFFFFFFFFFFFFFFFFFFFFFFFFFFFFFFFFFFFFFFFF AND EQ JUMPDEST PUSH2 0x110F JUMPI PUSH1 0x40 MLOAD PUSH32 0x8C379A000000000000000000000000000000000000000000000000000000000 DUP2 MSTORE PUSH1 0x4 ADD PUSH2 0x1106 SWAP1 PUSH2 0x25FD JUMP JUMPDEST PUSH1 0x40 MLOAD DUP1 SWAP2 SUB SWAP1 REVERT JUMPDEST PUSH3 0xF4240 PUSH1 0x2 SLOAD GT ISZERO PUSH2 0x1157 JUMPI PUSH1 0x40 MLOAD PUSH32 0x8C379A000000000000000000000000000000000000000000000000000000000 DUP2 MSTORE PUSH1 0x4 ADD PUSH2 0x114E SWAP1 PUSH2 0x2669 JUMP JUMPDEST PUSH1 0x40 MLOAD DUP1 SWAP2 SUB SWAP1 REVERT JUMPDEST PUSH1 0x0 PUSH1 0x1 PUSH1 0x0 DUP2 SLOAD DUP2 LT PUSH2 0x116E JUMPI PUSH2 0x116D PUSH2 0x219D JUMP JUMPDEST JUMPDEST SWAP1 PUSH1 0x0 MSTORE PUSH1 0x20 PUSH1 0x0 KECCAK256 ADD PUSH1 0x0 SWAP1 SLOAD SWAP1 PUSH2 0x100 EXP SWAP1 DIV PUSH20 0xFFFFFFFFFFFFFFFFFFFFFFFFFFFFFFFFFFFFFFFF AND PUSH20 0xFFFFFFFFFFFFFFFFFFFFFFFFFFFFFFFFFFFFFFFF AND DUP6 PUSH20 0xFFFFFFFFFFFFFFFFFFFFFFFFFFFFFFFFFFFFFFFF AND EQ PUSH2 0x1210 JUMPI PUSH1 0x1 PUSH1 0x0 DUP2 SLOAD DUP2 LT PUSH2 0x11E0 JUMPI PUSH2 0x11DF PUSH2 0x219D JUMP JUMPDEST JUMPDEST SWAP1 PUSH1 0x0 MSTORE PUSH1 0x20 PUSH1 0x0 KECCAK256 ADD PUSH1 0x0 SWAP1 SLOAD SWAP1 PUSH2 0x100 EXP SWAP1 DIV PUSH20 0xFFFFFFFFFFFFFFFFFFFFFFFFFFFFFFFFFFFFFFFF AND PUSH2 0x1250 JUMP JUMPDEST PUSH1 0x1 DUP1 DUP2 SLOAD DUP2 LT PUSH2 0x1224 JUMPI PUSH2 0x1223 PUSH2 0x219D JUMP JUMPDEST JUMPDEST SWAP1 PUSH1 0x0 MSTORE PUSH1 0x20 PUSH1 0x0 KECCAK256 ADD PUSH1 0x0 SWAP1 SLOAD SWAP1 PUSH2 0x100 EXP SWAP1 DIV PUSH20 0xFFFFFFFFFFFFFFFFFFFFFFFFFFFFFFFFFFFFFFFF AND JUMPDEST SWAP1 POP PUSH1 0x0 DUP6 PUSH20 0xFFFFFFFFFFFFFFFFFFFFFFFFFFFFFFFFFFFFFFFF AND PUSH4 0x70A08231 ADDRESS PUSH1 0x40 MLOAD DUP3 PUSH4 0xFFFFFFFF AND PUSH1 0xE0 SHL DUP2 MSTORE PUSH1 0x4 ADD PUSH2 0x128D SWAP2 SWAP1 PUSH2 0x1B76 JUMP JUMPDEST PUSH1 0x20 PUSH1 0x40 MLOAD DUP1 DUP4 SUB DUP2 DUP7 GAS STATICCALL ISZERO DUP1 ISZERO PUSH2 0x12AA JUMPI RETURNDATASIZE PUSH1 0x0 DUP1 RETURNDATACOPY RETURNDATASIZE PUSH1 0x0 REVERT JUMPDEST POP POP POP POP PUSH1 0x40 MLOAD RETURNDATASIZE PUSH1 0x1F NOT PUSH1 0x1F DUP3 ADD AND DUP3 ADD DUP1 PUSH1 0x40 MSTORE POP DUP2 ADD SWAP1 PUSH2 0x12CE SWAP2 SWAP1 PUSH2 0x269E JUMP JUMPDEST SWAP1 POP PUSH1 0x0 DUP3 PUSH20 0xFFFFFFFFFFFFFFFFFFFFFFFFFFFFFFFFFFFFFFFF AND PUSH4 0x70A08231 ADDRESS PUSH1 0x40 MLOAD DUP3 PUSH4 0xFFFFFFFF AND PUSH1 0xE0 SHL DUP2 MSTORE PUSH1 0x4 ADD PUSH2 0x130B SWAP2 SWAP1 PUSH2 0x1B76 JUMP JUMPDEST PUSH1 0x20 PUSH1 0x40 MLOAD DUP1 DUP4 SUB DUP2 DUP7 GAS STATICCALL ISZERO DUP1 ISZERO PUSH2 0x1328 JUMPI RETURNDATASIZE PUSH1 0x0 DUP1 RETURNDATACOPY RETURNDATASIZE PUSH1 0x0 REVERT JUMPDEST POP POP POP POP PUSH1 0x40 MLOAD RETURNDATASIZE PUSH1 0x1F NOT PUSH1 0x1F DUP3 ADD AND DUP3 ADD DUP1 PUSH1 0x40 MSTORE POP DUP2 ADD SWAP1 PUSH2 0x134C SWAP2 SWAP1 PUSH2 0x269E JUMP JUMPDEST SWAP1 POP PUSH1 0x0 DUP3 GT DUP1 ISZERO PUSH2 0x135E JUMPI POP PUSH1 0x0 DUP2 GT JUMPDEST PUSH2 0x139D JUMPI PUSH1 0x40 MLOAD PUSH32 0x8C379A000000000000000000000000000000000000000000000000000000000 DUP2 MSTORE PUSH1 0x4 ADD PUSH2 0x1394 SWAP1 PUSH2 0x2717 JUMP JUMPDEST PUSH1 0x40 MLOAD DUP1 SWAP2 SUB SWAP1 REVERT JUMPDEST PUSH1 0x0 PUSH3 0xF4240 PUSH1 0x2 SLOAD PUSH3 0xF4240 PUSH2 0x13B4 SWAP2 SWAP1 PUSH2 0x2554 JUMP JUMPDEST DUP9 PUSH2 0x13BF SWAP2 SWAP1 PUSH2 0x22BF JUMP JUMPDEST PUSH2 0x13C9 SWAP2 SWAP1 PUSH2 0x2330 JUMP JUMPDEST SWAP1 POP PUSH1 0x0 DUP2 DUP5 PUSH2 0x13D9 SWAP2 SWAP1 PUSH2 0x228B JUMP JUMPDEST DUP4 DUP4 PUSH2 0x13E5 SWAP2 SWAP1 PUSH2 0x22BF JUMP JUMPDEST PUSH2 0x13EF SWAP2 SWAP1 PUSH2 0x2330 JUMP JUMPDEST SWAP1 POP PUSH1 0x0 DUP2 GT DUP1 ISZERO PUSH2 0x1400 JUMPI POP DUP3 DUP2 LT JUMPDEST PUSH2 0x143F JUMPI PUSH1 0x40 MLOAD PUSH32 0x8C379A000000000000000000000000000000000000000000000000000000000 DUP2 MSTORE PUSH1 0x4 ADD PUSH2 0x1436 SWAP1 PUSH2 0x2783 JUMP JUMPDEST PUSH1 0x40 MLOAD DUP1 SWAP2 SUB SWAP1 REVERT JUMPDEST DUP7 DUP2 LT ISZERO PUSH2 0x1482 JUMPI PUSH1 0x40 MLOAD PUSH32 0x8C379A000000000000000000000000000000000000000000000000000000000 DUP2 MSTORE PUSH1 0x4 ADD PUSH2 0x1479 SWAP1 PUSH2 0x27EF JUMP JUMPDEST PUSH1 0x40 MLOAD DUP1 SWAP2 SUB SWAP1 REVERT JUMPDEST DUP9 PUSH20 0xFFFFFFFFFFFFFFFFFFFFFFFFFFFFFFFFFFFFFFFF AND PUSH4 0x23B872DD CALLER ADDRESS DUP12 PUSH1 0x40 MLOAD DUP5 PUSH4 0xFFFFFFFF AND PUSH1 0xE0 SHL DUP2 MSTORE PUSH1 0x4 ADD PUSH2 0x14BF SWAP4 SWAP3 SWAP2 SWAP1 PUSH2 0x21CC JUMP JUMPDEST PUSH1 0x20 PUSH1 0x40 MLOAD DUP1 DUP4 SUB DUP2 PUSH1 0x0 DUP8 GAS CALL ISZERO DUP1 ISZERO PUSH2 0x14DE JUMPI RETURNDATASIZE PUSH1 0x0 DUP1 RETURNDATACOPY RETURNDATASIZE PUSH1 0x0 REVERT JUMPDEST POP POP POP POP PUSH1 0x40 MLOAD RETURNDATASIZE PUSH1 0x1F NOT PUSH1 0x1F DUP3 ADD AND DUP3 ADD DUP1 PUSH1 0x40 MSTORE POP DUP2 ADD SWAP1 PUSH2 0x1502 SWAP2 SWAP1 PUSH2 0x222F JUMP JUMPDEST POP DUP5 PUSH20 0xFFFFFFFFFFFFFFFFFFFFFFFFFFFFFFFFFFFFFFFF AND PUSH4 0xA9059CBB CALLER DUP4 PUSH1 0x40 MLOAD DUP4 PUSH4 0xFFFFFFFF AND PUSH1 0xE0 SHL DUP2 MSTORE PUSH1 0x4 ADD PUSH2 0x153E SWAP3 SWAP2 SWAP1 PUSH2 0x2588 JUMP JUMPDEST PUSH1 0x20 PUSH1 0x40 MLOAD DUP1 DUP4 SUB DUP2 PUSH1 0x0 DUP8 GAS CALL ISZERO DUP1 ISZERO PUSH2 0x155D JUMPI RETURNDATASIZE PUSH1 0x0 DUP1 RETURNDATACOPY RETURNDATASIZE PUSH1 0x0 REVERT JUMPDEST POP POP POP POP PUSH1 0x40 MLOAD RETURNDATASIZE PUSH1 0x1F NOT PUSH1 0x1F DUP3 ADD AND DUP3 ADD DUP1 PUSH1 0x40 MSTORE POP DUP2 ADD SWAP1 PUSH2 0x1581 SWAP2 SWAP1 PUSH2 0x222F JUMP JUMPDEST POP DUP5 PUSH20 0xFFFFFFFFFFFFFFFFFFFFFFFFFFFFFFFFFFFFFFFF AND DUP10 PUSH20 0xFFFFFFFFFFFFFFFFFFFFFFFFFFFFFFFFFFFFFFFF AND CALLER PUSH20 0xFFFFFFFFFFFFFFFFFFFFFFFFFFFFFFFFFFFFFFFF AND PUSH32 0x874B2D545CB271CDBDA4E093020C452328B24AF12382ED62C4D00F5C26709DB DUP12 DUP6 DUP13 DUP13 PUSH1 0x40 MLOAD PUSH2 0x15FC SWAP5 SWAP4 SWAP3 SWAP2 SWAP1 PUSH2 0x280F JUMP JUMPDEST PUSH1 0x40 MLOAD DUP1 SWAP2 SUB SWAP1 LOG4 POP POP POP POP POP POP POP POP POP JUMP JUMPDEST PUSH1 0x1 DUP2 DUP2 SLOAD DUP2 LT PUSH2 0x161F JUMPI PUSH1 0x0 DUP1 REVERT JUMPDEST SWAP1 PUSH1 0x0 MSTORE PUSH1 0x20 PUSH1 0x0 KECCAK256 ADD PUSH1 0x0 SWAP2 POP SLOAD SWAP1 PUSH2 0x100 EXP SWAP1 DIV PUSH20 0xFFFFFFFFFFFFFFFFFFFFFFFFFFFFFFFFFFFFFFFF AND DUP2 JUMP JUMPDEST PUSH1 0x2 SLOAD DUP2 JUMP JUMPDEST PUSH1 0x0 PUSH1 0x15 SWAP1 SLOAD SWAP1 PUSH2 0x100 EXP SWAP1 DIV PUSH1 0xFF AND ISZERO PUSH2 0x16A4 JUMPI PUSH1 0x40 MLOAD PUSH32 0x8C379A000000000000000000000000000000000000000000000000000000000 DUP2 MSTORE PUSH1 0x4 ADD PUSH2 0x169B SWAP1 PUSH2 0x28A0 JUMP JUMPDEST PUSH1 0x40 MLOAD DUP1 SWAP2 SUB SWAP1 REVERT JUMPDEST PUSH1 0x2 DUP6 MLOAD EQ PUSH2 0x16E8 JUMPI PUSH1 0x40 MLOAD PUSH32 0x8C379A000000000000000000000000000000000000000000000000000000000 DUP2 MSTORE PUSH1 0x4 ADD PUSH2 0x16DF SWAP1 PUSH2 0x290C JUMP JUMPDEST PUSH1 0x40 MLOAD DUP1 SWAP2 SUB SWAP1 REVERT JUMPDEST PUSH1 0x0 DUP5 GT PUSH2 0x172B JUMPI PUSH1 0x40 MLOAD PUSH32 0x8C379A000000000000000000000000000000000000000000000000000000000 DUP2 MSTORE PUSH1 0x4 ADD PUSH2 0x1722 SWAP1 PUSH2 0x2978 JUMP JUMPDEST PUSH1 0x40 MLOAD DUP1 SWAP2 SUB SWAP1 REVERT JUMPDEST PUSH1 0x0 DUP4 GT PUSH2 0x176E JUMPI PUSH1 0x40 MLOAD PUSH32 0x8C379A000000000000000000000000000000000000000000000000000000000 DUP2 MSTORE PUSH1 0x4 ADD PUSH2 0x1765 SWAP1 PUSH2 0x2A0A JUMP JUMPDEST PUSH1 0x40 MLOAD DUP1 SWAP2 SUB SWAP1 REVERT JUMPDEST PUSH1 0x0 DUP3 DUP3 SWAP1 POP GT PUSH2 0x17B4 JUMPI PUSH1 0x40 MLOAD PUSH32 0x8C379A000000000000000000000000000000000000000000000000000000000 DUP2 MSTORE PUSH1 0x4 ADD PUSH2 0x17AB SWAP1 PUSH2 0x2A76 JUMP JUMPDEST PUSH1 0x40 MLOAD DUP1 SWAP2 SUB SWAP1 REVERT JUMPDEST DUP5 PUSH1 0x1 SWAP1 DUP1 MLOAD SWAP1 PUSH1 0x20 ADD SWAP1 PUSH2 0x17CA SWAP3 SWAP2 SWAP1 PUSH2 0x18F8 JUMP JUMPDEST POP DUP4 PUSH1 0x2 DUP2 SWAP1 SSTORE POP DUP3 PUSH1 0x3 DUP2 SWAP1 SSTORE POP DUP2 DUP2 PUSH1 0x4 SWAP2 DUP3 PUSH2 0x17EA SWAP3 SWAP2 SWAP1 PUSH2 0x2C4D JUMP JUMPDEST POP PUSH1 0x1 PUSH1 0x0 PUSH1 0x15 PUSH2 0x100 EXP DUP2 SLOAD DUP2 PUSH1 0xFF MUL NOT AND SWAP1 DUP4 ISZERO ISZERO MUL OR SWAP1 SSTORE POP PUSH1 0x0 PUSH1 0x5 DUP2 SWAP1 SSTORE POP PUSH1 0x0 PUSH1 0x6 DUP2 SWAP1 SSTORE POP PUSH1 0x0 PUSH1 0x7 DUP2 SWAP1 SSTORE POP PUSH32 0xBCD74A59EF1C06BAA0F21D290C50EB6B4E5E897E130B4796CBECAD41D25CED22 DUP6 DUP6 DUP6 DUP6 DUP6 PUSH1 0x40 MLOAD PUSH2 0x1855 SWAP6 SWAP5 SWAP4 SWAP3 SWAP2 SWAP1 PUSH2 0x2D59 JUMP JUMPDEST PUSH1 0x40 MLOAD DUP1 SWAP2 SUB SWAP1 LOG1 POP POP POP POP POP JUMP JUMPDEST PUSH1 0x5 SLOAD DUP2 JUMP JUMPDEST PUSH1 0x4 DUP1 SLOAD PUSH2 0x1877 SWAP1 PUSH2 0x244B JUMP JUMPDEST DUP1 PUSH1 0x1F ADD PUSH1 0x20 DUP1 SWAP2 DIV MUL PUSH1 0x20 ADD PUSH1 0x40 MLOAD SWAP1 DUP2 ADD PUSH1 0x40 MSTORE DUP1 SWAP3 SWAP2 SWAP1 DUP2 DUP2 MSTORE PUSH1 0x20 ADD DUP3 DUP1 SLOAD PUSH2 0x18A3 SWAP1 PUSH2 0x244B JUMP JUMPDEST DUP1 ISZERO PUSH2 0x18F0 JUMPI DUP1 PUSH1 0x1F LT PUSH2 0x18C5 JUMPI PUSH2 0x100 DUP1 DUP4 SLOAD DIV MUL DUP4 MSTORE SWAP2 PUSH1 0x20 ADD SWAP2 PUSH2 0x18F0 JUMP JUMPDEST DUP3 ADD SWAP2 SWAP1 PUSH1 0x0 MSTORE PUSH1 0x20 PUSH1 0x0 KECCAK256 SWAP1 JUMPDEST DUP2 SLOAD DUP2 MSTORE SWAP1 PUSH1 0x1 ADD SWAP1 PUSH1 0x20 ADD DUP1 DUP4 GT PUSH2 0x18D3 JUMPI DUP3 SWAP1 SUB PUSH1 0x1F AND DUP3 ADD SWAP2 JUMPDEST POP POP POP POP POP DUP2 JUMP JUMPDEST DUP3 DUP1 SLOAD DUP3 DUP3 SSTORE SWAP1 PUSH1 0x0 MSTORE PUSH1 0x20 PUSH1 0x0 KECCAK256 SWAP1 DUP2 ADD SWAP3 DUP3 ISZERO PUSH2 0x1971 JUMPI SWAP2 PUSH1 0x20 MUL DUP3 ADD JUMPDEST DUP3 DUP2 GT ISZERO PUSH2 0x1970 JUMPI DUP3 MLOAD DUP3 PUSH1 0x0 PUSH2 0x100 EXP DUP2 SLOAD DUP2 PUSH20 0xFFFFFFFFFFFFFFFFFFFFFFFFFFFFFFFFFFFFFFFF MUL NOT AND SWAP1 DUP4 PUSH20 0xFFFFFFFFFFFFFFFFFFFFFFFFFFFFFFFFFFFFFFFF AND MUL OR SWAP1 SSTORE POP SWAP2 PUSH1 0x20 ADD SWAP2 SWAP1 PUSH1 0x1 ADD SWAP1 PUSH2 0x1918 JUMP JUMPDEST JUMPDEST POP SWAP1 POP PUSH2 0x197E SWAP2 SWAP1 PUSH2 0x1982 JUMP JUMPDEST POP SWAP1 JUMP JUMPDEST JUMPDEST DUP1 DUP3 GT ISZERO PUSH2 0x199B JUMPI PUSH1 0x0 DUP2 PUSH1 0x0 SWAP1 SSTORE POP PUSH1 0x1 ADD PUSH2 0x1983 JUMP JUMPDEST POP SWAP1 JUMP JUMPDEST PUSH1 0x0 DUP2 SWAP1 POP SWAP2 SWAP1 POP JUMP JUMPDEST PUSH2 0x19B2 DUP2 PUSH2 0x199F JUMP JUMPDEST DUP3 MSTORE POP POP JUMP JUMPDEST PUSH1 0x0 PUSH1 0x20 DUP3 ADD SWAP1 POP PUSH2 0x19CD PUSH1 0x0 DUP4 ADD DUP5 PUSH2 0x19A9 JUMP JUMPDEST SWAP3 SWAP2 POP POP JUMP JUMPDEST PUSH1 0x0 PUSH1 0x40 MLOAD SWAP1 POP SWAP1 JUMP JUMPDEST PUSH1 0x0 DUP1 REVERT JUMPDEST PUSH1 0x0 DUP1 REVERT JUMPDEST PUSH1 0x0 PUSH20 0xFFFFFFFFFFFFFFFFFFFFFFFFFFFFFFFFFFFFFFFF DUP3 AND SWAP1 POP SWAP2 SWAP1 POP JUMP JUMPDEST PUSH1 0x0 PUSH2 0x1A12 DUP3 PUSH2 0x19E7 JUMP JUMPDEST SWAP1 POP SWAP2 SWAP1 POP JUMP JUMPDEST PUSH2 0x1A22 DUP2 PUSH2 0x1A07 JUMP JUMPDEST DUP2 EQ PUSH2 0x1A2D JUMPI PUSH1 0x0 DUP1 REVERT JUMPDEST POP JUMP JUMPDEST PUSH1 0x0 DUP2 CALLDATALOAD SWAP1 POP PUSH2 0x1A3F DUP2 PUSH2 0x1A19 JUMP JUMPDEST SWAP3 SWAP2 POP POP JUMP JUMPDEST PUSH1 0x0 PUSH1 0x20 DUP3 DUP5 SUB SLT ISZERO PUSH2 0x1A5B JUMPI PUSH2 0x1A5A PUSH2 0x19DD JUMP JUMPDEST JUMPDEST PUSH1 0x0 PUSH2 0x1A69 DUP5 DUP3 DUP6 ADD PUSH2 0x1A30 JUMP JUMPDEST SWAP2 POP POP SWAP3 SWAP2 POP POP JUMP JUMPDEST PUSH2 0x1A7B DUP2 PUSH2 0x199F JUMP JUMPDEST DUP2 EQ PUSH2 0x1A86 JUMPI PUSH1 0x0 DUP1 REVERT JUMPDEST POP JUMP JUMPDEST PUSH1 0x0 DUP2 CALLDATALOAD SWAP1 POP PUSH2 0x1A98 DUP2 PUSH2 0x1A72 JUMP JUMPDEST SWAP3 SWAP2 POP POP JUMP JUMPDEST PUSH1 0x0 DUP1 PUSH1 0x40 DUP4 DUP6 SUB SLT ISZERO PUSH2 0x1AB5 JUMPI PUSH2 0x1AB4 PUSH2 0x19DD JUMP JUMPDEST JUMPDEST PUSH1 0x0 PUSH2 0x1AC3 DUP6 DUP3 DUP7 ADD PUSH2 0x1A89 JUMP JUMPDEST SWAP3 POP POP PUSH1 0x20 PUSH2 0x1AD4 DUP6 DUP3 DUP7 ADD PUSH2 0x1A89 JUMP JUMPDEST SWAP2 POP POP SWAP3 POP SWAP3 SWAP1 POP JUMP JUMPDEST PUSH1 0x0 DUP2 ISZERO ISZERO SWAP1 POP SWAP2 SWAP1 POP JUMP JUMPDEST PUSH2 0x1AF3 DUP2 PUSH2 0x1ADE JUMP JUMPDEST DUP3 MSTORE POP POP JUMP JUMPDEST PUSH1 0x0 PUSH1 0x20 DUP3 ADD SWAP1 POP PUSH2 0x1B0E PUSH1 0x0 DUP4 ADD DUP5 PUSH2 0x1AEA JUMP JUMPDEST SWAP3 SWAP2 POP POP JUMP JUMPDEST PUSH1 0x0 DUP1 PUSH1 0x0 PUSH1 0x60 DUP5 DUP7 SUB SLT ISZERO PUSH2 0x1B2D JUMPI PUSH2 0x1B2C PUSH2 0x19DD JUMP JUMPDEST JUMPDEST PUSH1 0x0 PUSH2 0x1B3B DUP7 DUP3 DUP8 ADD PUSH2 0x1A89 JUMP JUMPDEST SWAP4 POP POP PUSH1 0x20 PUSH2 0x1B4C DUP7 DUP3 DUP8 ADD PUSH2 0x1A89 JUMP JUMPDEST SWAP3 POP POP PUSH1 0x40 PUSH2 0x1B5D DUP7 DUP3 DUP8 ADD PUSH2 0x1A89 JUMP JUMPDEST SWAP2 POP POP SWAP3 POP SWAP3 POP SWAP3 JUMP JUMPDEST PUSH2 0x1B70 DUP2 PUSH2 0x1A07 JUMP JUMPDEST DUP3 MSTORE POP POP JUMP JUMPDEST PUSH1 0x0 PUSH1 0x20 DUP3 ADD SWAP1 POP PUSH2 0x1B8B PUSH1 0x0 DUP4 ADD DUP5 PUSH2 0x1B67 JUMP JUMPDEST SWAP3 SWAP2 POP POP JUMP JUMPDEST PUSH1 0x0 DUP2 MLOAD SWAP1 POP SWAP2 SWAP1 POP JUMP JUMPDEST PUSH1 0x0 DUP3 DUP3 MSTORE PUSH1 0x20 DUP3 ADD SWAP1 POP SWAP3 SWAP2 POP POP JUMP JUMPDEST PUSH1 0x0 DUP2 SWAP1 POP PUSH1 0x20 DUP3 ADD SWAP1 POP SWAP2 SWAP1 POP JUMP JUMPDEST PUSH2 0x1BC6 DUP2 PUSH2 0x1A07 JUMP JUMPDEST DUP3 MSTORE POP POP JUMP JUMPDEST PUSH1 0x0 PUSH2 0x1BD8 DUP4 DUP4 PUSH2 0x1BBD JUMP JUMPDEST PUSH1 0x20 DUP4 ADD SWAP1 POP SWAP3 SWAP2 POP POP JUMP JUMPDEST PUSH1 0x0 PUSH1 0x20 DUP3 ADD SWAP1 POP SWAP2 SWAP1 POP JUMP JUMPDEST PUSH1 0x0 PUSH2 0x1BFC DUP3 PUSH2 0x1B91 JUMP JUMPDEST PUSH2 0x1C06 DUP2 DUP6 PUSH2 0x1B9C JUMP JUMPDEST SWAP4 POP PUSH2 0x1C11 DUP4 PUSH2 0x1BAD JUMP JUMPDEST DUP1 PUSH1 0x0 JUMPDEST DUP4 DUP2 LT ISZERO PUSH2 0x1C42 JUMPI DUP2 MLOAD PUSH2 0x1C29 DUP9 DUP3 PUSH2 0x1BCC JUMP JUMPDEST SWAP8 POP PUSH2 0x1C34 DUP4 PUSH2 0x1BE4 JUMP JUMPDEST SWAP3 POP POP PUSH1 0x1 DUP2 ADD SWAP1 POP PUSH2 0x1C15 JUMP JUMPDEST POP DUP6 SWAP4 POP POP POP POP SWAP3 SWAP2 POP POP JUMP JUMPDEST PUSH1 0x0 DUP2 MLOAD SWAP1 POP SWAP2 SWAP1 POP JUMP JUMPDEST PUSH1 0x0 DUP3 DUP3 MSTORE PUSH1 0x20 DUP3 ADD SWAP1 POP SWAP3 SWAP2 POP POP JUMP JUMPDEST PUSH1 0x0 JUMPDEST DUP4 DUP2 LT ISZERO PUSH2 0x1C89 JUMPI DUP1 DUP3 ADD MLOAD DUP2 DUP5 ADD MSTORE PUSH1 0x20 DUP2 ADD SWAP1 POP PUSH2 0x1C6E JUMP JUMPDEST PUSH1 0x0 DUP5 DUP5 ADD MSTORE POP POP POP POP JUMP JUMPDEST PUSH1 0x0 PUSH1 0x1F NOT PUSH1 0x1F DUP4 ADD AND SWAP1 POP SWAP2 SWAP1 POP JUMP JUMPDEST PUSH1 0x0 PUSH2 0x1CB1 DUP3 PUSH2 0x1C4F JUMP JUMPDEST PUSH2 0x1CBB DUP2 DUP6 PUSH2 0x1C5A JUMP JUMPDEST SWAP4 POP PUSH2 0x1CCB DUP2 DUP6 PUSH1 0x20 DUP7 ADD PUSH2 0x1C6B JUMP JUMPDEST PUSH2 0x1CD4 DUP2 PUSH2 0x1C95 JUMP JUMPDEST DUP5 ADD SWAP2 POP POP SWAP3 SWAP2 POP POP JUMP JUMPDEST PUSH1 0x0 PUSH1 0xE0 DUP3 ADD SWAP1 POP DUP2 DUP2 SUB PUSH1 0x0 DUP4 ADD MSTORE PUSH2 0x1CF9 DUP2 DUP11 PUSH2 0x1BF1 JUMP JUMPDEST SWAP1 POP PUSH2 0x1D08 PUSH1 0x20 DUP4 ADD DUP10 PUSH2 0x19A9 JUMP JUMPDEST PUSH2 0x1D15 PUSH1 0x40 DUP4 ADD DUP9 PUSH2 0x19A9 JUMP JUMPDEST DUP2 DUP2 SUB PUSH1 0x60 DUP4 ADD MSTORE PUSH2 0x1D27 DUP2 DUP8 PUSH2 0x1CA6 JUMP JUMPDEST SWAP1 POP PUSH2 0x1D36 PUSH1 0x80 DUP4 ADD DUP7 PUSH2 0x19A9 JUMP JUMPDEST PUSH2 0x1D43 PUSH1 0xA0 DUP4 ADD DUP6 PUSH2 0x19A9 JUMP JUMPDEST PUSH2 0x1D50 PUSH1 0xC0 DUP4 ADD DUP5 PUSH2 0x19A9 JUMP JUMPDEST SWAP9 SWAP8 POP POP POP POP POP POP POP POP JUMP JUMPDEST PUSH1 0x0 DUP1 PUSH1 0x0 DUP1 PUSH1 0x80 DUP6 DUP8 SUB SLT ISZERO PUSH2 0x1D76 JUMPI PUSH2 0x1D75 PUSH2 0x19DD JUMP JUMPDEST JUMPDEST PUSH1 0x0 PUSH2 0x1D84 DUP8 DUP3 DUP9 ADD PUSH2 0x1A30 JUMP JUMPDEST SWAP5 POP POP PUSH1 0x20 PUSH2 0x1D95 DUP8 DUP3 DUP9 ADD PUSH2 0x1A89 JUMP JUMPDEST SWAP4 POP POP PUSH1 0x40 PUSH2 0x1DA6 DUP8 DUP3 DUP9 ADD PUSH2 0x1A89 JUMP JUMPDEST SWAP3 POP POP PUSH1 0x60 PUSH2 0x1DB7 DUP8 DUP3 DUP9 ADD PUSH2 0x1A89 JUMP JUMPDEST SWAP2 POP POP SWAP3 SWAP6 SWAP2 SWAP5 POP SWAP3 POP JUMP JUMPDEST PUSH1 0x0 PUSH1 0x20 DUP3 DUP5 SUB SLT ISZERO PUSH2 0x1DD9 JUMPI PUSH2 0x1DD8 PUSH2 0x19DD JUMP JUMPDEST JUMPDEST PUSH1 0x0 PUSH2 0x1DE7 DUP5 DUP3 DUP6 ADD PUSH2 0x1A89 JUMP JUMPDEST SWAP2 POP POP SWAP3 SWAP2 POP POP JUMP JUMPDEST PUSH1 0x0 DUP1 REVERT JUMPDEST PUSH32 0x4E487B7100000000000000000000000000000000000000000000000000000000 PUSH1 0x0 MSTORE PUSH1 0x41 PUSH1 0x4 MSTORE PUSH1 0x24 PUSH1 0x0 REVERT JUMPDEST PUSH2 0x1E2D DUP3 PUSH2 0x1C95 JUMP JUMPDEST DUP2 ADD DUP2 DUP2 LT PUSH8 0xFFFFFFFFFFFFFFFF DUP3 GT OR ISZERO PUSH2 0x1E4C JUMPI PUSH2 0x1E4B PUSH2 0x1DF5 JUMP JUMPDEST JUMPDEST DUP1 PUSH1 0x40 MSTORE POP POP POP JUMP JUMPDEST PUSH1 0x0 PUSH2 0x1E5F PUSH2 0x19D3 JUMP JUMPDEST SWAP1 POP PUSH2 0x1E6B DUP3 DUP3 PUSH2 0x1E24 JUMP JUMPDEST SWAP2 SWAP1 POP JUMP JUMPDEST PUSH1 0x0 PUSH8 0xFFFFFFFFFFFFFFFF DUP3 GT ISZERO PUSH2 0x1E8B JUMPI PUSH2 0x1E8A PUSH2 0x1DF5 JUMP JUMPDEST JUMPDEST PUSH1 0x20 DUP3 MUL SWAP1 POP PUSH1 0x20 DUP2 ADD SWAP1 POP SWAP2 SWAP1 POP JUMP JUMPDEST PUSH1 0x0 DUP1 REVERT JUMPDEST PUSH1 0x0 PUSH2 0x1EB4 PUSH2 0x1EAF DUP5 PUSH2 0x1E70 JUMP JUMPDEST PUSH2 0x1E55 JUMP JUMPDEST SWAP1 POP DUP1 DUP4 DUP3 MSTORE PUSH1 0x20 DUP3 ADD SWAP1 POP PUSH1 0x20 DUP5 MUL DUP4 ADD DUP6 DUP2 GT ISZERO PUSH2 0x1ED7 JUMPI PUSH2 0x1ED6 PUSH2 0x1E9C JUMP JUMPDEST JUMPDEST DUP4 JUMPDEST DUP2 DUP2 LT ISZERO PUSH2 0x1F00 JUMPI DUP1 PUSH2 0x1EEC DUP9 DUP3 PUSH2 0x1A30 JUMP JUMPDEST DUP5 MSTORE PUSH1 0x20 DUP5 ADD SWAP4 POP POP PUSH1 0x20 DUP2 ADD SWAP1 POP PUSH2 0x1ED9 JUMP JUMPDEST POP POP POP SWAP4 SWAP3 POP POP POP JUMP JUMPDEST PUSH1 0x0 DUP3 PUSH1 0x1F DUP4 ADD SLT PUSH2 0x1F1F JUMPI PUSH2 0x1F1E PUSH2 0x1DF0 JUMP JUMPDEST JUMPDEST DUP2 CALLDATALOAD PUSH2 0x1F2F DUP5 DUP3 PUSH1 0x20 DUP7 ADD PUSH2 0x1EA1 JUMP JUMPDEST SWAP2 POP POP SWAP3 SWAP2 POP POP JUMP JUMPDEST PUSH1 0x0 DUP1 REVERT JUMPDEST PUSH1 0x0 DUP1 DUP4 PUSH1 0x1F DUP5 ADD SLT PUSH2 0x1F53 JUMPI PUSH2 0x1F52 PUSH2 0x1DF0 JUMP JUMPDEST JUMPDEST DUP3 CALLDATALOAD SWAP1 POP PUSH8 0xFFFFFFFFFFFFFFFF DUP2 GT ISZERO PUSH2 0x1F70 JUMPI PUSH2 0x1F6F PUSH2 0x1F38 JUMP JUMPDEST JUMPDEST PUSH1 0x20 DUP4 ADD SWAP2 POP DUP4 PUSH1 0x1 DUP3 MUL DUP4 ADD GT ISZERO PUSH2 0x1F8C JUMPI PUSH2 0x1F8B PUSH2 0x1E9C JUMP JUMPDEST JUMPDEST SWAP3 POP SWAP3 SWAP1 POP JUMP JUMPDEST PUSH1 0x0 DUP1 PUSH1 0x0 DUP1 PUSH1 0x0 PUSH1 0x80 DUP7 DUP9 SUB SLT ISZERO PUSH2 0x1FAF JUMPI PUSH2 0x1FAE PUSH2 0x19DD JUMP JUMPDEST JUMPDEST PUSH1 0x0 DUP7 ADD CALLDATALOAD PUSH8 0xFFFFFFFFFFFFFFFF DUP2 GT ISZERO PUSH2 0x1FCD JUMPI PUSH2 0x1FCC PUSH2 0x19E2 JUMP JUMPDEST JUMPDEST PUSH2 0x1FD9 DUP9 DUP3 DUP10 ADD PUSH2 0x1F0A JUMP JUMPDEST SWAP6 POP POP PUSH1 0x20 PUSH2 0x1FEA DUP9 DUP3 DUP10 ADD PUSH2 0x1A89 JUMP JUMPDEST SWAP5 POP POP PUSH1 0x40 PUSH2 0x1FFB DUP9 DUP3 DUP10 ADD PUSH2 0x1A89 JUMP JUMPDEST SWAP4 POP POP PUSH1 0x60 DUP7 ADD CALLDATALOAD PUSH8 0xFFFFFFFFFFFFFFFF DUP2 GT ISZERO PUSH2 0x201C JUMPI PUSH2 0x201B PUSH2 0x19E2 JUMP JUMPDEST JUMPDEST PUSH2 0x2028 DUP9 DUP3 DUP10 ADD PUSH2 0x1F3D JUMP JUMPDEST SWAP3 POP SWAP3 POP POP SWAP3 SWAP6 POP SWAP3 SWAP6 SWAP1 SWAP4 POP JUMP JUMPDEST PUSH1 0x0 PUSH1 0x20 DUP3 ADD SWAP1 POP DUP2 DUP2 SUB PUSH1 0x0 DUP4 ADD MSTORE PUSH2 0x2051 DUP2 DUP5 PUSH2 0x1CA6 JUMP JUMPDEST SWAP1 POP SWAP3 SWAP2 POP POP JUMP JUMPDEST PUSH32 0x506F6F6C206E6F7420696E697469616C697A6564000000000000000000000000 PUSH1 0x0 DUP3 ADD MSTORE POP JUMP JUMPDEST PUSH1 0x0 PUSH2 0x208F PUSH1 0x14 DUP4 PUSH2 0x1C5A JUMP JUMPDEST SWAP2 POP PUSH2 0x209A DUP3 PUSH2 0x2059 JUMP JUMPDEST PUSH1 0x20 DUP3 ADD SWAP1 POP SWAP2 SWAP1 POP JUMP JUMPDEST PUSH1 0x0 PUSH1 0x20 DUP3 ADD SWAP1 POP DUP2 DUP2 SUB PUSH1 0x0 DUP4 ADD MSTORE PUSH2 0x20BE DUP2 PUSH2 0x2082 JUMP JUMPDEST SWAP1 POP SWAP2 SWAP1 POP JUMP JUMPDEST PUSH32 0x506F6F6C206E6F74206163746976650000000000000000000000000000000000 PUSH1 0x0 DUP3 ADD MSTORE POP JUMP JUMPDEST PUSH1 0x0 PUSH2 0x20FB PUSH1 0xF DUP4 PUSH2 0x1C5A JUMP JUMPDEST SWAP2 POP PUSH2 0x2106 DUP3 PUSH2 0x20C5 JUMP JUMPDEST PUSH1 0x20 DUP3 ADD SWAP1 POP SWAP2 SWAP1 POP JUMP JUMPDEST PUSH1 0x0 PUSH1 0x20 DUP3 ADD SWAP1 POP DUP2 DUP2 SUB PUSH1 0x0 DUP4 ADD MSTORE PUSH2 0x212A DUP2 PUSH2 0x20EE JUMP JUMPDEST SWAP1 POP SWAP2 SWAP1 POP JUMP JUMPDEST PUSH32 0x416D6F756E74206D757374206265203E20300000000000000000000000000000 PUSH1 0x0 DUP3 ADD MSTORE POP JUMP JUMPDEST PUSH1 0x0 PUSH2 0x2167 PUSH1 0x12 DUP4 PUSH2 0x1C5A JUMP JUMPDEST SWAP2 POP PUSH2 0x2172 DUP3 PUSH2 0x2131 JUMP JUMPDEST PUSH1 0x20 DUP3 ADD SWAP1 POP SWAP2 SWAP1 POP JUMP JUMPDEST PUSH1 0x0 PUSH1 0x20 DUP3 ADD SWAP1 POP DUP2 DUP2 SUB PUSH1 0x0 DUP4 ADD MSTORE PUSH2 0x2196 DUP2 PUSH2 0x215A JUMP JUMPDEST SWAP1 POP SWAP2 SWAP1 POP JUMP JUMPDEST PUSH32 0x4E487B7100000000000000000000000000000000000000000000000000000000 PUSH1 0x0 MSTORE PUSH1 0x32 PUSH1 0x4 MSTORE PUSH1 0x24 PUSH1 0x0 REVERT JUMPDEST PUSH1 0x0 PUSH1 0x60 DUP3 ADD SWAP1 POP PUSH2 0x21E1 PUSH1 0x0 DUP4 ADD DUP7 PUSH2 0x1B67 JUMP JUMPDEST PUSH2 0x21EE PUSH1 0x20 DUP4 ADD DUP6 PUSH2 0x1B67 JUMP JUMPDEST PUSH2 0x21FB PUSH1 0x40 DUP4 ADD DUP5 PUSH2 0x19A9 JUMP JUMPDEST SWAP5 SWAP4 POP POP POP POP JUMP JUMPDEST PUSH2 0x220C DUP2 PUSH2 0x1ADE JUMP JUMPDEST DUP2 EQ PUSH2 0x2217 JUMPI PUSH1 0x0 DUP1 REVERT JUMPDEST POP JUMP JUMPDEST PUSH1 0x0 DUP2 MLOAD SWAP1 POP PUSH2 0x2229 DUP2 PUSH2 0x2203 JUMP JUMPDEST SWAP3 SWAP2 POP POP JUMP JUMPDEST PUSH1 0x0 PUSH1 0x20 DUP3 DUP5 SUB SLT ISZERO PUSH2 0x2245 JUMPI PUSH2 0x2244 PUSH2 0x19DD JUMP JUMPDEST JUMPDEST PUSH1 0x0 PUSH2 0x2253 DUP5 DUP3 DUP6 ADD PUSH2 0x221A JUMP JUMPDEST SWAP2 POP POP SWAP3 SWAP2 POP POP JUMP JUMPDEST PUSH32 0x4E487B7100000000000000000000000000000000000000000000000000000000 PUSH1 0x0 MSTORE PUSH1 0x11 PUSH1 0x4 MSTORE PUSH1 0x24 PUSH1 0x0 REVERT JUMPDEST PUSH1 0x0 PUSH2 0x2296 DUP3 PUSH2 0x199F JUMP JUMPDEST SWAP2 POP PUSH2 0x22A1 DUP4 PUSH2 0x199F JUMP JUMPDEST SWAP3 POP DUP3 DUP3 ADD SWAP1 POP DUP1 DUP3 GT ISZERO PUSH2 0x22B9 JUMPI PUSH2 0x22B8 PUSH2 0x225C JUMP JUMPDEST JUMPDEST SWAP3 SWAP2 POP POP JUMP JUMPDEST PUSH1 0x0 PUSH2 0x22CA DUP3 PUSH2 0x199F JUMP JUMPDEST SWAP2 POP PUSH2 0x22D5 DUP4 PUSH2 0x199F JUMP JUMPDEST SWAP3 POP DUP3 DUP3 MUL PUSH2 0x22E3 DUP2 PUSH2 0x199F JUMP JUMPDEST SWAP2 POP DUP3 DUP3 DIV DUP5 EQ DUP4 ISZERO OR PUSH2 0x22FA JUMPI PUSH2 0x22F9 PUSH2 0x225C JUMP JUMPDEST JUMPDEST POP SWAP3 SWAP2 POP POP JUMP JUMPDEST PUSH32 0x4E487B7100000000000000000000000000000000000000000000000000000000 PUSH1 0x0 MSTORE PUSH1 0x12 PUSH1 0x4 MSTORE PUSH1 0x24 PUSH1 0x0 REVERT JUMPDEST PUSH1 0x0 PUSH2 0x233B DUP3 PUSH2 0x199F JUMP JUMPDEST SWAP2 POP PUSH2 0x2346 DUP4 PUSH2 0x199F JUMP JUMPDEST SWAP3 POP DUP3 PUSH2 0x2356 JUMPI PUSH2 0x2355 PUSH2 0x2301 JUMP JUMPDEST JUMPDEST DUP3 DUP3 DIV SWAP1 POP SWAP3 SWAP2 POP POP JUMP JUMPDEST PUSH1 0x0 PUSH1 0x40 DUP3 ADD SWAP1 POP PUSH2 0x2376 PUSH1 0x0 DUP4 ADD DUP6 PUSH2 0x19A9 JUMP JUMPDEST PUSH2 0x2383 PUSH1 0x20 DUP4 ADD DUP5 PUSH2 0x19A9 JUMP JUMPDEST SWAP4 SWAP3 POP POP POP JUMP JUMPDEST PUSH32 0x4F6E6C79206F776E65722063616E2063616C6C20746869732066756E6374696F PUSH1 0x0 DUP3 ADD MSTORE PUSH32 0x6E00000000000000000000000000000000000000000000000000000000000000 PUSH1 0x20 DUP3 ADD MSTORE POP JUMP JUMPDEST PUSH1 0x0 PUSH2 0x23E6 PUSH1 0x21 DUP4 PUSH2 0x1C5A JUMP JUMPDEST SWAP2 POP PUSH2 0x23F1 DUP3 PUSH2 0x238A JUMP JUMPDEST PUSH1 0x40 DUP3 ADD SWAP1 POP SWAP2 SWAP1 POP JUMP JUMPDEST PUSH1 0x0 PUSH1 0x20 DUP3 ADD SWAP1 POP DUP2 DUP2 SUB PUSH1 0x0 DUP4 ADD MSTORE PUSH2 0x2415 DUP2 PUSH2 0x23D9 JUMP JUMPDEST SWAP1 POP SWAP2 SWAP1 POP JUMP JUMPDEST PUSH32 0x4E487B7100000000000000000000000000000000000000000000000000000000 PUSH1 0x0 MSTORE PUSH1 0x22 PUSH1 0x4 MSTORE PUSH1 0x24 PUSH1 0x0 REVERT JUMPDEST PUSH1 0x0 PUSH1 0x2 DUP3 DIV SWAP1 POP PUSH1 0x1 DUP3 AND DUP1 PUSH2 0x2463 JUMPI PUSH1 0x7F DUP3 AND SWAP2 POP JUMPDEST PUSH1 0x20 DUP3 LT DUP2 SUB PUSH2 0x2476 JUMPI PUSH2 0x2475 PUSH2 0x241C JUMP JUMPDEST JUMPDEST POP SWAP2 SWAP1 POP JUMP JUMPDEST PUSH32 0x496E73756666696369656E7420555344432062616C616E636500000000000000 PUSH1 0x0 DUP3 ADD MSTORE POP JUMP JUMPDEST PUSH1 0x0 PUSH2 0x24B2 PUSH1 0x19 DUP4 PUSH2 0x1C5A JUMP JUMPDEST SWAP2 POP PUSH2 0x24BD DUP3 PUSH2 0x247C JUMP JUMPDEST PUSH1 0x20 DUP3 ADD SWAP1 POP SWAP2 SWAP1 POP JUMP JUMPDEST PUSH1 0x0 PUSH1 0x20 DUP3 ADD SWAP1 POP DUP2 DUP2 SUB PUSH1 0x0 DUP4 ADD MSTORE PUSH2 0x24E1 DUP2 PUSH2 0x24A5 JUMP JUMPDEST SWAP1 POP SWAP2 SWAP1 POP JUMP JUMPDEST PUSH32 0x496E73756666696369656E74204E46532062616C616E63650000000000000000 PUSH1 0x0 DUP3 ADD MSTORE POP JUMP JUMPDEST PUSH1 0x0 PUSH2 0x251E PUSH1 0x18 DUP4 PUSH2 0x1C5A JUMP JUMPDEST SWAP2 POP PUSH2 0x2529 DUP3 PUSH2 0x24E8 JUMP JUMPDEST PUSH1 0x20 DUP3 ADD SWAP1 POP SWAP2 SWAP1 POP JUMP JUMPDEST PUSH1 0x0 PUSH1 0x20 DUP3 ADD SWAP1 POP DUP2 DUP2 SUB PUSH1 0x0 DUP4 ADD MSTORE PUSH2 0x254D DUP2 PUSH2 0x2511 JUMP JUMPDEST SWAP1 POP SWAP2 SWAP1 POP JUMP JUMPDEST PUSH1 0x0 PUSH2 0x255F DUP3 PUSH2 0x199F JUMP JUMPDEST SWAP2 POP PUSH2 0x256A DUP4 PUSH2 0x199F JUMP JUMPDEST SWAP3 POP DUP3 DUP3 SUB SWAP1 POP DUP2 DUP2 GT ISZERO PUSH2 0x2582 JUMPI PUSH2 0x2581 PUSH2 0x225C JUMP JUMPDEST JUMPDEST SWAP3 SWAP2 POP POP JUMP JUMPDEST PUSH1 0x0 PUSH1 0x40 DUP3 ADD SWAP1 POP PUSH2 0x259D PUSH1 0x0 DUP4 ADD DUP6 PUSH2 0x1B67 JUMP JUMPDEST PUSH2 0x25AA PUSH1 0x20 DUP4 ADD DUP5 PUSH2 0x19A9 JUMP JUMPDEST SWAP4 SWAP3 POP POP POP JUMP JUMPDEST PUSH32 0x496E76616C696420746F6B656E00000000000000000000000000000000000000 PUSH1 0x0 DUP3 ADD MSTORE POP JUMP JUMPDEST PUSH1 0x0 PUSH2 0x25E7 PUSH1 0xD DUP4 PUSH2 0x1C5A JUMP JUMPDEST SWAP2 POP PUSH2 0x25F2 DUP3 PUSH2 0x25B1 JUMP JUMPDEST PUSH1 0x20 DUP3 ADD SWAP1 POP SWAP2 SWAP1 POP JUMP JUMPDEST PUSH1 0x0 PUSH1 0x20 DUP3 ADD SWAP1 POP DUP2 DUP2 SUB PUSH1 0x0 DUP4 ADD MSTORE PUSH2 0x2616 DUP2 PUSH2 0x25DA JUMP JUMPDEST SWAP1 POP SWAP2 SWAP1 POP JUMP JUMPDEST PUSH32 0x46656520746F6F206C6172676500000000000000000000000000000000000000 PUSH1 0x0 DUP3 ADD MSTORE POP JUMP JUMPDEST PUSH1 0x0 PUSH2 0x2653 PUSH1 0xD DUP4 PUSH2 0x1C5A JUMP JUMPDEST SWAP2 POP PUSH2 0x265E DUP3 PUSH2 0x261D JUMP JUMPDEST PUSH1 0x20 DUP3 ADD SWAP1 POP SWAP2 SWAP1 POP JUMP JUMPDEST PUSH1 0x0 PUSH1 0x20 DUP3 ADD SWAP1 POP DUP2 DUP2 SUB PUSH1 0x0 DUP4 ADD MSTORE PUSH2 0x2682 DUP2 PUSH2 0x2646 JUMP JUMPDEST SWAP1 POP SWAP2 SWAP1 POP JUMP JUMPDEST PUSH1 0x0 DUP2 MLOAD SWAP1 POP PUSH2 0x2698 DUP2 PUSH2 0x1A72 JUMP JUMPDEST SWAP3 SWAP2 POP POP JUMP JUMPDEST PUSH1 0x0 PUSH1 0x20 DUP3 DUP5 SUB SLT ISZERO PUSH2 0x26B4 JUMPI PUSH2 0x26B3 PUSH2 0x19DD JUMP JUMPDEST JUMPDEST PUSH1 0x0 PUSH2 0x26C2 DUP5 DUP3 DUP6 ADD PUSH2 0x2689 JUMP JUMPDEST SWAP2 POP POP SWAP3 SWAP2 POP POP JUMP JUMPDEST PUSH32 0x496E73756666696369656E74206C697175696469747900000000000000000000 PUSH1 0x0 DUP3 ADD MSTORE POP JUMP JUMPDEST PUSH1 0x0 PUSH2 0x2701 PUSH1 0x16 DUP4 PUSH2 0x1C5A JUMP JUMPDEST SWAP2 POP PUSH2 0x270C DUP3 PUSH2 0x26CB JUMP JUMPDEST PUSH1 0x20 DUP3 ADD SWAP1 POP SWAP2 SWAP1 POP JUMP JUMPDEST PUSH1 0x0 PUSH1 0x20 DUP3 ADD SWAP1 POP DUP2 DUP2 SUB PUSH1 0x0 DUP4 ADD MSTORE PUSH2 0x2730 DUP2 PUSH2 0x26F4 JUMP JUMPDEST SWAP1 POP SWAP2 SWAP1 POP JUMP JUMPDEST PUSH32 0x496E73756666696369656E74206F757470757400000000000000000000000000 PUSH1 0x0 DUP3 ADD MSTORE POP JUMP JUMPDEST PUSH1 0x0 PUSH2 0x276D PUSH1 0x13 DUP4 PUSH2 0x1C5A JUMP JUMPDEST SWAP2 POP PUSH2 0x2778 DUP3 PUSH2 0x2737 JUMP JUMPDEST PUSH1 0x20 DUP3 ADD SWAP1 POP SWAP2 SWAP1 POP JUMP JUMPDEST PUSH1 0x0 PUSH1 0x20 DUP3 ADD SWAP1 POP DUP2 DUP2 SUB PUSH1 0x0 DUP4 ADD MSTORE PUSH2 0x279C DUP2 PUSH2 0x2760 JUMP JUMPDEST SWAP1 POP SWAP2 SWAP1 POP JUMP JUMPDEST PUSH32 0x536C697070616765206578636565646564000000000000000000000000000000 PUSH1 0x0 DUP3 ADD MSTORE POP JUMP JUMPDEST PUSH1 0x0 PUSH2 0x27D9 PUSH1 0x11 DUP4 PUSH2 0x1C5A JUMP JUMPDEST SWAP2 POP PUSH2 0x27E4 DUP3 PUSH2 0x27A3 JUMP JUMPDEST PUSH1 0x20 DUP3 ADD SWAP1 POP SWAP2 SWAP1 POP JUMP JUMPDEST PUSH1 0x0 PUSH1 0x20 DUP3 ADD SWAP1 POP DUP2 DUP2 SUB PUSH1 0x0 DUP4 ADD MSTORE PUSH2 0x2808 DUP2 PUSH2 0x27CC JUMP JUMPDEST SWAP1 POP SWAP2 SWAP1 POP JUMP JUMPDEST PUSH1 0x0 PUSH1 0x80 DUP3 ADD SWAP1 POP PUSH2 0x2824 PUSH1 0x0 DUP4 ADD DUP8 PUSH2 0x19A9 JUMP JUMPDEST PUSH2 0x2831 PUSH1 0x20 DUP4 ADD DUP7 PUSH2 0x19A9 JUMP JUMPDEST PUSH2 0x283E PUSH1 0x40 DUP4 ADD DUP6 PUSH2 0x19A9 JUMP JUMPDEST PUSH2 0x284B PUSH1 0x60 DUP4 ADD DUP5 PUSH2 0x19A9 JUMP JUMPDEST SWAP6 SWAP5 POP POP POP POP POP JUMP JUMPDEST PUSH32 0x506F6F6C20697320616C726561647920696E697469616C697A65640000000000 PUSH1 0x0 DUP3 ADD MSTORE POP JUMP JUMPDEST PUSH1 0x0 PUSH2 0x288A PUSH1 0x1B DUP4 PUSH2 0x1C5A JUMP JUMPDEST SWAP2 POP PUSH2 0x2895 DUP3 PUSH2 0x2854 JUMP JUMPDEST PUSH1 0x20 DUP3 ADD SWAP1 POP SWAP2 SWAP1 POP JUMP JUMPDEST PUSH1 0x0 PUSH1 0x20 DUP3 ADD SWAP1 POP DUP2 DUP2 SUB PUSH1 0x0 DUP4 ADD MSTORE PUSH2 0x28B9 DUP2 PUSH2 0x287D JUMP JUMPDEST SWAP1 POP SWAP2 SWAP1 POP JUMP JUMPDEST PUSH32 0x45786163746C792074776F206173736574732061726520726571756972656400 PUSH1 0x0 DUP3 ADD MSTORE POP JUMP JUMPDEST PUSH1 0x0 PUSH2 0x28F6 PUSH1 0x1F DUP4 PUSH2 0x1C5A JUMP JUMPDEST SWAP2 POP PUSH2 0x2901 DUP3 PUSH2 0x28C0 JUMP JUMPDEST PUSH1 0x20 DUP3 ADD SWAP1 POP SWAP2 SWAP1 POP JUMP JUMPDEST PUSH1 0x0 PUSH1 0x20 DUP3 ADD SWAP1 POP DUP2 DUP2 SUB PUSH1 0x0 DUP4 ADD MSTORE PUSH2 0x2925 DUP2 PUSH2 0x28E9 JUMP JUMPDEST SWAP1 POP SWAP2 SWAP1 POP JUMP JUMPDEST PUSH32 0x466565206D7573742062652067726561746572207468616E207A65726F000000 PUSH1 0x0 DUP3 ADD MSTORE POP JUMP JUMPDEST PUSH1 0x0 PUSH2 0x2962 PUSH1 0x1D DUP4 PUSH2 0x1C5A JUMP JUMPDEST SWAP2 POP PUSH2 0x296D DUP3 PUSH2 0x292C JUMP JUMPDEST PUSH1 0x20 DUP3 ADD SWAP1 POP SWAP2 SWAP1 POP JUMP JUMPDEST PUSH1 0x0 PUSH1 0x20 DUP3 ADD SWAP1 POP DUP2 DUP2 SUB PUSH1 0x0 DUP4 ADD MSTORE PUSH2 0x2991 DUP2 PUSH2 0x2955 JUMP JUMPDEST SWAP1 POP SWAP2 SWAP1 POP JUMP JUMPDEST PUSH32 0x496E697469616C207072696365206D7573742062652067726561746572207468 PUSH1 0x0 DUP3 ADD MSTORE PUSH32 0x616E207A65726F00000000000000000000000000000000000000000000000000 PUSH1 0x20 DUP3 ADD MSTORE POP JUMP JUMPDEST PUSH1 0x0 PUSH2 0x29F4 PUSH1 0x27 DUP4 PUSH2 0x1C5A JUMP JUMPDEST SWAP2 POP PUSH2 0x29FF DUP3 PUSH2 0x2998 JUMP JUMPDEST PUSH1 0x40 DUP3 ADD SWAP1 POP SWAP2 SWAP1 POP JUMP JUMPDEST PUSH1 0x0 PUSH1 0x20 DUP3 ADD SWAP1 POP DUP2 DUP2 SUB PUSH1 0x0 DUP4 ADD MSTORE PUSH2 0x2A23 DUP2 PUSH2 0x29E7 JUMP JUMPDEST SWAP1 POP SWAP2 SWAP1 POP JUMP JUMPDEST PUSH32 0x4B65726E656C2074797065206973207265717569726564000000000000000000 PUSH1 0x0 DUP3 ADD MSTORE POP JUMP JUMPDEST PUSH1 0x0 PUSH2 0x2A60 PUSH1 0x17 DUP4 PUSH2 0x1C5A JUMP JUMPDEST SWAP2 POP PUSH2 0x2A6B DUP3 PUSH2 0x2A2A JUMP JUMPDEST PUSH1 0x20 DUP3 ADD SWAP1 POP SWAP2 SWAP1 POP JUMP JUMPDEST PUSH1 0x0 PUSH1 0x20 DUP3 ADD SWAP1 POP DUP2 DUP2 SUB PUSH1 0x0 DUP4 ADD MSTORE PUSH2 0x2A8F DUP2 PUSH2 0x2A53 JUMP JUMPDEST SWAP1 POP SWAP2 SWAP1 POP JUMP JUMPDEST PUSH1 0x0 DUP3 SWAP1 POP SWAP3 SWAP2 POP POP JUMP JUMPDEST PUSH1 0x0 DUP2 SWAP1 POP DUP2 PUSH1 0x0 MSTORE PUSH1 0x20 PUSH1 0x0 KECCAK256 SWAP1 POP SWAP2 SWAP1 POP JUMP JUMPDEST PUSH1 0x0 PUSH1 0x20 PUSH1 0x1F DUP4 ADD DIV SWAP1 POP SWAP2 SWAP1 POP JUMP JUMPDEST PUSH1 0x0 DUP3 DUP3 SHL SWAP1 POP SWAP3 SWAP2 POP POP JUMP JUMPDEST PUSH1 0x0 PUSH1 0x8 DUP4 MUL PUSH2 0x2B03 PUSH32 0xFFFFFFFFFFFFFFFFFFFFFFFFFFFFFFFFFFFFFFFFFFFFFFFFFFFFFFFFFFFFFFFF DUP3 PUSH2 0x2AC6 JUMP JUMPDEST PUSH2 0x2B0D DUP7 DUP4 PUSH2 0x2AC6 JUMP JUMPDEST SWAP6 POP DUP1 NOT DUP5 AND SWAP4 POP DUP1 DUP7 AND DUP5 OR SWAP3 POP POP POP SWAP4 SWAP3 POP POP POP JUMP JUMPDEST PUSH1 0x0 DUP2 SWAP1 POP SWAP2 SWAP1 POP JUMP JUMPDEST PUSH1 0x0 PUSH2 0x2B4A PUSH2 0x2B45 PUSH2 0x2B40 DUP5 PUSH2 0x199F JUMP JUMPDEST PUSH2 0x2B25 JUMP JUMPDEST PUSH2 0x199F JUMP JUMPDEST SWAP1 POP SWAP2 SWAP1 POP JUMP JUMPDEST PUSH1 0x0 DUP2 SWAP1 POP SWAP2 SWAP1 POP JUMP JUMPDEST PUSH2 0x2B64 DUP4 PUSH2 0x2B2F JUMP JUMPDEST PUSH2 0x2B78 PUSH2 0x2B70 DUP3 PUSH2 0x2B51 JUMP JUMPDEST DUP5 DUP5 SLOAD PUSH2 0x2AD3 JUMP JUMPDEST DUP3 SSTORE POP POP POP POP JUMP JUMPDEST PUSH1 0x0 SWAP1 JUMP JUMPDEST PUSH2 0x2B8D PUSH2 0x2B80 JUMP JUMPDEST PUSH2 0x2B98 DUP2 DUP5 DUP5 PUSH2 0x2B5B JUMP JUMPDEST POP POP POP JUMP JUMPDEST JUMPDEST DUP2 DUP2 LT ISZERO PUSH2 0x2BBC JUMPI PUSH2 0x2BB1 PUSH1 0x0 DUP3 PUSH2 0x2B85 JUMP JUMPDEST PUSH1 0x1 DUP2 ADD SWAP1 POP PUSH2 0x2B9E JUMP JUMPDEST POP POP JUMP JUMPDEST PUSH1 0x1F DUP3 GT ISZERO PUSH2 0x2C01 JUMPI PUSH2 0x2BD2 DUP2 PUSH2 0x2AA1 JUMP JUMPDEST PUSH2 0x2BDB DUP5 PUSH2 0x2AB6 JUMP JUMPDEST DUP2 ADD PUSH1 0x20 DUP6 LT ISZERO PUSH2 0x2BEA JUMPI DUP2 SWAP1 POP JUMPDEST PUSH2 0x2BFE PUSH2 0x2BF6 DUP6 PUSH2 0x2AB6 JUMP JUMPDEST DUP4 ADD DUP3 PUSH2 0x2B9D JUMP JUMPDEST POP POP JUMPDEST POP POP POP JUMP JUMPDEST PUSH1 0x0 DUP3 DUP3 SHR SWAP1 POP SWAP3 SWAP2 POP POP JUMP JUMPDEST PUSH1 0x0 PUSH2 0x2C24 PUSH1 0x0 NOT DUP5 PUSH1 0x8 MUL PUSH2 0x2C06 JUMP JUMPDEST NOT DUP1 DUP4 AND SWAP2 POP POP SWAP3 SWAP2 POP POP JUMP JUMPDEST PUSH1 0x0 PUSH2 0x2C3D DUP4 DUP4 PUSH2 0x2C13 JUMP JUMPDEST SWAP2 POP DUP3 PUSH1 0x2 MUL DUP3 OR SWAP1 POP SWAP3 SWAP2 POP POP JUMP JUMPDEST PUSH2 0x2C57 DUP4 DUP4 PUSH2 0x2A96 JUMP JUMPDEST PUSH8 0xFFFFFFFFFFFFFFFF DUP2 GT ISZERO PUSH2 0x2C70 JUMPI PUSH2 0x2C6F PUSH2 0x1DF5 JUMP JUMPDEST JUMPDEST PUSH2 0x2C7A DUP3 SLOAD PUSH2 0x244B JUMP JUMPDEST PUSH2 0x2C85 DUP3 DUP3 DUP6 PUSH2 0x2BC0 JUMP JUMPDEST PUSH1 0x0 PUSH1 0x1F DUP4 GT PUSH1 0x1 DUP2 EQ PUSH2 0x2CB4 JUMPI PUSH1 0x0 DUP5 ISZERO PUSH2 0x2CA2 JUMPI DUP3 DUP8 ADD CALLDATALOAD SWAP1 POP JUMPDEST PUSH2 0x2CAC DUP6 DUP3 PUSH2 0x2C31 JUMP JUMPDEST DUP7 SSTORE POP PUSH2 0x2D14 JUMP JUMPDEST PUSH1 0x1F NOT DUP5 AND PUSH2 0x2CC2 DUP7 PUSH2 0x2AA1 JUMP JUMPDEST PUSH1 0x0 JUMPDEST DUP3 DUP2 LT ISZERO PUSH2 0x2CEA JUMPI DUP5 DUP10 ADD CALLDATALOAD DUP3 SSTORE PUSH1 0x1 DUP3 ADD SWAP2 POP PUSH1 0x20 DUP6 ADD SWAP5 POP PUSH1 0x20 DUP2 ADD SWAP1 POP PUSH2 0x2CC5 JUMP JUMPDEST DUP7 DUP4 LT ISZERO PUSH2 0x2D07 JUMPI DUP5 DUP10 ADD CALLDATALOAD PUSH2 0x2D03 PUSH1 0x1F DUP10 AND DUP3 PUSH2 0x2C13 JUMP JUMPDEST DUP4 SSTORE POP JUMPDEST PUSH1 0x1 PUSH1 0x2 DUP9 MUL ADD DUP9 SSTORE POP POP POP JUMPDEST POP POP POP POP POP POP POP JUMP JUMPDEST DUP3 DUP2 DUP4 CALLDATACOPY PUSH1 0x0 DUP4 DUP4 ADD MSTORE POP POP POP JUMP JUMPDEST PUSH1 0x0 PUSH2 0x2D38 DUP4 DUP6 PUSH2 0x1C5A JUMP JUMPDEST SWAP4 POP PUSH2 0x2D45 DUP4 DUP6 DUP5 PUSH2 0x2D1D JUMP JUMPDEST PUSH2 0x2D4E DUP4 PUSH2 0x1C95 JUMP JUMPDEST DUP5 ADD SWAP1 POP SWAP4 SWAP3 POP POP POP JUMP JUMPDEST PUSH1 0x0 PUSH1 0x80 DUP3 ADD SWAP1 POP DUP2 DUP2 SUB PUSH1 0x0 DUP4 ADD MSTORE PUSH2 0x2D73 DUP2 DUP9 PUSH2 0x1BF1 JUMP JUMPDEST SWAP1 POP PUSH2 0x2D82 PUSH1 0x20 DUP4 ADD DUP8 PUSH2 0x19A9 JUMP JUMPDEST PUSH2 0x2D8F PUSH1 0x40 DUP4 ADD DUP7 PUSH2 0x19A9 JUMP JUMPDEST DUP2 DUP2 SUB PUSH1 0x60 DUP4 ADD MSTORE PUSH2 0x2DA2 DUP2 DUP5 DUP7 PUSH2 0x2D2C JUMP JUMPDEST SWAP1 POP SWAP7 SWAP6 POP POP POP POP POP POP JUMP INVALID LOG2 PUSH5 0x6970667358 0x22 SLT KECCAK256 PUSH7 0x39D64E23FB2FBB 0xC0 0xA7 SWAP12 0xB2 0xF6 0x4A ADDMOD 0xAB 0xD9 0xAF PUSH7 0x95A1E9B9E2FB72 0xC1 0x5C PUSH1 0x5C DUP2 DUP2 PUSH5 0x736F6C6343 STOP ADDMOD EQ STOP CALLER "},"methodIdentifiers":{"activate()":"0f15f4c0","apr()":"57ded9c9","assets(uint256)":"cf35bdd0","burn(uint256,uint256)":"b390c0ab","deactivate()":"51b42b00","fee()":"ddca3f43","getPoolDetails()":"aca34c11","initialPrice()":"1d0806ae","initializePool(address[],uint256,uint256,string)":"e096e949","isActive()":"22f3e2d4","isInitialized()":"392e53cd","kernelType()":"e7bf0e00","mint(uint256,uint256)":"1b2ef1ca","owner()":"8da5cb5b","swap(address,uint256,uint256,uint256)":"c9ec9248","tvl()":"e5328e06","updateMetrics(uint256,uint256,uint256)":"3c047e13","userNfsDeposit(address)":"18cddf03","userUsdcDeposit(address)":"45d32d1e","volume24h()":"140b9d84"}}}}}