{
  "_format": "hh-sol-artifact-1",
  "contractName": "PoolFactory",
  "sourceName": "contracts/PoolFactory.sol",
  "abi": [
    {
      "inputs": [],
      "stateMutability": "nonpayable",
      "type": "constructor"
    },
    {
      "anonymous": false,
      "inputs": [
        {
          "indexed": true,
          "internalType": "address",
          "name": "previousPool",
          "type": "address"
        },
        {
          "indexed": true,
          "internalType": "address",
          "name": "newPool",
          "type": "address"
        }
      ],
      "name": "ActivePoolChanged",
      "type": "event"
    },
    {
      "anonymous": false,
      "inputs": [
        {
          "indexed": true,
          "internalType": "address",
          "name": "poolAddress",
          "type": "address"
        }
      ],
      "name": "PoolCreated",
      "type": "event"
    },
    {
      "inputs": [],
      "name": "activePool",
      "outputs": [
        {
          "internalType": "address",
          "name": "",
          "type": "address"
        }
      ],
      "stateMutability": "view",
      "type": "function"
    },
    {
      "inputs": [],
      "name": "createPool",
      "outputs": [],
      "stateMutability": "nonpayable",
      "type": "function"
    },
    {
      "inputs": [],
      "name": "getPools",
      "outputs": [
        {
          "internalType": "address[]",
          "name": "",
          "type": "address[]"
        }
      ],
      "stateMutability": "view",
      "type": "function"
    },
    {
      "inputs": [
        {
          "internalType": "address",
          "name": "",
          "type": "address"
        }
      ],
      "name": "isPool",
      "outputs": [
        {
          "internalType": "bool",
          "name": "",
          "type": "bool"
        }
      ],
      "stateMutability": "view",
      "type": "function"
    },
    {
      "inputs": [],
      "name": "owner",
      "outputs": [
        {
          "internalType": "address",
          "name": "",
          "type": "address"
        }
      ],
      "stateMutability": "view",
      "type": "function"
    },
    {
      "inputs": [
        {
          "internalType": "uint256",
          "name": "",
          "type": "uint256"
        }
      ],
      "name": "pools",
      "outputs": [
        {
          "internalType": "address",
          "name": "",
          "type": "address"
        }
      ],
      "stateMutability": "view",
      "type": "function"
    },
    {
      "inputs": [
        {
          "internalType": "address",
          "name": "_pool",
          "type": "address"
        }
      ],
      "name": "setActivePool",
      "outputs": [],
      "stateMutability": "nonpayable",
      "type": "function"
    },
    {
      "inputs": [
        {
          "internalType": "address",
          "name": "newOwner",
          "type": "address"
        }
      ],
      "name": "transferOwnership",
      "outputs": [],
      "stateMutability": "nonpayable",
      "type": "function"
    }
  ],
  "bytecode": "0x608060405234801561001057600080fd5b50336000806101000a81548173ffffffffffffffffffffffffffffffffffffffff021916908373ffffffffffffffffffffffffffffffffffffffff16021790555061430a806100606000396000f3fe608060405234801561001057600080fd5b50600436106100885760003560e01c80639a06b1131161005b5780639a06b11314610117578063ac4afa3814610121578063f2fde38b14610151578063f7883a8b1461016d57610088565b80635b16ebb71461008d578063673a2a1f146100bd5780637f7dde4a146100db5780638da5cb5b146100f9575b600080fd5b6100a760048036038101906100a29190610a7b565b610189565b6040516100b49190610ac3565b60405180910390f35b6100c56101a9565b6040516100d29190610b9c565b60405180910390f35b6100e3610237565b6040516100f09190610bcd565b60405180910390f35b61010161025d565b60405161010e9190610bcd565b60405180910390f35b61011f610281565b005b61013b60048036038101906101369190610c1e565b610644565b6040516101489190610bcd565b60405180910390f35b61016b60048036038101906101669190610a7b565b610683565b005b61018760048036038101906101829190610a7b565b6107c3565b005b60036020528060005260406000206000915054906101000a900460ff1681565b6060600180548060200260200160405190810160405280929190818152602001828054801561022d57602002820191906000526020600020905b8160009054906101000a900473ffffffffffffffffffffffffffffffffffffffff1673ffffffffffffffffffffffffffffffffffffffff16815260200190600101908083116101e3575b5050505050905090565b600260009054906101000a900473ffffffffffffffffffffffffffffffffffffffff1681565b60008054906101000a900473ffffffffffffffffffffffffffffffffffffffff1681565b60008054906101000a900473ffffffffffffffffffffffffffffffffffffffff1673ffffffffffffffffffffffffffffffffffffffff163373ffffffffffffffffffffffffffffffffffffffff161461030f576040517f08c379a000000000000000000000000000000000000000000000000000000000815260040161030690610cce565b60405180910390fd5b60003360405161031e90610a0a565b6103289190610bcd565b604051809103906000f080158015610344573d6000803e3d6000fd5b5090506001819080600181540180825580915050600190039060005260206000200160009091909190916101000a81548173ffffffffffffffffffffffffffffffffffffffff021916908373ffffffffffffffffffffffffffffffffffffffff1602179055506001600360008373ffffffffffffffffffffffffffffffffffffffff1673ffffffffffffffffffffffffffffffffffffffff16815260200190815260200160002060006101000a81548160ff0219169083151502179055506000600260009054906101000a900473ffffffffffffffffffffffffffffffffffffffff169050600073ffffffffffffffffffffffffffffffffffffffff168173ffffffffffffffffffffffffffffffffffffffff16146104be578073ffffffffffffffffffffffffffffffffffffffff166351b42b006040518163ffffffff1660e01b8152600401600060405180830381600087803b1580156104a557600080fd5b505af11580156104b9573d6000803e3d6000fd5b505050505b81600260006101000a81548173ffffffffffffffffffffffffffffffffffffffff021916908373ffffffffffffffffffffffffffffffffffffffff160217905550600260009054906101000a900473ffffffffffffffffffffffffffffffffffffffff1673ffffffffffffffffffffffffffffffffffffffff16630f15f4c06040518163ffffffff1660e01b8152600401600060405180830381600087803b15801561056957600080fd5b505af115801561057d573d6000803e3d6000fd5b50505050600260009054906101000a900473ffffffffffffffffffffffffffffffffffffffff1673ffffffffffffffffffffffffffffffffffffffff168173ffffffffffffffffffffffffffffffffffffffff167fff74c5c75faa2302724c76e49b3e87d8bc806b4ac8c6bc207652848e7451383260405160405180910390a38173ffffffffffffffffffffffffffffffffffffffff167f83a48fbcfc991335314e74d0496aab6a1987e992ddc85dddbcc4d6dd6ef2e9fc60405160405180910390a25050565b6001818154811061065457600080fd5b906000526020600020016000915054906101000a900473ffffffffffffffffffffffffffffffffffffffff1681565b60008054906101000a900473ffffffffffffffffffffffffffffffffffffffff1673ffffffffffffffffffffffffffffffffffffffff163373ffffffffffffffffffffffffffffffffffffffff1614610711576040517f08c379a000000000000000000000000000000000000000000000000000000000815260040161070890610cce565b60405180910390fd5b600073ffffffffffffffffffffffffffffffffffffffff168173ffffffffffffffffffffffffffffffffffffffff1603610780576040517f08c379a000000000000000000000000000000000000000000000000000000000815260040161077790610d3a565b60405180910390fd5b806000806101000a81548173ffffffffffffffffffffffffffffffffffffffff021916908373ffffffffffffffffffffffffffffffffffffffff16021790555050565b600360008273ffffffffffffffffffffffffffffffffffffffff1673ffffffffffffffffffffffffffffffffffffffff16815260200190815260200160002060009054906101000a900460ff1661084f576040517f08c379a000000000000000000000000000000000000000000000000000000000815260040161084690610da6565b60405180910390fd5b6000600260009054906101000a900473ffffffffffffffffffffffffffffffffffffffff169050600073ffffffffffffffffffffffffffffffffffffffff168173ffffffffffffffffffffffffffffffffffffffff161461090b578073ffffffffffffffffffffffffffffffffffffffff166351b42b006040518163ffffffff1660e01b8152600401600060405180830381600087803b1580156108f257600080fd5b505af1158015610906573d6000803e3d6000fd5b505050505b81600260006101000a81548173ffffffffffffffffffffffffffffffffffffffff021916908373ffffffffffffffffffffffffffffffffffffffff1602179055508173ffffffffffffffffffffffffffffffffffffffff16630f15f4c06040518163ffffffff1660e01b8152600401600060405180830381600087803b15801561099457600080fd5b505af11580156109a8573d6000803e3d6000fd5b505050508173ffffffffffffffffffffffffffffffffffffffff168173ffffffffffffffffffffffffffffffffffffffff167fff74c5c75faa2302724c76e49b3e87d8bc806b4ac8c6bc207652848e7451383260405160405180910390a35050565b61350e8062000dc783390190565b600080fd5b600073ffffffffffffffffffffffffffffffffffffffff82169050919050565b6000610a4882610a1d565b9050919050565b610a5881610a3d565b8114610a6357600080fd5b50565b600081359050610a7581610a4f565b92915050565b600060208284031215610a9157610a90610a18565b5b6000610a9f84828501610a66565b91505092915050565b60008115159050919050565b610abd81610aa8565b82525050565b6000602082019050610ad86000830184610ab4565b92915050565b600081519050919050565b600082825260208201905092915050565b6000819050602082019050919050565b610b1381610a3d565b82525050565b6000610b258383610b0a565b60208301905092915050565b6000602082019050919050565b6000610b4982610ade565b610b538185610ae9565b9350610b5e83610afa565b8060005b83811015610b8f578151610b768882610b19565b9750610b8183610b31565b925050600181019050610b62565b5085935050505092915050565b60006020820190508181036000830152610bb68184610b3e565b905092915050565b610bc781610a3d565b82525050565b6000602082019050610be26000830184610bbe565b92915050565b6000819050919050565b610bfb81610be8565b8114610c0657600080fd5b50565b600081359050610c1881610bf2565b92915050565b600060208284031215610c3457610c33610a18565b5b6000610c4284828501610c09565b91505092915050565b600082825260208201905092915050565b7f4f6e6c79206f776e65722063616e2063616c6c20746869732066756e6374696f60008201527f6e00000000000000000000000000000000000000000000000000000000000000602082015250565b6000610cb8602183610c4b565b9150610cc382610c5c565b604082019050919050565b60006020820190508181036000830152610ce781610cab565b9050919050565b7f4e6577206f776e657220697320746865207a65726f2061646472657373000000600082015250565b6000610d24601d83610c4b565b9150610d2f82610cee565b602082019050919050565b60006020820190508181036000830152610d5381610d17565b9050919050565b7f4e6f74206120706f6f6c00000000000000000000000000000000000000000000600082015250565b6000610d90600a83610c4b565b9150610d9b82610d5a565b602082019050919050565b60006020820190508181036000830152610dbf81610d83565b905091905056fe60806040523480156200001157600080fd5b506040516200350e3803806200350e833981810160405281019062000037919062000140565b806000806101000a81548173ffffffffffffffffffffffffffffffffffffffff021916908373ffffffffffffffffffffffffffffffffffffffff1602179055506001600a60008373ffffffffffffffffffffffffffffffffffffffff1673ffffffffffffffffffffffffffffffffffffffff16815260200190815260200160002060006101000a81548160ff0219169083151502179055505062000172565b600080fd5b600073ffffffffffffffffffffffffffffffffffffffff82169050919050565b60006200010882620000db565b9050919050565b6200011a81620000fb565b81146200012657600080fd5b50565b6000815190506200013a816200010f565b92915050565b600060208284031215620001595762000158620000d6565b5b6000620001698482850162000129565b91505092915050565b61338c80620001826000396000f3fe608060405234801561001057600080fd5b50600436106101585760003560e01c806357ded9c9116100c3578063cf35bdd01161007c578063cf35bdd014610381578063ddca3f43146103b1578063e096e949146103cf578063e5328e06146103eb578063e7bf0e0014610409578063fe9fbb801461042757610158565b806357ded9c9146102cd57806389fabc80146102eb5780638da5cb5b14610307578063aca34c1114610325578063b390c0ab14610349578063c9ec92481461036557610158565b80631d0806ae116101155780631d0806ae1461021d57806322f3e2d41461023b578063392e53cd146102595780633c047e131461027757806345d32d1e1461029357806351b42b00146102c357610158565b80630f15f4c01461015d578063140b9d8414610167578063177d2a74146101855780631828983a146101a157806318cddf03146101d15780631b2ef1ca14610201575b600080fd5b610165610457565b005b61016f610474565b60405161017c9190611e88565b60405180910390f35b61019f600480360381019061019a9190611f15565b61047a565b005b6101bb60048036038101906101b69190611f15565b6105d2565b6040516101c89190611f5d565b60405180910390f35b6101eb60048036038101906101e69190611f15565b6105f2565b6040516101f89190611e88565b60405180910390f35b61021b60048036038101906102169190611fa4565b61060a565b005b610225610a69565b6040516102329190611e88565b60405180910390f35b610243610a6f565b6040516102509190611f5d565b60405180910390f35b610261610a82565b60405161026e9190611f5d565b60405180910390f35b610291600480360381019061028c9190611fe4565b610a95565b005b6102ad60048036038101906102a89190611f15565b610b3d565b6040516102ba9190611e88565b60405180910390f35b6102cb610b55565b005b6102d5610b71565b6040516102e29190611e88565b60405180910390f35b61030560048036038101906103009190611f15565b610b77565b005b61030f610c60565b60405161031c9190612046565b60405180910390f35b61032d610c84565b60405161034097969594939291906121af565b60405180910390f35b610363600480360381019061035e9190611fa4565b610dce565b005b61037f600480360381019061037a919061222c565b6112fb565b005b61039b60048036038101906103969190612293565b611a89565b6040516103a89190612046565b60405180910390f35b6103b9611ac8565b6040516103c69190611e88565b60405180910390f35b6103e960048036038101906103e49190612463565b611ace565b005b6103f3611cde565b6040516104009190611e88565b60405180910390f35b610411611ce4565b60405161041e9190612507565b60405180910390f35b610441600480360381019061043c9190611f15565b611d72565b60405161044e9190611f5d565b60405180910390f35b6001600060146101000a81548160ff021916908315150217905550565b60065481565b60008054906101000a900473ffffffffffffffffffffffffffffffffffffffff1673ffffffffffffffffffffffffffffffffffffffff163373ffffffffffffffffffffffffffffffffffffffff1614610508576040517f08c379a00000000000000000000000000000000000000000000000000000000081526004016104ff9061259b565b60405180910390fd5b600073ffffffffffffffffffffffffffffffffffffffff168173ffffffffffffffffffffffffffffffffffffffff1603610577576040517f08c379a000000000000000000000000000000000000000000000000000000000815260040161056e90612607565b60405180910390fd5b6001600a60008373ffffffffffffffffffffffffffffffffffffffff1673ffffffffffffffffffffffffffffffffffffffff16815260200190815260200160002060006101000a81548160ff02191690831515021790555050565b600a6020528060005260406000206000915054906101000a900460ff1681565b60096020528060005260406000206000915090505481565b600060159054906101000a900460ff16610659576040517f08c379a000000000000000000000000000000000000000000000000000000000815260040161065090612673565b60405180910390fd5b600a60003373ffffffffffffffffffffffffffffffffffffffff1673ffffffffffffffffffffffffffffffffffffffff16815260200190815260200160002060009054906101000a900460ff166106e5576040517f08c379a00000000000000000000000000000000000000000000000000000000081526004016106dc906126df565b60405180910390fd5b600060149054906101000a900460ff16610734576040517f08c379a000000000000000000000000000000000000000000000000000000000815260040161072b9061274b565b60405180910390fd5b60008211806107435750600081115b610782576040517f08c379a0000000000000000000000000000000000000000000000000000000008152600401610779906127b7565b60405180910390fd5b60008211156108a25760016000815481106107a05761079f6127d7565b5b9060005260206000200160009054906101000a900473ffffffffffffffffffffffffffffffffffffffff1673ffffffffffffffffffffffffffffffffffffffff166323b872dd3330856040518463ffffffff1660e01b815260040161080793929190612806565b6020604051808303816000875af1158015610826573d6000803e3d6000fd5b505050506040513d601f19601f8201168201806040525081019061084a9190612869565b5081600860003373ffffffffffffffffffffffffffffffffffffffff1673ffffffffffffffffffffffffffffffffffffffff168152602001908152602001600020600082825461089a91906128c5565b925050819055505b60008111156109c157600180815481106108bf576108be6127d7565b5b9060005260206000200160009054906101000a900473ffffffffffffffffffffffffffffffffffffffff1673ffffffffffffffffffffffffffffffffffffffff166323b872dd3330846040518463ffffffff1660e01b815260040161092693929190612806565b6020604051808303816000875af1158015610945573d6000803e3d6000fd5b505050506040513d601f19601f820116820180604052508101906109699190612869565b5080600960003373ffffffffffffffffffffffffffffffffffffffff1673ffffffffffffffffffffffffffffffffffffffff16815260200190815260200160002060008282546109b991906128c5565b925050819055505b670de0b6b3a7640000600354826109d891906128f9565b6109e2919061296a565b64e8d4a51000836109f391906128f9565b6109fd91906128c5565b60056000828254610a0e91906128c5565b925050819055503373ffffffffffffffffffffffffffffffffffffffff167fac1d76749e5447b7b16f5ab61447e1bd502f3bb4807af3b28e620d1700a6ee458383604051610a5d92919061299b565b60405180910390a25050565b60035481565b600060149054906101000a900460ff1681565b600060159054906101000a900460ff1681565b60008054906101000a900473ffffffffffffffffffffffffffffffffffffffff1673ffffffffffffffffffffffffffffffffffffffff163373ffffffffffffffffffffffffffffffffffffffff1614610b23576040517f08c379a0000000000000000000000000000000000000000000000000000000008152600401610b1a9061259b565b60405180910390fd5b826005819055508160068190555080600781905550505050565b60086020528060005260406000206000915090505481565b60008060146101000a81548160ff021916908315150217905550565b60075481565b60008054906101000a900473ffffffffffffffffffffffffffffffffffffffff1673ffffffffffffffffffffffffffffffffffffffff163373ffffffffffffffffffffffffffffffffffffffff1614610c05576040517f08c379a0000000000000000000000000000000000000000000000000000000008152600401610bfc9061259b565b60405180910390fd5b6000600a60008373ffffffffffffffffffffffffffffffffffffffff1673ffffffffffffffffffffffffffffffffffffffff16815260200190815260200160002060006101000a81548160ff02191690831515021790555050565b60008054906101000a900473ffffffffffffffffffffffffffffffffffffffff1681565b6060600080606060008060006001600254600354600460055460065460075486805480602002602001604051908101604052809291908181526020018280548015610d2457602002820191906000526020600020905b8160009054906101000a900473ffffffffffffffffffffffffffffffffffffffff1673ffffffffffffffffffffffffffffffffffffffff1681526020019060010190808311610cda575b50505050509650838054610d37906129f3565b80601f0160208091040260200160405190810160405280929190818152602001828054610d63906129f3565b8015610db05780601f10610d8557610100808354040283529160200191610db0565b820191906000526020600020905b815481529060010190602001808311610d9357829003601f168201915b50505050509350965096509650965096509650965090919293949596565b600060159054906101000a900460ff16610e1d576040517f08c379a0000000000000000000000000000000000000000000000000000000008152600401610e1490612673565b60405180910390fd5b600a60003373ffffffffffffffffffffffffffffffffffffffff1673ffffffffffffffffffffffffffffffffffffffff16815260200190815260200160002060009054906101000a900460ff16610ea9576040517f08c379a0000000000000000000000000000000000000000000000000000000008152600401610ea0906126df565b60405180910390fd5b6000821180610eb85750600081115b610ef7576040517f08c379a0000000000000000000000000000000000000000000000000000000008152600401610eee906127b7565b60405180910390fd5b81600860003373ffffffffffffffffffffffffffffffffffffffff1673ffffffffffffffffffffffffffffffffffffffff168152602001908152602001600020541015610f79576040517f08c379a0000000000000000000000000000000000000000000000000000000008152600401610f7090612a70565b60405180910390fd5b80600960003373ffffffffffffffffffffffffffffffffffffffff1673ffffffffffffffffffffffffffffffffffffffff168152602001908152602001600020541015610ffb576040517f08c379a0000000000000000000000000000000000000000000000000000000008152600401610ff290612adc565b60405180910390fd5b60008211156111195781600860003373ffffffffffffffffffffffffffffffffffffffff1673ffffffffffffffffffffffffffffffffffffffff16815260200190815260200160002060008282546110539190612afc565b92505081905550600160008154811061106f5761106e6127d7565b5b9060005260206000200160009054906101000a900473ffffffffffffffffffffffffffffffffffffffff1673ffffffffffffffffffffffffffffffffffffffff1663a9059cbb33846040518363ffffffff1660e01b81526004016110d4929190612b30565b6020604051808303816000875af11580156110f3573d6000803e3d6000fd5b505050506040513d601f19601f820116820180604052508101906111179190612869565b505b60008111156112365780600960003373ffffffffffffffffffffffffffffffffffffffff1673ffffffffffffffffffffffffffffffffffffffff16815260200190815260200160002060008282546111719190612afc565b925050819055506001808154811061118c5761118b6127d7565b5b9060005260206000200160009054906101000a900473ffffffffffffffffffffffffffffffffffffffff1673ffffffffffffffffffffffffffffffffffffffff1663a9059cbb33836040518363ffffffff1660e01b81526004016111f1929190612b30565b6020604051808303816000875af1158015611210573d6000803e3d6000fd5b505050506040513d601f19601f820116820180604052508101906112349190612869565b505b6000670de0b6b3a76400006003548361124f91906128f9565b611259919061296a565b64e8d4a510008461126a91906128f9565b61127491906128c5565b9050806005541061129d5780600560008282546112919190612afc565b925050819055506112a6565b60006005819055505b3373ffffffffffffffffffffffffffffffffffffffff167f96cd817c6329656790ef8fba7675405193677d39619571282f5e21f3a98cd05984846040516112ee92919061299b565b60405180910390a2505050565b600060159054906101000a900460ff1661134a576040517f08c379a000000000000000000000000000000000000000000000000000000000815260040161134190612673565b60405180910390fd5b600a60003373ffffffffffffffffffffffffffffffffffffffff1673ffffffffffffffffffffffffffffffffffffffff16815260200190815260200160002060009054906101000a900460ff166113d6576040517f08c379a00000000000000000000000000000000000000000000000000000000081526004016113cd906126df565b60405180910390fd5b600060149054906101000a900460ff16611425576040517f08c379a000000000000000000000000000000000000000000000000000000000815260040161141c9061274b565b60405180910390fd5b60008311611468576040517f08c379a000000000000000000000000000000000000000000000000000000000815260040161145f906127b7565b60405180910390fd5b600160008154811061147d5761147c6127d7565b5b9060005260206000200160009054906101000a900473ffffffffffffffffffffffffffffffffffffffff1673ffffffffffffffffffffffffffffffffffffffff168473ffffffffffffffffffffffffffffffffffffffff16148061154a5750600180815481106114f0576114ef6127d7565b5b9060005260206000200160009054906101000a900473ffffffffffffffffffffffffffffffffffffffff1673ffffffffffffffffffffffffffffffffffffffff168473ffffffffffffffffffffffffffffffffffffffff16145b611589576040517f08c379a000000000000000000000000000000000000000000000000000000000815260040161158090612ba5565b60405180910390fd5b620f424060025411156115d1576040517f08c379a00000000000000000000000000000000000000000000000000000000081526004016115c890612c11565b60405180910390fd5b600060016000815481106115e8576115e76127d7565b5b9060005260206000200160009054906101000a900473ffffffffffffffffffffffffffffffffffffffff1673ffffffffffffffffffffffffffffffffffffffff168573ffffffffffffffffffffffffffffffffffffffff161461168a57600160008154811061165a576116596127d7565b5b9060005260206000200160009054906101000a900473ffffffffffffffffffffffffffffffffffffffff166116ca565b6001808154811061169e5761169d6127d7565b5b9060005260206000200160009054906101000a900473ffffffffffffffffffffffffffffffffffffffff165b905060008573ffffffffffffffffffffffffffffffffffffffff166370a08231306040518263ffffffff1660e01b81526004016117079190612046565b602060405180830381865afa158015611724573d6000803e3d6000fd5b505050506040513d601f19601f820116820180604052508101906117489190612c46565b905060008273ffffffffffffffffffffffffffffffffffffffff166370a08231306040518263ffffffff1660e01b81526004016117859190612046565b602060405180830381865afa1580156117a2573d6000803e3d6000fd5b505050506040513d601f19601f820116820180604052508101906117c69190612c46565b90506000821180156117d85750600081115b611817576040517f08c379a000000000000000000000000000000000000000000000000000000000815260040161180e90612cbf565b60405180910390fd5b6000620f4240600254620f424061182e9190612afc565b8861183991906128f9565b611843919061296a565b90506000818461185391906128c5565b838361185f91906128f9565b611869919061296a565b905060008111801561187a57508281105b6118b9576040517f08c379a00000000000000000000000000000000000000000000000000000000081526004016118b090612d2b565b60405180910390fd5b868110156118fc576040517f08c379a00000000000000000000000000000000000000000000000000000000081526004016118f390612d97565b60405180910390fd5b8873ffffffffffffffffffffffffffffffffffffffff166323b872dd33308b6040518463ffffffff1660e01b815260040161193993929190612806565b6020604051808303816000875af1158015611958573d6000803e3d6000fd5b505050506040513d601f19601f8201168201806040525081019061197c9190612869565b508473ffffffffffffffffffffffffffffffffffffffff1663a9059cbb33836040518363ffffffff1660e01b81526004016119b8929190612b30565b6020604051808303816000875af11580156119d7573d6000803e3d6000fd5b505050506040513d601f19601f820116820180604052508101906119fb9190612869565b508473ffffffffffffffffffffffffffffffffffffffff168973ffffffffffffffffffffffffffffffffffffffff163373ffffffffffffffffffffffffffffffffffffffff167f0874b2d545cb271cdbda4e093020c452328b24af12382ed62c4d00f5c26709db8b858c8c604051611a769493929190612db7565b60405180910390a4505050505050505050565b60018181548110611a9957600080fd5b906000526020600020016000915054906101000a900473ffffffffffffffffffffffffffffffffffffffff1681565b60025481565b600060159054906101000a900460ff1615611b1e576040517f08c379a0000000000000000000000000000000000000000000000000000000008152600401611b1590612e48565b60405180910390fd5b6002855114611b62576040517f08c379a0000000000000000000000000000000000000000000000000000000008152600401611b5990612eb4565b60405180910390fd5b60008411611ba5576040517f08c379a0000000000000000000000000000000000000000000000000000000008152600401611b9c90612f20565b60405180910390fd5b60008311611be8576040517f08c379a0000000000000000000000000000000000000000000000000000000008152600401611bdf90612fb2565b60405180910390fd5b60008282905011611c2e576040517f08c379a0000000000000000000000000000000000000000000000000000000008152600401611c259061301e565b60405180910390fd5b8460019080519060200190611c44929190611dc8565b508360028190555082600381905550818160049182611c649291906131f5565b506001600060156101000a81548160ff0219169083151502179055506000600581905550600060068190555060006007819055507fbcd74a59ef1c06baa0f21d290c50eb6b4e5e897e130b4796cbecad41d25ced228585858585604051611ccf959493929190613301565b60405180910390a15050505050565b60055481565b60048054611cf1906129f3565b80601f0160208091040260200160405190810160405280929190818152602001828054611d1d906129f3565b8015611d6a5780601f10611d3f57610100808354040283529160200191611d6a565b820191906000526020600020905b815481529060010190602001808311611d4d57829003601f168201915b505050505081565b6000600a60008373ffffffffffffffffffffffffffffffffffffffff1673ffffffffffffffffffffffffffffffffffffffff16815260200190815260200160002060009054906101000a900460ff169050919050565b828054828255906000526020600020908101928215611e41579160200282015b82811115611e405782518260006101000a81548173ffffffffffffffffffffffffffffffffffffffff021916908373ffffffffffffffffffffffffffffffffffffffff16021790555091602001919060010190611de8565b5b509050611e4e9190611e52565b5090565b5b80821115611e6b576000816000905550600101611e53565b5090565b6000819050919050565b611e8281611e6f565b82525050565b6000602082019050611e9d6000830184611e79565b92915050565b6000604051905090565b600080fd5b600080fd5b600073ffffffffffffffffffffffffffffffffffffffff82169050919050565b6000611ee282611eb7565b9050919050565b611ef281611ed7565b8114611efd57600080fd5b50565b600081359050611f0f81611ee9565b92915050565b600060208284031215611f2b57611f2a611ead565b5b6000611f3984828501611f00565b91505092915050565b60008115159050919050565b611f5781611f42565b82525050565b6000602082019050611f726000830184611f4e565b92915050565b611f8181611e6f565b8114611f8c57600080fd5b50565b600081359050611f9e81611f78565b92915050565b60008060408385031215611fbb57611fba611ead565b5b6000611fc985828601611f8f565b9250506020611fda85828601611f8f565b9150509250929050565b600080600060608486031215611ffd57611ffc611ead565b5b600061200b86828701611f8f565b935050602061201c86828701611f8f565b925050604061202d86828701611f8f565b9150509250925092565b61204081611ed7565b82525050565b600060208201905061205b6000830184612037565b92915050565b600081519050919050565b600082825260208201905092915050565b6000819050602082019050919050565b61209681611ed7565b82525050565b60006120a8838361208d565b60208301905092915050565b6000602082019050919050565b60006120cc82612061565b6120d6818561206c565b93506120e18361207d565b8060005b838110156121125781516120f9888261209c565b9750612104836120b4565b9250506001810190506120e5565b5085935050505092915050565b600081519050919050565b600082825260208201905092915050565b60005b8381101561215957808201518184015260208101905061213e565b60008484015250505050565b6000601f19601f8301169050919050565b60006121818261211f565b61218b818561212a565b935061219b81856020860161213b565b6121a481612165565b840191505092915050565b600060e08201905081810360008301526121c9818a6120c1565b90506121d86020830189611e79565b6121e56040830188611e79565b81810360608301526121f78187612176565b90506122066080830186611e79565b61221360a0830185611e79565b61222060c0830184611e79565b98975050505050505050565b6000806000806080858703121561224657612245611ead565b5b600061225487828801611f00565b945050602061226587828801611f8f565b935050604061227687828801611f8f565b925050606061228787828801611f8f565b91505092959194509250565b6000602082840312156122a9576122a8611ead565b5b60006122b784828501611f8f565b91505092915050565b600080fd5b7f4e487b7100000000000000000000000000000000000000000000000000000000600052604160045260246000fd5b6122fd82612165565b810181811067ffffffffffffffff8211171561231c5761231b6122c5565b5b80604052505050565b600061232f611ea3565b905061233b82826122f4565b919050565b600067ffffffffffffffff82111561235b5761235a6122c5565b5b602082029050602081019050919050565b600080fd5b600061238461237f84612340565b612325565b905080838252602082019050602084028301858111156123a7576123a661236c565b5b835b818110156123d057806123bc8882611f00565b8452602084019350506020810190506123a9565b5050509392505050565b600082601f8301126123ef576123ee6122c0565b5b81356123ff848260208601612371565b91505092915050565b600080fd5b60008083601f840112612423576124226122c0565b5b8235905067ffffffffffffffff8111156124405761243f612408565b5b60208301915083600182028301111561245c5761245b61236c565b5b9250929050565b60008060008060006080868803121561247f5761247e611ead565b5b600086013567ffffffffffffffff81111561249d5761249c611eb2565b5b6124a9888289016123da565b95505060206124ba88828901611f8f565b94505060406124cb88828901611f8f565b935050606086013567ffffffffffffffff8111156124ec576124eb611eb2565b5b6124f88882890161240d565b92509250509295509295909350565b600060208201905081810360008301526125218184612176565b905092915050565b7f4f6e6c79206f776e65722063616e2063616c6c20746869732066756e6374696f60008201527f6e00000000000000000000000000000000000000000000000000000000000000602082015250565b600061258560218361212a565b915061259082612529565b604082019050919050565b600060208201905081810360008301526125b481612578565b9050919050565b7f496e76616c696420757365722061646472657373000000000000000000000000600082015250565b60006125f160148361212a565b91506125fc826125bb565b602082019050919050565b60006020820190508181036000830152612620816125e4565b9050919050565b7f506f6f6c206e6f7420696e697469616c697a6564000000000000000000000000600082015250565b600061265d60148361212a565b915061266882612627565b602082019050919050565b6000602082019050818103600083015261268c81612650565b9050919050565b7f4e6f7420617574686f72697a6564000000000000000000000000000000000000600082015250565b60006126c9600e8361212a565b91506126d482612693565b602082019050919050565b600060208201905081810360008301526126f8816126bc565b9050919050565b7f506f6f6c206e6f74206163746976650000000000000000000000000000000000600082015250565b6000612735600f8361212a565b9150612740826126ff565b602082019050919050565b6000602082019050818103600083015261276481612728565b9050919050565b7f416d6f756e74206d757374206265203e20300000000000000000000000000000600082015250565b60006127a160128361212a565b91506127ac8261276b565b602082019050919050565b600060208201905081810360008301526127d081612794565b9050919050565b7f4e487b7100000000000000000000000000000000000000000000000000000000600052603260045260246000fd5b600060608201905061281b6000830186612037565b6128286020830185612037565b6128356040830184611e79565b949350505050565b61284681611f42565b811461285157600080fd5b50565b6000815190506128638161283d565b92915050565b60006020828403121561287f5761287e611ead565b5b600061288d84828501612854565b91505092915050565b7f4e487b7100000000000000000000000000000000000000000000000000000000600052601160045260246000fd5b60006128d082611e6f565b91506128db83611e6f565b92508282019050808211156128f3576128f2612896565b5b92915050565b600061290482611e6f565b915061290f83611e6f565b925082820261291d81611e6f565b9150828204841483151761293457612933612896565b5b5092915050565b7f4e487b7100000000000000000000000000000000000000000000000000000000600052601260045260246000fd5b600061297582611e6f565b915061298083611e6f565b9250826129905761298f61293b565b5b828204905092915050565b60006040820190506129b06000830185611e79565b6129bd6020830184611e79565b9392505050565b7f4e487b7100000000000000000000000000000000000000000000000000000000600052602260045260246000fd5b60006002820490506001821680612a0b57607f821691505b602082108103612a1e57612a1d6129c4565b5b50919050565b7f496e73756666696369656e7420555344432062616c616e636500000000000000600082015250565b6000612a5a60198361212a565b9150612a6582612a24565b602082019050919050565b60006020820190508181036000830152612a8981612a4d565b9050919050565b7f496e73756666696369656e74204e46532062616c616e63650000000000000000600082015250565b6000612ac660188361212a565b9150612ad182612a90565b602082019050919050565b60006020820190508181036000830152612af581612ab9565b9050919050565b6000612b0782611e6f565b9150612b1283611e6f565b9250828203905081811115612b2a57612b29612896565b5b92915050565b6000604082019050612b456000830185612037565b612b526020830184611e79565b9392505050565b7f496e76616c696420746f6b656e00000000000000000000000000000000000000600082015250565b6000612b8f600d8361212a565b9150612b9a82612b59565b602082019050919050565b60006020820190508181036000830152612bbe81612b82565b9050919050565b7f46656520746f6f206c6172676500000000000000000000000000000000000000600082015250565b6000612bfb600d8361212a565b9150612c0682612bc5565b602082019050919050565b60006020820190508181036000830152612c2a81612bee565b9050919050565b600081519050612c4081611f78565b92915050565b600060208284031215612c5c57612c5b611ead565b5b6000612c6a84828501612c31565b91505092915050565b7f496e73756666696369656e74206c697175696469747900000000000000000000600082015250565b6000612ca960168361212a565b9150612cb482612c73565b602082019050919050565b60006020820190508181036000830152612cd881612c9c565b9050919050565b7f496e73756666696369656e74206f757470757400000000000000000000000000600082015250565b6000612d1560138361212a565b9150612d2082612cdf565b602082019050919050565b60006020820190508181036000830152612d4481612d08565b9050919050565b7f536c697070616765206578636565646564000000000000000000000000000000600082015250565b6000612d8160118361212a565b9150612d8c82612d4b565b602082019050919050565b60006020820190508181036000830152612db081612d74565b9050919050565b6000608082019050612dcc6000830187611e79565b612dd96020830186611e79565b612de66040830185611e79565b612df36060830184611e79565b95945050505050565b7f506f6f6c20697320616c726561647920696e697469616c697a65640000000000600082015250565b6000612e32601b8361212a565b9150612e3d82612dfc565b602082019050919050565b60006020820190508181036000830152612e6181612e25565b9050919050565b7f45786163746c792074776f206173736574732061726520726571756972656400600082015250565b6000612e9e601f8361212a565b9150612ea982612e68565b602082019050919050565b60006020820190508181036000830152612ecd81612e91565b9050919050565b7f466565206d7573742062652067726561746572207468616e207a65726f000000600082015250565b6000612f0a601d8361212a565b9150612f1582612ed4565b602082019050919050565b60006020820190508181036000830152612f3981612efd565b9050919050565b7f496e697469616c207072696365206d757374206265206772656174657220746860008201527f616e207a65726f00000000000000000000000000000000000000000000000000602082015250565b6000612f9c60278361212a565b9150612fa782612f40565b604082019050919050565b60006020820190508181036000830152612fcb81612f8f565b9050919050565b7f4b65726e656c2074797065206973207265717569726564000000000000000000600082015250565b600061300860178361212a565b915061301382612fd2565b602082019050919050565b6000602082019050818103600083015261303781612ffb565b9050919050565b600082905092915050565b60008190508160005260206000209050919050565b60006020601f8301049050919050565b600082821b905092915050565b6000600883026130ab7fffffffffffffffffffffffffffffffffffffffffffffffffffffffffffffffff8261306e565b6130b5868361306e565b95508019841693508086168417925050509392505050565b6000819050919050565b60006130f26130ed6130e884611e6f565b6130cd565b611e6f565b9050919050565b6000819050919050565b61310c836130d7565b613120613118826130f9565b84845461307b565b825550505050565b600090565b613135613128565b613140818484613103565b505050565b5b818110156131645761315960008261312d565b600181019050613146565b5050565b601f8211156131a95761317a81613049565b6131838461305e565b81016020851015613192578190505b6131a661319e8561305e565b830182613145565b50505b505050565b600082821c905092915050565b60006131cc600019846008026131ae565b1980831691505092915050565b60006131e583836131bb565b9150826002028217905092915050565b6131ff838361303e565b67ffffffffffffffff811115613218576132176122c5565b5b61322282546129f3565b61322d828285613168565b6000601f83116001811461325c576000841561324a578287013590505b61325485826131d9565b8655506132bc565b601f19841661326a86613049565b60005b828110156132925784890135825560018201915060208501945060208101905061326d565b868310156132af57848901356132ab601f8916826131bb565b8355505b6001600288020188555050505b50505050505050565b82818337600083830152505050565b60006132e0838561212a565b93506132ed8385846132c5565b6132f683612165565b840190509392505050565b6000608082019050818103600083015261331b81886120c1565b905061332a6020830187611e79565b6133376040830186611e79565b818103606083015261334a8184866132d4565b9050969550505050505056fea2646970667358221220e48ee20781c38e1433afeefac84838f21743c689f241e74dc93006a07391d6a464736f6c63430008140033a2646970667358221220b301e989cce8a359b7fb838ec82de2baaa2c21ef545865a79c308ff5523df67464736f6c63430008140033",
  "linkReferences": {},
  "deployedLinkReferences": {}
}