{
  "_format": "hh-sol-artifact-1",
  "contractName": "PoolFactory",
  "sourceName": "contracts/PoolFactory.sol",
  "abi": [
    {
      "inputs": [],
      "stateMutability": "nonpayable",
      "type": "constructor"
    },
    {
      "anonymous": false,
      "inputs": [
        {
          "indexed": true,
          "internalType": "address",
          "name": "previousPool",
          "type": "address"
        },
        {
          "indexed": true,
          "internalType": "address",
          "name": "newPool",
          "type": "address"
        }
      ],
      "name": "ActivePoolChanged",
      "type": "event"
    },
    {
      "anonymous": false,
      "inputs": [
        {
          "indexed": true,
          "internalType": "address",
          "name": "poolAddress",
          "type": "address"
        },
        {
          "indexed": false,
          "internalType": "address[]",
          "name": "assets",
          "type": "address[]"
        },
        {
          "indexed": false,
          "internalType": "uint256",
          "name": "fee",
          "type": "uint256"
        },
        {
          "indexed": false,
          "internalType": "uint256",
          "name": "initialPrice",
          "type": "uint256"
        },
        {
          "indexed": false,
          "internalType": "string",
          "name": "kernelType",
          "type": "string"
        }
      ],
      "name": "PoolCreated",
      "type": "event"
    },
    {
      "inputs": [],
      "name": "activePool",
      "outputs": [
        {
          "internalType": "address",
          "name": "",
          "type": "address"
        }
      ],
      "stateMutability": "view",
      "type": "function"
    },
    {
      "inputs": [
        {
          "internalType": "address[]",
          "name": "_assets",
          "type": "address[]"
        },
        {
          "internalType": "uint256",
          "name": "_fee",
          "type": "uint256"
        },
        {
          "internalType": "uint256",
          "name": "_initialPrice",
          "type": "uint256"
        },
        {
          "internalType": "string",
          "name": "_kernelType",
          "type": "string"
        }
      ],
      "name": "createPool",
      "outputs": [],
      "stateMutability": "nonpayable",
      "type": "function"
    },
    {
      "inputs": [],
      "name": "getPools",
      "outputs": [
        {
          "internalType": "address[]",
          "name": "",
          "type": "address[]"
        }
      ],
      "stateMutability": "view",
      "type": "function"
    },
    {
      "inputs": [
        {
          "internalType": "address",
          "name": "",
          "type": "address"
        }
      ],
      "name": "isPool",
      "outputs": [
        {
          "internalType": "bool",
          "name": "",
          "type": "bool"
        }
      ],
      "stateMutability": "view",
      "type": "function"
    },
    {
      "inputs": [],
      "name": "owner",
      "outputs": [
        {
          "internalType": "address",
          "name": "",
          "type": "address"
        }
      ],
      "stateMutability": "view",
      "type": "function"
    },
    {
      "inputs": [
        {
          "internalType": "uint256",
          "name": "",
          "type": "uint256"
        }
      ],
      "name": "pools",
      "outputs": [
        {
          "internalType": "address",
          "name": "",
          "type": "address"
        }
      ],
      "stateMutability": "view",
      "type": "function"
    },
    {
      "inputs": [
        {
          "internalType": "address",
          "name": "_pool",
          "type": "address"
        }
      ],
      "name": "setActivePool",
      "outputs": [],
      "stateMutability": "nonpayable",
      "type": "function"
    },
    {
      "inputs": [
        {
          "internalType": "address",
          "name": "newOwner",
          "type": "address"
        }
      ],
      "name": "transferOwnership",
      "outputs": [],
      "stateMutability": "nonpayable",
      "type": "function"
    }
  ],
  "bytecode": "0x608060405234801561001057600080fd5b50336000806101000a81548173ffffffffffffffffffffffffffffffffffffffff021916908373ffffffffffffffffffffffffffffffffffffffff160217905550614766806100606000396000f3fe60806040523480156200001157600080fd5b5060043610620000945760003560e01c806398c122b1116200006357806398c122b11462000135578063ac4afa381462000155578063f2fde38b146200018b578063f7883a8b14620001ab5762000094565b80635b16ebb71462000099578063673a2a1f14620000cf5780637f7dde4a14620000f15780638da5cb5b1462000113575b600080fd5b620000b76004803603810190620000b19190620009a6565b620001cb565b604051620000c69190620009f5565b60405180910390f35b620000d9620001eb565b604051620000e8919062000ae0565b60405180910390f35b620000fb6200027b565b6040516200010a919062000b15565b60405180910390f35b6200011d620002a1565b6040516200012c919062000b15565b60405180910390f35b6200015360048036038101906200014d919062000d46565b620002c5565b005b6200017360048036038101906200016d919062000dfb565b6200050c565b60405162000182919062000b15565b60405180910390f35b620001a96004803603810190620001a39190620009a6565b6200054c565b005b620001c96004803603810190620001c39190620009a6565b62000692565b005b60036020528060005260406000206000915054906101000a900460ff1681565b606060018054806020026020016040519081016040528092919081815260200182805480156200027157602002820191906000526020600020905b8160009054906101000a900473ffffffffffffffffffffffffffffffffffffffff1673ffffffffffffffffffffffffffffffffffffffff168152602001906001019080831162000226575b5050505050905090565b600260009054906101000a900473ffffffffffffffffffffffffffffffffffffffff1681565b60008054906101000a900473ffffffffffffffffffffffffffffffffffffffff1681565b6000338686868686604051620002db906200091f565b620002ec9695949392919062000e91565b604051809103906000f08015801562000309573d6000803e3d6000fd5b5090506001819080600181540180825580915050600190039060005260206000200160009091909190916101000a81548173ffffffffffffffffffffffffffffffffffffffff021916908373ffffffffffffffffffffffffffffffffffffffff1602179055506001600360008373ffffffffffffffffffffffffffffffffffffffff1673ffffffffffffffffffffffffffffffffffffffff16815260200190815260200160002060006101000a81548160ff0219169083151502179055506000600260009054906101000a900473ffffffffffffffffffffffffffffffffffffffff16905081600260006101000a81548173ffffffffffffffffffffffffffffffffffffffff021916908373ffffffffffffffffffffffffffffffffffffffff160217905550600260009054906101000a900473ffffffffffffffffffffffffffffffffffffffff1673ffffffffffffffffffffffffffffffffffffffff168173ffffffffffffffffffffffffffffffffffffffff167fff74c5c75faa2302724c76e49b3e87d8bc806b4ac8c6bc207652848e7451383260405160405180910390a38173ffffffffffffffffffffffffffffffffffffffff167feb571a396a8b3230817b100d8539b4ead758eace899b6f322d5f2110f6a5aadb8888888888604051620004fb95949392919062000efe565b60405180910390a250505050505050565b600181815481106200051d57600080fd5b906000526020600020016000915054906101000a900473ffffffffffffffffffffffffffffffffffffffff1681565b60008054906101000a900473ffffffffffffffffffffffffffffffffffffffff1673ffffffffffffffffffffffffffffffffffffffff163373ffffffffffffffffffffffffffffffffffffffff1614620005dd576040517f08c379a0000000000000000000000000000000000000000000000000000000008152600401620005d49062000fd1565b60405180910390fd5b600073ffffffffffffffffffffffffffffffffffffffff168173ffffffffffffffffffffffffffffffffffffffff16036200064f576040517f08c379a0000000000000000000000000000000000000000000000000000000008152600401620006469062001043565b60405180910390fd5b806000806101000a81548173ffffffffffffffffffffffffffffffffffffffff021916908373ffffffffffffffffffffffffffffffffffffffff16021790555050565b600360008273ffffffffffffffffffffffffffffffffffffffff1673ffffffffffffffffffffffffffffffffffffffff16815260200190815260200160002060009054906101000a900460ff1662000721576040517f08c379a00000000000000000000000000000000000000000000000000000000081526004016200071890620010b5565b60405180910390fd5b600073ffffffffffffffffffffffffffffffffffffffff16600260009054906101000a900473ffffffffffffffffffffffffffffffffffffffff1673ffffffffffffffffffffffffffffffffffffffff1614620007fd57600260009054906101000a900473ffffffffffffffffffffffffffffffffffffffff1673ffffffffffffffffffffffffffffffffffffffff166351b42b006040518163ffffffff1660e01b8152600401600060405180830381600087803b158015620007e357600080fd5b505af1158015620007f8573d6000803e3d6000fd5b505050505b80600260006101000a81548173ffffffffffffffffffffffffffffffffffffffff021916908373ffffffffffffffffffffffffffffffffffffffff1602179055508073ffffffffffffffffffffffffffffffffffffffff16630f15f4c06040518163ffffffff1660e01b8152600401600060405180830381600087803b1580156200088757600080fd5b505af11580156200089c573d6000803e3d6000fd5b505050508073ffffffffffffffffffffffffffffffffffffffff16600260009054906101000a900473ffffffffffffffffffffffffffffffffffffffff1673ffffffffffffffffffffffffffffffffffffffff167fff74c5c75faa2302724c76e49b3e87d8bc806b4ac8c6bc207652848e7451383260405160405180910390a350565b61365980620010d883390190565b6000604051905090565b600080fd5b600080fd5b600073ffffffffffffffffffffffffffffffffffffffff82169050919050565b60006200096e8262000941565b9050919050565b620009808162000961565b81146200098c57600080fd5b50565b600081359050620009a08162000975565b92915050565b600060208284031215620009bf57620009be62000937565b5b6000620009cf848285016200098f565b91505092915050565b60008115159050919050565b620009ef81620009d8565b82525050565b600060208201905062000a0c6000830184620009e4565b92915050565b600081519050919050565b600082825260208201905092915050565b6000819050602082019050919050565b62000a498162000961565b82525050565b600062000a5d838362000a3e565b60208301905092915050565b6000602082019050919050565b600062000a838262000a12565b62000a8f818562000a1d565b935062000a9c8362000a2e565b8060005b8381101562000ad357815162000ab7888262000a4f565b975062000ac48362000a69565b92505060018101905062000aa0565b5085935050505092915050565b6000602082019050818103600083015262000afc818462000a76565b905092915050565b62000b0f8162000961565b82525050565b600060208201905062000b2c600083018462000b04565b92915050565b600080fd5b6000601f19601f8301169050919050565b7f4e487b7100000000000000000000000000000000000000000000000000000000600052604160045260246000fd5b62000b828262000b37565b810181811067ffffffffffffffff8211171562000ba45762000ba362000b48565b5b80604052505050565b600062000bb96200092d565b905062000bc7828262000b77565b919050565b600067ffffffffffffffff82111562000bea5762000be962000b48565b5b602082029050602081019050919050565b600080fd5b600062000c1762000c118462000bcc565b62000bad565b9050808382526020820190506020840283018581111562000c3d5762000c3c62000bfb565b5b835b8181101562000c6a578062000c5588826200098f565b84526020840193505060208101905062000c3f565b5050509392505050565b600082601f83011262000c8c5762000c8b62000b32565b5b813562000c9e84826020860162000c00565b91505092915050565b6000819050919050565b62000cbc8162000ca7565b811462000cc857600080fd5b50565b60008135905062000cdc8162000cb1565b92915050565b600080fd5b60008083601f84011262000d005762000cff62000b32565b5b8235905067ffffffffffffffff81111562000d205762000d1f62000ce2565b5b60208301915083600182028301111562000d3f5762000d3e62000bfb565b5b9250929050565b60008060008060006080868803121562000d655762000d6462000937565b5b600086013567ffffffffffffffff81111562000d865762000d856200093c565b5b62000d948882890162000c74565b955050602062000da78882890162000ccb565b945050604062000dba8882890162000ccb565b935050606086013567ffffffffffffffff81111562000dde5762000ddd6200093c565b5b62000dec8882890162000ce7565b92509250509295509295909350565b60006020828403121562000e145762000e1362000937565b5b600062000e248482850162000ccb565b91505092915050565b62000e388162000ca7565b82525050565b600082825260208201905092915050565b82818337600083830152505050565b600062000e6c838562000e3e565b935062000e7b83858462000e4f565b62000e868362000b37565b840190509392505050565b600060a08201905062000ea8600083018962000b04565b818103602083015262000ebc818862000a76565b905062000ecd604083018762000e2d565b62000edc606083018662000e2d565b818103608083015262000ef181848662000e5e565b9050979650505050505050565b6000608082019050818103600083015262000f1a818862000a76565b905062000f2b602083018762000e2d565b62000f3a604083018662000e2d565b818103606083015262000f4f81848662000e5e565b90509695505050505050565b7f4f6e6c79206f776e65722063616e2063616c6c20746869732066756e6374696f60008201527f6e00000000000000000000000000000000000000000000000000000000000000602082015250565b600062000fb960218362000e3e565b915062000fc68262000f5b565b604082019050919050565b6000602082019050818103600083015262000fec8162000faa565b9050919050565b7f4e6577206f776e657220697320746865207a65726f2061646472657373000000600082015250565b60006200102b601d8362000e3e565b9150620010388262000ff3565b602082019050919050565b600060208201905081810360008301526200105e816200101c565b9050919050565b7f4e6f74206120706f6f6c00000000000000000000000000000000000000000000600082015250565b60006200109d600a8362000e3e565b9150620010aa8262001065565b602082019050919050565b60006020820190508181036000830152620010d0816200108e565b905091905056fe60806040523480156200001157600080fd5b506040516200365938038062003659833981810160405281019062000037919062000477565b846000806101000a81548173ffffffffffffffffffffffffffffffffffffffff021916908373ffffffffffffffffffffffffffffffffffffffff16021790555083600190805190602001906200008f929190620000bb565b5082600281905550816003819055508060049081620000af91906200077e565b50505050505062000865565b82805482825590600052602060002090810192821562000137579160200282015b82811115620001365782518260006101000a81548173ffffffffffffffffffffffffffffffffffffffff021916908373ffffffffffffffffffffffffffffffffffffffff16021790555091602001919060010190620000dc565b5b5090506200014691906200014a565b5090565b5b80821115620001655760008160009055506001016200014b565b5090565b6000604051905090565b600080fd5b600080fd5b600073ffffffffffffffffffffffffffffffffffffffff82169050919050565b6000620001aa826200017d565b9050919050565b620001bc816200019d565b8114620001c857600080fd5b50565b600081519050620001dc81620001b1565b92915050565b600080fd5b6000601f19601f8301169050919050565b7f4e487b7100000000000000000000000000000000000000000000000000000000600052604160045260246000fd5b6200023282620001e7565b810181811067ffffffffffffffff82111715620002545762000253620001f8565b5b80604052505050565b60006200026962000169565b905062000277828262000227565b919050565b600067ffffffffffffffff8211156200029a5762000299620001f8565b5b602082029050602081019050919050565b600080fd5b6000620002c7620002c1846200027c565b6200025d565b90508083825260208201905060208402830185811115620002ed57620002ec620002ab565b5b835b818110156200031a5780620003058882620001cb565b845260208401935050602081019050620002ef565b5050509392505050565b600082601f8301126200033c576200033b620001e2565b5b81516200034e848260208601620002b0565b91505092915050565b6000819050919050565b6200036c8162000357565b81146200037857600080fd5b50565b6000815190506200038c8162000361565b92915050565b600080fd5b600067ffffffffffffffff821115620003b557620003b4620001f8565b5b620003c082620001e7565b9050602081019050919050565b60005b83811015620003ed578082015181840152602081019050620003d0565b60008484015250505050565b6000620004106200040a8462000397565b6200025d565b9050828152602081018484840111156200042f576200042e62000392565b5b6200043c848285620003cd565b509392505050565b600082601f8301126200045c576200045b620001e2565b5b81516200046e848260208601620003f9565b91505092915050565b600080600080600060a0868803121562000496576200049562000173565b5b6000620004a688828901620001cb565b955050602086015167ffffffffffffffff811115620004ca57620004c962000178565b5b620004d88882890162000324565b9450506040620004eb888289016200037b565b9350506060620004fe888289016200037b565b925050608086015167ffffffffffffffff81111562000522576200052162000178565b5b620005308882890162000444565b9150509295509295909350565b600081519050919050565b7f4e487b7100000000000000000000000000000000000000000000000000000000600052602260045260246000fd5b600060028204905060018216806200059057607f821691505b602082108103620005a657620005a562000548565b5b50919050565b60008190508160005260206000209050919050565b60006020601f8301049050919050565b600082821b905092915050565b600060088302620006107fffffffffffffffffffffffffffffffffffffffffffffffffffffffffffffffff82620005d1565b6200061c8683620005d1565b95508019841693508086168417925050509392505050565b6000819050919050565b60006200065f62000659620006538462000357565b62000634565b62000357565b9050919050565b6000819050919050565b6200067b836200063e565b620006936200068a8262000666565b848454620005de565b825550505050565b600090565b620006aa6200069b565b620006b781848462000670565b505050565b5b81811015620006df57620006d3600082620006a0565b600181019050620006bd565b5050565b601f8211156200072e57620006f881620005ac565b6200070384620005c1565b8101602085101562000713578190505b6200072b6200072285620005c1565b830182620006bc565b50505b505050565b600082821c905092915050565b6000620007536000198460080262000733565b1980831691505092915050565b60006200076e838362000740565b9150826002028217905092915050565b62000789826200053d565b67ffffffffffffffff811115620007a557620007a4620001f8565b5b620007b1825462000577565b620007be828285620006e3565b600060209050601f831160018114620007f65760008415620007e1578287015190505b620007ed858262000760565b8655506200085d565b601f1984166200080686620005ac565b60005b82811015620008305784890151825560018201915060208501945060208101905062000809565b868310156200085057848901516200084c601f89168262000740565b8355505b6001600288020188555050505b505050505050565b612de480620008756000396000f3fe608060405234801561001057600080fd5b506004361061012c5760003560e01c806357ded9c9116100ad578063cf35bdd011610071578063cf35bdd0146102ed578063ddca3f431461031d578063e096e9491461033b578063e5328e0614610357578063e7bf0e00146103755761012c565b806357ded9c9146102555780638da5cb5b14610273578063aca34c1114610291578063b390c0ab146102b5578063c9ec9248146102d15761012c565b806322f3e2d4116100f457806322f3e2d4146101c3578063392e53cd146101e15780633c047e13146101ff57806345d32d1e1461021b57806351b42b001461024b5761012c565b80630f15f4c014610131578063140b9d841461013b57806318cddf03146101595780631b2ef1ca146101895780631d0806ae146101a5575b600080fd5b610139610393565b005b6101436103ff565b60405161015091906119b8565b60405180910390f35b610173600480360381019061016e9190611a45565b610405565b60405161018091906119b8565b60405180910390f35b6101a3600480360381019061019e9190611a9e565b61041d565b005b6101ad6107f0565b6040516101ba91906119b8565b60405180910390f35b6101cb6107f6565b6040516101d89190611af9565b60405180910390f35b6101e9610809565b6040516101f69190611af9565b60405180910390f35b61021960048036038101906102149190611b14565b61081c565b005b61023560048036038101906102309190611a45565b6108c4565b60405161024291906119b8565b60405180910390f35b6102536108dc565b005b61025d6108f8565b60405161026a91906119b8565b60405180910390f35b61027b6108fe565b6040516102889190611b76565b60405180910390f35b610299610922565b6040516102ac9796959493929190611cdf565b60405180910390f35b6102cf60048036038101906102ca9190611a9e565b610a6c565b005b6102eb60048036038101906102e69190611d5c565b610f0d565b005b61030760048036038101906103029190611dc3565b61160f565b6040516103149190611b76565b60405180910390f35b61032561164e565b60405161033291906119b8565b60405180910390f35b61035560048036038101906103509190611f93565b611654565b005b61035f611864565b60405161036c91906119b8565b60405180910390f35b61037d61186a565b60405161038a9190612037565b60405180910390f35b600060159054906101000a900460ff166103e2576040517f08c379a00000000000000000000000000000000000000000000000000000000081526004016103d9906120a5565b60405180910390fd5b6001600060146101000a81548160ff021916908315150217905550565b60065481565b60096020528060005260406000206000915090505481565b600060159054906101000a900460ff1661046c576040517f08c379a0000000000000000000000000000000000000000000000000000000008152600401610463906120a5565b60405180910390fd5b600060149054906101000a900460ff166104bb576040517f08c379a00000000000000000000000000000000000000000000000000000000081526004016104b290612111565b60405180910390fd5b60008211806104ca5750600081115b610509576040517f08c379a00000000000000000000000000000000000000000000000000000000081526004016105009061217d565b60405180910390fd5b60008211156106295760016000815481106105275761052661219d565b5b9060005260206000200160009054906101000a900473ffffffffffffffffffffffffffffffffffffffff1673ffffffffffffffffffffffffffffffffffffffff166323b872dd3330856040518463ffffffff1660e01b815260040161058e939291906121cc565b6020604051808303816000875af11580156105ad573d6000803e3d6000fd5b505050506040513d601f19601f820116820180604052508101906105d1919061222f565b5081600860003373ffffffffffffffffffffffffffffffffffffffff1673ffffffffffffffffffffffffffffffffffffffff1681526020019081526020016000206000828254610621919061228b565b925050819055505b600081111561074857600180815481106106465761064561219d565b5b9060005260206000200160009054906101000a900473ffffffffffffffffffffffffffffffffffffffff1673ffffffffffffffffffffffffffffffffffffffff166323b872dd3330846040518463ffffffff1660e01b81526004016106ad939291906121cc565b6020604051808303816000875af11580156106cc573d6000803e3d6000fd5b505050506040513d601f19601f820116820180604052508101906106f0919061222f565b5080600960003373ffffffffffffffffffffffffffffffffffffffff1673ffffffffffffffffffffffffffffffffffffffff1681526020019081526020016000206000828254610740919061228b565b925050819055505b670de0b6b3a76400006003548261075f91906122bf565b6107699190612330565b64e8d4a510008361077a91906122bf565b610784919061228b565b60056000828254610795919061228b565b925050819055503373ffffffffffffffffffffffffffffffffffffffff167fac1d76749e5447b7b16f5ab61447e1bd502f3bb4807af3b28e620d1700a6ee4583836040516107e4929190612361565b60405180910390a25050565b60035481565b600060149054906101000a900460ff1681565b600060159054906101000a900460ff1681565b60008054906101000a900473ffffffffffffffffffffffffffffffffffffffff1673ffffffffffffffffffffffffffffffffffffffff163373ffffffffffffffffffffffffffffffffffffffff16146108aa576040517f08c379a00000000000000000000000000000000000000000000000000000000081526004016108a1906123fc565b60405180910390fd5b826005819055508160068190555080600781905550505050565b60086020528060005260406000206000915090505481565b60008060146101000a81548160ff021916908315150217905550565b60075481565b60008054906101000a900473ffffffffffffffffffffffffffffffffffffffff1681565b60606000806060600080600060016002546003546004600554600654600754868054806020026020016040519081016040528092919081815260200182805480156109c257602002820191906000526020600020905b8160009054906101000a900473ffffffffffffffffffffffffffffffffffffffff1673ffffffffffffffffffffffffffffffffffffffff1681526020019060010190808311610978575b505050505096508380546109d59061244b565b80601f0160208091040260200160405190810160405280929190818152602001828054610a019061244b565b8015610a4e5780601f10610a2357610100808354040283529160200191610a4e565b820191906000526020600020905b815481529060010190602001808311610a3157829003601f168201915b50505050509350965096509650965096509650965090919293949596565b600060159054906101000a900460ff16610abb576040517f08c379a0000000000000000000000000000000000000000000000000000000008152600401610ab2906120a5565b60405180910390fd5b6000821180610aca5750600081115b610b09576040517f08c379a0000000000000000000000000000000000000000000000000000000008152600401610b009061217d565b60405180910390fd5b81600860003373ffffffffffffffffffffffffffffffffffffffff1673ffffffffffffffffffffffffffffffffffffffff168152602001908152602001600020541015610b8b576040517f08c379a0000000000000000000000000000000000000000000000000000000008152600401610b82906124c8565b60405180910390fd5b80600960003373ffffffffffffffffffffffffffffffffffffffff1673ffffffffffffffffffffffffffffffffffffffff168152602001908152602001600020541015610c0d576040517f08c379a0000000000000000000000000000000000000000000000000000000008152600401610c0490612534565b60405180910390fd5b6000821115610d2b5781600860003373ffffffffffffffffffffffffffffffffffffffff1673ffffffffffffffffffffffffffffffffffffffff1681526020019081526020016000206000828254610c659190612554565b925050819055506001600081548110610c8157610c8061219d565b5b9060005260206000200160009054906101000a900473ffffffffffffffffffffffffffffffffffffffff1673ffffffffffffffffffffffffffffffffffffffff1663a9059cbb33846040518363ffffffff1660e01b8152600401610ce6929190612588565b6020604051808303816000875af1158015610d05573d6000803e3d6000fd5b505050506040513d601f19601f82011682018060405250810190610d29919061222f565b505b6000811115610e485780600960003373ffffffffffffffffffffffffffffffffffffffff1673ffffffffffffffffffffffffffffffffffffffff1681526020019081526020016000206000828254610d839190612554565b9250508190555060018081548110610d9e57610d9d61219d565b5b9060005260206000200160009054906101000a900473ffffffffffffffffffffffffffffffffffffffff1673ffffffffffffffffffffffffffffffffffffffff1663a9059cbb33836040518363ffffffff1660e01b8152600401610e03929190612588565b6020604051808303816000875af1158015610e22573d6000803e3d6000fd5b505050506040513d601f19601f82011682018060405250810190610e46919061222f565b505b6000670de0b6b3a764000060035483610e6191906122bf565b610e6b9190612330565b64e8d4a5100084610e7c91906122bf565b610e86919061228b565b90508060055410610eaf578060056000828254610ea39190612554565b92505081905550610eb8565b60006005819055505b3373ffffffffffffffffffffffffffffffffffffffff167f96cd817c6329656790ef8fba7675405193677d39619571282f5e21f3a98cd0598484604051610f00929190612361565b60405180910390a2505050565b600060159054906101000a900460ff16610f5c576040517f08c379a0000000000000000000000000000000000000000000000000000000008152600401610f53906120a5565b60405180910390fd5b600060149054906101000a900460ff16610fab576040517f08c379a0000000000000000000000000000000000000000000000000000000008152600401610fa290612111565b60405180910390fd5b60008311610fee576040517f08c379a0000000000000000000000000000000000000000000000000000000008152600401610fe59061217d565b60405180910390fd5b60016000815481106110035761100261219d565b5b9060005260206000200160009054906101000a900473ffffffffffffffffffffffffffffffffffffffff1673ffffffffffffffffffffffffffffffffffffffff168473ffffffffffffffffffffffffffffffffffffffff1614806110d05750600180815481106110765761107561219d565b5b9060005260206000200160009054906101000a900473ffffffffffffffffffffffffffffffffffffffff1673ffffffffffffffffffffffffffffffffffffffff168473ffffffffffffffffffffffffffffffffffffffff16145b61110f576040517f08c379a0000000000000000000000000000000000000000000000000000000008152600401611106906125fd565b60405180910390fd5b620f42406002541115611157576040517f08c379a000000000000000000000000000000000000000000000000000000000815260040161114e90612669565b60405180910390fd5b6000600160008154811061116e5761116d61219d565b5b9060005260206000200160009054906101000a900473ffffffffffffffffffffffffffffffffffffffff1673ffffffffffffffffffffffffffffffffffffffff168573ffffffffffffffffffffffffffffffffffffffff16146112105760016000815481106111e0576111df61219d565b5b9060005260206000200160009054906101000a900473ffffffffffffffffffffffffffffffffffffffff16611250565b600180815481106112245761122361219d565b5b9060005260206000200160009054906101000a900473ffffffffffffffffffffffffffffffffffffffff165b905060008573ffffffffffffffffffffffffffffffffffffffff166370a08231306040518263ffffffff1660e01b815260040161128d9190611b76565b602060405180830381865afa1580156112aa573d6000803e3d6000fd5b505050506040513d601f19601f820116820180604052508101906112ce919061269e565b905060008273ffffffffffffffffffffffffffffffffffffffff166370a08231306040518263ffffffff1660e01b815260040161130b9190611b76565b602060405180830381865afa158015611328573d6000803e3d6000fd5b505050506040513d601f19601f8201168201806040525081019061134c919061269e565b905060008211801561135e5750600081115b61139d576040517f08c379a000000000000000000000000000000000000000000000000000000000815260040161139490612717565b60405180910390fd5b6000620f4240600254620f42406113b49190612554565b886113bf91906122bf565b6113c99190612330565b9050600081846113d9919061228b565b83836113e591906122bf565b6113ef9190612330565b905060008111801561140057508281105b61143f576040517f08c379a000000000000000000000000000000000000000000000000000000000815260040161143690612783565b60405180910390fd5b86811015611482576040517f08c379a0000000000000000000000000000000000000000000000000000000008152600401611479906127ef565b60405180910390fd5b8873ffffffffffffffffffffffffffffffffffffffff166323b872dd33308b6040518463ffffffff1660e01b81526004016114bf939291906121cc565b6020604051808303816000875af11580156114de573d6000803e3d6000fd5b505050506040513d601f19601f82011682018060405250810190611502919061222f565b508473ffffffffffffffffffffffffffffffffffffffff1663a9059cbb33836040518363ffffffff1660e01b815260040161153e929190612588565b6020604051808303816000875af115801561155d573d6000803e3d6000fd5b505050506040513d601f19601f82011682018060405250810190611581919061222f565b508473ffffffffffffffffffffffffffffffffffffffff168973ffffffffffffffffffffffffffffffffffffffff163373ffffffffffffffffffffffffffffffffffffffff167f0874b2d545cb271cdbda4e093020c452328b24af12382ed62c4d00f5c26709db8b858c8c6040516115fc949392919061280f565b60405180910390a4505050505050505050565b6001818154811061161f57600080fd5b906000526020600020016000915054906101000a900473ffffffffffffffffffffffffffffffffffffffff1681565b60025481565b600060159054906101000a900460ff16156116a4576040517f08c379a000000000000000000000000000000000000000000000000000000000815260040161169b906128a0565b60405180910390fd5b60028551146116e8576040517f08c379a00000000000000000000000000000000000000000000000000000000081526004016116df9061290c565b60405180910390fd5b6000841161172b576040517f08c379a000000000000000000000000000000000000000000000000000000000815260040161172290612978565b60405180910390fd5b6000831161176e576040517f08c379a000000000000000000000000000000000000000000000000000000000815260040161176590612a0a565b60405180910390fd5b600082829050116117b4576040517f08c379a00000000000000000000000000000000000000000000000000000000081526004016117ab90612a76565b60405180910390fd5b84600190805190602001906117ca9291906118f8565b5083600281905550826003819055508181600491826117ea929190612c4d565b506001600060156101000a81548160ff0219169083151502179055506000600581905550600060068190555060006007819055507fbcd74a59ef1c06baa0f21d290c50eb6b4e5e897e130b4796cbecad41d25ced228585858585604051611855959493929190612d59565b60405180910390a15050505050565b60055481565b600480546118779061244b565b80601f01602080910402602001604051908101604052809291908181526020018280546118a39061244b565b80156118f05780601f106118c5576101008083540402835291602001916118f0565b820191906000526020600020905b8154815290600101906020018083116118d357829003601f168201915b505050505081565b828054828255906000526020600020908101928215611971579160200282015b828111156119705782518260006101000a81548173ffffffffffffffffffffffffffffffffffffffff021916908373ffffffffffffffffffffffffffffffffffffffff16021790555091602001919060010190611918565b5b50905061197e9190611982565b5090565b5b8082111561199b576000816000905550600101611983565b5090565b6000819050919050565b6119b28161199f565b82525050565b60006020820190506119cd60008301846119a9565b92915050565b6000604051905090565b600080fd5b600080fd5b600073ffffffffffffffffffffffffffffffffffffffff82169050919050565b6000611a12826119e7565b9050919050565b611a2281611a07565b8114611a2d57600080fd5b50565b600081359050611a3f81611a19565b92915050565b600060208284031215611a5b57611a5a6119dd565b5b6000611a6984828501611a30565b91505092915050565b611a7b8161199f565b8114611a8657600080fd5b50565b600081359050611a9881611a72565b92915050565b60008060408385031215611ab557611ab46119dd565b5b6000611ac385828601611a89565b9250506020611ad485828601611a89565b9150509250929050565b60008115159050919050565b611af381611ade565b82525050565b6000602082019050611b0e6000830184611aea565b92915050565b600080600060608486031215611b2d57611b2c6119dd565b5b6000611b3b86828701611a89565b9350506020611b4c86828701611a89565b9250506040611b5d86828701611a89565b9150509250925092565b611b7081611a07565b82525050565b6000602082019050611b8b6000830184611b67565b92915050565b600081519050919050565b600082825260208201905092915050565b6000819050602082019050919050565b611bc681611a07565b82525050565b6000611bd88383611bbd565b60208301905092915050565b6000602082019050919050565b6000611bfc82611b91565b611c068185611b9c565b9350611c1183611bad565b8060005b83811015611c42578151611c298882611bcc565b9750611c3483611be4565b925050600181019050611c15565b5085935050505092915050565b600081519050919050565b600082825260208201905092915050565b60005b83811015611c89578082015181840152602081019050611c6e565b60008484015250505050565b6000601f19601f8301169050919050565b6000611cb182611c4f565b611cbb8185611c5a565b9350611ccb818560208601611c6b565b611cd481611c95565b840191505092915050565b600060e0820190508181036000830152611cf9818a611bf1565b9050611d0860208301896119a9565b611d1560408301886119a9565b8181036060830152611d278187611ca6565b9050611d3660808301866119a9565b611d4360a08301856119a9565b611d5060c08301846119a9565b98975050505050505050565b60008060008060808587031215611d7657611d756119dd565b5b6000611d8487828801611a30565b9450506020611d9587828801611a89565b9350506040611da687828801611a89565b9250506060611db787828801611a89565b91505092959194509250565b600060208284031215611dd957611dd86119dd565b5b6000611de784828501611a89565b91505092915050565b600080fd5b7f4e487b7100000000000000000000000000000000000000000000000000000000600052604160045260246000fd5b611e2d82611c95565b810181811067ffffffffffffffff82111715611e4c57611e4b611df5565b5b80604052505050565b6000611e5f6119d3565b9050611e6b8282611e24565b919050565b600067ffffffffffffffff821115611e8b57611e8a611df5565b5b602082029050602081019050919050565b600080fd5b6000611eb4611eaf84611e70565b611e55565b90508083825260208201905060208402830185811115611ed757611ed6611e9c565b5b835b81811015611f005780611eec8882611a30565b845260208401935050602081019050611ed9565b5050509392505050565b600082601f830112611f1f57611f1e611df0565b5b8135611f2f848260208601611ea1565b91505092915050565b600080fd5b60008083601f840112611f5357611f52611df0565b5b8235905067ffffffffffffffff811115611f7057611f6f611f38565b5b602083019150836001820283011115611f8c57611f8b611e9c565b5b9250929050565b600080600080600060808688031215611faf57611fae6119dd565b5b600086013567ffffffffffffffff811115611fcd57611fcc6119e2565b5b611fd988828901611f0a565b9550506020611fea88828901611a89565b9450506040611ffb88828901611a89565b935050606086013567ffffffffffffffff81111561201c5761201b6119e2565b5b61202888828901611f3d565b92509250509295509295909350565b600060208201905081810360008301526120518184611ca6565b905092915050565b7f506f6f6c206e6f7420696e697469616c697a6564000000000000000000000000600082015250565b600061208f601483611c5a565b915061209a82612059565b602082019050919050565b600060208201905081810360008301526120be81612082565b9050919050565b7f506f6f6c206e6f74206163746976650000000000000000000000000000000000600082015250565b60006120fb600f83611c5a565b9150612106826120c5565b602082019050919050565b6000602082019050818103600083015261212a816120ee565b9050919050565b7f416d6f756e74206d757374206265203e20300000000000000000000000000000600082015250565b6000612167601283611c5a565b915061217282612131565b602082019050919050565b600060208201905081810360008301526121968161215a565b9050919050565b7f4e487b7100000000000000000000000000000000000000000000000000000000600052603260045260246000fd5b60006060820190506121e16000830186611b67565b6121ee6020830185611b67565b6121fb60408301846119a9565b949350505050565b61220c81611ade565b811461221757600080fd5b50565b60008151905061222981612203565b92915050565b600060208284031215612245576122446119dd565b5b60006122538482850161221a565b91505092915050565b7f4e487b7100000000000000000000000000000000000000000000000000000000600052601160045260246000fd5b60006122968261199f565b91506122a18361199f565b92508282019050808211156122b9576122b861225c565b5b92915050565b60006122ca8261199f565b91506122d58361199f565b92508282026122e38161199f565b915082820484148315176122fa576122f961225c565b5b5092915050565b7f4e487b7100000000000000000000000000000000000000000000000000000000600052601260045260246000fd5b600061233b8261199f565b91506123468361199f565b92508261235657612355612301565b5b828204905092915050565b600060408201905061237660008301856119a9565b61238360208301846119a9565b9392505050565b7f4f6e6c79206f776e65722063616e2063616c6c20746869732066756e6374696f60008201527f6e00000000000000000000000000000000000000000000000000000000000000602082015250565b60006123e6602183611c5a565b91506123f18261238a565b604082019050919050565b60006020820190508181036000830152612415816123d9565b9050919050565b7f4e487b7100000000000000000000000000000000000000000000000000000000600052602260045260246000fd5b6000600282049050600182168061246357607f821691505b6020821081036124765761247561241c565b5b50919050565b7f496e73756666696369656e7420555344432062616c616e636500000000000000600082015250565b60006124b2601983611c5a565b91506124bd8261247c565b602082019050919050565b600060208201905081810360008301526124e1816124a5565b9050919050565b7f496e73756666696369656e74204e46532062616c616e63650000000000000000600082015250565b600061251e601883611c5a565b9150612529826124e8565b602082019050919050565b6000602082019050818103600083015261254d81612511565b9050919050565b600061255f8261199f565b915061256a8361199f565b92508282039050818111156125825761258161225c565b5b92915050565b600060408201905061259d6000830185611b67565b6125aa60208301846119a9565b9392505050565b7f496e76616c696420746f6b656e00000000000000000000000000000000000000600082015250565b60006125e7600d83611c5a565b91506125f2826125b1565b602082019050919050565b60006020820190508181036000830152612616816125da565b9050919050565b7f46656520746f6f206c6172676500000000000000000000000000000000000000600082015250565b6000612653600d83611c5a565b915061265e8261261d565b602082019050919050565b6000602082019050818103600083015261268281612646565b9050919050565b60008151905061269881611a72565b92915050565b6000602082840312156126b4576126b36119dd565b5b60006126c284828501612689565b91505092915050565b7f496e73756666696369656e74206c697175696469747900000000000000000000600082015250565b6000612701601683611c5a565b915061270c826126cb565b602082019050919050565b60006020820190508181036000830152612730816126f4565b9050919050565b7f496e73756666696369656e74206f757470757400000000000000000000000000600082015250565b600061276d601383611c5a565b915061277882612737565b602082019050919050565b6000602082019050818103600083015261279c81612760565b9050919050565b7f536c697070616765206578636565646564000000000000000000000000000000600082015250565b60006127d9601183611c5a565b91506127e4826127a3565b602082019050919050565b60006020820190508181036000830152612808816127cc565b9050919050565b600060808201905061282460008301876119a9565b61283160208301866119a9565b61283e60408301856119a9565b61284b60608301846119a9565b95945050505050565b7f506f6f6c20697320616c726561647920696e697469616c697a65640000000000600082015250565b600061288a601b83611c5a565b915061289582612854565b602082019050919050565b600060208201905081810360008301526128b98161287d565b9050919050565b7f45786163746c792074776f206173736574732061726520726571756972656400600082015250565b60006128f6601f83611c5a565b9150612901826128c0565b602082019050919050565b60006020820190508181036000830152612925816128e9565b9050919050565b7f466565206d7573742062652067726561746572207468616e207a65726f000000600082015250565b6000612962601d83611c5a565b915061296d8261292c565b602082019050919050565b6000602082019050818103600083015261299181612955565b9050919050565b7f496e697469616c207072696365206d757374206265206772656174657220746860008201527f616e207a65726f00000000000000000000000000000000000000000000000000602082015250565b60006129f4602783611c5a565b91506129ff82612998565b604082019050919050565b60006020820190508181036000830152612a23816129e7565b9050919050565b7f4b65726e656c2074797065206973207265717569726564000000000000000000600082015250565b6000612a60601783611c5a565b9150612a6b82612a2a565b602082019050919050565b60006020820190508181036000830152612a8f81612a53565b9050919050565b600082905092915050565b60008190508160005260206000209050919050565b60006020601f8301049050919050565b600082821b905092915050565b600060088302612b037fffffffffffffffffffffffffffffffffffffffffffffffffffffffffffffffff82612ac6565b612b0d8683612ac6565b95508019841693508086168417925050509392505050565b6000819050919050565b6000612b4a612b45612b408461199f565b612b25565b61199f565b9050919050565b6000819050919050565b612b6483612b2f565b612b78612b7082612b51565b848454612ad3565b825550505050565b600090565b612b8d612b80565b612b98818484612b5b565b505050565b5b81811015612bbc57612bb1600082612b85565b600181019050612b9e565b5050565b601f821115612c0157612bd281612aa1565b612bdb84612ab6565b81016020851015612bea578190505b612bfe612bf685612ab6565b830182612b9d565b50505b505050565b600082821c905092915050565b6000612c2460001984600802612c06565b1980831691505092915050565b6000612c3d8383612c13565b9150826002028217905092915050565b612c578383612a96565b67ffffffffffffffff811115612c7057612c6f611df5565b5b612c7a825461244b565b612c85828285612bc0565b6000601f831160018114612cb45760008415612ca2578287013590505b612cac8582612c31565b865550612d14565b601f198416612cc286612aa1565b60005b82811015612cea57848901358255600182019150602085019450602081019050612cc5565b86831015612d075784890135612d03601f891682612c13565b8355505b6001600288020188555050505b50505050505050565b82818337600083830152505050565b6000612d388385611c5a565b9350612d45838584612d1d565b612d4e83611c95565b840190509392505050565b60006080820190508181036000830152612d738188611bf1565b9050612d8260208301876119a9565b612d8f60408301866119a9565b8181036060830152612da2818486612d2c565b9050969550505050505056fea26469706673582212206639d64e23fb2fbbc0a79bb2f64a08abd9af6695a1e9b9e2fb72c15c605c818164736f6c63430008140033a2646970667358221220503e5c1d2e0923e349bdbb011b215497b1441f2d4018ed17c0277b49e0a4e2a264736f6c63430008140033",
  "linkReferences": {},
  "deployedLinkReferences": {}
}