{
  "_format": "hh-sol-artifact-1",
  "contractName": "Executor",
  "sourceName": "contracts/BotExecutor.sol",
  "abi": [
    {
      "inputs": [],
      "stateMutability": "nonpayable",
      "type": "constructor"
    },
    {
      "inputs": [
        {
          "internalType": "address",
          "name": "target",
          "type": "address"
        },
        {
          "internalType": "uint256",
          "name": "value",
          "type": "uint256"
        },
        {
          "internalType": "bytes",
          "name": "data",
          "type": "bytes"
        }
      ],
      "name": "executeAction",
      "outputs": [
        {
          "internalType": "bytes",
          "name": "",
          "type": "bytes"
        }
      ],
      "stateMutability": "nonpayable",
      "type": "function"
    },
    {
      "inputs": [
        {
          "internalType": "address[]",
          "name": "targets",
          "type": "address[]"
        },
        {
          "internalType": "uint256[]",
          "name": "values",
          "type": "uint256[]"
        },
        {
          "internalType": "bytes[]",
          "name": "data",
          "type": "bytes[]"
        }
      ],
      "name": "executeBatch",
      "outputs": [],
      "stateMutability": "nonpayable",
      "type": "function"
    },
    {
      "inputs": [],
      "name": "owner",
      "outputs": [
        {
          "internalType": "address",
          "name": "",
          "type": "address"
        }
      ],
      "stateMutability": "view",
      "type": "function"
    },
    {
      "inputs": [
        {
          "internalType": "address",
          "name": "to",
          "type": "address"
        }
      ],
      "name": "withdrawETH",
      "outputs": [],
      "stateMutability": "nonpayable",
      "type": "function"
    },
    {
      "inputs": [
        {
          "internalType": "address",
          "name": "token",
          "type": "address"
        },
        {
          "internalType": "address",
          "name": "to",
          "type": "address"
        }
      ],
      "name": "withdrawToken",
      "outputs": [],
      "stateMutability": "nonpayable",
      "type": "function"
    },
    {
      "stateMutability": "payable",
      "type": "receive"
    }
  ],
  "bytecode": "0x608060405234801561001057600080fd5b50336000806101000a81548173ffffffffffffffffffffffffffffffffffffffff021916908373ffffffffffffffffffffffffffffffffffffffff160217905550611324806100606000396000f3fe60806040526004361061004e5760003560e01c80633aeac4e11461005a57806347e1da2a14610083578063690d8320146100ac5780636cd7c649146100d55780638da5cb5b1461011257610055565b3661005557005b600080fd5b34801561006657600080fd5b50610081600480360381019061007c91906109a9565b61013d565b005b34801561008f57600080fd5b506100aa60048036038101906100a59190610afa565b610462565b005b3480156100b857600080fd5b506100d360048036038101906100ce9190610bae565b610687565b005b3480156100e157600080fd5b506100fc60048036038101906100f79190610c67565b61075f565b6040516101099190610d6b565b60405180910390f35b34801561011e57600080fd5b5061012761091d565b6040516101349190610d9c565b60405180910390f35b60008054906101000a900473ffffffffffffffffffffffffffffffffffffffff1673ffffffffffffffffffffffffffffffffffffffff163373ffffffffffffffffffffffffffffffffffffffff16146101cb576040517f08c379a00000000000000000000000000000000000000000000000000000000081526004016101c290610e14565b60405180910390fd5b6000808373ffffffffffffffffffffffffffffffffffffffff16306040516024016101f69190610d9c565b6040516020818303038152906040527f70a08231000000000000000000000000000000000000000000000000000000007bffffffffffffffffffffffffffffffffffffffffffffffffffffffff19166020820180517bffffffffffffffffffffffffffffffffffffffffffffffffffffffff83818316178352505050506040516102809190610e70565b6000604051808303816000865af19150503d80600081146102bd576040519150601f19603f3d011682016040523d82523d6000602084013e6102c2565b606091505b509150915081610307576040517f08c379a00000000000000000000000000000000000000000000000000000000081526004016102fe90610ed3565b60405180910390fd5b60008180602001905181019061031d9190610f08565b90508473ffffffffffffffffffffffffffffffffffffffff168482604051602401610349929190610f44565b6040516020818303038152906040527fa9059cbb000000000000000000000000000000000000000000000000000000007bffffffffffffffffffffffffffffffffffffffffffffffffffffffff19166020820180517bffffffffffffffffffffffffffffffffffffffffffffffffffffffff83818316178352505050506040516103d39190610e70565b6000604051808303816000865af19150503d8060008114610410576040519150601f19603f3d011682016040523d82523d6000602084013e610415565b606091505b5050809350508261045b576040517f08c379a000000000000000000000000000000000000000000000000000000000815260040161045290610fb9565b60405180910390fd5b5050505050565b60008054906101000a900473ffffffffffffffffffffffffffffffffffffffff1673ffffffffffffffffffffffffffffffffffffffff163373ffffffffffffffffffffffffffffffffffffffff16146104f0576040517f08c379a00000000000000000000000000000000000000000000000000000000081526004016104e790610e14565b60405180910390fd5b818190508686905014801561050a57508383905082829050145b610549576040517f08c379a000000000000000000000000000000000000000000000000000000000815260040161054090611025565b60405180910390fd5b60005b8686905081101561067e57600087878381811061056c5761056b611045565b5b90506020020160208101906105819190610bae565b73ffffffffffffffffffffffffffffffffffffffff168686848181106105aa576105a9611045565b5b905060200201358585858181106105c4576105c3611045565b5b90506020028101906105d69190611083565b6040516105e492919061111a565b60006040518083038185875af1925050503d8060008114610621576040519150601f19603f3d011682016040523d82523d6000602084013e610626565b606091505b505090508061066a576040517f08c379a00000000000000000000000000000000000000000000000000000000081526004016106619061117f565b60405180910390fd5b508080610676906111ce565b91505061054c565b50505050505050565b60008054906101000a900473ffffffffffffffffffffffffffffffffffffffff1673ffffffffffffffffffffffffffffffffffffffff163373ffffffffffffffffffffffffffffffffffffffff1614610715576040517f08c379a000000000000000000000000000000000000000000000000000000000815260040161070c90610e14565b60405180910390fd5b8073ffffffffffffffffffffffffffffffffffffffff166108fc479081150290604051600060405180830381858888f1935050505015801561075b573d6000803e3d6000fd5b5050565b606060008054906101000a900473ffffffffffffffffffffffffffffffffffffffff1673ffffffffffffffffffffffffffffffffffffffff163373ffffffffffffffffffffffffffffffffffffffff16146107ef576040517f08c379a00000000000000000000000000000000000000000000000000000000081526004016107e690610e14565b60405180910390fd5b600073ffffffffffffffffffffffffffffffffffffffff168573ffffffffffffffffffffffffffffffffffffffff160361085e576040517f08c379a000000000000000000000000000000000000000000000000000000000815260040161085590611262565b60405180910390fd5b6000808673ffffffffffffffffffffffffffffffffffffffff1686868660405161088992919061111a565b60006040518083038185875af1925050503d80600081146108c6576040519150601f19603f3d011682016040523d82523d6000602084013e6108cb565b606091505b509150915081610910576040517f08c379a0000000000000000000000000000000000000000000000000000000008152600401610907906112ce565b60405180910390fd5b8092505050949350505050565b60008054906101000a900473ffffffffffffffffffffffffffffffffffffffff1681565b600080fd5b600080fd5b600073ffffffffffffffffffffffffffffffffffffffff82169050919050565b60006109768261094b565b9050919050565b6109868161096b565b811461099157600080fd5b50565b6000813590506109a38161097d565b92915050565b600080604083850312156109c0576109bf610941565b5b60006109ce85828601610994565b92505060206109df85828601610994565b9150509250929050565b600080fd5b600080fd5b600080fd5b60008083601f840112610a0e57610a0d6109e9565b5b8235905067ffffffffffffffff811115610a2b57610a2a6109ee565b5b602083019150836020820283011115610a4757610a466109f3565b5b9250929050565b60008083601f840112610a6457610a636109e9565b5b8235905067ffffffffffffffff811115610a8157610a806109ee565b5b602083019150836020820283011115610a9d57610a9c6109f3565b5b9250929050565b60008083601f840112610aba57610ab96109e9565b5b8235905067ffffffffffffffff811115610ad757610ad66109ee565b5b602083019150836020820283011115610af357610af26109f3565b5b9250929050565b60008060008060008060608789031215610b1757610b16610941565b5b600087013567ffffffffffffffff811115610b3557610b34610946565b5b610b4189828a016109f8565b9650965050602087013567ffffffffffffffff811115610b6457610b63610946565b5b610b7089828a01610a4e565b9450945050604087013567ffffffffffffffff811115610b9357610b92610946565b5b610b9f89828a01610aa4565b92509250509295509295509295565b600060208284031215610bc457610bc3610941565b5b6000610bd284828501610994565b91505092915050565b6000819050919050565b610bee81610bdb565b8114610bf957600080fd5b50565b600081359050610c0b81610be5565b92915050565b60008083601f840112610c2757610c266109e9565b5b8235905067ffffffffffffffff811115610c4457610c436109ee565b5b602083019150836001820283011115610c6057610c5f6109f3565b5b9250929050565b60008060008060608587031215610c8157610c80610941565b5b6000610c8f87828801610994565b9450506020610ca087828801610bfc565b935050604085013567ffffffffffffffff811115610cc157610cc0610946565b5b610ccd87828801610c11565b925092505092959194509250565b600081519050919050565b600082825260208201905092915050565b60005b83811015610d15578082015181840152602081019050610cfa565b60008484015250505050565b6000601f19601f8301169050919050565b6000610d3d82610cdb565b610d478185610ce6565b9350610d57818560208601610cf7565b610d6081610d21565b840191505092915050565b60006020820190508181036000830152610d858184610d32565b905092915050565b610d968161096b565b82525050565b6000602082019050610db16000830184610d8d565b92915050565b600082825260208201905092915050565b7f4e6f74206f776e65720000000000000000000000000000000000000000000000600082015250565b6000610dfe600983610db7565b9150610e0982610dc8565b602082019050919050565b60006020820190508181036000830152610e2d81610df1565b9050919050565b600081905092915050565b6000610e4a82610cdb565b610e548185610e34565b9350610e64818560208601610cf7565b80840191505092915050565b6000610e7c8284610e3f565b915081905092915050565b7f62616c616e63654f66206661696c656400000000000000000000000000000000600082015250565b6000610ebd601083610db7565b9150610ec882610e87565b602082019050919050565b60006020820190508181036000830152610eec81610eb0565b9050919050565b600081519050610f0281610be5565b92915050565b600060208284031215610f1e57610f1d610941565b5b6000610f2c84828501610ef3565b91505092915050565b610f3e81610bdb565b82525050565b6000604082019050610f596000830185610d8d565b610f666020830184610f35565b9392505050565b7f7472616e73666572206661696c65640000000000000000000000000000000000600082015250565b6000610fa3600f83610db7565b9150610fae82610f6d565b602082019050919050565b60006020820190508181036000830152610fd281610f96565b9050919050565b7f4c656e677468206d69736d617463680000000000000000000000000000000000600082015250565b600061100f600f83610db7565b915061101a82610fd9565b602082019050919050565b6000602082019050818103600083015261103e81611002565b9050919050565b7f4e487b7100000000000000000000000000000000000000000000000000000000600052603260045260246000fd5b600080fd5b600080fd5b600080fd5b600080833560016020038436030381126110a05761109f611074565b5b80840192508235915067ffffffffffffffff8211156110c2576110c1611079565b5b6020830192506001820236038313156110de576110dd61107e565b5b509250929050565b82818337600083830152505050565b60006111018385610e34565b935061110e8385846110e6565b82840190509392505050565b60006111278284866110f5565b91508190509392505050565b7f42617463682073746570206661696c6564000000000000000000000000000000600082015250565b6000611169601183610db7565b915061117482611133565b602082019050919050565b600060208201905081810360008301526111988161115c565b9050919050565b7f4e487b7100000000000000000000000000000000000000000000000000000000600052601160045260246000fd5b60006111d982610bdb565b91507fffffffffffffffffffffffffffffffffffffffffffffffffffffffffffffffff820361120b5761120a61119f565b5b600182019050919050565b7f496e76616c696420746172676574000000000000000000000000000000000000600082015250565b600061124c600e83610db7565b915061125782611216565b602082019050919050565b6000602082019050818103600083015261127b8161123f565b9050919050565b7f457865637574696f6e206661696c656400000000000000000000000000000000600082015250565b60006112b8601083610db7565b91506112c382611282565b602082019050919050565b600060208201905081810360008301526112e7816112ab565b905091905056fea2646970667358221220ee9fc43912e92b6a094a2df124f564d9b353d395364397c8ea87df86748b932964736f6c63430008140033",
  "linkReferences": {},
  "deployedLinkReferences": {}
}